:040000006F30C01984
:1000040000000000000000008405000086050000D8
:10001400000000009A310000000000000000000011
:100024009A3100009A310000000000000000000036
:100034009A310000000000009A3100000000000026
:100044009A3100009A3100009A310000F02E00002D
:100054009A3100009A3100009A3100009A31000070
:100064009A3100009A310000000600009A31000025
:100074009A3100009A3100009A3100009A31000050
:100084009A3100009A3100009A3100009A31000040
:100094009A3100009A3100009A3100009A31000030
:1000A4009A310000280C00009A3100009A310000B7
:1000B4009A3100009A3100009A3100009A31000010
:1000C4009A3100009A3100009A3100009A31000000
:1000D4009A310000CA4100009A3100009A310000B0
:1000E4009A3100009A3100009A3100009A310000E0
:1000F4009A3100009A3100009A3100009A310000D0
:10010400000000009A3100009A3100009A3100008A
:10011400640400009A3100009A3100009A31000012
:100124009A3100009A3100009A3100009A3100009F
:100134009A3100009A3100009A3100009A3100008F
:100144009A3100009A3100009A3100009A3100007F
:100154009A3100009A3100009A3100009A3100006F
:100164009A3100009A3100009A3100009A3100005F
:100174009A3100009A3100009A3100009A3100004F
:100184009A3100009A3100009A3100009A3100003F
:100194009A3100009A3100009A3100009A3100002F
:1001A400000000000000000000000000000000004B
:0C01B4000000000000000000000000003F
:1001C000397101436EC619A0397141536AC866CAB4
:1001D00062CC5ECE19A0397101535AD056D252D496
:1001E0004ED64AD826DA22DC06DE3301614082820E
:1001F00041114AC026C222C406C68282B24D4101C4
:10020000024D924C224CB24B4101024B924A224A7F
:10021000B2494101024992442244B24041018280E4
:100220002A8309CA83830500230073007D16050312
:1002300085056DFA828015C22A8385466367B500FD
:10024000FD561307F6FF3A93BA9583830500230002
:1002500073007D163693B6956DFA82802A8311C697
:100260002300B3007D16050365FE8280EFF25FF880
:1002700079712A8485453705080002CA02CC02CE6E
:1002800002D002D202D402D602C602C8EF30102039
:1002900085454145EF30B01D93070040FC828D47F6
:1002A0003ECC4C08E147371501403ECEEF30003AD6
:1002B000856793870780FC824C089147371501407A
:1002C0003ECEEF30A03822D037540040B7070C00A4
:1002D0000C10130504C03ED402D223160102EF30E5
:1002E0009052054693055052130504C0EF30D05B81
:1002F000930740147C86680085475C873EC8EF30D2
:1003000000718545130504C0EF30D058456119B719
:10031000EFF27FEC2E84A9452A89EF60003F11C9D6
:10032000A16523000500938585D34A85EF60203CB5
:100330000504B75900408144938909C063C3840010
:10034000E9B5930500084E85EF30905A7DD9B30783
:100350009900838507004E858504C205C181EF3071
:100360003058E9BFEFF2DFE83289A9C1B7070020B2
:100370000A0593870702AA9788432E84EF60A03B63
:10038000AA84A9452285EF60403831E1630809005D
:100390002165A285130545CAEF6000193759004051
:1003A000A294130909C0639D8402ADB59377F50F3C
:1003B0001D47E36CF7FEB70700200A059387070285
:1003C000AA9780432285EF600037AA84C1B7A16550
:1003D00023000500938585D32285EF604031DDB78A
:1003E000930500084A85EF30B0507DD9830504009D
:1003F0004A850504C205C181EF30904E6DB7EFF21A
:100400003FDFB707002083A507002A84EF60C033D1
:100410001DC1B7070020238A070CB70700200387F8
:10042000570D8D476318F7001305C05DEF00007A84
:1004300023A2A198C5B3B707002083A5070D228585
:10044000EF60803011C983C7C194EDD723A4019414
:1004500005472382E194F9BFB70700207D57238A1F
:10046000E70CC9BF757122C73754004026C582FE0C
:1004700086FC8AFA8EF892F696F49AF29EF0A2EE34
:10048000A6ECAAEAAEE8B2E6B6E4BAE2BEE042FE04
:1004900046FC4AFA4EF852F656F45AF25EF062EE14
:1004A00066EC6AEA6EE872E676E49305505213054C
:1004B00004C07AE27EE0EF3050443DC1130504C031
:1004C000EF30904203D7E1949376F50F930717002E
:1004D000C207C1832397F1949387C19BBA9703D72F
:1004E000E19488A3930700106314F7002397019405
:1004F000A9476397F6028387C19B81CB21659385CA
:10050000C19B130545CAEF6020021385C19BC53D01
:100510001306001081451385C19B893323970194ED
:100520003A44AA447670E6705671C6713672A67265
:10053000167386737664E6645665C6653666A66687
:10054000166786677278E2785279C279327AA27A2F
:10055000127B827B726CE26C526DC26D326EA26E47
:10056000126F826F49617300203083C7C19491CBB1
:10057000B70700201147054681451145A38AE70CBE
:10058000D5B3828001A0757122C726C582FE86FC84
:100590008AFA8EF892F696F49AF29EF0A2EEA6EC03
:1005A000AAEAAEE8B2E6B6E4BAE2BEE042FE46FC33
:1005B0004AFA4EF852F656F45AF25EF062EE66ECE3
:1005C0006AEA6EE872E676E4B707EFBE7AE237E7EA
:1005D00000E07EE093870708371401403CC7814460
:1005E0001304048099E8054685442285A145EF302F
:1005F000E0121305800CF523F5B701468144F5B7E9
:10060000197182FE86FC8AFA8EF892F696F49AF2B6
:100610009EF0A2EEA6ECAAEAAEE8B2E6B6E4BAE232
:10062000BEE042FE46FC4AFA4EF852F656F45AF242
:100630005EF062EE66EC6AEA6EE872E676E47AE212
:100640007EE083C7819881CFC14537150140EF30E7
:10065000A00B238AA1829385C1AC3D450929414560
:10066000EF20707C01C54145EF20907D7670E670EB
:100670005671C6713672A672167386737664E66416
:100680005665C6653666A666166786677278E2782E
:100690005279C279327AA27A127B827B726CE26CD6
:1006A000526DC26D326EA26E126F826F096173005D
:1006B0002030EFF2FFB305650111854511053714B0
:1006C000014002C002C202C402C602C802CA02CC71
:1006D000231E0100EF30A059054613050480C145D3
:1006E000EF30C003C1478D448A85130504807C80A8
:1006F0003EC426C2EF20907513050480C145EF303B
:1007000060019307000261498A85130504807C809B
:100710004AC426C2EF209073930700047C808A8528
:100720009147130504803EC4EF20507293070008E0
:100730008A85130504807C804AC426C2EF2010718C
:10074000B70704013EC6B70702003EC8B70700025C
:1007500003A5418185073ECAA1473ECC6C009D4759
:10076000FC86EF30207103A541818545EF30607430
:1007700005614DB4EFF2DFA7AA8403A54181894545
:10078000EF3040757DD903A54181A685EF30007417
:1007900003A541818545EF30E0737DD903A54181F3
:1007A000EF3000731375F50FB5B4EFF27FA4B714F3
:1007B00001400146C14513850480EF203076154580
:1007C000553F1305F00F7D372A84054613850480B5
:1007D000C145EF20B074228535BCEFF27FA1F1371F
:1007E000058975FD05BCEFF2BFA037140140014635
:1007F000C14513050480EF2070721945A53F0546D9
:10080000C14513050480EF20707129B4EFF25F9E9B
:100810003715014041110146C1451305058002C24B
:1008200002C423060100EF20706F1305F009993709
:100830000144A54401453D3F5C00A29788A30504FF
:10084000E31A94FE1C86988537150140A207D98FBC
:1008500013948700A1835D8C0546C145130505806F
:100860004204EF20B06B41802285410165B2EFF276
:100870003F982A89371501402E8413050580C1450C
:10088000B2840146EF2090690D45ED351355040102
:100890001375F50FC535135584001375F50FD93D44
:1008A0001375F40FC13D014493170401C18363EC38
:1008B0009700371501400546C14513050580EF2017
:1008C000F0656FF03F9501457535B307890088A342
:1008D0000504D9BFEFF2DF912E842A89B284213733
:1008E000371501400146C14513050580EF2010630F
:1008F00009454935135504011375F50FA53D1355E9
:1009000084001375F50FBD351375F40FA53501443B
:1009100093170401C18363ED970037150140054625
:10092000C14513050580EF20705F453D6FF09F8E38
:10093000B307890088230504353DD9BFEFF2DF886E
:1009400013F9F57FAA8A2E8493DBB50063000906AC
:10095000850B8569938509800545EF5010182A8A13
:10096000814431C17D5B93890980138CFBFF050BAA
:1009700063926B055285EF50F0162685EF30F02B11
:10098000B70600201317840021809387860D418FBE
:10099000DAA30D6788C313072741214681451385D4
:1009A000860DFAA3053F26856FF09F85056913091B
:1009B000098045B763136C01CA8913960901D6856E
:1009C000418252856D3526854E86D2858120CE9A0C
:1009D000AA8471BFEFF2DF814111280021468145D1
:1009E00002C402C6693538878D6793872741014560
:1009F000631BF7002245EF30502483A7819633858F
:100A0000A7401335150041016FF0DF809DC515C665
:100A100029671345F5FF2E961307471D9C21935612
:100A200085008505A98F93F7F70F8A07BA97884342
:100A3000358DE395C5FE1345F5FF8280A3000500C3
:100A4000230005001306250001471548FD569305B0
:100A50000003B307070318A205071506AA97B4B346
:100A6000D4A3D4B3F4A3E316B7FE0545828098213E
:100A70009547B307F702AE97D423B033A206D18EC1
:100A8000D0334206558EF423E206D18E7D5663980C
:100A9000C60293568500A8B3D4A39356050161817D
:100AA000E8A3D4B3038527009307170093F7F70F44
:100AB0001307F0026373F70081479CA182807D5584
:100AC0008280143195472A86B387F602AA97D823E5
:100AD000AC3322074D8FCC33C205D98DF823620782
:100AE0003365B7007D576304E502B8B3D8A3D8B324
:100AF000F8A3634E05009387160093F7F70F1307CB
:100B0000F0026364F7001CB28280A30006008280BA
:100B10009387C1AC982395469385C1ACB306D702A1
:100B20007D55B697D423B033A206D18ED03342067A
:100B3000558EF423E206D18E7D566396C602A546F5
:100B400003852700B4B323820700A3820700238311
:100B500007009307170093F7F70F1307F00263736B
:100B6000F70081479CA18280D30705F0D39717C077
:100B700053F717D09CC1D3F7E70807A78192D3F7A3
:100B8000E710D39717C0DCC1828083A781973E9579
:100B90008280EFF2EFE583C761992E848DE7EF2025
:100BA000001A138881C4034678008346680003470F
:100BB00008008347180003482800A9659385C5E30A
:100BC0002285EF50B02E22856FF0CFE483A7C19726
:100BD0003E95828083A7C19733B5A70013451500C2
:100BE000828003A7C1973A9503A7C197E36EA7FE3A
:100BF0008280EFF2EFDF371702401C4F41112313C1
:100C0000010093E747011CCFA1477C8237150140C3
:100C1000C1473EC64C008D47130505803EC4EF20FA
:100C2000F02241016FF00FDF75713735014082FE10
:100C300086FC8AFA8EF892F696F49AF29EF0A2EE6C
:100C4000A6ECAAEAAEE8B2E6B6E4BAE2BEE042FE3C
:100C500046FC4AFA4EF852F656F45AF25EF062EE4C
:100C600066EC6AEA6EE872E676E422C726C5854538
:100C7000130505C07AE27EE0EF30A0368547631A9F
:100C8000F50683A7C1972A84850723AEF19603C78B
:100C9000119819C79385C1AC1545A3800198C13B34
:100CA00003A6C1979307703E3376F60239E283A616
:100CB0000197014799E22286054737150140A14572
:100CC0001305058023A8E196EF20502583A781977F
:100CD0009385C1AC85070D4523ACF196493B83A7AD
:100CE00081972947B3F7E70289E79385C1AC11459E
:100CF000BD3B373501408545130505C0EF30E02F7A
:100D00003A44AA447670E6705671C6713672A6727D
:100D1000167386737664E6645665C6653666A6669F
:100D2000166786677278E2785279C279327AA27A47
:100D3000127B827B726CE26C526DC26D326EA26E5F
:100D4000126F826F496173002030EFF26FCAB716DD
:100D500002409C4E0567011113070780D98F231CA1
:100D60000100231E010002C602C8231B0100231D2F
:100D700001009CCE83D76182373401404C08FC844B
:100D800083D74182130504C0930404C0FC829307F7
:100D90002003230EF100EF308014F9572318F4C01C
:100DA000930790027C86680085475C873EC8EF20E9
:100DB00010468357C4C093E717002316F4C0835727
:100DC00004C093E717002310F4C005616FF08FC4CF
:100DD0009377F50011476396E704B7073230137530
:100DE00005F093870750630BF50E63E2A702B70780
:100DF0003030938707506307F50EB707313093877C
:100E000007506305F50E2965130585EA8280B7074B
:100E1000333093870750E318F5FE2965130585E500
:100E200082802147E391E7FEB7077130137505F023
:100E3000938707506300F50C63EAA704B7075B309C
:100E400093870750630CF50A63E2A702B707503097
:100E5000938707506308F50AB70752309387075006
:100E6000E313F5FA2965130585E98280B7075C303D
:100E700093870750630CF508B707703093870750C6
:100E8000E313F5F82965130505F08280B7B77031D3
:100E9000938707506300F50863E2A702B707723033
:100EA00093870750630CF506B70773309387075095
:100EB000E31BF5F42965130505F38280B7B7733199
:100EC000938707506300F506B7B7753193870750CE
:100ED000E31BF5F22965130505ED828029651305ED
:100EE00085E682802965130585E8828029651305DA
:100EF00085E782802965130505F182802965130540
:100F000005EB82802965130505EC828029651305B0
:100F100005F482802965130505EF82802965130594
:100F200005F282802965130505EE82802965130587
:100F300005F56F508074EFF2AFAB7971AA848145EB
:100F4000130600020808EFF06FB185451305002075
:100F500002C202C402C6EF209051D9E80145EF2039
:100F600030353724014013050440EF20A02BB7078C
:100F70000E003ECE0C088547130504402302F10203
:100F800002C802CA02CC02D0EF20202E85451305EC
:100F90000440EF20E032814513050440EF20004972
:100FA00013050440EF20C032130904404A85EF20A6
:100FB000C0326DFD1305044037240140EF2060323C
:100FC000130904404A85EF2060326DFD130504408B
:100FD000EF2040472392A196854513050440EF205A
:100FE000E04481E40545EF20603E45616FF08FA24B
:100FF00085454145EF20B0470145EF20702B930711
:1010000000024C00371501407C8202C6EF200064CC
:1010100089BFEFF2EF9D37240140AA858D46054632
:1010200013050440EF20802E854513050440EF2072
:10103000602C9304044089452685EF20203B65DD24
:1010400013050440EF2000386FF0CF9CEFF2AF980B
:101050002E8AC13703C91196AA841384C1AB631ABF
:101060000902A1470AA02AA04AA06AA00AA42AA4A9
:101070004AA46AA4A380F1961307040181471620AD
:101080000904B697E31DE4FE8D832310FA0005459D
:101090002DA039469385C1AB1385E1ABEFF0AF9935
:1010A0009D4706A063E527010509A380219703C793
:1010B0001196A1470145E301F7FC6FF00F950397E7
:1010C0004196AA872A9701456340070291CF05669A
:1010D0009306F6FF36856359C7003E856386D700C1
:1010E00013150701418182808280896713878750A9
:1010F0006302E502138707646306E50293870740EE
:10110000631AF50237070200296523ACE194130541
:10111000050B828037070400296523ACE194130591
:10112000450C828037070800296523ACE19413053C
:10113000850D828029651305C50E8280EFF2AF8987
:10114000517171468145AA89C80082C0EFF00F91A4
:101150001306C0038145C81082D0EFF02F9013060C
:10116000C0048145481102D1EFF04F8F83C721960B
:101170008410638F071403A6018263480600A965E3
:10118000938545112685EF50605283C70196638190
:10119000070E83C7F195130780056386E7161307CB
:1011A00000066386E7162966130686EAA965938515
:1011B00005130811EF50804F83C7E195D5CB1384F9
:1011C000C1C318301C20283022075D8F3C206205E7
:1011D0002C10C207D98F5D8DEFF01F9958305C201D
:1011E000683022075D8F7C2062050C18C207D98FFA
:1011F0005D8DEFF07F970811EF50E053D257B25654
:10120000096913090971B3D72703425722561308F6
:10121000010AA965938505144295B3D62603EF50BC
:10122000E04803C7F19593070006631DF7021834E1
:101230001C24283422075D8F3C2462052C18C20729
:10124000D98F5D8DEFF05F920811EF50C04EF256CE
:101250006256A965B3D626031C119385C5153E9524
:10126000EF50C044A965938585160811EF502048BA
:101270008C004E85EFF0FF9103A9C1832A8403A55A
:101280004197EFF0FFB403A70185B7470F0093879D
:1012900007243357F702AA8603D5C1952DCD3ACE40
:1012A00036CCA135E2467247AA8703C6619625CAA5
:1012B000296813084810296526C09308010A4A8640
:1012C000A2851305C516EF5020266D616FE0FFF370
:1012D00087A7C181530700F0D307F7A0E38707EA88
:1012E000538507E02C18EFF03F88F2568967938703
:1012F0000771B3D6F6026256A96593850512268555
:10130000EF50C03A59B529661306460F45B5296610
:101310001306C60F61BDA167938787D779B7216888
:10132000130888D749BF4DC6EFE21FEA368AD9CEE7
:10133000AE8AC9CDAA84931526000545B289EF402F
:10134000D0792A8441C5EF50003F296B268693054A
:101350004B1C2295EF5080350149A96B2285EF5037
:10136000803DB3872A0190239385CB1C22950509E4
:10137000EF50C03363852903B3674903E5F383A5C1
:1013800081832285D294EF5080362285EF50A03A97
:10139000268693054B1C2295EF504031C1B722851C
:1013A000EF50603922950307F5FFA9476307F7005F
:1013B00083A581832285EF5080332165A2851305A3
:1013C00045CAEF5060162285EF40D0716FE05FE3B1
:1013D0008280EFE25FE02D69AA8401441309198D30
:1013E00089492685EF5020356364A4006FE0FFE152
:1013F000B3868400838706003387270118230D8B6B
:101400006313370181179CA20504E1BFEFE25FDEA1
:1014100079718545454502CA02CC02CE02D002D27E
:1014200002D402D602C602C8EF20700493078004DB
:1014300041444C08371501403ECEE082EF200021A8
:1014400091450945EF20003D081022D022D40544E3
:1014500022D602D2EF2000179307A0117C866800E5
:1014600089475C8722C8EF20805A45616FE09FDA88
:10147000EFE27FD60111AA842E842545854502C25C
:1014800002C402C602C802CA02CC02CEEF20207EED
:1014900085450945EF202029854537052000EF20A7
:1014A000E07E3719014093070010714A8D494C00C6
:1014B000130509C07C8252C64EC4EF202019930741
:1014C00000204C00130509C07C8252C64EC4EF2098
:1014D000E017E08403A50184B707FFBF3ECA930766
:1014E0000040FC850C089167FC8626C8EF2040353B
:1014F00003A501848545EF20A04403A5018485450B
:10150000EF20C04805616FE05FD0EFE2DFCCAA8436
:101510002E8B328AB68903A50184B7050200EF201D
:10152000804B2A896DF903A501848545B70A03001C
:10153000EF208042850A03A50184D685EF2040482C
:101540007DD903A50184860493F4F40F0146A68592
:10155000B70A0700EF20E045938A2A0803A5018413
:10156000D685EF20E0457DD903A50184DA85B70A49
:101570000700EF204043938A4A0803A50184D685DB
:10158000EF2000447DD903A501848545B70A0300F7
:10159000EF20803C850A03A50184D685EF204042D8
:1015A0007DD903A50184A6850546B7040300EF2075
:1015B0004040890403A50184A685EF2060407DD9C1
:1015C000B70400109384040493170901C18763C909
:1015D000370103A501848545EF20A0396FE0FFC2E4
:1015E00003A50184A685EF20003F7DD903A50184D2
:1015F000EF20A03BB3072A0188A30509F1B7EFE26A
:101600009FBDAA842E8A3289B68903A50184B705B5
:101610000200EF20403C75F903A501848545B70A17
:101620000300EF206033850A03A50184D685EF20EF
:1016300020397DD903A50184860493F5E40F014682
:10164000B7040700EF20E0369384240803A5018443
:10165000A685EF20E0367DD903A50184D285B704A5
:101660000700EF2040349384440803A50184A68535
:10167000EF2000357DD9370A0010B70A0700FD5466
:10168000130A0A08938A4A088504C204C18403A580
:10169000018463C734018545EF20A02D6FE0FFB6BC
:1016A000D285EF2040336DD18345090003A5018425
:1016B000130B1900EF20202F03A50184D685EF20FE
:1016C00020307DD95A89C9B7EFE29FB24111930703
:1016D00060FBDC870DC52A8485461306F10093055F
:1016E000000E13056007213F13056007854622861B
:1016F0009305000D193D054541016FE0BFB101455E
:10170000E5BF6350C002AA87054591CDEFE25FAE09
:10171000B286130560072E86BE85C53B01456FE086
:101720007FAF054582808280EFE29FACB7F740F241
:101730004111938757523EC485475C8603C7F19594
:10174000930700062A8495466303F7008D46300010
:101750009305400F130560075D358D4630009305F6
:10176000300F1305600755332C000D461305140088
:10177000EFE01FAB41016FE0FFA9EFE2DFA5AA890F
:10178000E146138601C09305800813056007EFF05A
:10179000DFD7938701C323A0070023A2070023A458
:1017A000070083A701C0938401C023ACF1C0DC40D3
:1017B000138481C15CC09C441CC4DC445CC49C4850
:1017C0001CC8DC485CC893070006639AF904854688
:1017D000138601C09305100A13056007EFF0FFD2CE
:1017E0009C209D46138601C09305100E13056007CB
:1017F0001CACEFF09FD183D701C0D8203EACBC20F9
:101800009376F70011835CACBC309207D58F7EAC29
:10181000DC309207D98F1EB0FC202301F402014571
:101820006FE0BF9EEFE2DF9979712A8432853AD06A
:10183000938481C136CE2ECCEF406078AA8C8A206A
:10184000AE8BEF40A07E03A6818783A6C187AA8ABC
:101850002E8A6685DE85EF30502803A6018883A690
:101860004188AA892E895685D285EF3010272A868D
:10187000AE864E85CA85EF30F07A03A6818883A6AE
:10188000C188AA892E896685DE85EF30102503A6DA
:10189000018983A64189AA8CAE8B5685D285EF300B
:1018A000D0232A86AE866685DE85EF30B077AA8A99
:1018B000039524002E8AEF4080702A86AE865685D6
:1018C000D285EF309021AA8A039544002E8AEF40FA
:1018D000006FAA8CAE8B4E86CA864E85CA85EF30C5
:1018E000D01F2A86AE866685DE85EF30101F2A86D9
:1018F000AE865685D285EF20903603A6818983A6D1
:10190000C189AA892E89EF3000242AD42ED64E858B
:10191000CA85EF406064EF40806A03A6018A2AD23C
:1019200083A6418A2E8BEF30501B03A6818A83A6A3
:10193000C18AEF30306F83970401AA890395A40010
:101940003EC68397E4002E893EC88397C4003ECAF2
:10195000EF40E0664E86CA86EF3030184E86CA8663
:10196000EF30B01703A6018B83A6418BEF30F01642
:10197000AA8B039584002E8AEF4060644E86CA8647
:10198000EF30B0152A86AE865E85D285EF20302DE9
:1019900003A6018B83A6418BEF30301403A6818B05
:1019A00083A6C18BEF30701303A6018C83A6418CF4
:1019B000EF20F02AAA8CEA202E8CEF402067668662
:1019C000E286EF30901101468146AA8C2E8CEF30D2
:1019D0006072630B052C4E86CA864E85CA85EF3031
:1019E000D00FAA8D32452E8DEF40605D2A86AE86DF
:1019F0006E85EA85EF30700E03A6818B83A6C18BBE
:101A0000EF30B00D2A8D4245AE8DEF40405B4E86E3
:101A1000CA86EF30900C2A86AE86EF2050246A8664
:101A2000EE86EF20D02303A6818C83A6C18CEF30F5
:101A3000D00AAA8D72452E8DEF4060582A86AE8658
:101A400003A5018D83A5418DEF30D05DAA89524554
:101A50002E89EF40C05603A6818D83A6C18DEF303D
:101A6000D0076E86EA86EF20901F03A6018E83A61C
:101A7000418EEF3090062A86AE864E85CA85EF30BD
:101A8000705A03A6818E83A6C18EEF30100566863C
:101A9000E286EF30400BAA89039564012E89EF405E
:101AA00000524E86CA86EF3050034E86CA86EF300B
:101AB000D00203A6018F83A6418FEF301002AA8CBB
:101AC000039544012E8CEF40804F4E86CA86EF303E
:101AD000D00003A6818B83A6C18BEF3010002A862D
:101AE000AE866685E285EF2090172A8C0395240147
:101AF000AE8BEF40C04C2A86AE866285DE85EF2035
:101B0000101603A6818F83A6C18FEF30007D4E860D
:101B1000CA86EF20D014AA8703A6018783A641872F
:101B20003E85EF30400203A6019083A64190EF303E
:101B3000C07A6247930700062A89AE896319F716AF
:101B400003A6819083A6C1901255DA85EF30904D9F
:101B50002A8C0255AE8BEF4080462A8D03950402F5
:101B60002E8BEF40C04503A6818883A6C188EF3045
:101B7000C0766286DE86EF3040762AC60395E401A1
:101B8000AE8DEF40C04303A6019183A64191EF3093
:101B9000C074B2472A86AE863E85EE85EF20300CB3
:101BA0002A86AE866A85DA85EF30D0472A8D03858E
:101BB000C4012E8BEF40A04003A6819183A6C19162
:101BC000EF30A0716286DE86EF30207103A6018CB3
:101BD00083A6418CEF20B0082AC603852402AE8D6F
:101BE000EF40E03D03A6819183A6C191EF30E06E06
:101BF0006286DE86EF30606EB2472A86AE863E850C
:101C0000EE85EF30806D03A6018C83A6418CEF201A
:101C100010052A8C0395A401AE8BEF40403A03A631
:101C2000019283A64192EF30406B2A86AE86628590
:101C3000DE85EF30806A2A86AE866A85DA85EF30E7
:101C4000C069AA8B038584012E8BEF404037DA866A
:101C50005E86EF30806803A6018B83A6418BEF3050
:101C6000C0672A86AE8603A5018C83A5418CEF3020
:101C7000703BDA865E86EF30406603AB018783AA4D
:101C800041872A8A5A86D686AE84EF30604D6341FA
:101C9000A008014681465285A685EF304058635C16
:101CA0000500014A814401A881478145B5B503AAD1
:101CB000818683A4C186B2552255EF400044135754
:101CC00085009357850118B01357050108A038A067
:101CD0003CB0CE854A85EF4040421357850093576C
:101CE000850158B01357050148A078A07CB05285F3
:101CF000A685EF4080401357850018B4935785019F
:101D00001357050108A438A43CB445616FE00FCF18
:101D10005A8AD6844DB7EFE2AFCD2A8437150140F9
:101D20008565130505C0EF10301F03A5C1848945E3
:101D3000EF20401A7DD903A5C184A285EF200019A8
:101D40000545EF20C041371501408565130505C0E5
:101D5000EF10501C6FE00FCCEFE2EFC72A89AE8482
:101D60000144634494006FE04FCA03A5C1848945D0
:101D7000EF2040167DD9B30789008C2303A5C184C9
:101D80000504EF20A014F1BFEFE28FC62A84218161
:101D9000EFF07FF81375F40FEFF0FFF76FE08FC7E8
:101DA000EFE20FC5B71401402A8493050040138564
:101DB00004C0EF1070162285EFF0FFF59305004088
:101DC000138504C0EF1010156FE0CFC4EFE2AFC071
:101DD000AA891305A0023684AE843289EFF05FFC35
:101DE0004E85EFF07FFA4A85EFF01FFA1305B00237
:101DF000EFF01FFB2685EFF03FF92285EFF0DFF8CB
:101E00001305C002EFF0DFF96FE02FC0EFE24FBE25
:101E100001118545214502C002C202C402C602C8A2
:101E200002CA02CC231E0100EF10706485451165C3
:101E3000EF10D065096937140140930709C08D443C
:101E40007C808A85C147130504C03EC426C2EF10BA
:101E5000E07F8A8523102101130504C061494AC42B
:101E600026C2EF10A07E91677C808A85914713057A
:101E700004C03EC4EF10807DE1778A85130504C05D
:101E80007C804AC426C2EF10607CB7C704013EC6FE
:101E9000B707020003A5C1843EC8B7070002850743
:101EA0003ECA6C009D47FC8602CCEF10B07C03A5B7
:101EB000C1848545EF10F07F014505616FE08FB566
:101EC000EFE28FB0B28A368A7D16FD16C206420650
:101ED000C18241823A8BAA8B2E84EFF03FEF3715F7
:101EE00001408565130505C0EF10100393598B0061
:101EF000636A4405371501408565130505C0EF1079
:101F000070016FE0EFAF03A5C1848945EF10907CAD
:101F10007DD903A5C184CE85EF10507B03A5C18474
:101F20008945EF10307B7DD903A5C1848504DA850E
:101F3000C204EF10B079C180E3E754FD0504420408
:101F400041807DB7DE84CDBFEFE28FAA1971AA84EC
:101F50001306C0072E8448008145EFE02FB013061A
:101F6000F007930500020A85EFE04FAF2685EF40AA
:101F7000807C1319850113598941635989023304FF
:101F80002441058462046184A685330581004A8664
:101F9000EFE00FA9060493070408338427004A944E
:101FA0008A852685A30004F8EF40C077268509615D
:101FB0006FE04FA6EFE22FA2328493D9860093F907
:101FC000F90F011401113E8913FAF60F9387F9FFF7
:101FD0003304340336C4B386F5009307FAFF33069F
:101FE000F500C2064206C1824182C2843AC6EFF0C1
:101FF000FFDD9317890013598900B3E72701FC849B
:102000003715014093978400A180C58F856513051E
:1020100005C0FC860604EF1020700149A16A636CBC
:102020003901371501408565130505C0EF10806E35
:1020300005616FE08F9DB2478144A29703DB0700E3
:1020400063E5440105090904D9BFB3179B00B3F741
:102050005701680891C328088945EFF0FFCF850430
:10206000C5B7EFE26F96411136C43AC61DC2034AA6
:10207000810083499100AA842E84BE8A428B130971
:102080001600930BF00E294C930C00020306F9FF87
:1020900001E641016FE0CF96B387440163DCFB00AA
:1020A0004E9442044180B3073401E3C4FBFE8144F3
:1020B000630396036303860323044101A3043101F0
:1020C000A24632472685D2945A88D687A285C20472
:1020D000EFF05FEEC180050955BF4E944204418088
:1020E0008144D5BFEFE22F8F83A741951399160046
:1020F0004209AA84AE8A328AB68913590901A9CB4A
:102100009386FAFF1306FAFF2696CE96C20642067B
:102110002685C1824182D68503AB0181EFF01FCBBA
:10212000371501408565130505C0EF10E05E814459
:1021300063994403371501408565130505C0EF1009
:10214000605D03A54195EF40E01923AA019401A821
:10215000CA850545EF40601823AAA19455F16FE0A8
:10216000CF8A03A541954A86DA85EFE04FF0814A90
:1021700093970A01C18313971A0063E73701850417
:10218000C2044A9BC1806DB703A541958945850A64
:102190003A95EFF07FBCE9BFEFE28F854111EFF098
:1021A000FFC62945EFE0FFA33714014085659385FD
:1021B0000580130504C0EF10E0552945EFE07FA22C
:1021C00093050020130504C0EF10C0542945EFE02B
:1021D0005FA14545EFF0DFBC13058007EFE07FA06E
:1021E00013056003EFF0DFBB13050007EFF0BFB28C
:1021F0001305A003EFF0DFBA1545EFF0DFB11305CB
:10220000200BEFF0FFB9B71700339387C7C0954590
:102210003EC00A85930730035C82EFF0FFB31305DD
:10222000700BEFF0FFB713055003EFF0DFAE1305AF
:10223000B00BEFF0FFB613052003EFF0DFAD130591
:10224000200CEFF0FFB50545EFF0FFAC1305300CA7
:10225000EFF01FB55545EFF01FAC1305400CEFF044
:102260003FB413050002EFF01FAB1305600CEFF055
:102270003FB33D45EFF03FAA1305000DEFF05FB20D
:102280001305400AEFF03FA91305100AEFF0BFA8AD
:102290001305000EEFF0DFB0A96539469385855E22
:1022A0000A85EFD0FFF7B9450A85EFF0FFAA1305BD
:1022B000100EEFF0FFAEA96539469385855F0A855C
:1022C000EFD01FF6B9450A85EFF01FA913051002DC
:1022D000EFF01FAD3704002013059002130404042F
:1022E000C164EFF0FFAB13090401FD141A2001458E
:1022F0009306000F1306000F8145EFF07FBC1E20F0
:102300001305D0076393970005450904EFE07F8D1F
:10231000E31E24FD014541016FD0DFEF130580026C
:102320006FF01FA8EFD2DFE95971EF10002923AA3F
:10233000A1960945EF10406DEF00F054EF10D05F0B
:10234000EFE0BFA0EFE0FF8AEFF04F8C1385C1AC48
:10235000EFE0CFEE2380A198716513050520EF1003
:10236000F07771468145C80882C8EFD03FEFEFF0A3
:10237000BFE27D47FD461306000F81450145EFF0A2
:102380003FB44167130707809306000F1306000F41
:102390009305F00C0145EFF0BFB2EF00D029238B7D
:1023A000A198854705453A842381F196EFE0BFB8AF
:1023B00083C7219681E74147238CE1800945EFE0FF
:1023C000FF802AC43725060093056007130505A87A
:1023D000EFF00F8A1385F19502DC02DEEFF0CFAE4D
:1023E0002380A1961DC103C7F19565452386E19819
:1023F000EFE0CFFD03C7F195930700062A89994ABC
:102400006307F71499473EC629A09947FD5A3EC66F
:102410000149296513058573EF402026EFE06FA978
:10242000EFE0CFBE239EA194896713878750630A8C
:10243000E500138707646306E5009387074063158B
:10244000F500A14723A8F1949385C1AC3545EFE091
:102450000FE2B565938505CC4145EFE02FCE83A50E
:10246000019523A4A196A1C51146880082C0EFE082
:102470000FC003A7C182864763FBE70083A7C18221
:1024800083A5019511468800BEC0EFE0AFC4864722
:102490007D57638EE70023A6F18203A5C18283A73F
:1024A00081823E95EF1090112945EFE08FF3716521
:1024B00013050520EFD09FDB1305007DEFE00FF142
:1024C0002ACA0145EFE09FC785473ED4A967938795
:1024D000C77302CE02CC02D0014C02C80144FD5D9C
:1024E000C1443ED683C701983ED2A5E72384019814
:1024F000EF10B00683A7818283A50195B307F5404D
:1025000023A6F18291C91385C1821146EFE08FBCE9
:102510001305A00FEFE0EFEC8547631DFC78B707CC
:10252000EFBE37E700E0938707083CC73715014047
:10253000130505800146A145EF10401E29651305CE
:102540000572EF4080130545EF10D044EDBFA14761
:102550005DBDE31D0CF8630E09004A85EFE08FE7CF
:1025600011C9FD576387FA009385C1AC5685EFE02A
:102570000FD00149D24799CF3E85EFE0AFE501CDBD
:10258000B70700200D47054681450D45A38AE70C96
:10259000EFD05FDD02CA03A5819419C983C74194B6
:1025A00081EBEFE02FE309C523A40194EFD0FFFBFB
:1025B0001385C1ACEFE0EFD023A8A1827D15B94708
:1025C00063E8A708B2570A053E951C418287A965B2
:1025D00093854562138501BCEF40001763160524FF
:1025E000A9659385C562138501BCEF40E015631FA3
:1025F0000522A96593854563138501BCEF40C0148E
:102600001DC51905EF30104D03A7C182637BA702DA
:1026100023A6A18203A5C18283A781823E95EF10E4
:10262000E0799385C1AC3945EFE06FC419A8A9657D
:102630009385C563138501BCEF40001139C1EFE0FC
:10264000FF8E2165938501BC130545CAEF30D06D1F
:1026500003A5419809C9EFE0EFD711C523A201985E
:1026600005472384E198A24781CB3E85EFE08FD6D2
:1026700009C50547A380E19802C40545EFE06FD680
:1026800095B5A96593854564138501BCEF40C00BE2
:1026900029C5130B55005A85EF30D04383A7819588
:1026A000AA84E370F5FA9305A0035A85EF40E0058C
:1026B0001304001019CD0505EF30D0412A84856739
:1026C000420541819387078063F3A7003E8442045B
:1026D00041809385C1AC294581BFA9659385C564B7
:1026E000138501BCEF4040063DC5130B65005A85BC
:1026F000EF30503E83A78195AA84E374F5F49305E7
:10270000A0035A85EF406000FD5D31C11304150040
:102710002285EF30303C931D05019305A0032285EF
:10272000EF30B07E93DD0D41130400100DC105059F
:10273000EF30503A2A8485674205418193870780AC
:1027400063F5A70005641304048042044180938567
:10275000C1AC2D45D1BDA96593854565138501BCE7
:10276000EF30907E09C59385C1AC354575BDA9652F
:1027700093858565138501BCEF30107D31C59305C8
:10278000D003138501BCEF3050781DC9130B150021
:102790005A85EF30303483A78195AA846372F5029D
:1027A0009305A0035A85EF3050761304001009C931
:1027B0000505EF30303292571314050141803EC8B1
:1027C0009385C1AC31458DB5A9659385C5651385E4
:1027D00001BCEF30707711CD130B45005A85EFE047
:1027E0005FBF5A85EF303075AA855A85EFD05FB24A
:1027F00089BDA96593854566138501BCEF30D0740A
:10280000E30105E403C741838547631BF700A9651E
:102810009385856029651305C566EF30F05015B5C1
:10282000A96593854561FDB7094C21BD054C11BDD6
:1028300083A50195E38E05E011461385C182EFE083
:102840006F899385C1AC1145EFE06FA211B583A7E5
:10285000019982C082C282C482C689CB03A6C19676
:10286000A965938505688800EF305064C24795C319
:10287000A2852685EFE08F8CAA861386F4FF296552
:1028800098002296A6851305C568EF30F04902C866
:10289000C1B3B565938505CC2685EFE02F8AAA855F
:1028A00023A4A196296590001305056BEF30D0474E
:1028B000F9BFEFE02F920DC541679306000D130697
:1028C000000F9305000201457D17EFF06FDF9306BF
:1028D00000091306600B930560027545EFF09F80B9
:1028E000A257E38707D603A541979309000DEFE0B0
:1028F0002FCEAA858808EF30F06283A781849305E4
:10290000000F880898339C23B389E940B3C5F502CA
:10291000C20993D90901EFF02FE303A7818441682D
:102920002A86144358437D189307F01CCE85214511
:10293000EFF02FF302D429BBEF1020428C08EFE018
:102940004FA583A781849305000F88089C23B3C5F6
:10295000F502EFF06FDF03A78184C1672A86144375
:1029600058437D48FD1791451145EFF08FEFCDB1EC
:1029700083C7619991E7E1260145EFE02FFCC9B9D2
:102980000145EFE08FA0D5BFA2850545EF30F014DB
:10299000AA89E30F05CA29652286A6851305C56C99
:1029A000EF3090382286A6854E85EFD05FEC9306F7
:1029B00000022286CE852685EFE0FF9651B9A285DA
:1029C0000545EF309011AA89E30405C82965EE8614
:1029D0002286A6851305456EEF301035FD576393AB
:1029E000FD02814729A03387F9001CA385071397AF
:1029F00007014183E36987FE2286A6854E85EFD0D5
:102A00007FED75B7228693F5FD0F4E85EFD01F85BC
:102A1000E5B7FD5723A8F18225B903C58181930548
:102A20006103EFE0AFE205CD03156103EFE02FE9AD
:102A30008567938747CE231BA1023305F5023185B5
:102A400023A0A18283C7219689E7EF00F01A23AE65
:102A5000A1801305B004EFE06F972AC4D5BE0547E7
:102A6000A380E198F5B61385C198EFE0FFCB13057D
:102A70002003EFE0AF952A899D4AD9BE9387C1987C
:102A8000983332462C183D8B1305700F98B302DC37
:102A900002DEEFE01FC7E31D05BA03C5F195EFE0C5
:102AA000DFCDE31705BA13052003EFE02F922A8943
:102AB000A14A79BE83468103834791030346B1034C
:102AC000B2069207DD8E8347A103320683C5F195D6
:102AD0009183DD8E8347C103014792075D8E834753
:102AE000D10391835D8E93070006639AF5008357A7
:102AF000E10313978700A1835D8F4207418313850C
:102B0000C1C3EFE03FD213054006EFE02F8C1386E0
:102B1000C1C305471432238FE1941C223822A20638
:102B2000DD8E3C324207558FE20733EBE700D307D7
:102B30000BF002772A899387C1C353A7E7A039C353
:102B4000D833D423E2672207558FF423C206D98EE7
:102B5000F8336207558F530707F053A7E7A01DC34B
:102B600098379427F2672207558FB427994AC206EF
:102B7000D98EB8376207558F530707F053A7E7A0E0
:102B8000E31807ACD433D82383CA7700A206D98EC2
:102B9000F823E20A83C9B7004207558F9437B3EA96
:102BA000EA009827A206E209D98EB8275A8556CCA2
:102BB0004207558FB3E9E9004ECEEF1030012AD01D
:102BC0005685EF10B0000256A965AA869385457018
:102BD0008808EF30B02D03C7F19593070006631204
:102BE000F7028808EF303035AA8A4E85EF10007E54
:102BF000A9659C082A869385457133855701EF3076
:102C0000F02A83A741849305000F9309C00E9833DF
:102C10009C238808B389E940B3C5F502C20993D95A
:102C20000901EFF06FB203A74184C1672A861443FC
:102C3000584313880780CE85FD172145EFF06FC2FA
:102C4000994A5AD031B403C74183B709002093771A
:102C5000F70F01CB05476382E704FD57238AF90C80
:102C600011A89147238AF90C2386019423A4019487
:102C70002382019403C741839307F00FE30AF79C73
:102C800003C7490DB7070020938707000A07BA97C3
:102C90008843EF30901E6FF0BF9B0D470565238A78
:102CA000E90C130585382386F194EFD03FF223A475
:102CB000A194C9B78947E31BFC86EFF02FE6EF002C
:102CC000305C6FF0BF8613773500AA8711EF1307CA
:102CD00040063377E502054509EB13070019B3F702
:102CE000E70213B517008280014582801307400672
:102CF000B377E5023355E5024D471375F50F63745D
:102D0000A7009387470613D527003E951D473375C7
:102D1000E5022967130747782E970347F7FF8D8B46
:102D20003A9632954205418199E7894763E5B700B4
:102D30007D15420541819D473375F5028280EFD2B2
:102D4000AFC85564EF1060011304041833548502B2
:102D500003D74199AA8463068704239A819893092B
:102D6000207B1309C016130AD01663608908938765
:102D700081C4A96A23923701138981C481496D4BAB
:102D8000938A8A77854B714C138A1900636F8B067F
:102D9000137AFA0F0504230349011374F40FA303F4
:102DA0008900D56793870718B3F4F4028567938782
:102DB00007E1138481C433D7F402B3F4F402137728
:102DC000F70F18A01307C003B3D7E402B3F4E4026B
:102DD00093F7F70F1CB024A04A206C207030EFF05E
:102DE000FFF008A401456FD0AFC14E85EFF0BFEDF5
:102DF00011C9E30E44F7130424E98509C20993D9E4
:102E00000901A5B7130434E9CDBF03554900EFF01C
:102E10009FEB19C9639A7901E30C84F70D14931998
:102E20000A0193D909018DB7D69983C70900E361D7
:102E3000F4F61D8CEDB7EFD2AFBB411185453705D8
:102E40000018EF00B0640545EF0030420545EF1073
:102E50002002352F0545EF00D04601449304A00F12
:102E600013051004EF00506811ED631694002285DD
:102E700041016FD02FBA050451451374F40FEFD000
:102E80005FD6F9BF9307A00FE303F4FE130500100C
:102E9000EF00B0450545EF001046EF001077EF005A
:102EA000F07785450545EF001067EF001076EF00DD
:102EB000306821657D15EF00D072EF00107503A515
:102EC000C18283A7818201443E95EF00306FEF00FD
:102ED0005067A9659385151A1145D125CD473EC484
:102EE000280085473EC6EF009032EFF05FE541B71E
:102EF0001971054582FE86FC8AFA8EF892F696F4E0
:102F00009AF29EF0A2EEA6ECAAEAAEE8B2E6B6E429
:102F1000BAE2BEE042FE46FC4AFA4EF852F656F4D9
:102F20005AF25EF062EE66EC6AEA6EE872E676E409
:102F30007AE27EE0EF00D07119C1EFF05FE0154555
:102F4000EF001073EF00706C7670E6705671C6710A
:102F50003672A672167386737664E6645665C66525
:102F60003666A666166786677278E2785279C27905
:102F7000327AA27A127B827B726CE26C526DC26DE5
:102F8000326EA26E126F826F096173002030B71724
:102F900002409843B706FFF041111367170098C32A
:102FA000D84337060200758FD8C39843B706F7FE9B
:102FB000FD16758F98C39843B706FCFFFD16758FF5
:102FC00098C3D843B70601FFFD16758FD8C3984341
:102FD000B70600ECFD16758F98C33707FF0098C73A
:102FE00023A6070202C402C69843C166558F98C340
:102FF000B716024005679C42F18F3EC6A24785077F
:103000003EC4B24781E7A247E397E7FEB717024005
:103010009C4337070200F98FADC785473EC632474C
:103020008547631EF704B7170240D843B706C1FFB0
:10303000FD16D8C3D843D8C3D84313670740D8C3B5
:10304000D843758FD8C3D843C166558FD8C398432A
:10305000B7060001558F98C3B70600029843758FD5
:1030600075DFD843B7160240719BD8C3D8431367A6
:103070002700D8C32147DC42B18BE39EE7FE410124
:10308000828002C669BF371702405C43A146B18BFC
:10309000638AD702B7177A009387072023A8F184A1
:1030A000B7170240D843B70700209387070511835D
:1030B0003D8BBA97982383A70185B3D7E70023A850
:1030C000F18482805C4354434167C983BD8BF98E90
:1030D0001387270085CFBD47630CF702C147630CF8
:1030E000F702C547630CF7028145A9E2B7470240E2
:1030F00083A70780C18B95C7B7177A0093870720EE
:103100003307F702C9E923A8E18459BF4947E9BF5A
:1031100085453547D9BF81453D47C1BF81454147B9
:10312000E9B7B7173D0093870790D9BF371502401D
:103130005C55C166F58F5455A1CB9182BD8AB717F6
:103140007A00850693870720B3D7D7025455A1820A
:10315000BD8A89EE9546B387D7028583B7160240AC
:10316000D456BD8A8506B3D7D70259BF05456394A7
:10317000A600E546CDB73D456396A600D146B38788
:10318000F602E9BF8906E5BFBD8AB7177A00850652
:1031900093870720C9BF0583BDB701A097D1FF1F43
:1031A00093814173175100201301C1E51785000079
:1031B0001305C59197D5FF1F9385C5E413864194E8
:1031C00063FAC5008322050023A05500110591056F
:1031D000E3EAC5FE13854194938541C96377B50041
:1031E000232005001105E36DB5FEFD42739002BC7E
:1031F000AD4273904280996293828208739002304C
:1032000097D2FFFF938242E093E2320073905230F4
:10321000EFF0FFD797F2FFFF938202117390123401
:1032200073002030EFC2DFFCB727014093870740CF
:10323000631EF500854513050020EF00102781452A
:1032400013050020EF0070266FC0DFFCB737014088
:1032500093870780E31AF5FE854513050040EF00CC
:10326000D024814513050040F1BF5841B707F1E074
:103270009387F7EF944D7D8F9C41D58FD44DD58F9B
:10328000D441A206D58FD98F5CC11845B7F7F1FF9D
:103290009387D77FD4457D8F9C49D58F94458606EB
:1032A000D58FD98F1CC55855B70710FFFD177D8FD7
:1032B000DC29FD1793F7F70FD207D98F5CD58280F1
:1032C0001C4589C593E717001CC58280F99BEDBF9B
:1032D0001C4593E787001CC5828008450D81058940
:1032E00082801C4593E747001CC582800845098100
:1032F000058982801C4591C537075000D98F1CC5B0
:1033000082803707B0FF7D17F98FD5BFA54763F7D8
:10331000B7048D47138765FF3307F7020328C500FD
:103320009D47B397E70093C7F7FFB3F70701B3963D
:10333000E600DD8E54C5994763E3C70495477D16C3
:103340003306F6025859FD47B397C70093C7F7FFF6
:10335000F98F3396C5005D8E50D982800D47338733
:10336000E502032805019D47B397E70093C7F7FFE0
:10337000B3F70701B396E600DD8E14C96DBFB14700
:1033800063E2C702954765163306F6021859FD47F2
:10339000B397C70093C7F7FFF98F3396C5005D8ECB
:1033A00010D9828095474D163306F6025855FD47D1
:1033B000B397C70093C7F7FFF98FB395C500DD8DAD
:1033C0004CD582806845420541818280B727014003
:1033D00093870740984711C5B7068000558F98C757
:1033E0008280B70680FFFD16758FD5BF1C4133F56F
:1033F000F5003335A0008280B7F7FF1F83A707725F
:1034000013D70701C207C1831D8DA9473305F502F4
:1034100087A6C192537707D05505D37705D0D3F748
:10342000D718D377F708538507E082805C4191C5B0
:1034300037070004D98F5CC18280370700FC7D17F5
:10344000F98FD5BFEFC2DFDA01112A84230401000E
:10345000A5441C8463F9F40423040100A546214615
:103460001C8463F0F608231501002304010095462F
:103470001C8463FBF60E38853C8599460D46B3F7F0
:10348000D702056513050580B3D7C7023357D702A6
:10349000BA97C207C1837C853C8505611D8D4205B5
:1034A00041856FC03FD71C4493E787001CC4228529
:1034B000EFF0BFE26DFD1C4493E747001CC422857A
:1034C000EFF0DFE26DFD78441C84860793870702E6
:1034D0008A972396E7FE1C84850793F7F70F5C8491
:1034E0008DBFA30401009C846378F6001C848507CB
:1034F00093F7F70F5C84ADB798849C840607850723
:10350000860713070702938707020A978A970357CC
:10351000C7FE83D7C7FE63F3E7049C8486079387BF
:1035200007028A9783D7C7FE7C859C849884850789
:103530008607938707028A9783D5C7FE93171700DC
:10354000938707028A972396B7FE9C843885850760
:103550008607938707028A972396E7FE9C84850750
:1035600093F7F70FDC8441B71C84388589078607F9
:10357000938707028A9783D7C7FEBA97C207C1838A
:103580007C851C84850793F7F70F5C84D5B5EFC263
:103590003FC60545152F0145052F6FC0BFC7411117
:1035A000B777004002C6938707C03EC6B2473E9534
:1035B0002AC6B2478CC341018280B7F7FF1F03A51B
:1035C0004770828058410C415045B70701409387AE
:1035D00007403E9793C6F5FF39C29043758E90C35E
:1035E000D043F18ED4C31443CD8E14C318419047F9
:1035F0009346F7FF758E90C7D047F18ED4C7144518
:1036000041466399C6009447D98E94C7D447558FD5
:10361000D8C78280B6979443558F98C382801C4345
:10362000F58F1CC38280B7070140938707409443FE
:10363000DC4B2A877D8D01C5F98E3335D000828021
:10364000B707014093870740C8CB82809C4513F79A
:10365000070113F8F70001C7D8413368E8008E214D
:1036600013F7F50F31C318418146054E930E8002C2
:103670003D4F930F800421433316DE00B3F8C5009D
:1036800063101603639AD70750C913962600B31820
:10369000CF0093C8F8FF33F7E8003316C800518F06
:1036A0008506E39B66FC18C11307F00F6375B7042A
:1036B00054410146054E930E8002130F80042143AE
:1036C000130786003317EE00B3F8E5006311170304
:1036D0006398D70358C9931826003D47331717013D
:1036E0001347F7FFF98EB3181801B3E6D8000506A3
:1036F000E31866FC54C18280E399F7F910C971B7E9
:10370000E39BE7FD18C9C1BF1C4533F5F500333510
:10371000A00082800CC982804CC9828019C20CC969
:1037200082804CC98280B708300093560501131778
:10373000050133731501BD8A418363530502B70741
:103740000140DC4F63151305C1060D46B316D600C4
:1037500093C6F6FFF58FC5E9370701405CCF82803D
:10376000370801400326480063121307B70600F12B
:10377000FD16B377D60003264800F18E2322D80029
:10378000BDCD558112053315A700C98F8DA8370609
:103790001000698E05C20D46B316D60093C6F6FF1B
:1037A000F58FDDD955811375F53F12053315A70047
:1037B000C98F5DB755811375F53F12053317A70003
:1037C0009346F7FFF58FC9D9D98F79B7B70710009E
:1037D000E98F99CB8D47B397D70093C7F7FFF18F48
:1037E000B706000FD58F69BF558112053315A700A5
:1037F0009347F5FFF18F3707000FD98FD9F53707BA
:1038000001405CC3828055811375F53F1205331763
:10381000A7005DBF93F635003707014093F5C50F4C
:103820002E9710478A06BD47B397D70093C7F7FF77
:10383000F18F1CC71C473315D5005D8D08C78280EA
:10384000EFC21F9B462101112A8468002E89C20401
:10385000D924C180D24793F404FCB7869303C204F1
:103860009386F66FC1801307C00363EAF6003747FB
:103870000F001307072433D7E70242074183D98C8F
:1038800046A0162061661306066AC206C182F99A2E
:10389000C206C18216A083260900636CD604860680
:1038A000B3D6D7021146B687C206C18263F3C600FB
:1038B0009147C207C1830507420741831AB05EAC36
:1038C0001E20035749008356A90093E717001EA046
:1038D0001E20558FC207C18393F757BFD98F1EA0F3
:1038E000035789008357C900D98F1EA405616FC093
:1038F0007F928355690031667D166399C5020D4636
:10390000B386C602B3D7D702C207C18393964701D5
:1039100099E293E71700A166D58F9306C01233078B
:10392000D7029306803E3347D70271B76546B38608
:10393000C602B3D7D7029166C207C183D58FF9B744
:103940001E2189C593E717001EA18280C207C1838B
:10395000F99BC207C183CDBF1E2189C593E707101C
:103960001EA18280C207C18393F7F7EFC207C1830C
:10397000C5BF1E2189C593E707201EA18280C2070B
:10398000C18393F7F7DFC207C183C5BF1E2189C575
:1039900093E707401EA18280C207C18393F7F7BF58
:1039A000C207C183C5BF0EA982800A291375F50F0E
:1039B000828093F7E50F19C293E715001EA9828054
:1039C0005E290A2D42055D8D6D8D220521810D8DAB
:1039D000133515008280411102C402C693D7C50178
:1039E0002AC63EC4A247A205A18199CBB247D107FE
:1039F0003EC6B247884341016D8D3335A0008280B9
:103A0000B247C181E107EDB723ACA198828003A73B
:103A10008199894714216311F70218318D4763EDAD
:103A2000E7003C211A079607D98F37E700E093F7A4
:103A3000F70F36972300F740054793D75600331703
:103A4000D700544189CA938707048A07B7E600E084
:103A5000B69798C3828093870706B7E600E08A0787
:103A6000B69798C30F1000008280377700401C4340
:103A700009C593E707101CC3828093F7F7EFE5BFF2
:103A8000B777004098431367470098C3984313677C
:103A9000270098C3B7F700E0938707D0984B1367C8
:103AA000470098CB984B5D9B98CB73005010828059
:103AB000B7160240DC4251777D17F98FC98FDCC2FF
:103AC0008280B71702402380070223800702054740
:103AD0006306E50011476306E50082802380A702A4
:103AE000828015472380E7028280371702401C53EB
:103AF000C98F1CD3828001C9371702401C53A166AD
:103B0000D58F1CD38280B71602409C5261777D17F7
:103B1000F98F9CD28280371702405C43A146B18B5B
:103B20006381D706B7177A00938707201CC1371621
:103B300002405C4237070020130707069183BD8BC4
:103B4000BA9794231C41B3D7D7005CC15442A182D9
:103B50009D8ABA969422B3D6D70014C55442AD823A
:103B60009D8A3697182393864185B3D7E7005CC5B5
:103B7000584239830D8B36971823B3D7E7021CC9F7
:103B800082805C435843C166C983758FB7F6FF1FB7
:103B900003A6C6709166BD8BF18E890795E6C54672
:103BA00001466393D700C94731EF374702400327E7
:103BB0000780418B39C337177A0013070720B38773
:103BC000E7022DD685839DB78946638DD700BD4614
:103BD000638CD700C146638CD700C546638CD70081
:103BE0000146D9B7C947EDBF0546B54775BF014680
:103BF000BD475DBF0146C14745BF37173D001307AD
:103C0000079075BFB7150240D855C166758FD4555A
:103C100021CB9182BD8A37177A00850613070720CA
:103C20003357D702D455A182BD8A89EE9546330712
:103C3000D7020583B7160240D456BD8A850633578E
:103C4000D702B5BF85456394B600E546CDB7BD45FF
:103C50006396B600D1463387E602E9BF8906E5BF21
:103C6000BD8A37177A00850613070720C9BF99C593
:103C7000371702401C4FC98F1CCF8280B7170240F4
:103C8000984F1345F5FF798D88CF828099C53717F6
:103C900002405C4FC98F5CCF8280B7170240D84F7B
:103CA0001345F5FF798DC8CF828099C5371702403B
:103CB0005C47C98F5CC78280B7170240D84713455D
:103CC000F5FF798DC8C7828001C9371702401C53A0
:103CD000C166D58F1CD38280B71602409C524177B3
:103CE0007D17F98F9CD282809357550005476399C1
:103CF000E700B71702409C4333D5A70005898280AF
:103D000009476396E700B71702409C53F5B7B7170A
:103D10000240DC53D5B7373700408357078089C549
:103D2000C98F2310F78082801345F5FFE98FD5BF37
:103D3000B737004003D74780136707012392E78016
:103D400082803737004083574780C207C183BD9BBD
:103D5000C207C1832312F7808280B7370040938760
:103D60000780962F9A2F131607014182E39BE6FEE8
:103D7000B737004093870780D62FDA2F1315070136
:103D80004181E39BE6FE37370040130707800E2F83
:103D9000162F93970601C183E39BD5FE630DF600B2
:103DA0003737004013070780522F562F139506010F
:103DB0004181E31BD6FEC2075D8D8280EFC24FC3F7
:103DC0002A84EFF0FFF613570401B737004042048E
:103DD000239CE7804180239E8780EFF09FF66FC091
:103DE0006FC3EFC2EFC02A84EFF09FF413570401B2
:103DF000B73700403D8B42042394E78041802396EF
:103E00008780EFF01FF46FC0EFC037370040130713
:103E100007805E2393F70702EDDF8280373700408B
:103E20008357478013070780C207C183DD9BC20702
:103E3000C1835EA35E23A18BF5DF8280B73700408C
:103E400003D747801345F5FF698F2392E78082806F
:103E5000373700408357478003570780C207698F71
:103E6000C18309C77D8D3335A000828001458280E2
:103E70006FF0DFFC1E210D6713070704B6217D8F4D
:103E80009E21D58FD621D58FF621D58F9625D58F1A
:103E9000B625D58FD625D58FF625D58FD98F1EA1DE
:103EA0005E2D7D771307F77FF98F5EAD9E291EA9E2
:103EB00082801E2189C593E707041EA18280C20764
:103EC000C18393F7F7FBC207C183C5BF4EA58280AC
:103ED0004A2582800A256D8D3335A000828037F710
:103EE000FF1F032747701E21B736014011833D8B0A
:103EF000C2077117114303D845009221C1839388EB
:103F000006C06363E3066306150393860640630AEF
:103F1000D50037570140930607C06304D5006317E7
:103F2000E5040967D98F93F7F7F8C207BA21C1836F
:103F300001A8BA2193F7F7F85D8F4207418389679B
:103F4000D98FFA2193F7F7CFC207C183D98F1EA16A
:103F500023160503B737014012B5138707C0631551
:103F6000E5069C251EB989A8E30F15FB370700401D
:103F7000E30BE5FA13070740E307E5FA37170040BC
:103F800093060780E301D5FA930607C0E30DD5F841
:103F9000B736014093860640E307D5F8B75601408F
:103FA000938806C0E30115F9E30FD5F66319E50020
:103FB0001EA12316050312B585475EA9828013074B
:103FC0000740E307E5FEB5BF93870740E30BF5F82D
:103FD000B7570140138707C0E305E5F8E31EF5FC7A
:103FE00049B71E294A25ED8F4205418189C76D8D4C
:103FF0003335A00082800145828093C5F5FFC2055C
:10400000C1810EA98280EFC2AF9E1629F577FD17F8
:10401000FD8EFE21DA250111D58F1EA95625FD77CB
:104020009387379FFD8EDE212A84AE84D58F962517
:10403000D58FB625D58F5EA55E29C207C18393F7BC
:10404000F7CFD98F5EA96800EFF0FFACB74701400A
:1040500093870780631EF402E2476547B387E70250
:104060009840930640060A07B3D7E70233D7D70232
:10407000B3F7D7021207920793872703B3D7D70264
:10408000BD8BD98FC207C1831EA405616FC08F98F5
:10409000D247E1B75E2589C50967D98F5EA58280C1
:1040A00079777D17F98FDDBF13F7F50F85471583F6
:1040B000B395B7006319F7009307C500984301CE85
:1040C0004D8F98C38280894693074501E318D7FE38
:1040D00093070501E5B793C5F5FFF98D8CC3828081
:1040E00093F5F51F4EA182804A211375F51F82803A
:1040F0000A216D8D3335A000828093F6F50F0546B9
:1041000095822A87B317B6006391C602562533F508
:10411000F6001E23C207C18301C9A18105473317D9
:10412000B700F98F3335F000828009466394C600EA
:104130001629F1BF5629E1BF83A7018537177A00F9
:1041400013070720B3D7E70293F7F70F2380F19AFD
:104150001307803EB387E702239FF1988280B7F769
:1041600000E0D8438146799BD8C303C7019A330640
:10417000A70290CBD4CB98431367070198C3984309
:104180001367170298C3D843058B75DF9843799B53
:1041900098C38280B7F700E0D8438146799BD8C3A3
:1041A00003D7E1993306A70290CBD4CB984313678A
:1041B000070198C398431367170298C3D843058B28
:1041C00075DF9843799B98C38280757122C726C595
:1041D0004AC34EC182FE86FC8AFA8EF892F696F4A5
:1041E0009AF29EF0A2EEA6ECAAEAAEE8B2E6B6E437
:1041F000BAE2BEE042FE46FC4AFA4EF852F656F4E7
:104200005AF25EF062EE66EC6AEA6EE872E603A5C8
:1042100001869305505276E47AE27EE0EFF0FFEDFE
:104220003DC503A50186EFF03FEC03C7C199930795
:10423000F0031375F50F63F4E700238E019803C7AD
:10424000C199938741C593041700BA9793F4F40F6B
:1042500088A3238E9198A947631BF50213060004D7
:104260008145138501BCEFB07FFF2686938541C54C
:10427000138501BCEFB0DFFA1306000481451385F6
:1042800041C5EFB0BFFD238E0198EFC07F883A444F
:10429000AA441A498A497670E6705671C671367218
:1042A000A672167386737664E6645665C6653666CE
:1042B000A666166786677278E2785279C279327A92
:1042C000A27A127B827B726CE26C526DC26D326E8E
:1042D000A26E126F826F496173002030EFB25FF1FE
:1042E0002A84116579718545110502C602C8EFF06F
:1042F0001F9893070020FC82B71401408D473ECCE5
:104300004C08E147138504803ECEEFF02FB49307AD
:104310000040FC824C089147138504803ECEEFF0AC
:10432000EFB222D003A50186B7070C000C103ED4D3
:1043300002D223160102EFF01FCD03A50186054628
:1043400093055052EFF05FD683A7C18568005C8665
:104350008547DC865C873EC8EFF06FEB03A50186DE
:104360008545EFF03FD345616FB0DFEAEFB2BFE6BE
:104370002E893284814463C5840022856FB0FFE8B2
:1043800003A5018693050004EFF09FD675D9B30706
:1043900099008385070003A501868504C205C181B4
:1043A000EFF01FD4C9BFAA8703A58185138741C930
:1043B000AA9763EBE7003787002013070780636540
:1043C000F70023ACF18482807D558280935775017C
:1043D00093F7F70F938617F80547635305007D574A
:1043E00079466345D60463D80600FD576383F6001B
:1043F00001473A858280B70580001386F5FF698EF4
:104400004D8ED94563D9D5009387A7F6B317F6002B
:104410003307F702F9BFB7074000B3D7D740B297C9
:104420005D46B306D640B3D7D700DDB7411106C607
:10443000EF10B046B2404101828093168501935738
:104440008501D58FC16613578500938606F0758F59
:10445000D98F22053707FF00798D5D8D8280B707E0
:1044600010000111FD1733F8B70093D84601F58FFE
:1044700022CC13D44501139737000E084AC84EC604
:104480009357D6019359D50113D9F5011374F47FCD
:1044900093F8F87F06CE26CAFD82B3E90901D98FC9
:1044A0009315350013183600330714416304D918E7
:1044B000635EE010638808209306F07F6306D452A1
:1044C00093068003854463C9E602B7068000D58F52
:1044D000FD4663C7E64293060002998EB394D70067
:1044E0003356E800B316D800D18CB336D00033D79A
:1044F000E700D58CB389E940B3849540B3B7950004
:10450000B389F940B707800033F7F900630807243F
:10451000FD17B3F9F9006386092A4E85EF10B054F0
:10452000130785FF93060002B387E640B3D7F40074
:10453000B399E900B3E73701B394E40063458732E8
:10454000018F0507998E3396D400B3D9E400333632
:10455000C00033663601B396D700B3E4C600B3D9C2
:10456000E700014493F7740081CF93F7F4001147FB
:104570006388E70093874400B3B49700A699BE848C
:10458000B7078000B3F7F90063870728050493078E
:10459000F07F6300F41CB70780FFFD17B3F7F90045
:1045A0001397D7018D80A607458FB1831374F47FCD
:1045B00052047E095D8C33642401F240A28562447A
:1045C000D2444249B2493A8505618280630F07109F
:1045D000338788406318043033E5B900630E05263D
:1045E0001305F7FF630E05481303F07F630A674264
:1045F0001307800385446346A7022A877D466340EC
:10460000E64413060002198EB394C90033D5E500C1
:104610003396C500C98C3336C00033D7E900D18C3E
:10462000998FB304984033389800B3890741468482
:104630003689C9BD6359E01263900810B3E60701DB
:10464000638F06201306F7FF630506369306F07F97
:10465000630ED7441307800385466346C70232873B
:10466000FD4663CBE63813060002198EB396C700E9
:104670003355E8003316C800C98E3336C00033D72F
:10468000E700D18EBA99B387B600B3B6D700BE841F
:10469000B699B7078000B3F7F900E9C3050493079B
:1046A000F07F6308F40AB70780FFFD17B3F7F9003E
:1046B00013D714008588458F9394F701D98C93D92B
:1046C00017004DB5B3E60701638B06189306F7FF95
:1046D000638106301306F07F630FC714130780034E
:1046E0008544E34BD7E03687E5B31307140013770F
:1046F000E77F6315071CB3E8B90033E707016310D0
:10470000042A638B0838630C073AB384054133B736
:1047100095003386F940198E37078000718F630149
:104720000740B305B840B38737413338B800AE848B
:10473000B389074136893DB59306F07F630DD40EEA
:10474000130680038546E340E6F4B7068000D58F64
:1047500001BF1304F07F8147014799BD13F774002F
:10476000E31507E089AA6307071033878840630DC4
:10477000041A9306F07F638DD82A130680038546BA
:104780006349E602B7068000B3E9D900FD4663C677
:10479000E63613060002198EB396C90033D5E5003C
:1047A0003396C500C98E3336C00033D7E900D18EA9
:1047B000BA973698B336D800C284B389F6004684D7
:1047C000C9BD2685EF10302A13078501FD46E3DBBE
:1047D000E6D4930785FFB397F40063498716B304C3
:1047E00087401387140063DBE634851493060002C8
:1047F000B3D49700630BD700930600043387E640D9
:10480000B397E700B337F000DD8C13F77400014471
:10481000E31D07D44DA093D734001397D901930615
:10482000F07F5D8F93D73900630FD400B207B18357
:104830001374F47FB5BB0E059397D9011357350058
:104840005D8F93D739005D8F09D701491304F07F3D
:10485000B70708000147A9BBC285BE89368993D72F
:1048600035003A845DBFB70980FFFD19198CB3F993
:104870003701CDB99306140013F7E67F6DE333E7F4
:10488000B9006311041E630A072433E70701630DAF
:1048900007242E98CE97B335B800B389B7003707F1
:1048A000800033F7E900C28419C7B70780FFFD17FE
:1048B000B3F9F9000544A685228755B7B3840541AD
:1048C00033B795003386F940198E37078000718F12
:1048D00045EF33E7C400B289E31F07C20149014431
:1048E0008147F9B11305F07F638CA812130680038A
:1048F0008544E348E6D237068000B3E9C900FDB934
:10490000930607FE13060002B3D6D700630AC7005A
:10491000130600043307E640B397E7003368F80056
:10492000B3340001D58CC9BEB3E6B9006382061A60
:104930001305F7FF3DCD9306F07F630BD70E1307EA
:1049400080038546E347A7E62A8789B5B70680FF37
:10495000FD16F58F198C1397D7018D83C1BD1307F1
:10496000F07FE388E6DE33870501CE97B335B700E5
:10497000AE9705839394F701D98C1D8B93D91700BB
:104980003684E31407BE05BFB305B840B38737418B
:104990003338B800AE84B38907413689ADBE639C15
:1049A00008126315071801491304F07FB7070800C0
:1049B00001B12E98CE97B335B800B389B700B707C9
:1049C0008000B3F7F900C2840544E38907D809449D
:1049D000D9B933880541B387F940B3B50501C2841D
:1049E000B389B740054439BE0E050D811397D9012F
:1049F000498F93D7390081BD130607FE9306000245
:104A000033D6C700630AD700930600043387E64015
:104A1000B397E7003368F800B3360001D18EA5B133
:104A20000E061397D7010D82518F8D83368921BDD4
:104A30000E061397D7010D82518F8D8329B513066A
:104A400007FE1305000233D6C9006309A70013054A
:104A500000043307E5403397E900D98DB334B00043
:104A6000D18CC1B671D733E80701E31008DE0E051B
:104A70009397D9010D813367F50093D73900E1B3DE
:104A8000B305B840B38737413338B800AE84B38933
:104A9000074136890544BDB4E30207E40E061397C7
:104AA000D7010D82518F8D83368949B39317350015
:104AB0008D831397D9015D8F93D7390069B393170D
:104AC00035008D831397D9015D8F93D73900B9BB1A
:104AD000C285BE8969B341DF8DBB0E061397D7012E
:104AE0000D82518F8D8399B30E059397D9010D8156
:104AF0003367F50093D7390015BB130607FE9306FD
:104B0000000233D6C9006309D70093060004338737
:104B1000E6403397E900D98DB336B000D18E51B954
:104B200033E7C400B289E31807D84DBB0E061397CC
:104B3000D7010D82518F8D83368931B393060002E0
:104B4000998E014639B4797193D7450122D426D282
:104B50004AD056CA5EC69394C50006D64ECE52CCF5
:104B60005AC862C493F7F77F2A84B28B3689B18022
:104B700093DAF501638C07101307F07F6387E7145E
:104B80008E04135BD501336B9B0037078000336BBA
:104B9000EB00131A3500938917C08144014C9357D9
:104BA00049011314C90093F7F77F31801359F901B4
:104BB000D5C31307F07F6384E7080E0413D7DB0126
:104BC000418F938717C037048000598C93983B001E
:104BD000B389F94001463D47B3C62A016368971877
:104BE00017670000130707BB8A04BA949C40BA9762
:104BF00082871D8F13068003635CE6408147014670
:104C00000147B2502254D207D18FFE06D58F92545D
:104C10000259F249624AD24A424BB24B224C3A857F
:104C2000BE85456182809307F07F01460147D1BF71
:104C300081469307F07F370608000147D9B7B3686C
:104C40007401938919806399081093E42400014446
:104C5000094651B7B3687401638B080E63060436C6
:104C60002285EF104060AA87930655FF7547938809
:104C700087FF158F3314140133D7EB00598CB39889
:104C80001B01CE979389373F0146B1B733EBA400A0
:104C900063090B0C638B04302685EF10C05C2A87F8
:104CA000930655FFF547130A87FF958FB394440188
:104CB000B357F40033EB9700331A44019307D0C085
:104CC000B389E7408144014CD9BD33EBA40063199B
:104CD0000B06014AA1449309F07F094CC9B5328CF7
:104CE00089476302FC3E8D47E304FCF48547CA868E
:104CF000E306FCF09387F93F6350F02213F7780046
:104D00006319073A37070001618F19C7B70700FF1A
:104D1000FD177D8C938709401307E07FE345F7F08B
:104D200093D838001317D401131694003367170172
:104D3000318293F7F77FF1B556895A84D2884DB7FF
:104D4000268B2A8AB1449309F07F0D4C89BD93E4E8
:104D500014000144054641B593E43400DE880D4655
:104D60009DBD014A91448149054C15BD636564238D
:104D700063018B225283FD19DA87014A13178400DD
:104D80001355070133D4A70213D68801598E13187F
:104D90000601135808019395880013570301B3F7D0
:104DA000A702B3088802C207D98F63F81701B29728
:104DB0001307F4FF63F9C7243A84B3871741B3D8C4
:104DC000A702131703014183B3F7A702B30F180318
:104DD000C2075D8F6378F70132979387F8FF637F8F
:104DE000C720BE884204C162336414011383F2FFFA
:104DF000B3786400935E040113DE050133F36500AC
:104E0000330F13033307F741B3081E0393570F0102
:104E1000B38F6E02FE98C697B38ECE0363F3F7018D
:104E2000969EC16FFD1F93D80701B3F7F701C20724
:104E3000337FFF01F698FA97636B17136307171315
:104E4000B307FA4033071741333AFA0033074741B3
:104E50006303E624B358A70293DE07013377A70262
:104E6000330F1803420733E7EE00637BE701329705
:104E7000938EF8FF6367C7246375E725F9183297A7
:104E80003307E741B35EA702C207C1833377A702A6
:104E90003308D8034207D98F63FB0701B297138702
:104EA000FEFF63EEC72063FC0721F91EB297C2081C
:104EB000B3E8D8011395080113DF08014181B30E4F
:104EC0006502B38707413305AE0213D70E013303E2
:104ED0006F021A952A97330EEE03637467004165DB
:104EE0002A9E41687D181355070133770701420751
:104EF000B3FE0E017295769763F7A70EB2971383F0
:104F0000F8FF3E8863E7C71663E5A71C638EA71CFE
:104F10009A8893E81800F9BB0547E39C07CC938770
:104F2000E9413396F8003336C000B317F400D18F4F
:104F3000B3D8E800B3E8F80093F778003354E400FE
:104F400081CF93F7F80011476388E7009387480003
:104F5000B3B817014694BE88B7058000E18D854738
:104F600001460147E39F05C8D5A8E37BFAECB30EE1
:104F7000BA0033BF4E01B30FCF007E97768A930FEE
:104F8000F4FF6377E60663601711638CE80E7E8496
:104F900045BDE3611ADF13571A001313FB01935742
:104FA0001B003363E3007E0AD1BBEF10C02B9306D6
:104FB0005501F14713070502E3D6D7CE930785FFC6
:104FC000331BF400014ADDB95E85EF10C02993065A
:104FD0005501714793070502E35AD7C86115814807
:104FE0003394AB0079B9E396A7F2E30507D039B75C
:104FF000E31FE6F8E3090FF87E8499B5E373F7DF62
:10500000F9183297C5B3E3F917DB7914B29775B382
:105010007D46E356E6F005561D8E93070002335693
:10502000C4006308F7009387E943B317F400B3E8BB
:10503000F800B3381001B3E8C80013F77800014650
:105040001DC393F7F800114701446389E700938774
:105050004800B3B8170133341001BE88131694000A
:105060001317D401318293D8380033E7E800814721
:1050700049BE9A88E31FA8E8E30EB7C693E8180074
:1050800095B9E3F6FEF0AE9E33BFBE00329F7914B1
:10509000768A7A9775B3130720C09387F93FFD5836
:1050A000E3CCE9E613874800B33817014694BA8881
:1050B00091B913F7F8001146E306C7C4E5B7BA8EF5
:1050C000FDB3F68875BBCA869307F07F014601479A
:1050D0000DBE139315003338B30032983E98F9187B
:1050E0009A85E30BA8F835B5E3E5E5FE9A88E31762
:1050F000B7F809B113D74501B7071000FD1713D84A
:1051000046011377F77F1303F07F33FEB700AA88B9
:10511000F58FFD811378F87FFD820545630A6700EE
:1051200063076800631407016300FE0282808280C7
:10513000E31EE8FEB367FE00D18FB3E71701FDF76A
:10514000958D3335B0008280E392C8FE6388D50028
:1051500071FF336E1E013335C001828001458280AC
:1051600013D84501B7071000FD1793D846011378EF
:10517000F87F130EF07F33F3B7002A87AA8EFD81E4
:10518000328FF58F93F8F87F13D5F601630CC803BF
:10519000638DC801631508043367E300639E08024A
:1051A0005D8E25C235EB1DC582805D8E25E66316BA
:1051B00008003363E300E30803FE639BA50099C97D
:1051C0002E8582803363E30063160304638E080335
:1051D0000545F9D97D5582806DF379F5E5BFE38901
:1051E00008FEE397A5FEE3C508FFE34A18FDE3E1E7
:1051F00067FEE316F3FCE36DDFFD0145E3E1EEFD41
:105200008280014571F78280D18F89E7E392A5FC06
:105210000145828079558280E38BA5FC55BF13D868
:105220004501B7071000FD1793D846011378F87FA2
:105230001303F07F33FEB7002A87AA8EFD81328FD9
:10524000F58F93F8F87F13D5F601630D6802638D2F
:105250006800631308043367EE00639308065D8EED
:105260003DC22DEB11CD82805D8E0DE663160800E8
:10527000336EEE00E3080EFE6381A5040545E5D517
:105280007D558280336EEE0063160E00E39808FFB2
:10529000D18F8DCF09458280E38208FEE390A5FE81
:1052A000E3CE08FD634B1801E3EAC7FD6317FE0078
:1052B000E366DFFD0145E3F8EEFBF9D12E85828040
:1052C00045FF55F175BF014555FB8280E398A5FA6E
:1052D00001458280E38AA5FC55B7397193D7450112
:1052E00022DC26DA4ED662CC9394C50006DE4AD87C
:1052F00052D456D25AD05ECE93F7F77F2A84328C9E
:10530000B18093D9F501638607161308F07F638295
:10531000071B8E049355D501C58DB7048000CD8C35
:10532000131A3500938B17C0014B814A93D746015E
:105330001398C60093F7F77FE28E1354C80013D971
:10534000F601F5C71308F07F638E07079316340044
:10535000938717C09355DC01D58D338E7701B7063F
:105360008000A94733E4D500931E3C000145130398
:105370001E0063C6671933C82901C2860946634700
:1053800066079308FBFF854563EB151B630DC5128C
:1053900085473688631FF506814781460147F250ED
:1053A0006254D207D58F7E08B3E70701D254425921
:1053B000B259225A925A025BF24B624C3A85BE8530
:1053C0002161828033678401138EFB7F630907109C
:1053D000056733C8290113070780136B3B00294673
:1053E000C2863383EB00634366430D45054633169F
:1053F00066011377065305C389476386FA0C8D4708
:105400006388FA12568585472684D28E3688E3054E
:10541000F5F81A8E79A493770624C5EF13768608DB
:10542000630F0610CA86A284768AAA8AF1B7B36788
:105430008401FDC3630B04322285EF00D0622A8E03
:10544000130755FFF547930E8EFF998FB316D401BE
:10545000B357FC0033E4D700B31EDC01338ECB41DD
:10546000130EDEC0A947014513031E00E3D567F103
:1054700079A033EAA400630C0A0836C66388042CBA
:105480002685EF00505EB2462A87130655FFF54782
:10549000130A87FF918FB3944401B357F400DD8C56
:1054A000331A44019307D0C0B38BE740014B814AC4
:1054B000B5BD33EAA40063160A048144214B930B63
:1054C000F07F894AA5B536889307F07F814601476A
:1054D000F9B501489307F07FB7060800C9B585679D
:1054E00093870780136B2B00A9463383FB0063D29D
:1054F000662B814EB9470945AD466387D730CE86C6
:10550000E5BD2A8A314B930BF07F8D4A05B5814466
:10551000114B814B854A19BD5E8E136B1B00A94749
:105520000144814E054513031E00E3D667E5C1BF64
:1055300001489307F07FB706080001478DB5C165A4
:105540001387F5FF93570A0193D80E01337AEA00C7
:10555000B3FEEE003307DA033386D7031355070192
:10556000B3864803B2963695338F17036373C5002D
:105570002E9FC1631386F3FFB375C500B376C400D5
:10558000718F935F0401C205B302DA02BA954181BB
:105590003387D70213D60201338A4F033A9A5296C1
:1055A000B387F7036373E6009E9741691304F9FF1D
:1055B0003377860093D30401B3F28200E18C420773
:1055C00033849E02169741823E963A95B3829802A2
:1055D00093570401B38ED303F6929697B38878025B
:1055E00063F3D701CA984169930EF9FFB3F2D7016B
:1055F000B37ED401C202C183C69733849602B388B6
:10560000D201B386D30293520401B3849F02B694AD
:10561000A692B38E7F0263F3D200CA9EC16FFD1FB4
:10562000B3F6F2013374F401C2067A95A296369667
:105630003337E5003297AA98BA9733B5A8003E955C
:10564000B336D6003336C700D18E33B7E70013D652
:105650000201B337F5005D8FB29636977697939E29
:105660009800935775012607B3EEBE003364F70028
:10567000B33ED00193D77801B3EEFE00B707000127
:105680002605E18FB3EEAE0089CF93D71E0093FEBF
:105690001E001317F401B3E7D701B3EEE70005804E
:1056A0001A8E9307FE3F635AF00413F77E0001CF72
:1056B00013F7FE0091466308D70013874E00B33EF0
:1056C000D7017694BA8E37070001618F19C7B707E3
:1056D00000FFFD177D8C93070E401307E07F6345A5
:1056E000F70A93DE3E001317D40193169400336734
:1056F000D701B18293F7F77F5DB10547D5E3130E6C
:10570000EE413396CE013336C000331EC401B3DE02
:10571000EE003366C6013366D60193777600B35543
:10572000E40081CF9377F60011476388E700930781
:10573000460033B6C700B2953E86370580006D8DB2
:10574000854781460147E31C05C475A0EF00B031D1
:1057500013065501F147B24613070502E3D9C7D234
:105760006115014AB314A40035BB6285EF00B02F68
:1057700013075501F147130E0502E3D5E7CC611578
:10578000814E3314AC00D9B99307F07F81460147AD
:1057900039B133C82901C2860144814E0945F9BE99
:1057A0001D8F93068003E3C9E6BEFD46E3D9E6F408
:1057B0008556B387F64093060002B357F40063089A
:1057C000D700130EEE43331EC401B3EECE013336C1
:1057D000D0015D8E1377760081461DC39377F60066
:1057E000114781456389E7009307460033B6C70038
:1057F000B335C0003E86939695001397D501B182CC
:105800000D82518F814761BE3A8429B93D476317A4
:10581000EB000148B7060800014751B62287AD47A3
:105820000D45D9B9B7071000FD170111B3F8B7003E
:1058300013D84601F58F8E081397370022CC26CA5D
:1058400013D445014AC89357D6011359D50106CE42
:105850004EC61378F87F1303F07F93D4F5013369B4
:1058600019011374F47F93183500FD82D98F9315B5
:1058700036006302681C93C6160033070441638236
:10588000D4126356E0686304081E630B64529306E7
:105890008003854963CBE602B7068000D58FFD46BD
:1058A00063C2E63E93060002998EB399D70033D6C1
:1058B000E500B396D500B3E9C900B336D00033D7BD
:1058C000E700B3E9D9003309E940B3893841B3B7F8
:1058D00038013309F940B70780003377F9006307CF
:1058E0000728FD173379F900630709284A85EF0077
:1058F0009017130785FF93060002B387E640B3D7DE
:10590000F9003319E900B3E72701B399E900634BC4
:10591000872E018F0507998E3396D90033D9E90078
:105920003336C0003366C900B396D700B3E9C6006A
:1059300033D9E700014493F7790081CF93F7F90059
:1059400011476388E70093874900B3B937014E993F
:10595000BE89B7078000B377F9006388072605047E
:105960009307F07F630EF41EB70780FFFD17B37730
:10597000F9001397D70193D93900A6073367370188
:10598000B1831374F47F85885204FE045D8C458CCA
:10599000F240A2856244D2444249B2493A85056147
:1059A0008280635AE0586312081AB3E6B70063872F
:1059B00006241306F7FF6301063C630267441307DE
:1059C000800385466346C7023287FD4663C2E640D0
:1059D00013060002198EB396C70033D5E50033963F
:1059E000C500C98E3336C00033D7E700D18E3A994F
:1059F000B3871601B3B6D700BE893699B7078000C2
:105A0000B377F9006384071605049307F07F6309F1
:105A1000F414B70780FFFD17B377F90013D7190007
:105A200093F91900336737019399F701B3E9E90056
:105A300013D9170009B733E7B7001303148029CB34
:105A4000638CD404630C030A6302041A0E061397D2
:105A5000D7010D82518F8D83B6845D8F630207104D
:105A600081441304F07FB7070800014731BFB3E654
:105A7000B700638506189306F7FF63880632630D47
:105A80006730130780038549E341D7E4368701BDBA
:105A900093C61600E398D4FA630D03166313042625
:105AA0001307F07FB36619016387063C9306F7FF7F
:105AB0006384062C1305F07F6305A7241306800377
:105AC00005476345D6027D47634DD73E1306000266
:105AD000158E3317C90033D5D8003396C800498FC7
