:040000006F30B07934
:1000040000000000000000007405000076050000F8
:1000140000000000983F0000000000000000000005
:10002400983F0000983F000000000000000000001E
:10003400983F000000000000983F0000000000000E
:10004400983F0000983F0000983F00003C300000BB
:10005400983F0000983F0000983F0000983F000040
:10006400983F0000983F0000F0050000983F000012
:10007400983F0000983F0000983F0000983F000020
:10008400983F0000983F0000983F0000983F000010
:10009400983F0000983F0000983F0000983F000000
:1000A400983F0000900C0000983F0000983F00002B
:1000B400983F0000983F0000983F0000983F0000E0
:1000C400983F0000983F0000983F0000983F0000D0
:1000D400983F0000DA50000058040000983F0000E8
:1000E400983F0000983F0000983F0000983F0000B0
:1000F400983F0000983F0000983F0000983F0000A0
:1001040000000000EE350000983F0000983F00001A
:10011400983F0000983F0000983F0000983F00007F
:10012400983F0000983F0000983F0000983F00006F
:10013400983F0000983F0000983F0000983F00005F
:10014400983F0000983F0000983F0000983F00004F
:10015400983F0000983F0000983F0000983F00003F
:10016400983F0000983F0000983F0000983F00002F
:10017400983F0000983F0000983F0000983F00001F
:10018400983F0000983F0000983F0000983F00000F
:10019400983F0000983F0000983F0000983F0000FF
:1001A400000000000000000000000000000000004B
:0C01B4000000000000000000000000003F
:1001C000397101436EC619A0397141536AC866CAB4
:1001D00062CC5ECE19A0397101535AD056D252D496
:1001E0004ED64AD826DA22DC06DE3301614082820E
:1001F00041114AC026C222C406C68282B24D4101C4
:10020000024D924C224CB24B4101024B924A224A7F
:10021000B2494101024992442244B24041018280E4
:100220002A8309CA83830500230073007D16050312
:1002300085056DFA828015C22A8385466367B500FD
:10024000FD561307F6FF3A93BA9583830500230002
:1002500073007D163693B6956DFA82802A8311C697
:100260002300B3007D16050365FE8280EFF25FF880
:1002700079712A8485453705020002CA02CC02CE74
:1002800002D002D202D402D602C602C8EF40D00188
:1002900085451545EF40607FB71401408D471149F2
:1002A0003ECC4C08E14713850480231A21013ECE41
:1002B000EF40A019A1474C0813850480FC824ACE68
:1002C000EF40A01822D03704002003258415B7077B
:1002D0000C000C103ED402D223160102EF40B043B2
:1002E00003258415054693055052EF40F04C9307C3
:1002F00060137C86680085475C873EC8EF400051EC
:10030000032584158545EF40F049456121B7EFF29B
:100310009FEC2E84A9452A89EF70203011C9AD6564
:10032000230005009385C5714A85EF70402D0504B3
:100330008144B709002063C38400C1BD03A58915AA
:1003400093050008EF40D04B75D9B307990083851A
:10035000070003A589158504C205C181EF405049F6
:10036000D9BFEFF25FE7B707002013172500938787
:100370000702BA9703AA07002A892E845285B289F8
:10038000EF70602CAA8401E81379F90F9D4752841D
:1003900063F427039DBDA9452285EF70002809CD90
:1003A000AD65230005009385C5712285EF7020257A
:1003B0002285EF704029AA8463890900A5652286F9
:1003C000938585C20145EF00D001A2943709002032
:1003D000E38284FC0325891593050008EF40504211
:1003E00075D983050400032589150504C205C1815B
:1003F000EF401040F1BFEFF2BFDFB707002083A549
:1004000007002A84EF7040250DC1B7070020238024
:100410000716038791808D476318F7001305C05DA9
:10042000EF00C07923A8A198F5B3B707002083A5F2
:10043000C7152285EF70402211C983C78195EDD77A
:1004400023AA019405472388E194F9BFB707002048
:100450007D572380E716C9BF757122C726C582FE66
:1004600086FC8AFA8EF892F696F49AF29EF0A2EE44
:10047000A6ECAAEAAEE8B2E6B6E4BAE2BEE042FE14
:1004800046FC4AFA4EF852F656F45AF25EF062EE24
:1004900066EC6AEA6EE872E676E4370400207AE2F7
:1004A00003258415930550527EE0EF4010363DC180
:1004B00003258415EF40503403D7A1959376F50FAB
:1004C00093071700C207C183239DF1949387819DF1
:1004D000BA9703D7A19588A3930700106314F70078
:1004E000239D0194A9476397F6028387819D81CB61
:1004F00025659385819D130585C2EF60F073138593
:10050000819DD53D1306001081451385819DB9332A
:10051000239D01943A44AA447670E6705671C671E0
:100520003672A672167386737664E6645665C6657F
:100530003666A666166786677278E2785279C2795F
:10054000327AA27A127B827B726CE26C526DC26D3F
:10055000326EA26E126F826F49617300203083C7C2
:10056000819581CB1147054681451145A384E180E2
:10057000CDBB828001A0757122C726C582FE86FC94
:100580008AFA8EF892F696F49AF29EF0A2EEA6EC13
:10059000AAEAAEE8B2E6B6E4BAE2BEE042FE46FC43
:1005A0004AFA4EF852F656F45AF25EF062EE66ECF3
:1005B0006AEA6EE872E676E4B707EFBE7AE237E7FA
:1005C00000E07EE093870708371401403CC7814470
:1005D0001304048099E8054685442285A145EF303F
:1005E000D0731305800CF523F5B701468144F5B7A8
:1005F000197182FE86FC8AFA8EF892F696F49AF2C7
:100600009EF0A2EEA6ECAAEAAEE8B2E6B6E4BAE242
:10061000BEE042FE46FC4AFA4EF852F656F45AF252
:100620005EF062EE66EC6AEA6EE872E676E47AE222
:100630007EE083C7419981CFC14537150140EF3036
:10064000906C238CA182938581AE3D45092941455B
:10065000EF30505D01C54145EF30705E7670E67059
:100660005671C6713672A672167386737664E66426
:100670005665C6653666A666166786677278E2783E
:100680005279C279327AA27A127B827B726CE26CE6
:10069000526DC26D326EA26E126F826F096173006D
:1006A0002030EFF2FFB405650111854511053714BF
:1006B000014002C002C202C402C602C802CA02CC81
:1006C000231E0100EF40603C054613050480C14530
:1006D000EF30B064C1478D448A85130504807C8067
:1006E0003EC426C2EF30705613050480C145EF307A
:1006F00050629307000261498A85130504807C805B
:100700004AC426C2EF307054930700047C808A8567
:100710009147130504803EC4EF303053930700081F
:100720008A85130504807C804AC426C2EF30F051CC
:10073000B70704013EC6B70702003EC8B70700026C
:1007400003A5818185073ECAA1473ECC6C009D4729
:10075000FC86EF40206303A581818545EF406066FC
:1007600005614DBCEFF2DFA8AA8403A5818189450C
:10077000EF4040677DD903A58181A685EF400066E3
:1007800003A581818545EF40E0657DD903A5818181
:10079000EF4000651375F50FB5BCEFF27FA5B714F8
:1007A00001400146C14513850480EF3010571545BF
:1007B000553F1305F00F7D372A84054613850480C5
:1007C000C145EF3090552285B1B4EFF27FA2F137E9
:1007D000058975FD81B4EFF2BFA1371401400146D0
:1007E000C14513050480EF3050531945A53F054618
:1007F000C14513050480EF30505229BCEFF25F9FD2
:100800003715014041110146C1451305058002C25B
:1008100002C423060100EF3050501305F009993748
:100820000144A54401453D3F5C00A29788A305040F
:10083000E31A94FE1C86988537150140A207D98FCC
:1008400013948700A1835D8C0546C145130505807F
:100850004204EF30904C41802285410165BAEFF2AD
:100860003F992A89371501402E8413050580C1451B
:10087000B2840146EF30704A0D45ED351355040141
:100880001375F50FC535135584001375F50FD93D54
:100890001375F40FC13D014493170401C18363EC48
:1008A0009700371501400546C14513050580EF3017
:1008B000D0466FF03F9601457535B307890088A390
:1008C0000504D9BFEFF2DF922E842A89B284213742
:1008D000371501400146C14513050580EF30F0434F
:1008E00009454935135504011375F50FA53D1355F9
:1008F00084001375F50FBD351375F40FA53501444C
:1009000093170401C18363ED970037150140054635
:10091000C14513050580EF305040453D6FF09F8F76
:10092000B307890088230504353DD9BFEFF2DF897D
:1009300013F9F57FAA8A2E8493DBB50063000906BC
:10094000850B8569938509800545EF60100A2A8A21
:10095000814431C17D5B93890980138CFBFF050BBA
:1009600063926B055285EF60F0082685EF40F01D1D
:10097000B706002013178400218093874616418F05
:10098000DAA30D6788C313072741214681451385E4
:100990004616FAA3053F26856FF09F860569130961
:1009A000098045B763136C01CA8913960901D6857E
:1009B000418252856D3526854E86D2858120CE9A1C
:1009C000AA8471BFEFF2DF824111280021468145E0
:1009D00002C402C6693538878D6793872741014570
:1009E000631BF7002245EF40501683A741973385DC
:1009F000A7401335150041016FF0DF819DC515C675
:100A00002D671345F5FF2E96130747179C21935624
:100A100085008505A98F93F7F70F8A07BA97884352
:100A2000358DE395C5FE1345F5FF8280A3000500D3
:100A3000230005001306250001471548FD569305C0
:100A40000003B307070318A205071506AA97B4B356
:100A5000D4A3D4B3F4A3E316B7FE0545828098214E
:100A60009547B307F702AE97D423B033A206D18ED1
:100A7000D0334206558EF423E206D18E7D5663981C
:100A8000C60293568500A8B3D4A39356050161818D
:100A9000E8A3D4B3038527009307170093F7F70F54
:100AA0001307F0026373F70081479CA182807D5594
:100AB0008280143195472A86B387F602AA97D823F5
:100AC000AC3322074D8FCC33C205D98DF823620792
:100AD0003365B7007D576304E502B8B3D8A3D8B334
:100AE000F8A3634E05009387160093F7F70F1307DB
:100AF000F0026364F7001CB28280A30006008280CB
:100B0000938781AE98239546938581AEB306D7022D
:100B10007D55B697D423B033A206D18ED03342068A
:100B2000558EF423E206D18E7D566396C602A54605
:100B300003852700B4B323820700A3820700238321
:100B400007009307170093F7F70F1307F00263737B
:100B5000F70081479CA18280D30705F0D39717C087
:100B600053F717D09CC1D3F7E70807A70193D3F732
:100B7000E710D39717C0DCC1828083A741983E95C8
:100B80008280EFF2EFE683C7219A2E848DE7EF2073
:100B9000802F138841C603467800834668000347C8
:100BA00008008347180003482800AD65938505DCDD
:100BB0002285EF60B02022856FF0CFE583A7819872
:100BC0003E95828083A7819833B5A7001345150011
:100BD000828003A781983A9503A78198E36EA7FEC8
:100BE0008280397126CAAE8485654AC8938505809E
:100BF0002A89054506CE22CC32D436D63AD83EDAFA
:100C000042DC46DEEF60605E39C12A840145630D37
:100C10000900A285BD37AD659385C5DD2285EF60EE
:100C2000101E2285EF603022856593850580341083
:100C3000898D2686229536C6EF60D0402565A2852F
:100C4000130585C2EF60407F2285EF60A05AF24015
:100C50006244D244424921618280EFF26FD9371752
:100C600002401C4F41112313010093E747011CCFA1
:100C7000A1477C8237150140C1473EC64C008D47D5
:100C8000130505803EC4EF30407C41016FF08FD8E2
:100C900075713735014082FE86FC8AFA8EF892F62D
:100CA00096F49AF29EF0A2EEA6ECAAEAAEE8B2E6BC
:100CB000B6E4BAE2BEE042FE46FC4AFA4EF852F60C
:100CC00056F45AF25EF062EE66EC6AEA6EE872E69C
:100CD00076E422C726C58545130505C07AE27EE085
:100CE000EF4020218547631AF50683A781982A845F
:100CF000850723A4F19803C7D19819C7938581AEBE
:100D00001545A3860198A13B03A681989307703EE1
:100D10003376F60239E283A6C197014799E222862B
:100D2000054737150140A1451305058023AEE1961F
:100D3000EF30A07E83A74198938581AE85070D454E
:100D400023A2F198293B83A741982947B3F7E702EB
:100D500089E7938581AE11451933373501408545C3
:100D6000130505C0EF40601A3A44AA447670E67055
:100D70005671C6713672A672167386737664E6640F
:100D80005665C6653666A666166786677278E27827
:100D90005279C279327AA27A127B827B726CE26CCF
:100DA000526DC26D326EA26E126F826F4961730016
:100DB0002030EFF2EFC3B71602409C4E05670111D9
:100DC00013070780D98F231C0100231E010002C6D0
:100DD00002C8231B0100231D01009CCE83D7A182E2
:100DE000373401404C08FC8483D78182130504C04A
:100DF000930404C0FC8293072003230EF100EF301C
:100E0000107FF9572318F4C0930790027C8668007E
:100E100085475C873EC8EF30701F8357C4C093E797
:100E200017002316F4C0835704C093E7170023105C
:100E3000F4C005616FF00FBE9377F500114763961C
:100E4000E704B7073230137505F093870750630B3B
:100E5000F50E63E2A702B7073030938707506307A8
:100E6000F50EB7073130938707506305F50E2D65F2
:100E7000130505E38280B707333093870750E318E3
:100E8000F5FE2D65130505DE82802147E391E7FE1F
:100E9000B7077130137505F0938707506300F50CA1
:100EA00063EAA704B7075B3093870750630CF50A22
:100EB00063E2A702B7075030938707506308F50A2B
:100EC000B707523093870750E313F5FA2D651305E2
:100ED00005E28280B7075C3093870750630CF50802
:100EE000B707703093870750E313F5F82D651305A6
:100EF00085E88280B7B77031938707506300F508A3
:100F000063E2A702B707723093870750630CF506B8
:100F1000B707733093870750E31BF5F42D6513056E
:100F200085EB8280B7B77331938707506300F5066E
:100F3000B7B7753193870750E31BF5F22D6513059D
:100F400085E582802D65130505DF82802D651305FB
:100F500005E182802D65130505E082802D6513056E
:100F600085E982802D65130585E382802D65130553
:100F700085E482802D65130585EC82802D6513053F
:100F800085E782802D65130585EA82802D6513052E
:100F900085E68280AD65938585ED014599B1EFF2D7
:100FA0002FA57971AA848145130600020808EFF085
:100FB000EFAA85451305002002C202C402C6EF3025
:100FC000D02CD9E80145EF30900E372401401305AD
:100FD0000440EF300005B7070E003ECE0C088547F1
:100FE000130504402302F10202C802CA02CC02D057
:100FF000EF308007854513050440EF30400C8145F4
:1010000013050440EF30602213050440EF30200C3C
:10101000130904404A85EF30200C6DFD1305044090
:1010200037240140EF30C00B130904404A85EF30EC
:10103000C00B6DFD13050440EF30A0202398A1964E
:10104000854513050440EF30401E81E40545EF302F
:10105000C01745616FF00F9C85454145EF30F02288
:101060000145EF30D004930700024C0037150140D2
:101070007C8202C6EF30603D89BFEFF26F97372464
:101080000140AA858D46054613050440EF30E00770
:10109000854513050440EF30C0059304044089459D
:1010A0002685EF30801465DD13050440EF306011B4
:1010B0006FF04F96EFF22F922E8AC13703C9D19667
:1010C000AA84138481AD631A0902A1470AA02AA049
:1010D0004AA06AA00AA42AA44AA46AA4A386F196F4
:1010E00013070401814716200904B697E31DE4FEA7
:1010F0008D832310FA0005452DA03946938581ADD7
:101100001385A1ADEFF02F939D4706A063E527015E
:101110000509A386219703C7D196A1470145E3019D
:10112000F7FC6FF08F8E03970197AA872A970145E6
:101130006340070291CF05669306F6FF3685635933
:10114000C7003E856386D700131507014181828061
:1011500082808967138787506302E50213870764DB
:101160006306E50293870740631AF502370702001A
:101170002D6523A2E19613054505828037070400FB
:101180002D6523A2E19613058506828037070800A6
:101190002D6523A2E1961305C50782802D651305F1
:1011A00005098280EFF22F8355711306C003814534
:1011B000C80082C0EFF08F8A1306C0048145480141
:1011C00002C1EFF0AF8983C7E1968400638A0714F8
:1011D00003A6418263480600AD659385850B26858D
:1011E000EF60C03D83C7C1966381070E83C7B19688
:1011F000130780056381E716130700066381E7166E
:101200002D66130606E3AD659385450D0801EF6075
:10121000E03A83C7A196D5CB138481C518301C2032
:10122000283022075D8F3C2062052C10C207D98F21
:101230005D8DEFF07F9258305C20683022075D8F23
:101240007C2062050C18C207D98F5D8DEFF0DF900E
:101250000801EF60403FD257B2560969130909717E
:10126000B3D727034257225613080108AD6593856B
:10127000450E4295B3D62603EF60403403C7B196BE
:1012800093070006631DF70218341C242834220734
:101290005D8F3C2462052C18C207D98F5D8DEFF05D
:1012A000BF8B0801EF60203AF2566256AD65B3D6A7
:1012B00026031C01938505103E95EF602030AD6537
:1012C0009385C5100801EF60803303A4018403A552
:1012D0000198EFF07FB603A78185B7470F0093878A
:1012E00007243357F702AA8603D581962DCD3ACE2F
:1012F00036CC8535E2467247AA8703C6219725CAB0
:101300002D681308880AAD6526C093080108228657
:10131000938505110545EFF0DF8C69616FE0FFEE05
:1013200087A70182530700F0D307F7A0E38C07EAF1
:10133000538507E02C18EFF03F82F25689679387B8
:101340000771B3D6F6026256AD659385450C2685C6
:10135000EF60C02641BD2D66130686096DB52D666A
:101360001306060A4DB5A5679387C7CF79B72568D9
:101370001308C8CF49BF4DC6EFE21FE5368AD9CE64
:10138000AE8AC9CDAA84931526000545B289EF50CF
:10139000D0652A8441C5EF60002B2D6B268693050E
:1013A0004B162295EF6080210149AD6B2285EF60DD
:1013B0008029B3872A0190239385CB1622950509AE
:1013C000EF60C01F63852903B3674903E5F383A575
:1013D000C1832285D294EF6080222285EF60A0260F
:1013E000268693054B162295EF60401DC1B72285D6
:1013F000EF60602522950307F5FFA9476307F70013
:1014000083A5C1832285EF60801F2565A285130512
:1014100085C2EF6060022285EF50D05D6FE05FDE35
:101420008280EFE25FDB3169AA840144130959C16C
:1014300089492685EF6020216364A4006FE0FFDC0A
:10144000B3868400838706003387270118230D8B1A
:101450006313370181179CA20504E1BFEFE25FD956
:1014600079718545454502CA02CC02CE02D002D22E
:1014700002D402D602C602C8EF302061930780046E
:1014800041444C08371501403ECEE082EF20F07B0E
:1014900091450945EF30E017081022D022D40544C9
:1014A00022D602D2EF20F0719307A0117C8668004B
:1014B00089475C8722C8EF30603545616FE09FD572
:1014C000EFE27FD10111AA842E842545854502C211
:1014D00002C402C602C802CA02CC02CEEF30E05AF1
:1014E00085450945EF300004854537052000EF307C
:1014F000A05B3719014093070010714A8D494C00D9
:10150000130509C07C8252C64EC4EF2010749307A5
:1015100000204C00130509C07C8252C64EC4EF2047
:10152000D072E08403A54184B707FFBF3ECA93078A
:101530000040FC850C089167FC8626C8EF3020101F
:1015400003A541848545EF30801F03A5418485456F
:10155000EF30A02305616FE05FCBEFE2DFC7AA8425
:101560002E8B328AB68903A54184B7050200EF307D
:1015700060262A896DF903A541848545B70A0300D1
:10158000EF30601D850A03A54184D685EF30202306
:101590007DD903A54184860493F4F40F0146A68502
:1015A000B70A0700EF30C020938A2A0803A54184B8
:1015B000D685EF30C0207DD903A54184DA85B70AEE
:1015C0000700EF30201E938A4A0803A54184D68580
:1015D000EF30E01E7DD903A541848545B70A03009D
:1015E000EF306017850A03A54184D685EF30201DB2
:1015F0007DD903A54184A6850546B7040300EF30D5
:10160000201B890403A54184A685EF30401B7DD9AA
:10161000B70400109384040493170901C18763C9B8
:10162000370103A541848545EF3080146FE0FFBD8D
:1016300003A54184A685EF30E0197DD903A5418437
:10164000EF308016B3072A0188A30509F1B7EFE24E
:101650009FB8AA842E8A3289B68903A54184B7052A
:101660000200EF30201775F903A541848545B70ABC
:101670000300EF30400E850A03A54184D685EF3084
:1016800000147DD903A54184860493F5E40F014637
:10169000B7040700EF30C0119384240803A54184E8
:1016A000A685EF30C0117DD903A54184D285B7044A
:1016B0000700EF30200F9384440803A54184A685DA
:1016C000EF30E00F7DD9370A0010B70A0700FD544C
:1016D000130A0A08938A4A088504C204C18403A530
:1016E000418463C734018545EF3080086FE0FFB166
:1016F000D285EF30200E6DD18345090003A54184CA
:10170000130B1900EF30000A03A54184D685EF3092
:10171000000B7DD95A89C9B7EFE29FAD41119307FC
:1017200060FBDC870DC52A8485461306F10093050E
:10173000000E13056007213F1305600785462286CA
:101740009305000D193D054541016FE0BFAC014512
:10175000E5BF6350C002AA87054591CDEFE25FA9BE
:10176000B286130560072E86BE85C53B01456FE036
:101770007FAA054582808280EFE29FA7B7F740F2FB
:101780004111938757523EC485475C8603C7B19683
:10179000930700062A8495466303F7008D463000C0
:1017A0009305400F130560075D358D4630009305A6
:1017B000300F1305600755332C000D461305140038
:1017C000EFE01FA641016FE0FFA4EFE2DFA0AA89CE
:1017D000E1461386C1C19305800813056007EFF049
:1017E000DFD79387C1C423A0070023A2070023A447
:1017F000070083A7C1C19384C1C123AAF1C2DC4001
:10180000138441C35CC09C441CC4DC445CC49C483D
:101810001CC8DC485CC893070006639AF904854637
:101820001386C1C19305100A13056007EFF0FFD2BC
:101830009C209D461386C1C19305100E13056007B9
:101840001CACEFF09FD183D7C1C1D8203EACBC20E7
:101850009376F70011835CACBC309207D58F7EACD9
:10186000DC309207D98F1EB0FC202301F402014521
:101870006FE0BF99EFE2DF9479712A8432853AD024
:10188000938441C336CE2ECCEF506064AA8C8A205C
:10189000AE8BEF50A06A03A6018883A64188AA8A6E
:1018A0002E8A6685DE85EF40501403A6818883A6C4
:1018B000C188AA892E895685D285EF4010132A86C1
:1018C000AE864E85CA85EF40F06603A6018983A6E1
:1018D0004189AA892E896685DE85EF40101103A60D
:1018E000818983A6C189AA8CAE8B5685D285EF40AB
:1018F000D00F2A86AE866685DE85EF40B063AA8A61
:10190000039524002E8AEF50805C2A86AE86568589
:10191000D285EF40900DAA8A039544002E8AEF509D
:10192000005BAA8CAE8B4E86CA864E85CA85EF4078
:10193000D00B2A86AE866685DE85EF40100B2A86A0
:10194000AE865685D285EF30902203A6018A83A603
:10195000418AAA892E89EF4000102AD42ED64E85BE
:10196000CA85EF506050EF50805603A6818A2AD274
:1019700083A6C18A2E8BEF40500703A6018B83A656
:10198000418BEF40305B83970401AA890395A40043
:101990003EC68397E4002E893EC88397C4003ECAA2
:1019A000EF50E0524E86CA86EF4030044E86CA861B
:1019B000EF40B00303A6818B83A6C18BEF40F002FA
:1019C000AA8B039584002E8AEF5060504E86CA86FB
:1019D000EF40B0012A86AE865E85D285EF303019A1
:1019E00003A6818B83A6C18BEF40300003A6018C38
:1019F00083A6418CEF40607F03A6818C83A6C18CB7
:101A0000EF30F016AA8CEA202E8CEF502053668619
:101A1000E286EF40807D01468146AA8C2E8CEF4005
:101A2000605E630B052C4E86CA864E85CA85EF40E4
:101A3000C07BAA8D32452E8DEF5060492A86AE8636
:101A40006E85EA85EF40607A03A6018C83A6418CFF
:101A5000EF40A0792A8D4245AE8DEF5040474E862B
:101A6000CA86EF4080782A86AE86EF3050106A86AC
:101A7000EE86EF30D00F03A6018D83A6418DEF4097
:101A8000C076AA8D72452E8DEF5060442A86AE86B0
:101A900003A5818D83A5C18DEF40D049AA89524508
:101AA0002E89EF50C04203A6018E83A6418EEF40DF
:101AB000C0736E86EA86EF30900B03A6818E83A6F4
:101AC000C18EEF4080722A86AE864E85CA85EF4071
:101AD000704603A6018F83A6418FEF400071668692
:101AE000E286EF305077AA89039564012E89EF5082
:101AF000003E4E86CA86EF40406F4E86CA86EF4053
:101B0000C06E03A6818F83A6C18FEF40006EAA8CA2
:101B1000039544012E8CEF50803B4E86CA86EF40E1
:101B2000C06C03A6018C83A6418CEF40006C2A8612
:101B3000AE866685E285EF3090032A8C03952401FA
:101B4000AE8BEF50C0382A86AE866285DE85EF30D8
:101B5000100203A6019083A64190EF4000694E86D3
:101B6000CA86EF30D000AA8703A6818783A6C187E3
:101B70003E85EF30506E03A6819083A6C190EF4062
:101B8000C0666247930700062A89AE896319F71673
:101B900003A6019183A641911255DA85EF40903951
:101BA0002A8C0255AE8BEF5080322A8D03950402A9
:101BB0002E8BEF50C03103A6018983A64189EF40E7
:101BC000C0626286DE86EF4040622AC60395E40169
:101BD000AE8DEF50C02F03A6819183A6C191EF4037
:101BE000C060B2472A86AE863E85EE85EF3020780B
:101BF0002A86AE866A85DA85EF40D0332A8D038542
:101C0000C4012E8BEF50A02C03A6019283A6419213
:101C1000EF40A05D6286DE86EF40205D03A6818CEA
:101C200083A6C18CEF30A0742AC603852402AE8D32
:101C3000EF50E02903A6019283A64192EF40E05ABB
:101C40006286DE86EF40605AB2472A86AE863E85BF
:101C5000EE85EF40805903A6818C83A6C18CEF30BE
:101C600000712A8C0395A401AE8BEF50402603A689
:101C7000819283A6C192EF4040572A86AE86628544
:101C8000DE85EF4080562A86AE866A85DA85EF408B
:101C9000C055AA8B038584012E8BEF504023DA8632
:101CA0005E86EF40805403A6818B83A6C18BEF40F4
:101CB000C0532A86AE8603A5818C83A5C18CEF40D4
:101CC0007027DA865E86EF40405203AB818783AA95
:101CD000C1872A8A5A86D686AE84EF40603963412E
:101CE000A008014681465285A685EF404044635CCA
:101CF0000500014A814401A881478145B5B503AA81
:101D0000018783A44187B2552255EF500030135705
:101D100085009357850118B01357050108A038A016
:101D20003CB0CE854A85EF50402E1357850093571F
:101D3000850158B01357050148A078A07CB05285A2
:101D4000A685EF50802C1357850018B49357850152
:101D50001357050108A438A43CB445616FE00FCACD
:101D60005A8AD6844DB7EFE2AFC82A8437150140AE
:101D70008565130505C0EF20007A03A50185894517
:101D8000EF3040067DD903A50185A285EF3000051F
:101D90000545EF30C02D371501408565130505C099
:101DA000EF2020776FE00FC7EFE2EFC22A89AE8401
:101DB0000144634494006FE04FC503A50185894544
:101DC000EF3040027DD9B30789008C2303A501853C
:101DD0000504EF30A000F1BFEFE28FC12A8421811A
:101DE000EFF07FF81375F40FEFF0FFF76FE08FC29D
:101DF000EFE20FC0B71401402A8493050040138519
:101E000004C0EF2040712285EFF0FFF593050040FC
:101E1000138504C0EF20E06F6FE0CFBFEFE2AFBBF0
:101E2000AA891305A0023684AE843289EFF05FFCE4
:101E30004E85EFF07FFA4A85EFF01FFA1305B002E6
:101E4000EFF01FFB2685EFF03FF92285EFF0DFF87A
:101E50001305C002EFF0DFF96FE02FBBEFE24FB9DF
:101E600001118545214502C002C202C402C602C852
:101E700002CA02CC231E0100EF20304185451165C6
:101E8000EF209042096937140140930709C08D443F
:101E90007C808A85C147130504C03EC426C2EF205A
:101EA000C05A8A8523102101130504C061494AC420
:101EB00026C2EF20805991677C808A85914713055F
:101EC00004C03EC4EF206058E1778A85130504C042
:101ED0007C804AC426C2EF204057B7C704013EC6E3
:101EE000B707020003A501853EC8B70700028507B2
:101EF0003ECA6C009D47FC8602CCEF20B06803A56B
:101F000001858545EF20F06B014505616FE08FB0DD
:101F1000EFE28FABB28A368A7D16FD16C206420604
:101F2000C18241823A8BAA8B2E84EFF03FEF3715A6
:101F300001408565130505C0EF20E05D93598B00D6
:101F4000636A4405371501408565130505C0EF2018
:101F5000405C6FE0EFAA03A501858945EF209068FA
:101F60007DD903A50185CE85EF20506703A50185A6
:101F70008945EF2030677DD903A501858504DA8581
:101F8000C204EF20B065C180E3E754FD05044204BC
:101F900041807DB7DE84CDBFEFE28FA51971AA84A1
:101FA0001306C0072E8448008145EFE02FAB1306CF
:101FB000F007930500020A85EFE04FAA2685EF504F
:101FC00080681319850113598941635989023304C3
:101FD0002441058462046184A685330581004A8614
:101FE000EFE00FA4060493070408338427004A9403
:101FF0008A852685A30004F8EF50C0632685096111
:102000006FE04FA1EFE22F9D328493D9860093F9C0
:10201000F90F011401113E8913FAF60F9387F9FFA6
:102020003304340336C4B386F5009307FAFF33064E
:10203000F500C2064206C1824182C2843AC6EFF070
:10204000FFDD9317890013598900B3E72701FC844A
:102050003715014093978400A180C58F85651305CE
:1020600005C0FC860604EF20004B0149A16A636CA1
:102070003901371501408565130505C0EF2060491A
:1020800005616FE08F98B2478144A29703DB070098
:1020900063E5440105090904D9BFB3179B00B3F7F1
:1020A0005701680891C328088945EFF0FFCF8504E0
:1020B000C5B7EFE26F91411136C43AC61DC2034A5B
:1020C000810083499100AA842E84BE8A428B130921
:1020D0001600930BF00E294C930C00020306F9FF37
:1020E00001E641016FE0CF91B387440163DCFB005F
:1020F0004E9442044180B3073401E3C4FBFE8144A3
:10210000630396036303860323044101A30431019F
:10211000A24632472685D2945A88D687A285C20421
:10212000EFF05FEEC180050955BF4E944204418037
:102130008144D5BFEFE22F8A83A701961399160039
:102140004209AA84AE8A328AB68913590901A9CBF9
:102150009386FAFF1306FAFF2696CE96C20642062B
:102160002685C1824182D68503AB4181EFF01FCB2A
:10217000371501408565130505C0EF20C03981443E
:1021800063994403371501408565130505C0EF20A9
:10219000403803A50196EF50E00523A0019601A861
:1021A000CA850545EF50600423A0A19655F16FE064
:1021B000CF8503A501964A86DA85EFE04FEA814A8A
:1021C00093970A01C18313971A0063E737018504C7
:1021D000C2044A9BC1806DB703A501968945850A53
:1021E0003A95EFF07FBCE9BFEFE28F804111EFF04D
:1021F000FFC62945EFE0FF9D3714014085659385B3
:102200000580130504C0EF20C0302945EFE07F9C16
:1022100093050020130504C0EF20A02F2945EFE00F
:102220005F9B4545EFF0DFBC13058007EFE07F9A29
:1022300013056003EFF0DFBB13050007EFF0BFB23B
:102240001305A003EFF0DFBA1545EFF0DFB113057A
:10225000200BEFF0FFB9B71700339387C7C0954540
:102260003EC00A85930730035C82EFF0FFB313058D
:10227000700BEFF0FFB713055003EFF0DFAE13055F
:10228000B00BEFF0FFB613052003EFF0DFAD130541
:10229000200CEFF0FFB50545EFF0FFAC1305300C57
:1022A000EFF01FB55545EFF01FAC1305400CEFF0F4
:1022B0003FB413050002EFF01FAB1305600CEFF005
:1022C0003FB33D45EFF03FAA1305000DEFF05FB2BD
:1022D0001305400AEFF03FA91305100AEFF0BFA85D
:1022E0001305000EEFF0DFB0AD65394693858558D4
:1022F0000A85EFD0FFF2B9450A85EFF0FFAA130572
:10230000100EEFF0FFAEAD653946938585590A850D
:10231000EFD01FF1B9450A85EFF01FA91305100290
:10232000EFF01FAD370400201305900213040404DE
:10233000C164EFF0FFAB13090401FD141A2001453D
:102340009306000F1306000F8145EFF07FBC1E209F
:102350001305D0076393970005450904EFE07F87D5
:10236000E31E24FD014541016FD0DFEA1305800221
:102370006FF01FA8EFD2DFE45971EF20E00323A034
:10238000A1980945EF202048EF10D02FEF20D04B27
:10239000EFE03FA2EFE07F8CEFF04F8C138581AE32
:1023A000EFE0CFE82386A198716513050520EF20A3
:1023B000F06371468145C80882C8EFD03FEAEFF06C
:1023C000BFE27D47FD461306000F81450145EFF052
:1023D0003FB44167130707809306000F1306000FF1
:1023E0009305F00C0145EFF0BFB2EF0050392381A7
:1023F000A19A854705453A842387F196EFE03FBAD5
:1024000083C7E19681E74147238EE1800945EFE0EC
:10241000EFFA2AC23725060093056007130505A8C1
:10242000EFF00F8A1385B19602DC02DEEFF0CFAE3B
:102430002386A1961DC103C7B1966545238CE198FB
:10244000EFE0CFF703C7B196930700062A89194B2F
:102450006307F71899473EC429A099477D5B3EC49E
:1024600001492D651305455CEF502012EFE06FA385
:10247000EFE0CFB82394A196896713878750630A4A
:10248000E500138707646306E5009387074063153B
:10249000F500A14723AEF194938581AE3545EFE079
:1024A0000FDCB565938505CC4145EFE02FC883A5CA
:1024B000C19523AAA196A1C51146880082C0EFE06C
:1024C0000FBA03A70183864763FBE70083A7018355
:1024D00083A5C19511468800BEC0EFE0AFBE864718
:1024E0007D57638EE70023A8F18203A5018383A7AC
:1024F000C1823E95EF20406E2945EFE08FED71657A
:1025000013050520EFD09FD61305C05DEFE00FEB5C
:102510002AC8EF104075AA896309050C05651305E3
:102520008538EFE0AFE9930710022A8463EB370B9D
:10253000B70700201397290093870705BA979043A0
:10254000AD65CE869385855C0545EFE08FE9A28970
:102550000145EFE03FC585473ED2AD6793870772DF
:1025600002CC02CA02CE814C02C60144FD5DC144C8
:102570003ED483C7C1983ED0C5E3238A0198EF209B
:10258000805F83A7C18283A5C195B307F54023A8C7
:10259000F18291C9138501831146EFE0AFB21305B3
:1025A000A00FEFE00FE38547E39AFC04B707EFBE07
:1025B00037E700E0938707083CC737150140A1457E
:1025C000130505800146EF105075AD659385457084
:1025D0000545EFE00FE10545EF20D02CEDBFA14709
:1025E0009DBD2D66130606E3A1BFAD659385455ECF
:1025F0000545EFE00FDFEF10A072938701C7F847A2
:10260000B047AD6532075182598E05829385455F8B
:102610000545EFE00FDD2DBFE3910CF6630E0900D9
:102620004A85EFE02FDA11C9FD576307FB00938558
:1026300081AE5A85EFE0AFC20149C24789CF3E85DE
:10264000EFE04FD811C90D47054681450D45A384DC
:10265000E180EFD01FD102C803A5419519C983C7F6
:10266000019581EBEFE00FD609C523AA0194EFD0C5
:102670001FEF638C09084E85EFE0CFD415CDEF1026
:10268000805E2AD629CD096513050571EFE00FD3C9
:10269000B25693071002AA8963EFD702B70700204A
:1026A0001397260093870705BA979043AD659385E6
:1026B000855C0545EFE0EFD2138581AEEFE06FBF9B
:1026C00023AAA1827D15B94763E4A70CA2570A0586
:1026D0003E951C4182872D66130606E3C1BFAD659A
:1026E0009385455E0545EFE0CFCFEF10606393879C
:1026F00001C7F847B047AD6532075182598E058250
:102700009385455F0545EFE0CFCD814975B7AD6550
:10271000938585601385C1BDEF4010746316052451
:10272000AD65938505611385C1BDEF40F072631FF0
:102730000522AD65938585611385C1BDEF40D071DC
:102740001DC51905EF40102A03A70183637BA7026B
:1027500023A8A18203A5018383A7C1823E95EF2010
:10276000A047938581AE3945EFE06FAF19A8AD65FD
:10277000938505621385C1BDEF40106E39C1EFE04E
:102780007F8125659385C1BD130585C2EF40D04A81
:1027900003A5019909C9EFE0EFC211C523A801986B
:1027A0000547238AE198924781CB3E85EFE08FC1B0
:1027B00009C50547A386E19802C20545EFE06FC150
:1027C0004DBBAD65938585621385C1BDEF40D06873
:1027D00029C5930B55005E85EF40D02083A7419615
:1027E000AA84E370F5FA9305A0035E85EF40F062DA
:1027F0001304001019CD0505EF40D01E2A8485670B
:10280000420541819387078063F3A7003E84420419
:102810004180938581AE294581BFAD659385056370
:102820001385C1BDEF4050633DC5930B65005E85C8
:10283000EF40501B83A74196AA84E374F5F49305F7
:10284000A0035E85EF40705DFD5D31C1130415008E
:102850002285EF403019931D05019305A0032285C1
:10286000EF40B05B93DD0D41130400100DC1050571
:10287000EF4050172A84856742054181938707807E
:1028800063F5A70005641304048042044180938526
:1028900081AE2D45D1BDAD65938585631385C1BDE1
:1028A000EF40905B09C5938581AE354575BDAD653B
:1028B0009385C5631385C1BDEF40105A31C593059B
:1028C000D0031385C1BDEF4050551DC9930B1500B2
:1028D0005E85EF40301183A74196AA846372F502AA
:1028E0009305A0035E85EF4050531304001009C9FF
:1028F0000505EF40300F82571314050141803EC695
:10290000938581AE31458DB5AD659385056413859D
:10291000C1BDEF40705411CD930B45005E85EFE0D3
:102920005FB05E85EF403052AA855E85EFD03F9E56
:1029300089BDAD65938585641385C1BDEF40D051D8
:10294000E30105E403C781838547631BF700AD6599
:102950009385855A2D6513050565EF40F02D15B556
:10296000AD659385455BFDB7894C21BD854C11BD97
:1029700083A5C195E38E05E0114613850183EFD051
:102980007FF4938581AE1145EFE06F8D11B583A77C
:10299000C19982C082C282C482C689CB03A68197B4
:1029A000AD65938545668800EF405041B2479DC3B1
:1029B000A2852685EFD09FF79386F4FFAD652A8721
:1029C0009C00A2962686938505670545EFE06FA1DA
:1029D00002C67DBBB565938505CC2685EFD01FF576
:1029E000AD652A8623AAA19694009385456905457D
:1029F000EFE02F9FF1BFEFD0FFFC0DC541679306BD
:102A0000000D1306000F9305000201457D17EFF03E
:102A10002FD0930600091306600B930560027545DD
:102A2000EFF04FF19257E38507D603A50198130AFB
:102A3000000DEFE06FC0AA858808EF40B03F83A784
:102A4000C1849305000F880898339C23330AEA4019
:102A5000B3C5F502420A135A0A01EFF0EFD303A7F8
:102A6000C18441682A86144358437D189307F01C9B
:102A7000D2852145EFF0EFE302D219BBEF20A00F82
:102A80008C08EFE00F9083A7C1849305000F88089E
:102A90009C23B3C5F502EFF02FD003A7C184C16713
:102AA0002A86144358437D48FD1791451145EFF0A0
:102AB0004FE0F9B983C7219A91E7F1260145EFE08C
:102AC0006FEEF9B10145EFE04F8BD5BFA28505450B
:102AD000EF40A0712A8AE30D05CAAD65268693856D
:102AE000056B0145A286EFE0CF8F2286A685528531
:102AF000EFD0FFD6930600022286D2852685EFE02E
:102B00009F8779B1A2850545EF40206E2A8AE301AF
:102B100005C8AD656E87A28626869385856C0145BE
:102B2000EFE02F8CFD576393FD02814729A0330707
:102B3000FA001CA38507139707014183E36987FE09
:102B40002286A6855285EFD0FFD76DB7228693F5F2
:102B5000FD0F5285EFD08FF0E5B7FD5723AAF18224
:102B600005B903C5C18193056103EFE0AFD405CD7D
:102B700003156103EFE02FDB8567938747CE231BA7
:102B8000A1023305F502318523A2A18283C7E19614
:102B900089E7EF10406623A0A1821305B004EFE09F
:102BA000EF812AC2F5B60547A386E198D5B613850D
:102BB0008199EFE07FBC13052003EFE02F802A8985
:102BC0001D4BF9B693878199983322462C183D8B7B
:102BD0001305700F98B302DC02DEEFE09FB7E31934
:102BE00005BA03C5B196EFE05FBEE31305BA13055E
:102BF0002003EFD0BFFC2A89214B59BE83468103B5
:102C0000834791030346B103B2069207DD8E8347E3
:102C1000A103320683C5B1969183DD8E8347C1033C
:102C2000014792075D8E8347D10391835D8E9307A1
:102C30000006639AF5008357E10313978700A18389
:102C40005D8F42074183138581C5EFE0BFC2130545
:102C50004006EFD0BFF6138681C5054714322385A1
:102C6000E1961C223822A206DD8E3C324207558FA7
:102C7000E207B3EBE700D3870BF072672A899387EB
:102C800081C553A7E7A039C3D833D423D26722071D
:102C9000558FF423C206D98EF8336207558F530738
:102CA00007F053A7E7A01DC398379427E2672207D0
:102CB000558FB427194BC206D98EB8376207558F86
:102CC000530707F053A7E7A0E31407ACD433D82386
:102CD00003CB7700A206D98EF823620B03CAB70094
:102CE0004207558F9437336BEB009827A206620A90
:102CF000D98EB8275E855ACA4207558F336AEA00D3
:102D000052CCEF20A05D2ACE5A85EF20205D72467E
:102D1000AD65AA869385856E8808EF40300A03C7A3
:102D2000B196930700066312F7028808EF40B011CE
:102D30002A8B5285EF20805AAD659C082A869385A0
:102D4000856F33856701EF40700783A78184930502
:102D5000000F130AC00E98339C238808330AEA40F8
:102D6000B3C5F502420A135A0A01EFF0EFA203A716
:102D70008184C1672A861443584313880780D2850B
:102D8000FD172145EFF0EFB2194B5ECE11B403C72A
:102D90008183370A00209377F70F01CB05476382C1
:102DA000E704FD572300FA1611A891472300FA16ED
:102DB000238C019423AA01942388019403C781835F
:102DC0009307F00FE306F79C03470A16B7070020A6
:102DD000938707000A07BA978843EF40007B6FF09C
:102DE0003F9B0D4705652300EA1613058538238CA4
:102DF000F194EFD0BFDC23AAA194C9B78947639EA1
:102E0000FCFAEFF0AFD6EF1090276FF00FFB1377BF
:102E10003500AA8711EF130740063377E502054511
:102E200009EB13070019B3F7E70213B51700828007
:102E30000145828013074006B377E5023355E5026A
:102E40004D471375F50F6374A7009387470613D595
:102E500027003E951D473375E5022D6713078776DA
:102E60002E970347F7FF8D8B3A96329542054181A5
:102E700099E7894763E5B7007D15420541819D4784
:102E80003375F5028280EFD22FB45564EF10B04E47
:102E9000130404183354850203D7019AAA846306E5
:102EA00087042390819A9309207B1309C016130A83
:102EB000D01663608908938741C6AD6A23923701B3
:102EC000138941C681496D4B938ACA75854B714CF4
:102ED000138A1900636F8B06137AFA0F0504230314
:102EE00049011374F40FA3038900D567938707186A
:102EF000B3F4F4028567938707E1138441C633D79F
:102F0000F402B3F4F4021377F70F18A01307C00309
:102F1000B3D7E402B3F4E40293F7F70F1CB024A094
:102F20004A206C207030EFF0FFF008A401456FD00C
:102F30002FAD4E85EFF0BFED11C9E30E44F713043A
:102F400024E98509C20993D90901A5B7130434E915
:102F5000CDBF03554900EFF09FEB19C9639A790182
:102F6000E30C84F70D1493190A0193D909018DB765
:102F7000D69983C70900E361F4F61D8CEDB7EFD253
:102F80002FA74111854537050018EF10F031054591
:102F9000EF10900D0545EF10704FEF10203F0545E5
:102FA000EF10101201449304A00F13051004EF104A
:102FB000703511ED63169400228541016FD08FA505
:102FC000050451451374F40FEFD0BFC0F9BF930748
:102FD000A00FE303F4FE13050010EF10F0100545F9
:102FE000EF105011EF103044EF10104585450545A6
:102FF000EF103034EF103043EF10503521657D1560
:10300000EF10F03FEF10304203A5018383A7C18288
:1030100001443E95EF10503CEF107034A965938544
:10302000151A1145EF108037CD473EC4280085475B
:103030003EC6EF10A07DEFF01FE5BDBF197105453D
:1030400082FE86FC8AFA8EF892F696F49AF29EF048
:10305000A2EEA6ECAAEAAEE8B2E6B6E4BAE2BEE0B8
:1030600042FE46FC4AFA4EF852F656F45AF25EF028
:1030700062EE66EC6AEA6EE872E676E47AE27EE098
:10308000EF10D03E19C1EFF01FE01545EF101040D2
:10309000EF1070397670E6705671C6713672A6728E
:1030A000167386737664E6645665C6653666A666EC
:1030B000166786677278E2785279C279327AA27A94
:1030C000127B827B726CE26C526DC26D326EA26EAC
:1030D000126F826F096173002030378701405C43B3
:1030E00093F707F05D8D48C3828083C8019B83A757
:1030F000C19A138681CD231AF50483D781CD230B82
:103100001505A306050013978700A1835D8F1C4258
:103110005AA1584213D8E7012300050113D8A7018B
:103120001378F80093D68701A3000501C1831358D3
:1031300007018D8A1378F80F3CB19357870134A1AA
:10314000920793564800D58F7EA19357870093F638
:10315000F70F13D37600A304650013D367401373EE
:1031600013002305650013D3574013731300A30501
:10317000650013D34740137313001378F800230638
:1031800065002304050105431046938581CD6375D1
:1031900013010D43639D681E8568938808C0AA07C4
:1031A0000A07B3F717011377C73FD98F1357E60103
:1031B000D98F1357B601935686011D8B58A913F763
:1031C000760058B9135706019376F70F958274A9C4
:1031D000935627409D8A74B99356860093F6F60F4E
:1031E000060793D87600198B3367170118AD854809
:1031F0000907339808011CC9B398E800850733878D
:10320000170323280505B3A7F8029358F841B3889C
:10321000E802B3870703C697B308070333370703EA
:1032200023241505BA977CC593D76640858B1CBDB2
:103230009377F60F13D7770093F7F7073CBDDC457C
:10324000860693F6E607D98E13D7F70158AD13D744
:10325000D7010D8B58BD13D7A7011D8B78AD13D7A0
:10326000070134AD1376F70F93D667011587935591
:103270006600058BB18ACD8E2300E50213D7870047
:1032800074BD058A9376F70F2301C50213D6760025
:10329000A301C50213566740058A2302C5021356CF
:1032A0005740058A8D8AA302C5022304D50213560E
:1032B00047400987938681CC0D8BA303E502984292
:1032C00093F7F70F8583A304F5029357870123062D
:1032D000F5029357070103A846009355870093F71B
:1032E000F70F93F5F50FA207CD8F7EB593558800A4
:1032F0009357880193F5F50FC207CD8F6207D98FD9
:10330000C16513570801FD1522076D8FD98F9846A7
:103310001CD9230A05039357870103A8C600A30AF3
:10332000F5029316870093570701ED8EE207D58FBC
:1033300093568801D58F2207B706FF00758FD98F66
:103340008346C503135708019375F70F9181CD8EFE
:10335000230ED5028566938606F02207758F935655
:103360008800058A93F6F60F2303C5021CDD054687
:10337000558F9377F80F2305C5027ABDA300050288
:1033800085832300F504A300C50401458280894795
:10339000E39CF8E89317070137073F00F98F1357AD
:1033A00086012207D98F135706011377F70FD98F9C
:1033B0001CC9850713D7D700CE07935686003CC596
:1033C0009307002093F6F60F78C53CC9B1BDEFC254
:1033D0003FE24164FD547D14631894001305F05FCF
:1033E000EF10D019014501A813050008EF1030189F
:1033F0007DD10D4565F46FC0FFE1EFC27FDF41670E
:103400008147FD56378601407D17631DD70013F4B1
:10341000470011EC93F7070499CF13050004EF1050
:10342000F01511A85C5A93F55704F9DD6DF31145B9
:10343000EF10D0140D4422856FC0DFDDEFC25FDBDB
:10344000AA84378401405C5893F75704EDDF114597
:10345000EF10F01119C51145EF1050120D456FC056
:103460007FDB0545EF10B01011C50545EF101011B9
:103470000545F5B71C484145E39397FE9307F05F78
:103480001CDC4848B7E7FFFDA1077D8DC9BFEFC22F
:103490003FD6938701D09D46D4C39306000488C3CA
:1034A00094C7138501D09306004023A6070094CB50
:1034B000EF10D0061D45EFF07FF86FC0BFD5EFC20B
:1034C0003FD3378401405C5893F70710BDC303C74F
:1034D000819A8547631CF704938701D03147D8C38D
:1034E0001307000498C7138501D01307004023A0D9
:1034F000070023A6070098CBEF1050023145EFF0EC
:10350000FFF323A2A19AB7870140985FD1769386F3
:1035100056CC1367071098DFD85F758FD8DF054743
:10352000A381E19A03A5419A6FC0DFCE23A2019A3D
:10353000D9BF0945EF10B00319CD0945EF101004AC
:103540005C5C5177130757CCF98F5CDC094723A2E9
:10355000E19A0945D1BF2145EF10700119CD2145F0
:10356000EF10D0015C5C5177130757CCF98F5CDC0E
:10357000114723A2E19A114545BF13050002EF1040
:10358000007F05C113050002EF10407F5C5C51779E
:10359000130757CCF98F5CDC194723A2E19A194530
:1035A00061B74145EF10A07C19CD4145EF10007D7A
:1035B0005C5C5177130757CCF98F5CDC154723A26D
:1035C000E19A154595B713050020EF10407A29DDE3
:1035D00013050020EF10807A5C5C5177130757CCFD
:1035E000F98F5CDC1D4723A2E19A1D4535BF6FF0C2
:1035F0001FEDEFC2FFBF378701405C5B93F75704B5
:10360000EDDF1145EF10A0762A8401C91145EF10B6
:10361000E0760D4422856FC0FFBF1305F05FEF1009
:10362000E075CDBFEFC25FBA938741D1130720FB8E
:10363000138541D1D8AB23A0070023A2070023A400
:10364000070023A6070023A80700EF1060670D45B9
:10365000EF10006B0545EF1040691309A0041384B7
:1036600001D0130A004022852320040023220400F5
:10367000232404002326040023284401EF10006AB9
:10368000EFF0FFD4AA8435CD7D191379F90FE31C2F
:1036900009FC26856FC0DFB6630059153707004067
:1036A000F98FE5DB09472388E19AE5B74169014ACB
:1036B000B78AFF80054B930B0004130C0040B78CB6
:1036C00001407D19138501D0232054012322640178
:1036D000232474012326040023288401EF100064AE
:1036E000EFF03FF109ED83A74C01050A63C5070020
:1036F000E31A2AFDD5A063012A0F0D476DB7AA84EE
:1037000049BF9307A01A1CC0A1475CC093070004DF
:103710001CC4138501D0930700401CC82326040055
:10372000EF10C05FEFF07FCD014A11E50547238818
:10373000E19A370A0040930770035CC093070004C6
:103740001CC4138501D0930700401CC8232004002B
:1037500023260400EF10805C13057003EFF01FCEEA
:103760002A8929F5B7071080C16A130C7003130B5F
:103770000004930B0040336AFA00930C9002FD1A88
:10378000138501D023200400232284012324640113
:103790002326040023287401EF10405813057003FA
:1037A000EFF0DFC929FD138501D023204401232236
:1037B0009401232464012326040023287401EF10BC
:1037C000E055EFF01FE305FDB7870140DC4B05092D
:1037D000E3C407ECE31659FBED4465BDEFC25FA1FE
:1037E0004167FD56378601407D176312D702918BE2
:1037F00085E70545EF10A0572A8409C50545EF1058
:10380000E05705441305F05FEF10405711A85C5ACC
:1038100093F55704F1D961FF1145EF1020560D447F
:1038200022856FC03F9FEFC21F9BAA89AE84378954
:1038300001408327490393F75704E5DF1145EF1053
:10384000005301C91145EF1060530D4422856FC02C
:10385000DF9B0545EF10A0512A8411C50545EF10E7
:10386000E0510544E5B783270901638437014144EA
:10387000F1BF1305F05FEF106050832749013967EE
:103880007D8F01E7C1839EA0D1B709677D8F09EBCA
:1038900011677D8F69FF2167F98FCDDB3D447DB7CF
:1038A0004D446DB7EFC2DF94854741117C87EF101F
:1038B0004046AA8713055002E1CB03C7019B9147FD
:1038C0006303F704938701D00947D8C31307000C9B
:1038D00098C7138501D01307004023A0070023A633
:1038E000070098CBEF108043EFF05FEF51ED378783
:1038F0000140544B938781CC94C3144FD4C3544F8D
:1039000094C71853D8C783C7019B09476376F70448
:1039100019476383E70483C6019B8D476397F602CB
:103920003887938701D0420798C31307000498C7CC
:10393000138501D013070040D4C323A6070098CBFA
:10394000EF10C03DEFF09FE921E103C7019B9147D4
:10395000631FF70201450DA8938701D00D47D8C317
:103960001307000498C7138501D01307004023A054
:10397000070023A6070098CBEF10403A9305E1001B
:103980000D45EFF05FEA41D941016FC0BF8838872C
:1039900023A6E19A938701D0420798C32547D8C34D
:1039A0001307000C98C7138501D01307004023A606
:1039B000070098CBEF108036EFF05FE271F53787A4
:1039C0000140544B938781CD94C3144FD4C3544FBB
:1039D00094C71853D8C7BDBFEFC2EFFF938401D07F
:1039E0004111C147138501D0214B930A0004130AEA
:1039F00000402E89DCC002C402C623A0640123A4B7
:103A0000540123A6040023A84401EF1020314145AE
:103A1000EFF0DFA22A8469E183A7C19A138501D060
:103A200023A45401C2079CC093077003DCC023A6E3
:103A3000040023A84401EF10602E13057003EFF07B
:103A4000FF9F2A8451E9938781CE7D5798C313073E
:103A5000000398C70947D8C7138581CE0547D8CB3F
:103A600023A2670123A80700EF10602D93073003FE
:103A7000138501D0DCC023A0040023A4540123A695
:103A8000040023A84401EF10602913053003EFF070
:103A9000FF9A2A8431E18944B789014083A7490309
:103AA00093F7A76295E337052000EF10402C7DD5F2
:103AB000EF10402B0A049307040133842700232CC2
:103AC000A4FE0544639E84002145EF10402A19C9D5
:103AD0002145EF10A02A1144228541016FC0EFF269
:103AE00085446DBF0945EF10802811C50945EF10C9
:103AF000E0280944D5B713050002EF10402719C587
:103B000013050002EF1080271944F9B713050020B0
:103B1000EF10E0252A8419C513050020EF100026B8
:103B20001D445DBF1305F05FEF104025A247B705A8
:103B3000FF0093D6870113978701558F93968700CF
:103B4000ED8E558FC166938606F0A183F58FD98FD0
:103B50002322F900B24713D6870113978701518FAB
:103B6000139687006D8EA183518FF58FD98F2320F7
:103B7000F9009DB7EFC22FE6411102C402C6B78714
:103B80000140DC4B37070002F98FC9E3AA8403D553
:103B9000C19A2C00EFF05FE43DE53247B70704001F
:103BA00013055002F98FA5C383A7C19A138401D0CE
:103BB000C2071CC0138501D093077003130A0004C9
:103BC000930900405CC023244401232604002328D9
:103BD0003401EF10A01413057003EFF03F8605E5E4
:103BE000B33490009947138501D0860404C05CC0AB
:103BF000232444012326040023283401EF1000125B
:103C00001945EFF0BF8341016FC02FE03945E5BF93
:103C100083C7019B0D476383E70409476363F70488
:103C2000EFC20FDD2A8485471305700263E6870221
:103C30001375F40FEFF01FF405E1B7870140D84387
:103C4000F9769386F67F758FD8C3D8432E04014545
:103C5000598CC0C3D843D8C36FC0CFDB13057002E3
:103C6000828001458280EFC2AFD8011185451305DE
:103C70000003EF009061854513052040EF00105FC1
:103C80008967938707F0E1440D444C0837150140DC
:103C9000FC8226CE22CCEF00407B371501409147B5
:103CA0004C0813050540FC8226CE22CCEF00E079BB
:103CB000EF00107E930710047C86680085473EC89D
:103CC00023070100EF009034EFF0DF9531E1EFF0D2
:103CD0007FBD1DED138501C7EFF02FC115E91384DA
:103CE00001C7035544054205EFF06FFA15E105459C
:103CF000EFF01FF211ED03C761CC8547194563F35F
:103D0000E7000545EFF06FBD238A0184014531A02E
:103D100003C7019B8D47E300F7FE05616FC08FCF9E
:103D2000EFC20FCD938701C783C767050947138487
:103D300001C76385E704636AF7008DEFAD6593857E
:103D400045770145EFC0FFE921A00D47638CE702ED
:103D5000744438443C48B2065183558F0346C4022C
:103D600083564405AD659385457D0145EFC07FE7EA
:103D70006FC04FCAAD659385C578E1B7AD659385D2
:103D8000457AC1B7AD659385C57B65BFB71702405E
:103D90009843B706FFF041111367170098C3D84343
:103DA00037060200758FD8C39843B706F7FEFD1695
:103DB000758F98C39843B706FCFFFD16758F98C39F
:103DC000D843B70601FFFD16758FD8C39843B706D1
:103DD00000ECFD16758F98C33707FF0098C723A620
:103DE000070202C402C69843C166558F98C3B7162E
:103DF000024005679C42F18F3EC6A24785073EC43C
:103E0000B24781E7A247E397E7FEB71702409C431A
:103E100037070200F98FADC785473EC63247854751
:103E2000631EF704B7170240D843B706C1FFFD165B
:103E3000D8C3D843D8C3D84313670740D8C3D8439F
:103E4000758FD8C3D843C166558FD8C39843B7067A
:103E50000001558F98C3B70600029843758F75DF30
:103E6000D843B7160240719BD8C3D84313672700C5
:103E7000D8C32147DC42B18BE39EE7FE410182803B
:103E800002C669BF371702405C43A146B18B638A03
:103E9000D702B7177A009387072023ACF184B717AE
:103EA0000240D843B70700209387870D11833D8BCD
:103EB000BA97982383A78185B3D7E70023ACF18411
:103EC00082805C4354434167C983BD8BF98E13875D
:103ED000270085CFBD47630CF702C147630CF7028B
:103EE000C547630CF7028145A9E2B747024083A7A3
:103EF0000780C18B95C7B7177A00938707203307D0
:103F0000F702C9E923ACE18459BF4947E9BF8545B8
:103F10003547D9BF81453D47C1BF81454147E9B7D5
:103F2000B7173D0093870790D9BF371502405C55FE
:103F3000C166F58F5455A1CB9182BD8AB7177A001F
:103F4000850693870720B3D7D7025455A182BD8A2F
:103F500089EE9546B387D7028583B7160240D456BB
:103F6000BD8A8506B3D7D70259BF05456394A6001D
:103F7000E546CDB73D456396A600D146B387F60228
:103F8000E9BF8906E5BFBD8AB7177A008506938722
:103F90000720C9BF0583BDB701A097D1FF1F93813B
:103FA000E19B174100201301E1051785000013056F
:103FB00025E697C5FF1F9385E5041386C19463FA30
:103FC000C5008322050023A0550011059105E3EAF1
:103FD000C5FE138501959385C1D66377B50023206F
:103FE00005001105E36DB5FEFD42739002BCAD42C4
:103FF000739042809962938282087390023097C2D4
:10400000FFFF9382620093E2320073905230EFF030
:10401000FFD797E2FFFF938222367390123473002A
:104020002030EFC2EF9CB727014093870740631E03
:10403000F500854513050020EF00F02881451305A4
:104040000020EF0050286FC0EF9CB73701409387E6
:104050000780E31AF5FE854513050040EF00B02602
:10406000814513050040F1BF5841B707F1E0938740
:10407000F7EF944D7D8F9C41D58FD44DD58FD44192
:10408000A206D58FD98F5CC11845B7F7F1FF93878A
:10409000D77FD4457D8F9C49D58F94458606D58F93
:1040A000D98F1CC55855B70710FFFD177D8FDC2928
:1040B000FD1793F7F70FD207D98F5CD582801C4587
:1040C00089C593E717001CC58280F99BEDBF1C458D
:1040D00093E787001CC5828008450D810589828091
:1040E0001C4593E747001CC5828008450981058966
:1040F00082801C4591C537075000D98F1CC582802E
:104100003707B0FF7D17F98FD5BFA54763F7B70411
:104110008D47138765FF3307F7020328C5009D47C6
:10412000B397E70093C7F7FFB3F70701B396E6002D
:10413000DD8E54C5994763E3C70495477D16330662
:10414000F6025859FD47B397C70093C7F7FFF98F99
:104150003396C5005D8E50D982800D473387E502C6
:10416000032805019D47B397E70093C7F7FFB3F70F
:104170000701B396E600DD8E14C96DBFB14763E257
:10418000C702954765163306F6021859FD47B397DF
:10419000C70093C7F7FFF98F3396C5005D8E10D91E
:1041A000828095474D163306F6025855FD47B39762
:1041B000C70093C7F7FFF98FB395C500DD8D4CD5C8
:1041C00082806845420541818280B72701409387FC
:1041D0000740984711C5B7068000558F98C7828061
:1041E000B70680FFFD16758FD5BF1C4133F5F5006E
:1041F0003335A0008280B7F7FF1F83A7077213D75C
:104200000701C207C1831D8DA9473305F50287A6A3
:104210004193537707D05505D37705D0D3F7D718F7
:10422000D377F708538507E082805C4191C5370753
:104230000004D98F5CC18280370700FC7D17F98F9D
:10424000D5BFEFB2FFFA01112A8423040100A5446F
:104250001C8463F9F40423040100A54621461C8450
:1042600063F0F608231501002304010095461C8421
:1042700063FBF60E38853C8599460D46B3F7D702A9
:10428000056513050580B3D7C7023357D702BA9720
:10429000C207C1837C853C8505611D8D4205418532
:1042A0006FB05FF71C4493E787001CC42285EFF0D2
:1042B000BFE26DFD1C4493E747001CC42285EFF06C
:1042C000DFE26DFD78441C848607938707028A9796
:1042D0002396E7FE1C84850793F7F70F5C848DBF58
:1042E000A30401009C846378F6001C84850793F77F
:1042F000F70F5C84ADB798849C8406078507860712
:1043000013070702938707020A978A970357C7FE86
:1043100083D7C7FE63F3E7049C848607938707026D
:104320008A9783D7C7FE7C859C84988485078607F7
:10433000938707028A9783D5C7FE93171700938741
:1043400007028A972396B7FE9C84388585078607DF
:10435000938707028A972396E7FE9C84850793F745
:10436000F70FDC8441B71C8438858907860793875B
:1043700007028A9783D7C7FEBA97C207C1837C8595
:104380001C84850793F7F70F5C84D5B5EFB25FE621
:104390000545892F0145B9276FB0DFE74111B77790
:1043A000004002C6938707C03EC6B2473E952AC664
:1043B000B2478CC341018280B7F7FF1F03A5477046
:1043C000828058410C415045B70701409387074010
:1043D0003E9793C6F5FF39C29043758E90C3D04384
:1043E000F18ED4C31443CD8E14C318419047934625
:1043F000F7FF758E90C7D047F18ED4C7144541465C
:104400006399C6009447D98E94C7D447558FD8C7AF
:104410008280B6979443558F98C382801C43F58F52
:104420001CC38280B7070140938707409443DC4B4D
:104430002A877D8D01C5F98E3335D0008280B7077C
:10444000014093870740C8CB82809C4513F7070142
:1044500013F8F70001C7D8413368E8008E2113F73D
:10446000F50F31C318418146054E930E80023D4F32
:10447000930F800421433316DE00B3F8C5006310A8
:104480001603639AD70750C913962600B318CF00B6
:1044900093C8F8FF33F7E8003316C800518F85063C
:1044A000E39B66FC18C11307F00F6375B704544112
:1044B0000146054E930E8002130F8004214313071B
:1044C00086003317EE00B3F8E50063111703639815
:1044D000D70358C9931826003D47331717011347D0
:1044E000F7FFF98EB3181801B3E6D8000506E318F4
:1044F00066FC54C18280E399F7F910C971B7E39B58
:10450000E7FD18C9C1BF1C4533F5F5003335A000E0
:1045100082800CC982804CC9828019C20CC98280F9
:104520004CC98280B7083000935605011317050166
:1045300033731501BD8A418363530502B7070140F8
:10454000DC4F63151305C1060D46B316D60093C69E
:10455000F6FFF58FC5E9370701405CCF8280370849
:1045600001400326480063121307B70600F1FD1649
:10457000B377D60003264800F18E2322D800BDCDA4
:10458000558112053315A700C98F8DA83706100075
:10459000698E05C20D46B316D60093C6F6FFF58F99
:1045A000DDD955811375F53F12053315A700C98F65
:1045B0005DB755811375F53F12053317A700934674
:1045C000F7FFF58FC9D9D98F79B7B7071000E98FF1
:1045D00099CB8D47B397D70093C7F7FFF18FB706F5
:1045E000000FD58F69BF558112053315A70093477A
:1045F000F5FFF18F3707000FD98FD9F53707014045
:104600005CC3828055811375F53F12053317A700EF
:104610005DBF93F635003707014093F5C50F2E9720
:1046200010478A06BD47B397D70093C7F7FFF18FAE
:104630001CC71C473315D5005D8D08C78280EFB2BB
:104640003FBB462101112A8468002E89C204D92467
:10465000C180D24793F404FCB7869303C2049386C7
:10466000F66FC1801307C00363EAF60037470F00F7
:104670001307072433D7E70242074183D98C46A0AA
:10468000162061661306066AC206C182F99AC2063E
:10469000C18216A083260900636CD6048606B3D6B1
:1046A000D7021146B687C206C18263F3C60091479E
:1046B000C207C1830507420741831AB05EAC1E20C2
:1046C000035749008356A90093E717001EA01E2038
:1046D000558FC207C18393F757BFD98F1EA00357C9
:1046E00089008357C900D98F1EA405616FB09FB29E
:1046F0008355690031667D166399C5020D46B38600
:10470000C602B3D7D702C207C1839396470199E285
:1047100093E71700A166D58F9306C0123307D7021F
:104720009306803E3347D70271B76546B386C6020B
:10473000B3D7D7029166C207C183D58FF9B71E21BF
:1047400089C593E717001EA18280C207C183F99B28
:10475000C207C183CDBF1E2189C593E707101EA1E3
:104760008280C207C18393F7F7EFC207C183C5BF39
:104770001E2189C593E707201EA18280C207C1833D
:1047800093F7F7DFC207C183C5BF1E2189C593E731
:1047900007401EA18280C207C18393F7F7BFC207FB
:1047A000C183C5BF0EA982800A291375F50F8280C7
:1047B00093F7E50F19C293E715001EA982805E29C1
:1047C0000A2D42055D8D6D8D220521810D8D1335DC
:1047D00015008280411102C402C693D7C5012AC6C2
:1047E0003EC4A247A205A18199CBB247D1073EC6DC
:1047F000B247884341016D8D3335A0008280B247B6
:10480000C181E107EDB723AAA19A828003A7419B4A
:10481000894714216311F70218318D4763EDE700D2
:104820003C211A079607D98F37E700E093F7F70F77
:1048300036972300F740054793D756003317D70024
:10484000544189CA938707048A07B7E600E0B69700
:1048500098C3828093870706B7E600E08A07B69779
:1048600098C30F1000008280377700401C4309C5B1
:1048700093E707101CC3828093F7F7EFE5BFB77784
:10488000004098431367470098C398431367270075
:1048900098C3B7F700E0938707D0984B136747009A
:1048A00098CB984B5D9B98CB730050108280B716C5
:1048B0000240DC4251777D17F98FC98FDCC28280BC
:1048C000B7170240238007022380070205476306CB
:1048D000E50011476306E50082802380A7028280FD
:1048E00015472380E7028280371702401C53C98F87
:1048F0001CD3828001C9371702401C53A166D58F93
:104900001CD38280B71602409C5261777D17F98FC5
:104910009CD28280371702405C43A146B18B6381F1
:10492000D706B7177A00938707201CC137160240B5
:104930005C42370700201307870E9183BD8BBA971F
:1049400094231C41B3D7D7005CC15442A1829D8AF5
:10495000BA969422B3D6D70014C55442AD829D8A2C
:10496000369718239386C185B3D7E7005CC55842B4
:1049700039830D8B36971823B3D7E7021CC9828081
:104980005C435843C166C983758FB7F6FF1F03A602
:10499000C6709166BD8BF18E890795E6C5460146C6
:1049A0006393D700C94731EF374702400327078099
:1049B000418B39C337177A0013070720B387E70203
:1049C0002DD685839DB78946638DD700BD46638C00
:1049D000D700C146638CD700C546638CD70001461B
:1049E000D9B7C947EDBF0546B54775BF0146BD47B5
:1049F0005DBF0146C14745BF37173D00130707900C
:104A000075BFB7150240D855C166758FD45521CBF7
:104A10009182BD8A37177A0085061307072033571E
:104A2000D702D455A182BD8A89EE95463307D702B5
:104A30000583B7160240D456BD8A85063357D70280
:104A4000B5BF85456394B600E546CDB7BD456396D1
:104A5000B600D1463387E602E9BF8906E5BFBD8AC5
:104A600037177A00850613070720C9BF99C537177E
:104A700002405C4BC98F5CCB8280B7170240D84B99
:104A80001345F5FF798DC8CB828099C53717024051
:104A90001C4FC98F1CCF8280B7170240984F134517
:104AA000F5FF798D88CF828099C5371702405C4F1A
:104AB000C98F5CCF8280B7170240D84F1345F5FFEE
:104AC000798DC8CF828099C5371702405C47C98F5E
:104AD0005CC78280B7170240D8471345F5FF798D30
:104AE000C8C7828001C9371702401C53C166D58FE1
:104AF0001CD38280B71602409C5241777D17F98FF4
:104B00009CD282809357550005476399E700B717F9
:104B100002409C4333D5A7000589828009476396EC
:104B2000E700B71702409C53F5B7B7170240DC53B4
:104B3000D5B7373700408357078089C5C98F231001
:104B4000F78082801345F5FFE98FD5BFB737004066
:104B500003D74780136707012392E78082803737A6
:104B6000004083574780C207C183BD9BC207C183F2
:104B70002312F7808280B737004093870780962FF3
:104B80009A2F131607014182E39BE6FEB7370040D8
:104B900093870780D62FDA2F131507014181E39BF6
:104BA000E6FE37370040130707800E2F162F939726
:104BB0000601C183E39BD5FE630DF6003737004045
:104BC00013070780522F562F139506014181E31BCF
:104BD000D6FEC2075D8D8280EFB28FE12A84EFF0AE
:104BE000FFF613570401B73700404204239CE780C7
:104BF0004180239E8780EFF09FF66FB0AFE1EFB268
:104C00002FDF2A84EFF09FF413570401B7370040D9
:104C10003D8B42042394E780418023968780EFF008
:104C20001FF46FB02FDF37370040130707805E2374
:104C300093F70702EDDF82803737004083574780C4
:104C400013070780C207C183DD9BC207C1835EA330
:104C50005E23A18BF5DF8280B737004003D7478002
:104C60001345F5FF698F2392E78082803737004034
:104C70008357478003570780C207698FC18309C7DD
:104C80007D8D3335A0008280014582806FF0DFFC8E
:104C9000B787014023A0070023A2070023A4070031
:104CA00023A6070023A2070223A407023707C00098
:104CB00023A607021307F77F98DF23AE070282803F
:104CC00054411C45378601405842D58FE176938682
:104CD0000610758FD98F5845D98F1841D98F18492B
:104CE000D98F5829D98F5CC28280378701405C43B5
:104CF00009C593E707105CC3828093F7F7EFE5BF20
:104D0000B78701409843719B98C39843498F98C3D4
:104D10008280B787014088430D8982801C41378794
:104D200001401CC754475C41104593F60680D18F63
:104D3000D58F5445D58F1449D58F5CC782801C41CF
:104D4000378701405CD35C411CD754571C45504504
:104D500093F686F0D18FD58F1449D58F5449D58FCE
:104D60005CD78280B787014003A507088280B78798
:104D70000140DC5B7D8D3335A0008280B787014028
:104D800088DF82801E210D6713070704B6217D8FFF
:104D90009E21D58FD621D58FF621D58F9625D58FFB
:104DA000B625D58FD625D58FF625D58FD98F1EA1BF
:104DB0005E2D7D771307F77FF98F5EAD9E291EA9C3
:104DC00082801E2189C593E707041EA18280C20745
:104DD000C18393F7F7FBC207C183C5BF4EA582808D
:104DE0004A2582800A256D8D3335A000828037F7F1
:104DF000FF1F032747701E21B736014011833D8BEB
:104E0000C2077117114303D845009221C1839388CB
:104E100006C06363E3066306150393860640630AD0
:104E2000D50037570140930607C06304D5006317C8
:104E3000E5040967D98F93F7F7F8C207BA21C18350
:104E400001A8BA2193F7F7F85D8F4207418389677C
:104E5000D98FFA2193F7F7CFC207C183D98F1EA14B
:104E600023160503B737014012B5138707C0631532
:104E7000E5069C251EB989A8E30F15FB37070040FE
:104E8000E30BE5FA13070740E307E5FA371700409D
:104E900093060780E301D5FA930607C0E30DD5F822
:104EA000B736014093860640E307D5F8B756014070
:104EB000938806C0E30115F9E30FD5F66319E50001
:104EC0001EA12316050312B585475EA9828013072C
:104ED0000740E307E5FEB5BF93870740E30BF5F80E
:104EE000B7570140138707C0E305E5F8E31EF5FC5B
:104EF00049B71E294A25ED8F4205418189C76D8D2D
:104F00003335A00082800145828093C5F5FFC2053C
:104F1000C1810EA98280EFB2AFAD1629F577FD17DA
:104F2000FD8EFE21DA250111D58F1EA95625FD77AC
:104F30009387379FFD8EDE212A84AE84D58F9625F8
:104F4000D58FB625D58F5EA55E29C207C18393F79D
:104F5000F7CFD98F5EA96800EFF0DF9BB74701401C
:104F600093870780631EF402E2476547B387E70231
:104F70009840930640060A07B3D7E70233D7D70213
:104F8000B3F7D7021207920793872703B3D7D70245
:104F9000BD8BD98FC207C1831EA405616FB08FA7D7
:104FA000D247E1B75E2589C50967D98F5EA58280A2
:104FB00079777D17F98FDDBF13F7F50F85471583D7
:104FC000B395B7006319F7009307C500984301CE66
:104FD0004D8F98C38280894693074501E318D7FE19
:104FE00093070501E5B793C5F5FFF98D8CC3828062
:104FF00093F5F51F4EA182804A211375F51F82801B
:105000000A216D8D3335A000828093F6F50F054699
:1050100095822A87B317B6006391C602562533F5E9
:10502000F6001E23C207C18301C9A18105473317BA
:10503000B700F98F3335F000828009466394C600CB
:105040001629F1BF5629E1BF83A7818537177A005A
:1050500013070720B3D7E70293F7F70F238EF19AD0
:105060001307803EB387E702239DF19A8280B7F74A
:1050700000E0D8438146799BD8C303C7C19B330660
:10508000A70290CBD4CB98431367070198C39843EA
:105090001367170298C3D843058B75DF9843799B34
:1050A00098C38280B7F700E0D8438146799BD8C384
:1050B00003D7A19B3306A70290CBD4CB98431367A9
:1050C000070198C398431367170298C3D843058B09
:1050D00075DF9843799B98C38280757122C726C576
:1050E0004AC34EC182FE86FC8AFA8EF892F696F486
:1050F0009AF29EF0A2EEA6ECAAEAAEE8B2E6B6E418
:10510000BAE2BEE042FE46FC4AFA4EF852F656F4C7
:105110005AF25EF062EE66EC6AEA6EE872E603A5A9
:1051200081869305505276E47AE27EE0EFF0FFED5F
:105130003DC503A58186EFF03FEC03C7819B930734
:10514000F0031375F50F63F4E700238C019A03C78E
:10515000819B9387C1D293041700BA9793F4F40FFD
:1051600088A3238C919AA947631BF50213060004B8
:1051700081451385C1BDEFB06F8E26869385C1D260
:105180001385C1BDEFB0CF89130600048145138597
:10519000C1D2EFB0AF8C238C019AEFB07F963A4426
:1051A000AA441A498A497670E6705671C6713672F9
:1051B000A672167386737664E6645665C6653666AF
:1051C000A666166786677278E2785279C279327A73
:1051D000A27A127B827B726CE26C526DC26D326E6F
:1051E000A26E126F826F496173002030EFB24F8060
:1051F0002A84116579718545110502C602C8EFF050
:10520000DF8893070020FC82B71401408D473ECC15
:105210004C08E147138504803ECEEFF00FA39307BF
:105220000040FC824C089147138504803ECEEFF08D
:10523000CFA122D003A58186B7070C000C103ED465
:1052400002D223160102EFF01FCD03A58186054689
:1052500093055052EFF05FD683A7418668005C86C5
:105260008547DC865C873EC8EFF04FDA03A5818670
:105270008545EFF03FD345616FA0DFF9EFA2BFF5A1
:105280002E893284814463C5840022856FA0FFF794
:1052900003A5818693050004EFF09FD675D9B30767
:1052A00099008385070003A581868504C205C18115
:1052B000EFF01FD4C9BFAA8703A501861387C1D603
:1052C000AA9763EBE7003787002013070780636521
:1052D000F70023A0F18682807D5582809357750167
:1052E00093F7F70F938617F80547635305007D572B
:1052F00079466345D60463D80600FD576383F600FC
:1053000001473A858280B70580001386F5FF698ED4
:105310004D8ED94563D9D5009387A7F6B317F6000C
:105320003307F702F9BFB7074000B3D7D740B297AA
:105330005D46B306D640B3D7D700DDB7411106C6E8
:10534000EF10B046B2404101828093168501935719
:105350008501D58FC16613578500938606F0758F3A
:10536000D98F22053707FF00798D5D8D8280B707C1
:1053700010000111FD1733F8B70093D84601F58FDF
:1053800022CC13D44501139737000E084AC84EC6E5
:105390009357D6019359D50113D9F5011374F47FAE
:1053A00093F8F87F06CE26CAFD82B3E90901D98FAA
:1053B0009315350013183600330714416304D918C8
:1053C000635EE010638808209306F07F6306D45282
:1053D00093068003854463C9E602B7068000D58F33
:1053E000FD4663C7E64293060002998EB394D70048
:1053F0003356E800B316D800D18CB336D00033D77B
:10540000E700D58CB389E940B3849540B3B79500E4
:10541000B389F940B707800033F7F9006308072420
:10542000FD17B3F9F9006386092A4E85EF10B054D1
:10543000130785FF93060002B387E640B3D7F40055
:10544000B399E900B3E73701B394E40063458732C9
:10545000018F0507998E3396D400B3D9E400333613
:10546000C00033663601B396D700B3E4C600B3D9A3
:10547000E700014493F7740081CF93F7F4001147DC
:105480006388E70093874400B3B49700A699BE846D
:10549000B7078000B3F7F90063870728050493076F
:1054A000F07F6300F41CB70780FFFD17B3F7F90026
:1054B0001397D7018D80A607458FB1831374F47FAE
:1054C00052047E095D8C33642401F240A28562445B
:1054D000D2444249B2493A8505618280630F071080
:1054E000338788406318043033E5B900630E05261E
:1054F0001305F7FF630E05481303F07F630A674245
:105500001307800385446346A7022A877D466340CC
:10551000E64413060002198EB394C90033D5E500A2
:105520003396C500C98C3336C00033D7E900D18C1F
:10553000998FB304984033389800B3890741468463
:105540003689C9BD6359E01263900810B3E60701BC
:10555000638F06201306F7FF630506369306F07F78
:10556000630ED7441307800385466346C70232871C
:10557000FD4663CBE63813060002198EB396C700CA
:105580003355E8003316C800C98E3336C00033D710
:10559000E700D18EBA99B387B600B3B6D700BE8400
:1055A000B699B7078000B3F7F900E9C3050493077C
:1055B000F07F6308F40AB70780FFFD17B3F7F9001F
:1055C00013D714008588458F9394F701D98C93D90C
:1055D00017004DB5B3E60701638B06189306F7FF76
:1055E000638106301306F07F630FC714130780032F
:1055F0008544E34BD7E03687E5B3130714001377F0
:10560000E77F6315071CB3E8B90033E707016310B0
:10561000042A638B0838630C073AB384054133B717
:1056200095003386F940198E37078000718F63012A
:105630000740B305B840B38737413338B800AE846C
:10564000B389074136893DB59306F07F630DD40ECB
:10565000130680038546E340E6F4B7068000D58F45
:1056600001BF1304F07F8147014799BD13F7740010
:10567000E31507E089AA6307071033878840630DA5
:10568000041A9306F07F638DD82A1306800385469B
:105690006349E602B7068000B3E9D900FD4663C658
:1056A000E63613060002198EB396C90033D5E5001D
:1056B0003396C500C98E3336C00033D7E900D18E8A
:1056C000BA973698B336D800C284B389F6004684B8
:1056D000C9BD2685EF10302A13078501FD46E3DB9F
:1056E000E6D4930785FFB397F40063498716B304A4
:1056F00087401387140063DBE634851493060002A9
:10570000B3D49700630BD700930600043387E640B9
:10571000B397E700B337F000DD8C13F77400014452
:10572000E31D07D44DA093D734001397D9019306F6
:10573000F07F5D8F93D73900630FD400B207B18338
:105740001374F47FB5BB0E059397D9011357350039
:105750005D8F93D739005D8F09D701491304F07F1E
:10576000B70708000147A9BBC285BE89368993D710
:1057700035003A845DBFB70980FFFD19198CB3F974
:105780003701CDB99306140013F7E67F6DE333E7D5
:10579000B9006311041E630A072433E70701630D90
:1057A00007242E98CE97B335B800B389B7003707D2
:1057B000800033F7E900C28419C7B70780FFFD17DF
:1057C000B3F9F9000544A685228755B7B38405418E
:1057D00033B795003386F940198E37078000718FF3
:1057E00045EF33E7C400B289E31F07C20149014412
:1057F0008147F9B11305F07F638CA812130680036B
:105800008544E348E6D237068000B3E9C900FDB914
:10581000930607FE13060002B3D6D700630AC7003B
:10582000130600043307E640B397E7003368F80037
:10583000B3340001D58CC9BEB3E6B9006382061A41
:105840001305F7FF3DCD9306F07F630BD70E1307CB
:1058500080038546E347A7E62A8789B5B70680FF18
:10586000FD16F58F198C1397D7018D83C1BD1307D2
:10587000F07FE388E6DE33870501CE97B335B700C6
:10588000AE9705839394F701D98C1D8B93D917009C
:105890003684E31407BE05BFB305B840B38737416C
:1058A0003338B800AE84B38907413689ADBE639CF6
:1058B00008126315071801491304F07FB7070800A1
:1058C00001B12E98CE97B335B800B389B700B707AA
:1058D0008000B3F7F900C2840544E38907D809447E
:1058E000D9B933880541B387F940B3B50501C284FE
:1058F000B389B740054439BE0E050D811397D90110
:10590000498F93D7390081BD130607FE9306000225
:1059100033D6C700630AD700930600043387E640F6
:10592000B397E7003368F800B3360001D18EA5B114
:105930000E061397D7010D82518F8D83368921BDB5
:105940000E061397D7010D82518F8D8329B513064B
:1059500007FE1305000233D6C9006309A70013052B
:1059600000043307E5403397E900D98DB334B00024
:10597000D18CC1B671D733E80701E31008DE0E05FC
:105980009397D9010D813367F50093D73900E1B3BF
:10599000B305B840B38737413338B800AE84B38914
:1059A000074136890544BDB4E30207E40E061397A8
:1059B000D7010D82518F8D83368949B393173500F6
:1059C0008D831397D9015D8F93D7390069B39317EE
:1059D00035008D831397D9015D8F93D73900B9BBFB
:1059E000C285BE8969B341DF8DBB0E061397D7010F
:1059F0000D82518F8D8399B30E059397D9010D8137
:105A00003367F50093D7390015BB130607FE9306DD
:105A1000000233D6C9006309D70093060004338718
:105A2000E6403397E900D98DB336B000D18E51B935
:105A300033E7C400B289E31807D84DBB0E061397AD
:105A4000D7010D82518F8D83368931B393060002C1
:105A5000998E014639B4797193D7450122D426D263
:105A60004AD056CA5EC69394C50006D64ECE52CCD6
:105A70005AC862C493F7F77F2A84B28B3689B18003
:105A800093DAF501638C07101307F07F6387E7143F
:105A90008E04135BD501336B9B0037078000336B9B
:105AA000EB00131A3500938917C08144014C9357BA
:105AB00049011314C90093F7F77F31801359F90195
:105AC000D5C31307F07F6384E7080E0413D7DB0107
:105AD000418F938717C037048000598C93983B00FF
