:040000006F20106FEE
:10000400000000000000000022050000240500009C
:1000140000000000EE2E00000000000000000000C0
:10002400EE2E0000EE2E0000000000000000000094
:10003400EE2E000000000000EE2E00000000000084
:10004400EE2E0000EE2E0000EE2E0000442C0000E8
:10005400EE2E0000EE2E0000EE2E0000EE2E00002C
:10006400EE2E0000EE2E0000EE2E0000EE2E00001C
:10007400EE2E0000EE2E0000EE2E0000EE2E00000C
:10008400EE2E0000EE2E0000EE2E0000EE2E0000FC
:10009400EE2E0000EE2E0000EE2E0000EE2E0000EC
:1000A400EE2E0000100B0000EE2E0000EE2E0000DD
:1000B400EE2E0000EE2E0000EE2E0000EE2E0000CC
:1000C400EE2E0000EE2E0000EE2E0000EE2E0000BC
:1000D400EE2E00005E3E0000EE2E0000EE2E00002C
:1000E400EE2E0000EE2E0000EE2E0000EE2E00009C
:1000F400EE2E0000EE2E0000EE2E0000EE2E00008C
:1001040000000000EE2E0000EE2E0000EE2E000097
:1001140010030000EE2E0000EE2E0000EE2E000074
:10012400EE2E0000EE2E0000EE2E0000EE2E00005B
:10013400EE2E0000EE2E0000EE2E0000EE2E00004B
:10014400EE2E0000EE2E0000EE2E0000EE2E00003B
:10015400EE2E0000EE2E0000EE2E0000EE2E00002B
:10016400EE2E0000EE2E0000EE2E0000EE2E00001B
:10017400EE2E0000EE2E0000EE2E0000EE2E00000B
:10018400EE2E0000EE2E0000EE2E0000EE2E0000FB
:10019400EE2E0000EE2E0000EE2E0000EE2E0000EB
:1001A400000000000000000000000000000000004B
:0C01B4000000000000000000000000003F
:1001C000397101436EC619A0397141536AC866CAB4
:1001D00062CC5ECE19A0397101535AD056D252D496
:1001E0004ED64AD826DA22DC06DE3301614082820E
:1001F00041114AC026C222C406C68282B24D4101C4
:10020000024D924C224CB24B4101024B924A224A7F
:10021000B2494101024992442244B24041018280E4
:100220002A8309CA83830500230073007D16050312
:1002300085056DFA828015C22A8385466367B500FD
:10024000FD561307F6FF3A93BA9583830500230002
:1002500073007D163693B6956DFA82802A8311C697
:100260002300B3007D16050365FE8280EFF25FF880
:1002700079712A8485453705080002CA02CC02CE6E
:1002800002D002D202D402D602C602C8EF304069C0
:1002900085454145EF30E06693070040FC828D477D
:1002A0003ECC4C08E147371501403ECEEF30C0064A
:1002B000856793870780FC824C089147371501407A
:1002C0003ECEEF30600522D037540040B7070C0017
:1002D0000C10130504C03ED402D223160102EF30E5
:1002E000D01B054693055052130504C0EF3010256E
:1002F000930740147C86680085475C873EC8EF30D2
:10030000403A8545130504C0EF301022456119B706
:10031000757122C73754004026C582FE86FC8AFAD2
:100320008EF892F696F49AF29EF0A2EEA6ECAAEA65
:10033000AEE8B2E6B6E4BAE2BEE042FE46FC4AFAF5
:100340004EF852F656F45AF25EF062EE66EC6AEA45
:100350006EE872E676E493055052130504C07AE223
:100360007EE0EF30D02225C1130504C0EF3010210C
:1003700003D7E1939376F50F93071700C207C18364
:10038000239FF1929387419ABA9703D7E19388A369
:10039000930700106314F700239F0192A947639409
:1003A000F6028387419A81CB21659385419A130593
:1003B0008593EF50B0601306001081451385419A74
:1003C000713D239F01923A44AA447670E6705671BB
:1003D000C6713672A672167386737664E6645665C5
:1003E000C6653666A666166786677278E2785279C1
:1003F000C279327AA27A127B827B726CE26C526D85
:10040000C26D326EA26E126F826F4961730020302E
:10041000EFF27FDC2E84A9452A89EF50507811C96C
:10042000A16523000500938505A44A85EF507075EA
:100430000504B75900408144938909C063C384000F
:10044000E9B3930500084E85EF30D0137DD9B3078B
:100450009900838507004E858504C205C181EF3070
:100460007011E9BFEFF2DFD83289A1C9B7070020C8
:100470000A0593870700AA9788432E84EF50F074EB
:10048000B70700200547AA842388E70CA9452285E1
:10049000238E0192EF50B07029E9630809002165AD
:1004A000A28513058593EF50705137590040A294EF
:1004B000130909C063988404B1BB9377F50F4147D2
:1004C000E36CF7FEB70700200A0593870700AA9799
:1004D00080432285EF50706FB707002005472388BF
:1004E000E70CAA84238E01924DBFA165230005006D
:1004F000938505A42285EF50D0682285EF50F06CDB
:10050000AA8461BF930500084A85EF30B0077DD902
:10051000830504004A850504C205C181EF309005BA
:1005200051BF01A0757122C726C582FE86FC8AFADA
:100530008EF892F696F49AF29EF0A2EEA6ECAAEA53
:10054000AEE8B2E6B6E4BAE2BEE042FE46FC4AFAE3
:100550004EF852F656F45AF25EF062EE66EC6AEA33
:100560006EE872E676E4B707EFBE7AE237E700E0BE
:100570007EE093870708371401403CC78144130489
:10058000048099E8054685442285A145EF20106541
:100590001305800C1D2BF5B701468144F5B7EFF22A
:1005A0003FC505650111854511053714014002C09D
:1005B00002C202C402C602C802CA02CC231E010043
:1005C000EF302034054613050480C145EF2010614B
:1005D000C1478D448A85130504807C803EC426C2B1
:1005E000EF20905313050480C145EF20B05E9307C0
:1005F000000261498A85130504807C804AC426C2B2
:10060000EF209051930700047C808A859147130561
:1006100004803EC4EF205050930700088A851305DC
:1006200004807C804AC426C2EF20104FB707040123
:100630003EC6B70702003EC8B707000203A5018106
:1006400085073ECAA1473ECC6C009D47FC86EF3033
:10065000A04B03A501818545EF30E04E05615DBEED
:10066000EFF21FB9AA8403A501818945EF30C04F7D
:100670007DD903A50181A685EF30804E03A50181B8
:100680008545EF30604E7DD903A50181EF30804D67
:100690001375F50F41B6EFF2BFB5B714014001462F
:1006A000C14513850480EF2070531545553F130550
:1006B000F00F7D372A84054613850480C145EF205D
:1006C000F051228581BEEFF2BFB2F137058975FD89
:1006D00091B6EFF2FFB1371401400146C145130551
:1006E0000480EF20B04F1945A53F0546C1451305CD
:1006F0000480EF20B04E39BEEFF29FAF37150140B6
:1007000041110146C1451305058002C202C42306FA
:100710000100EF20B04C1305F00999370144A544BE
:1007200001453D3F5C00A29788A30504E31A94FEAF
:100730001C86988537150140A207D98F139487002E
:10074000A1835D8C0546C145130505804204EF2059
:10075000F04841802285410175BCEFF27FA92A89CA
:10076000371501402E8413050580C145B28401462A
:10077000EF20D0460D45ED35135504011375F50FE7
:10078000C535135584001375F50FD93D1375F40F56
:10079000C13D014493170401C18363EB97003715F2
:1007A00001400546C14513050580EF2030439DB447
:1007B00001457D35B307890088A30504E1BFEFF249
:1007C0003FA32E842A89B284293737150140014678
:1007D000C14513050580EF2070400945513513557B
:1007E00004011375F50FAD3D135584001375F50F16
:1007F000853D1375F40FAD35014493170401C18392
:1008000063EC9700371501400546C1451305058087
:10081000EF20D03C4D3DFDBAB30789008823050485
:100820008135E1BFEFF25F9A13F9F57FAA8A2E8432
:1008300093DBB50063000906850B85699385098004
:100840000545EF50C0722A8A814431C17D5B93898E
:100850000980138CFBFF050B63926B055285EF50EB
:10086000A0712685EF30B006B7060020131784006C
:1008700021809387460D418FDAA30D6788C3130744
:100880002741214681451385460DFAA30D3F268554
:100890006FF01F9705691309098045B763136C0151
:1008A000CA8913960901D685418252857D352685F0
:1008B0004E86D2858120CE9AAA8471BFEFF25F93D3
:1008C000411128002146814502C402C67935388786
:1008D0008D67938727410145631BF7002245EF3061
:1008E000007F83A781953385A7401335150041010B
:1008F0006FF05F929DC515C629671345F5FF2E96CB
:10090000130787E99C21935685008505A98F93F7E6
:10091000F70F8A07BA978843358DE395C5FE1345CF
:10092000F5FF8280A30005002300050013062500C3
:1009300001471548FD5693050003B307070318A2A6
:1009400005071506AA97B4B3D4A3D4B3F4A3E3164A
:10095000B7FE0545828098219547B307F702AE9709
:10096000D423B033A206D18ED0334206558EF42361
:10097000E206D18E7D566398C60293568500A8B3D1
:10098000D4A3935605016181E8A3D4B3038527005E
:100990009307170093F7F70F1307F0026373F7003D
:1009A00081479CA182807D558280143195472A869B
:1009B000B387F602AA97D823AC3322074D8FCC33E6
:1009C000C205D98DF82362073365B7007D576304EC
:1009D000E502B8B3D8A3D8B3F8A3634E0500938754
:1009E000160093F7F70F1307F0026364F7001CB2C9
:1009F0008280A30006008280938741AB98239546AE
:100A0000938541ABB306D7027D55B697D423B03357
:100A1000A206D18ED0334206558EF423E206D18E43
:100A20007D566396C602A54603852700B4B323828C
:100A30000700A3820700238307009307170093F79B
:100A4000F70F1307F0026373F70081479CA18280C0
:100A5000D30705F0D39717C053F717D09CC1D3F72E
:100A6000E70807A70192D3F7E710D39717C0DCC1B7
:100A7000828083A781963E958280EFF26FF783C7CD
:100A8000E1972E848DE7EF20C000138801C3034651
:100A9000780083466800034708008347180003482E
:100AA0002800A965938505B22285EF50700922853B
:100AB0006FF04FF683A7C1963E95828083A7C196BB
:100AC00033B5A70013451500828003A7C1963A9558
:100AD00003A7C196E36EA7FE8280EFF26FF137178E
:100AE00002401C4F41112313010093E747001CCF24
:100AF000A1477C8237150140C1473EC64C008D4757
:100B0000130505803EC4EF20300141016FF08FF0E6
:100B100075713735014082FE86FC8AFA8EF892F6AE
:100B200096F49AF29EF0A2EEA6ECAAEAAEE8B2E63D
:100B3000B6E4BAE2BEE042FE46FC4AFA4EF852F68D
:100B400056F45AF25EF062EE66EC6AEA6EE872E61D
:100B500076E422C726C58545130505C07AE27EE006
:100B6000EF3060118547631AF50683A7C1962A8482
:100B7000850723A6F19603C7119719C7938541AB43
:100B80001545A3880196C13B03A6C1969307703E05
:100B90003376F60239E283A60196014799E222866E
:100BA000054737150140A1451305058023A0E196AF
:100BB000EF20D00283A78196938541AB85070D4531
:100BC00023A4F196493B83A781962947B3F7E7020F
:100BD00089E7938541AB1145BD3B373501408545DC
:100BE000130505C0EF30A00A3A44AA447670E670B7
:100BF0005671C6713672A672167386737664E66491
:100C00005665C6653666A666166786677278E278A8
:100C10005279C279327AA27A127B827B726CE26C50
:100C2000526DC26D326EA26E126F826F4961730097
:100C30002030EFF2EFDBB71602409C4E0567011142
:100C400013070780D98F231C0100231E010002C651
:100C500002C8231B0100231D01009CCE83D72182E3
:100C6000373401404C08FC8483D70182130504C04B
:100C7000930404C0FC8293072003230EF100EF20AD
:100C8000506FF9572318F4C0930790027C866800D0
:100C900085475C873EC8EF20D0208357C4C093E7C8
:100CA00017002316F4C0835704C093E717002310DE
:100CB000F4C005616FF00FD69377F5001147639686
:100CC000E704B7073230137505F093870750630BBD
:100CD000F50E63E2A702B70730309387075063072A
:100CE000F50EB7073130938707506305F50E296578
:100CF0001305C5B88280B707333093870750E318D0
:100D0000F5FE29651305C5B382802147E391E7FE0F
:100D1000B7077130137505F0938707506300F50C22
:100D200063EAA704B7075B3093870750630CF50AA3
:100D300063E2A702B7075030938707506308F50AAC
:100D4000B707523093870750E313F5FA2965130567
:100D5000C5B78280B7075C3093870750630CF508EE
:100D6000B707703093870750E313F5F8296513052B
:100D700045BE8280B7B77031938707506300F5088E
:100D800063E2A702B707723093870750630CF5063A
:100D9000B707733093870750E31BF5F429651305F4
:100DA00045C18280B7B77331938707506300F5065A
:100DB000B7B7753193870750E31BF5F22965130523
:100DC00045BB828029651305C5B48280296513055A
:100DD000C5B6828029651305C5B5828029651305CE
:100DE00045BF82802965130545B9828029651305B1
:100DF00045BA82802965130545C28280296513059D
:100E000045BD82802965130545C08280296513058B
:100E100045BC82802965130545C36F50404FEFF2F2
:100E20002FBD7971AA848145130600020808EFF0EE
:100E3000EFC285451305002002C202C402C6EF209E
:100E4000502CD9E80145EF20F00F3724014013055D
:100E50000440EF206012B7070E003ECE0C08854715
:100E6000130504402302F10202C802CA02CC02D0D8
:100E7000EF20E014854513050440EF20A0198145BB
:100E800013050440EF20C02F13050440EF20801904
:100E9000130904404A85EF2080196DFD13050440B5
:100EA00037240140EF202019130904404A85EF2020
:100EB00020196DFD13050440EF20002E239AA19404
:100EC000854513050440EF20A02B81E40545EF2064
:100ED000202545616FF00FB485454145EF20702214
:100EE0000145EF203006930700024C003715014002
:100EF0007C8202C6EF20404289BFEFF26FAF3724F9
:100F00000140AA858D46054613050440EF20401593
:100F1000854513050440EF202013930404408945C0
:100F20002685EF20E02165DD13050440EF20C01E7B
:100F30006FF04FAEEFF22FAA2E8AC13703C9119579
:100F4000AA84138441AA631A0902A1470AA02AA00D
:100F50004AA06AA00AA42AA44AA46AA4A388F19475
:100F600013070401814716200904B697E31DE4FE28
:100F70008D832310FA0005452DA03946938541AA9B
:100F8000138561AAEFF02FAB9D4706A063E527010B
:100F90000509A388219503C71195A1470145E301E0
:100FA000F7FC6FF08FA603974195AA872A97014512
:100FB0006340070291CF05669306F6FF36856359B5
:100FC000C7003E856386D7001315070141818280E3
:100FD00082808967138787506302E502138707645D
:100FE0006306E50293870740631AF502370702009C
:100FF000296523A4E194130545D7828037070400AF
:10100000296523A4E194130585D882803707080059
:10101000296523A4E1941305C5D9828029651305A8
:1010200005DB8280EFF22F9B517171468145AA89C1
:10103000C80082C0EFF08FA21306C0038145C8101C
:1010400082D0EFF0AFA11306C0048145481102D150
:10105000EFF0CFA083C721958410638F071403A6F8
:10106000C18163480600A965938585DD2685EF501B
:10107000202D83C701956381070E83C7F194130761
:1010800080056386E716130700066386E716296660
:101090001306C6B8A965938545DF0811EF50402AAD
:1010A00083C7E194D5CB138441C218301C2028306B
:1010B00022075D8F3C2062052C10C207D98F5D8D01
:1010C000EFF01F9958305C20683022075D8F7C203C
:1010D00062050C18C207D98F5D8DEFF07F9708115C
:1010E000EF50A02ED257B256096913090971B3D730
:1010F0002703425722561308010AA965938545E044
:101100004295B3D62603EF50A02303C7F19493076B
:101110000006631DF70218341C24283422075D8F53
:101120003C2462052C18C207D98F5D8DEFF05F92C9
:101130000811EF508029F2566256A965B3D62603EE
:101140001C11938505E23E95EF50801FA96593859C
:10115000C5E20811EF50E0228C004E85EFF0FF91C0
:1011600003A941832A8403A54196EFF0FFB403A7A6
:101170008184B7470F00938707243357F702AA8665
:1011800003D5C1942DCD3ACE36CCA135E246724777
:10119000AA8703C6619525CA2968130888DC2965D2
:1011A00026C09308010A4A86A285130505E3EF507D
:1011B000E0006D616FF06F8587A78181530700F0B4
:1011C000D307F7A0E38707EA538507E02C18EFF071
:1011D0003F88F256896793870771B3D6F602625645
:1011E000A965938545DE2685EF50801559B529669A
:1011F000130686DB45B52966130606DC61BDA167CB
:101200009387479D79B721681308489D49BF4DC60C
:10121000EFE29FFB368AD9CEAE8AC9CDAA84931558
:1012200026000545B289EF4090542A8441C5EF500D
:10123000C019296B268693058BE82295EF50401044
:101240000149A96B2285EF504018B3872A019023EA
:1012500093850BE922950509EF50800E63852903DC
:10126000B3674903E5F383A501832285D294EF5048
:1012700040112285EF506015268693058BE8229554
:10128000EF50000CC1B72285EF50201422950307C0
:10129000F5FFA9476307F70083A501832285EF5077
:1012A000400E2165A28513058593EF40307122859C
:1012B000EF40904C6FE0DFF48280EFE2DFF101114C
:1012C000AA842E842545854502C202C402C602C8EE
:1012D00002CA02CC02CEEF20C06285450945EF204C
:1012E0008010854537052000EF20806337190140C5
:1012F00093070010714A8D494C00130509C07C8288
:1013000052C64EC4EF204001930700204C00130545
:1013100009C07C8252C64EC4EF200000E08403A5C1
:101320008183B707FFBF3ECA93070040FC850C08C6
:101330009167FC8626C8EF20E01903A581838545C7
:10134000EF20402903A581838545EF20602D0561AD
:101350006FE0BFEBEFE23FE8AA842E8B328AB689BA
:1013600003A58183B7050200EF2020302A896DF99B
:1013700003A581838545B70A0300EF202027850A4E
:1013800003A58183D685EF20E02C7DD903A5818339
:10139000860493F4F40F0146A685B70A0700EF20F0
:1013A000802A938A2A0803A58183D685EF20802A84
:1013B0007DD903A58183DA85B70A0700EF20E027EE
:1013C000938A4A0803A58183D685EF20A0287DD97A
:1013D00003A581838545B70A0300EF202021850AF4
:1013E00003A58183D685EF20E0267DD903A58183DF
:1013F000A6850546B7040300EF20E024890403A571
:101400008183A685EF2000257DD9B7040010938441
:10141000040493170901C18763C9370103A58183B8
:101420008545EF20401E6FE05FDE03A58183A68522
:10143000EF20A0237DD903A58183EF204020B307AF
:101440002A0188A30509F1B7EFE2FFD8AA842E8A02
:101450003289B68903A58183B7050200EF20E02019
:1014600075F903A581838545B70A0300EF200018AD
:10147000850A03A58183D685EF20C01D7DD903A5EC
:101480008183860493F5E40F0146B7040700EF203B
:10149000801B9384240803A58183A685EF20801BED
:1014A0007DD903A58183D285B7040700EF20E0181A
:1014B0009384440803A58183A685EF20A0197DD9D4
:1014C000370A0010B70A0700FD54130A0A08938A66
:1014D0004A088504C204C18403A5818363C734011B
:1014E0008545EF2040126FE05FD2D285EF20E017F4
:1014F0006DD18345090003A58183130B1900EF20EB
:10150000C01303A58183D685EF20C0147DD95A89E5
:10151000C9B7EFE2FFCD4111930760FBDC870DC532
:101520002A8485461306F1009305000E1305600713
:10153000213F13056007854622869305000D193D5E
:10154000054541016FE01FCD0145E5BF6350C00275
:10155000AA87054591CDEFE2BFC9B28613056007A2
:101560002E86BE85C53B01456FE0DFCA05458280FA
:101570008280EFE2FFC7B7F740F2411193875752DD
:101580003EC485475C8603C7F194930700062A840E
:1015900095466303F7008D4630009305400F130511
:1015A00060075D358D4630009305300F13056007E9
:1015B00055332C000D4613051400EFE07FC64101A2
:1015C0006FE05FC5EFE23FC1AA89E146138681BEA5
:1015D0009305800813056007B53B938781C123A05D
:1015E000070023A2070023A4070083A781BE9384DA
:1015F00081BE23A0F1C0DC40138401C05CC09C44C8
:101600001CC4DC445CC49C481CC8DC485CC8930710
:1016100000066399F9048546138681BE9305100A76
:1016200013056007053B9C209D46138681BE9305EC
:10163000100E130560071CACEFF0DFD183D781BE1D
:10164000D8203EACBC209376F70011835CACBC3054
:101650009207D58F7EACDC309207D98F1EB0FC206C
:101660002301F40201456FE05FBAEFE27FB57971C3
:101670002A8432853AD0938401C036CE2ECCEF40F6
:10168000405DAA8C8A20AE8BEF40806303A6018761
:1016900083A64187AA8A2E8A6685DE85EF30300DC3
:1016A00003A6818783A6C187AA892E895685D285FC
:1016B000EF30F00B2A86AE864E85CA85EF30D05FBC
:1016C00003A6018883A64188AA892E896685DE85BE
:1016D000EF30F00903A6818883A6C188AA8CAE8B5F
:1016E0005685D285EF30B0082A86AE866685DE85BF
:1016F000EF30905CAA8A039524002E8AEF40605553
:101700002A86AE865685D285EF307006AA8A039562
:1017100044002E8AEF40E053AA8CAE8B4E86CA86D8
:101720004E85CA85EF30B0042A86AE866685DE8592
:10173000EF30F0032A86AE865685D285EF20701BE7
:1017400003A6018983A64189AA892E89EF30E00882
:101750002AD42ED64E85CA85EF404049EF40604FCF
:1017600003A681892AD283A6C1892E8BEF3030004F
:1017700003A6018A83A6418AEF301054839704019F
:10178000AA890395A4003EC68397E4002E893EC82B
:101790008397C4003ECAEF40C04B4E86CA86EF30E6
:1017A000007D4E86CA86EF30807C03A6818A83A6A0
:1017B000C18AEF30C07BAA8B039584002E8AEF404C
:1017C00040494E86CA86EF30807A2A86AE865E858C
:1017D000D285EF20101203A6818A83A6C18AEF303A
:1017E000007903A6018B83A6418BEF30407803A6D6
:1017F000818B83A6C18BEF20D00FAA8CEA202E8C80
:10180000EF40004C6686E286EF3060760146814606
:10181000AA8C2E8CEF304057630B052C4E86CA865F
:101820004E85CA85EF30A074AA8D32452E8DEF40CB
:1018300040422A86AE866E85EA85EF30407303A665
:10184000018B83A6418BEF3080722A8D4245AE8D8D
:10185000EF4020404E86CA86EF3060712A86AE8601
:10186000EF2030096A86EE86EF20B00803A6018CCF
:1018700083A6418CEF30A06FAA8D72452E8DEF406C
:10188000403D2A86AE8603A5818C83A5C18CEF30AE
:10189000B042AA8952452E89EF40A03B03A6018D94
:1018A00083A6418DEF30A06C6E86EA86EF2070042F
:1018B00003A6818D83A6C18DEF30606B2A86AE862C
:1018C0004E85CA85EF30503F03A6018E83A6418E18
:1018D000EF30E0696686E286EF203070AA890395D2
:1018E00064012E89EF40E0364E86CA86EF302068CC
:1018F0004E86CA86EF30A06703A6818E83A6C18E6E
:10190000EF30E066AA8C039544012E8CEF406034E2
:101910004E86CA86EF30A06503A6018B83A6418B55
:10192000EF30E0642A86AE866685E285EF20607C33
:101930002A8C03952401AE8BEF40A0312A86AE8617
:101940006285DE85EF20E07A03A6018F83A6418FB2
:10195000EF30E0614E86CA86EF20A079AA8703A601
:10196000818683A6C1863E85EF20306703A6818FDE
:1019700083A6C18FEF30A05F6247930700062A89D4
:10198000AE896319F71603A6019083A641901255FC
:10199000DA85EF3070322A8C0255AE8BEF40602B27
:1019A0002A8D039504022E8BEF40A02A03A60188FE
:1019B00083A64188EF30A05B6286DE86EF30205B35
:1019C0002AC60395E401AE8DEF40A02803A68190BE
:1019D00083A6C190EF30A059B2472A86AE863E85D5
:1019E000EE85EF2000712A86AE866A85DA85EF30B3
:1019F000B02C2A8D0385C4012E8BEF40802503A6D1
:101A0000019183A64191EF3080566286DE86EF30E9
:101A1000005603A6818B83A6C18BEF20806D2AC65A
:101A200003852402AE8DEF40C02203A6019183A658
:101A30004191EF30C0536286DE86EF304053B247AB
:101A40002A86AE863E85EE85EF30605203A6818BF6
:101A500083A6C18BEF20E0692A8C0395A401AE8B8D
:101A6000EF40201F03A6819183A6C191EF30205043
:101A70002A86AE866285DE85EF30604F2A86AE8686
:101A80006A85DA85EF30A04EAA8B038584012E8B00
:101A9000EF40201CDA865E86EF30604D03A6818A17
:101AA00083A6C18AEF30A04C2A86AE8603A5818B1F
:101AB00083A5C18BEF305020DA865E86EF30204B55
:101AC00003AB818683AAC1862A8A5A86D686AE84CB
:101AD000EF3040326341A008014681465285A68519
:101AE000EF30203D635C0500014A814401A8814735
:101AF0008145B5B503AA018683A44186B255225516
:101B0000EF40E028135785009357850118B013570D
:101B1000050108A038A03CB0CE854A85EF402027BB
:101B2000135785009357850158B01357050148A0F6
:101B300078A07CB05285A685EF40602513578500BC
:101B400018B4935785011357050108A438A43CB471
:101B500045616FE0AFEA5A8AD6844DB7EFE24FE9AC
:101B60002A84371501408565130505C0EF10D0069E
:101B700003A541848945EF10307F7DD903A54184B9
:101B8000A285EF10F07D0545EF20A0263715014016
:101B90008565130505C0EF10F0036FE0AFE7EFE2D6
:101BA0008FE32A89AE840144634494006FE0EFE53B
:101BB00003A541848945EF10307B7DD9B3078900A7
:101BC0008C2303A541840504EF109079F1BFEFE267
:101BD0002FE22A84218159371375F40F41376FE0C2
:101BE0006FE3EFE2EFE0B71401402A849305004071
:101BF000138504C0EF10407E2285EFF03FF6930579
:101C00000040138504C0EF10E07C6FE0AFE0EFE22E
:101C10008FDCAA891305A0023684AE843289D137BD
:101C20004E8575374A8565371305B0025D3F2685B9
:101C3000793F2285693F1305C00265376FE0EFDC0D
:101C4000EFE20FDB01118545214502C002C202C44B
:101C500002C602C802CA02CC231E0100EF10704A5D
:101C600085451165EF10D04B096937140140930782
:101C700009C08D447C808A85C147130504C03EC4D9
:101C800026C2EF1060698A8523102101130504C064
:101C900061494AC426C2EF10206891677C808A851A
:101CA0009147130504C03EC4EF100067E1778A85B1
:101CB000130504C07C804AC426C2EF10E065B7C794
:101CC00004013EC6B707020003A541843EC8B7071A
:101CD000000285073ECA6C009D47FC8602CCEF10CF
:101CE000B06203A541848545EF10F06501450561AB
:101CF0006FE04FD2EFE24FCDB28A368A7D16FD16E5
:101D0000C2064206C18241823A8BAA8B2E84EFF032
:101D10001FF0371501408565130505C0EF10C06B36
:101D200093598B00636A4405371501408565130597
:101D300005C0EF10206A6FE0AFCC03A54184894550
:101D4000EF1090627DD903A54184CE85EF105061DC
:101D500003A541848945EF1030617DD903A54184F5
:101D60008504DA85C204EF10B05FC180E3E754FD5B
:101D70000504420441807DB7DE84CDBFEFE24FC74A
:101D80001971AA841306C0072E8448008145EFE02C
:101D9000EFCC1306F007930500020A85EFE00FCCA5
:101DA0002685EF40806213198501135989416359D3
:101DB000890233042441058462046184A6853305C5
:101DC00081004A86EFE0CFC50604930704083384F8
:101DD00027004A948A852685A30004F8EF40C05D59
:101DE000268509616FE00FC3EFE2EFBE328493D91D
:101DF000860093F9F90F011401113E8913FAF60FC9
:101E00009387F9FF3304340336C4B386F500930790
:101E1000FAFF3306F500C2064206C1824182C2843F
:101E20003AC6EFF0DFDE9317890013598900B3E754
:101E30002701FC843715014093978400A180C58F4A
:101E40008565130505C0FC860604EF10E0580149BE
:101E5000A16A636C3901371501408565130505C01A
:101E6000EF10405705616FE04FBAB2478144A29727
:101E700003DB070063E5440105090904D9BFB31773
:101E80009B00B3F75701680891C328088945EFF014
:101E90001FD18504C5B7EFE22FB3411136C43AC64E
:101EA0001DC2034A810083499100AA842E84BE8A00
:101EB000428B13091600930BF00E294C930C000271
:101EC0000306F9FF01E641016FE08FB3B3874401D8
:101ED00063DCFB004E9442044180B3073401E3C449
:101EE000FBFE8144630396036303860323044101DD
:101EF000A3043101A24632472685D2945A88D68758
:101F0000A285C204EFF05FEEC180050955BF4E9473
:101F1000420441808144D5BFEFE2EFAB83A74194F7
:101F2000139916004209AA84AE8A328AB6891359D7
:101F30000901A9CB9386FAFF1306FAFF2696CE96DF
:101F4000C20642062685C1824182D68503ABC18086
:101F5000EFF0FFCB371501408565130505C0EF1085
:101F6000A0478144639944033715014085651305F3
:101F700005C0EF10204603A54194EF30F07F23A267
:101F8000019401A8CA850545EF30707E23A2A19473
:101F900055F16FE08FA703A541944A86DA85EFE0FB
:101FA000CFFB814A93970A01C18313971A0063E715
:101FB00037018504C2044A9BC1806DB703A54194D3
:101FC0008945850A3A95EFF09FBDE9BFEFE24FA240
:101FD0004111EFF0FFC62945EFE03FAF3714014054
:101FE000856593850580130504C0EF10A03E294543
:101FF000EFE0BFAD93050020130504C0EF10803D56
:102000002945EFE09FAC4545EFF0BFBD13058007C4
:10201000EFE0BFAB13056003EFF0BFBC1305000793
:10202000EFF0DFB31305A003EFF0BFBB1545EFF0F2
:10203000FFB21305200BEFF0DFBAB7170033938719
:10204000C7C095453EC00A85930730035C82EFF018
:102050001FB51305700BEFF0DFB813055003EFF059
:10206000FFAF1305B00BEFF0DFB713052003EFF060
:10207000FFAE1305200CEFF0DFB60545EFF01FAE05
:102080001305300CEFF0FFB55545EFF03FAD1305EC
:10209000400CEFF01FB513050002EFF03FAC130545
:1020A000600CEFF01FB43D45EFF05FAB1305000D82
:1020B000EFF03FB31305400AEFF05FAA1305100AD3
:1020C000EFF0DFA91305000EEFF0BFB1A9653946A7
:1020D0009385C52A0A85EFE0AF94B9450A85EFF0EC
:1020E0001FAC1305100EEFF0DFAFA96539469385DD
:1020F000C52B0A85EFE0CF92B9450A85EFF03FAADC
:1021000013051002EFF0FFAD370400201305900215
:1021100013040404C164EFF0DFAC13090401FD14DF
:102120001A2001459306000F1306000F8145EFF0BA
:102130007FBC1E201305D007639397000545090453
:10214000EFE0BF98E31E24FD014541016FE08F8C55
:10215000130580026FF0FFA8EFE28F861D71EF106C
:10216000001B23A2A1960945EF104053EF00F04653
:10217000EF10D045EFE0FFABEFE03F96138541ABAA
:10218000EFE04FFA2388A196716513050520EF1043
:10219000305E71468145C80082C0EFE02F8CEFF0C1
:1021A000FFE27D47FD461306000F81450145EFF034
:1021B0007FB44167130707809306000F1306000FD3
:1021C0009305F00C0145EFF0FFB2EF00101C238FD8
:1021D000A196854705453A842389F194EFE03FC4F1
:1021E00083C7219581E74147238AE1800945EFE0D4
:1021F0007F8C2AC03725060093056007130505A8C4
:10220000EFF0AF8B1385F19402D402D6EFF06FB0EC
:102210002388A1941DC103C7F1946545238AE196E3
:10222000EFE05F8903C7F194930700062A89994A72
:102230006305F71499473EC229A09947FD5A3EC24B
:10224000014929651305C53CEF40600CEFE02FB54F
:10225000EFE08FCA2396A194896713878750630A9A
:10226000E500138707646306E5009387074063155D
:10227000F500A14723A0F194938541AB3545EFE0EC
:102280008FEDB565938505CC4145EFE0AFD983A5CA
:10229000019423ACA194A1C51146081802D8EFE01F
:1022A000CFCB03A78182C25763FBE70083A781825C
:1022B00083A50194114608183ED8EFE04FD0C257CD
:1022C0007D57638EE70023A4F18203A5818283A753
:1022D00041823E95EF10C0772945EFE00FFF716511
:1022E00013050520EFD09FF81305007DEFE08FFC6C
:1022F0002AC40145EFE01FD385473ECCA9679387E9
:10230000073D02C802C602CA014C014D01447D5B73
:10231000C1443ECE83CD019763930D06EF10206D2F
:1023200083A7418283A50194B307F54023A4F182DA
:1023300091C9138581821146EFE06FC81305A00F84
:10234000EFE0AFF885476311FC6CB707EFBE37E7E6
:1023500000E0938707083CC7371501401305058047
:102360000146A145EF10800729651305453BEF3075
:10237000107A0545EF10502BEDBFA1476DBDE31F4F
:102380000CF8630E09004A85EFE04FF311C9FD57C1
:102390006387FA00938541AB5685EFE0CFDB0149B7
:1023A000A24791CB3E85EFE06FF119C50546814507
:1023B0000D45EFE02F8B02C4138541ABEFE0EFDE5C
:1023C00023A6A1827D15B54763E8A708F2470A0551
:1023D0003E951C4182872165938581BA13058593BB
:1023E000EF30D05DA9659385C52C138581BAEF3098
:1023F000F07E63170560A9659385452D138581BA25
:10240000EF30D07D63100560A9659385C52D1385D8
:1024100081BAEF30B07C1DC51905EF30F03403A749
:102420008182637BA70223A4A18203A5818283A763
:1024300041823E95EF10C061938541AB3945EFE095
:102440008FD119A8A9659385452E138581BAEF30E0
:10245000F0780DC1EFE01F9C824781CB3E85EFE015
:10246000EFE509C50547A388E19602C00545EFE001
:10247000CFE54DB5A9659385C52E138581BAEF309B
:10248000F07529C5930955004E85EF30F02D83A7CF
:102490008194AA84E372F5FC9305A0034E85EF3086
:1024A00010701304001019CD0505EF30F02B2A84AD
:1024B0008567420541819387078063F3A7003E84C7
:1024C00042044180938541AB294595BFA965938519
:1024D000452F138581BAEF3070703DC593096500B3
:1024E0004E85EF30702883A78194AA84E376F5F6B1
:1024F0009305A0034E85EF30906A7D5B31C11304D4
:1025000015002285EF305026131B05019305A0030B
:102510002285EF30D068135B0B41130400100DC10E
:102520000505EF3070242A84856742054181938731
:10253000078063F5A700056413040480420441800A
:10254000938541AB2D45E5BDA9659385C52F1385C1
:1025500081BAEF30B06809C5938541AB3545C5B543
:10256000A96593850530138581BAEF30306729C599
:102570009305D003138581BAEF30706215C99309B2
:1025800015004E85EF30501E83A78194AA84637195
:10259000F5029305A0034E85EF3070601304001020
:1025A00001C90505EF30501C1314050141806E8DE3
:1025B000938541AB314561B5A96593854530138558
:1025C00081BAEF30B06111E9A9659385C5301385F3
:1025D00081BAEF30B060E30105E8930945004E850C
:1025E000EF30B05EAA854E85EFD09FE2B5B583A5EA
:1025F0000194E38305E6138581821146EFE02F9C69
:10260000938541AB114525BD83A7819702D802DA96
:1026100002DC02DE89CB03A6C195A965938545310D
:102620000818EF30F05163030D02A2852685EFE014
:102630006F9FAA861386F4FF296518182296A6852F
:1026400013050532EF309037014D39B5B5659385E7
:1026500005CC2685EFE00F9DAA8523ACA1942965C2
:10266000101813054534EF307035F9BFEFE00FA5B2
:102670000DC541679306000D1306000F9305000278
:1026800001457D17EFF00FE7930600091306600B75
:10269000930560027545EFF03F88E247E38E07DA65
:1026A00003A541969309000DEFE00FE1AA8588008C
:1026B000EF30905083A701849305000F8800983372
:1026C0009C23B389E940B3C5F502C20993D9090136
:1026D000EFF0CFEA03A7018441682A8614435843E8
:1026E0007D189307F01CCE852145EFF0CFFA02CC80
:1026F000A5B3EF10C02F8C00EFE02FB883A70184A3
:102700009305000F88009C23B3C5F502EFF00FE797
:1027100003A70184C1672A86144358437D48FD17E7
:1027200091451145EFF02FF705BB83C7E19791E77E
:102730008D260145EFE01F8F05B30145EFE06FB334
:10274000D5BFA2850545EF309002AA89E30605D0E2
:1027500029652286A68513050536EF3030262286A8
:10276000A6854E85EFD07FFF930600022286CE8598
:102770002685EFE0DFA9CDB1A2850545EF30207FAA
:10278000AA89E30B05CC2965DA862286A68513057E
:102790008537EF30B022FD576313FB02814729A034
:1027A0003387F9001CA38507139707014183E36969
:1027B00087FE2286A6854E85EFE06F8075B722865C
:1027C0009375FB0F4E85EFD07FA9E5B7FD5723A684
:1027D000F18259B103C5418193056102EFE08FF5A4
:1027E00005CD03156102EFE00FFC8567938747CEA7
:1027F0002313A1023305F502318523AEA18083C7DF
:10280000219589E7EF00901423ACA1801305B00453
:10281000EFE04FAA2AC089B10547A388E1962DB9F8
:1028200013854197EFE0FFD413052003EFE08FA855
:102830002A899D4A15B193874197983312462C10E7
:102840003D8B1305700F98B302D402D6EFE01FD072
:10285000E31405C003C5F194EFE0DFD6E31E05BE27
:1028600013052003EFE00FA52A89A14AF5B6834698
:102870008102834791020346B102B2069207DD8EC0
:102880008347A102320683C5F1949183DD8E83478D
:10289000C102014792075D8E8347D10291835D8E0D
:1028A00093070006639AF5008357E10213978700A8
:1028B000A1835D8F42074183138541C2EFE0FFDAB8
:1028C00013054006EFE00F9F138641C205471432FF
:1028D0002387E1941C223822A206DD8E3C32420777
:1028E000558FE207B3EDE700D3870DF052672A89D1
:1028F000938741C253A7E7A039C3D833D423B26723
:102900002207558FF423C206D98EF8336207558FFC
:10291000530707F053A7E7A01DC398379427C26752
:102920002207558FB427994AC206D98EB837620755
:10293000558F530707F053A7E7A0E31F07B0D43321
:10294000D82383CA7700A206D98EF823E20A83C966
:10295000B7004207558F9437B3EAEA009827A206DA
:10296000E209D98EB8276E8556C64207558FB3E95E
:10297000E9004EC8EF10C06E2ACA5685EF10406EAF
:102980005246A965AA86938585398800EF30501B89
:1029900003C7F194930700066312F7028800EF3033
:1029A000D022AA8A4E85EF10A06BA9659C002A86CA
:1029B0009385853A33855701EF30901883A7C183FB
:1029C0009305000F9309C00E98339C238800B389A8
:1029D000E940B3C5F502C20993D90901EFF00FBA76
:1029E00003A7C183C1672A8614435843138807800D
:1029F000CE85FD172145EFF00FCA994A6ECAA9BCD2
:102A0000094C99BC054C89BC8947E317FC94EFF04D
:102A10002FF4EF0030506FF03F9413773500AA8702
:102A200011EF130740063377E502054509EB13075D
:102A30000019B3F7E70213B51700828001458280C1
:102A400013074006B377E5023355E5024D4713758A
:102A5000F50F6374A7009387470613D527003E95AB
:102A60001D473375E5022967130747412E97034732
:102A7000F7FF8D8B3A9632954205418199E7894758
:102A800063E5B7007D15420541819D473375F50229
:102A90008280EFD26FF35564EF0070751304041851
:102AA0003354850203D7C197AA8463068704239E03
:102AB00081969309207B1309C016130AD016636010
:102AC0008908938701C3A96A23923701138901C337
:102AD00081496D4B938A8A40854B714C138A19004A
:102AE000636F8B06137AFA0F0504230349011374ED
:102AF000F40FA3038900D56793870718B3F4F40292
:102B00008567938707E1138401C333D7F402B3F4D5
:102B1000F4021377F70F18A01307C003B3D7E4022A
:102B2000B3F4E40293F7F70F1CB024A04A206C2002
:102B30007030EFF0FFF008A401456FD06FEC4E85C8
:102B4000EFF0BFED11C9E30E44F7130424E9850942
:102B5000C20993D90901A5B7130434E9CDBF0355C0
:102B60004900EFF09FEB19C9639A7901E30C84F7F0
:102B70000D1493190A0193D909018DB7D69983C70A
:102B80000900E361F4F61D8CEDB7EFD26FE6411159
:102B9000854537050018EF00B0580545EF00303681
:102BA0000545EF003076352F0545EF00D03A01445A
:102BB0009304A00F13051004EF00505C11ED631691
:102BC0009400228541016FD0EFE405045145137450
:102BD000F40FEFD09FEFF9BF9307A00FE303F4FECC
:102BE00013050010EF00B0390545EF00103AEF0073
:102BF000106BEF00F06B85450545EF00105BEF00B3
:102C0000106AEF00305C21657D15EF00D066EF00A3
:102C1000106903A5818283A7418201443E95EF009C
:102C20003063EF00505BA9659385151A1145D125D6
:102C3000CD473EC4280085473EC6EF009026EFF002
:102C40005FE541B71971054582FE86FC8AFA8EF868
:102C500092F696F49AF29EF0A2EEA6ECAAEAAEE8FC
:102C6000B2E6B6E4BAE2BEE042FE46FC4AFA4EF8EC
:102C700052F656F45AF25EF062EE66EC6AEA6EE8DC
:102C800072E676E47AE27EE0EF00D06519C1EFF0FB
:102C90005FE01545EF001067EF0070607670E6703A
:102CA0005671C6713672A672167386737664E664C0
:102CB0005665C6653666A666166786677278E278D8
:102CC0005279C279327AA27A127B827B726CE26C80
:102CD000526DC26D326EA26E126F826F0961730007
:102CE0002030B71702409843B706FFF04111136731
:102CF000170098C3D84337060200758FD8C398438E
:102D0000B706F7FEFD16758F98C39843B706FCFF0C
:102D1000FD16758F98C3D843B70601FFFD16758F52
:102D2000D8C39843B70600ECFD16758F98C33707D4
:102D3000FF0098C723A6070202C402C69843C166D3
:102D4000558F98C3B716024005679C42F18F3EC667
:102D5000A24785073EC4B24781E7A247E397E7FE53
:102D6000B71702409C4337070200F98FADC785476C
:102D70003EC632478547631EF704B7170240D84363
:102D8000B706C1FFFD16D8C3D843D8C3D8431367CD
:102D90000740D8C3D843758FD8C3D843C166558F71
:102DA000D8C39843B7060001558F98C3B7060002F1
:102DB0009843758F75DFD843B7160240719BD8C30F
:102DC000D84313672700D8C32147DC42B18BE39E69
:102DD000E7FE4101828002C669BF371702405C43AB
:102DE000A146B18B638AD702B7177A009387072071
:102DF00023A4F184B7170240D843B7070020938774
:102E0000070511833D8BBA97982383A78184B3D795
:102E1000E70023A4F18482805C4354434167C98363
:102E2000BD8BF98E1387270085CFBD47630CF70252
:102E3000C147630CF702C547630CF7028145A9E25D
:102E4000B747024083A70780C18B95C7B7177A00A1
:102E5000938707203307F702C9E923A4E18459BF08
:102E60004947E9BF85453547D9BF81453D47C1BF82
:102E700081454147E9B7B7173D0093870790D9BF10
:102E8000371502405C55C166F58F5455A1CB918230
:102E9000BD8AB7177A00850693870720B3D7D70274
:102EA0005455A182BD8A89EE9546B387D7028583A2
:102EB000B7160240D456BD8A8506B3D7D70259BF8C
:102EC00005456394A600E546CDB73D456396A6004B
:102ED000D146B387F602E9BF8906E5BFBD8AB717B9
:102EE0007A00850693870720C9BF0583BDB701A077
:102EF00097E1FF1F9381019E17510020130181105C
:102F0000178500001305858597D5FF1F9385850FCD
:102F10001386C19363FAC5008322050023A05500E0
:102F200011059105E3EAC5FE1385C1939385C1C7D9
:102F30006377B500232005001105E36DB5FEFD4262
:102F4000739002BCAD427390428099629382820872
:102F50007390023097D2FFFF9382020B93E232000C
:102F600073905230EFF0FFD797F2FFFF9382021F6A
:102F70007390123473002030EFD28FA7B72701402F
:102F800093870740631EF500854513050020EF0079
:102F9000101B814513050020EF00701A6FD08FA71A
:102FA000B737014093870780E31AF5FE854513057F
:102FB0000040EF00D018814513050040F1BF584193
:102FC000B707F1E09387F7EF944D7D8F9C41D58F44
:102FD000D44DD58FD441A206D58FD98F5CC1184569
:102FE000B7F7F1FF9387D77FD4457D8F9C49D58F65
:102FF00094458606D58FD98F1CC55855B70710FF45
:10300000FD177D8FDC29FD1793F7F70FD207D98FB6
:103010005CD582801C4589C593E717001CC582805A
:10302000F99BEDBF1C4593E787001CC582800845CE
:103030000D81058982801C4593E747001CC582806D
:1030400008450981058982801C4591C537075000D4
:10305000D98F1CC582803707B0FF7D17F98FD5BF88
:10306000A54763F7B7048D47138765FF3307F7025A
:103070000328C5009D47B397E70093C7F7FFB3F751
:103080000701B396E600DD8E54C5994763E3C70494
:1030900095477D163306F6025859FD47B397C7008A
:1030A00093C7F7FFF98F3396C5005D8E50D98280A4
:1030B0000D473387E502032805019D47B397E700D5
:1030C00093C7F7FFB3F70701B396E600DD8E14C987
:1030D0006DBFB14763E2C702954765163306F60236
:1030E0001859FD47B397C70093C7F7FFF98F339679
:1030F000C5005D8E10D9828095474D163306F602C5
:103100005855FD47B397C70093C7F7FFF98FB3959D
:10311000C500DD8D4CD582806845420541818280A5
:10312000B727014093870740984711C5B70680002D
:10313000558F98C78280B70680FFFD16758FD5BF63
:103140001C4133F5F5003335A0008280B7F7FF1F2F
:1031500083A7077213D70701C207C1831D8DA94733
:103160003305F50287A64192537707D05505D377EB
:1031700005D0D3F7D718D377F708538507E08280B7
:103180005C4191C537070004D98F5CC18280370745
:1031900000FC7D17F98FD5BFEFD28F8501112A84EE
:1031A00023040100A5441C8463F9F40423040100F2
:1031B000A54621461C8463F0F6082315010023046C
:1031C000010095461C8463FBF60E38853C859946C4
:1031D0000D46B3F7D702056513050580B3D7C702BF
:1031E0003357D702BA97C207C1837C853C850561F6
:1031F0001D8D420541856FD0EF811C4493E7870008
:103200001CC42285EFF0BFE26DFD1C4493E747002C
:103210001CC42285EFF0DFE26DFD78441C84860734
:10322000938707028A972396E7FE1C84850793F706
:10323000F70F5C848DBFA30401009C846378F600C3
:103240001C84850793F7F70F5C84ADB798849C8442
:1032500006078507860713070702938707020A9761
:103260008A970357C7FE83D7C7FE63F3E7049C849E
:103270008607938707028A9783D7C7FE7C859C843D
:10328000988485078607938707028A9783D5C7FEA8
:1032900093171700938707028A972396B7FE9C849B
:1032A000388585078607938707028A972396E7FE66
:1032B0009C84850793F7F70FDC8441B71C8438851D
:1032C00089078607938707028A9783D7C7FEBA972D
:1032D000C207C1837C851C84850793F7F70F5C8444
:1032E000D5B5EFC2FFF00545952D0145852D6FC081
:1032F0007FF24111B777004002C6938707C03EC6F0
:10330000B2473E952AC6B2478CC341018280B7F7C7
:10331000FF1F03A5477082809C4513F7070113F830
:10332000F70001C7D8413368E8008E2113F7F50F85
:1033300031C318418146054E930E80023D4F930FD5
:10334000800421433316DE00B3F8C5006310160372
:10335000639AD70750C913962600B318CF0093C8B5
:10336000F8FF33F7E8003316C800518F8506E39B5A
:1033700066FC18C11307F00F6375B704544101468A
:10338000054E930E8002130F80042143130786001D
:103390003317EE00B3F8E500631117036398D70302
:1033A00058C9931826003D47331717011347F7FFF5
:1033B000F98EB3181801B3E6D8000506E31866FCC9
:1033C00054C18280E399F7F910C971B7E39BE7FD17
:1033D00018C9C1BF0CC982804CC9828019C20CC9EE
:1033E00082804CC98280B7083000935605011317BC
:1033F000050133731501BD8A418363530502B70785
:103400000140DC4F63151305C1060D46B316D60007
:1034100093C6F6FFF58FC5E9370701405CCF828080
:10342000370801400326480063121307B70600F16E
:10343000FD16B377D60003264800F18E2322D8006C
:10344000BDCD558112053315A700C98F8DA837064C
:103450001000698E05C20D46B316D60093C6F6FF5E
:10346000F58FDDD955811375F53F12053315A7008A
:10347000C98F5DB755811375F53F12053317A70046
:103480009346F7FFF58FC9D9D98F79B7B7071000E1
:10349000E98F99CB8D47B397D70093C7F7FFF18F8B
:1034A000B706000FD58F69BF558112053315A700E8
:1034B0009347F5FFF18F3707000FD98FD9F53707FD
:1034C00001405CC3828055811375F53F12053317A7
:1034D000A7005DBFEFC2DFD1462101112A84680039
:1034E0002E89C204D924C180D24793F404FCB78644
:1034F0009303C2049386F66FC1801307C00363EA87
:10350000F60037470F001307072433D7E7024207B7
:103510004183D98C46A0162061661306066AC2064E
:10352000C182F99AC206C18216A083260900636C83
:10353000D6048606B3D6D7021146B687C206C18224
:1035400063F3C6009147C207C18305074207418361
:103550001AB05EAC1E20035749008356A90093E7BA
:1035600017001EA01E20558FC207C18393F757BFB7
:10357000D98F1EA0035789008357C900D98F1EA475
:1035800005616FC03FC98355690031667D16639937
:10359000C5020D46B386C602B3D7D702C207C183A0
:1035A0009396470199E293E71700A166D58F93069A
:1035B000C0123307D7029306803E3347D70271B754
:1035C0006546B386C602B3D7D7029166C207C183E8
:1035D000D58FF9B71E2189C593E717001EA18280F8
:1035E000C207C183F99BC207C183CDBF1E2189C514
:1035F00093E707101EA18280C207C18393F7F7EFFC
:10360000C207C183C5BF1E2189C593E707201EA13C
:103610008280C207C18393F7F7DFC207C183C5BFAA
:103620001E2189C593E707401EA18280C207C1837E
:1036300093F7F7BFC207C183C5BF0EA982800A29CD
:103640001375F50F828093F7E50F19C293E7150004
:103650001EA982805E290A2D42055D8D6D8D220591
:1036600021810D8D133515008280411102C402C6DF
:1036700093D7C5012AC63EC4A247A205A18199CB12
:10368000B247D1073EC6B247884341016D8D3335FD
:10369000A0008280B247C181E107EDB723A0A198C5
:1036A000828003A70198894714216311F70218311A
:1036B0008D4763EDE7003C211A079607D98F37E75E
:1036C00000E093F7F70F36972300F740054793D7AD
:1036D00056003317D700544189CA938707048A07D5
:1036E000B7E600E0B69798C3828093870706B7E6EF
:1036F00000E08A07B69798C30F10000082803777E2
:1037000000401C4309C593E707101CC3828093F750
:10371000F7EFE5BFB777004098431367470098C3BA
:1037200098431367270098C3B7F700E0938707D043
:10373000984B1367470098CB984B5D9B98CB7300D1
:1037400050108280B7160240DC4251777D17F98F06
:10375000C98FDCC28280B717024023800702238012
:10376000070205476306E50011476306E50082800E
:103770002380A702828015472380E70282803717C3
:1037800002401C53C98F1CD3828001C937170240E5
:103790001C53A166D58F1CD38280B71602409C5261
:1037A00061777D17F98F9CD28280371702405C4386
:1037B000A146B18B6381D706B7177A00938707209C
:1037C0001CC1371602405C4237070020130707066A
:1037D0009183BD8BBA9794231C41B3D7D7005CC1AA
:1037E0005442A1829D8ABA969422B3D6D70014C5BA
:1037F0005442AD829D8A369718239386C184B3D7ED
:10380000E7005CC5584239830D8B36971823B3D730
:10381000E7021CC982805C435843C166C983758F27
:10382000B7F6FF1F03A6C6709166BD8BF18E8907A0
:1038300095E6C54601466393D700C94731EF374740
:10384000024003270780418B39C337177A001307DB
:103850000720B387E7022DD685839DB78946638D00
:10386000D700BD46638CD700C146638CD700C546E0
:10387000638CD7000146D9B7C947EDBF0546B547A8
:1038800075BF0146BD475DBF0146C14745BF3717FC
:103890003D001307079075BFB7150240D855C166A4
:1038A000758FD45521CB9182BD8A37177A00850652
:1038B000130707203357D702D455A182BD8A89EE5A
:1038C00095463307D7020583B7160240D456BD8A02
:1038D00085063357D702B5BF85456394B600E546E4
:1038E000CDB7BD456396B600D1463387E602E9BF42
:1038F0008906E5BFBD8A37177A00850613070720BA
:10390000C9BF99C5371702401C4FC98F1CCF828091
:10391000B7170240984F1345F5FF798D88CF828005
:1039200099C5371702405C4FC98F5CCF8280B717AB
:103930000240D84F1345F5FF798DC8CF828099C5D5
:10394000371702405C47C98F5CC78280B7170240B7
:10395000D8471345F5FF798DC8C7828001C937174D
:1039600002401C53C166D58F1CD38280B71602401B
:103970009C5241777D17F98F9CD2828093575500D6
:1039800005476399E700B71702409C4333D5A7006A
:103990000589828009476396E700B71702409C5368
:1039A000F5B7B7170240DC53D5B737370040835718
:1039B000078089C5C98F2310F78082801345F5FFE2
:1039C000E98FD5BFB737004003D74780136707019A
:1039D0002392E78082803737004083574780C207B1
:1039E000C183BD9BC207C1832312F7808280B73792
:1039F000004093870780962F9A2F13160701418264
:103A0000E39BE6FEB737004093870780D62FDA2F77
:103A1000131507014181E39BE6FE3737004013078A
:103A200007800E2F162F93970601C183E39BD5FEC7
:103A3000630DF6003737004013070780522F562FCB
:103A4000139506014181E31BD6FEC2075D8D82807E
:103A5000EFC20FFA2A84EFF0FFF613570401B737CD
:103A600000404204239CE7804180239E8780EFF042
:103A70009FF66FC02FFAEFC2AFF72A84EFF09FF4E2
:103A800013570401B73700403D8B42042394E7806D
:103A9000418023968780EFF01FF46FC0AFF7373770
:103AA0000040130707805E2393F70702EDDF828053
:103AB000373700408357478013070780C207C18309
:103AC000DD9BC207C1835EA35E23A18BF5DF8280ED
:103AD000B737004003D747801345F5FF698F23921E
:103AE000E78082803737004083574780035707803D
:103AF000C207698FC18309C77D8D3335A0008280DD
:103B0000014582806FF0DFFC1E210D67130707045B
:103B1000B6217D8F9E21D58FD621D58FF621D58FC9
:103B20009625D58FB625D58FD625D58FF625D58F59
:103B3000D98F1EA15E2D7D771307F77FF98F5EADBC
:103B40009E291EA982801E2189C593E707041EA114
:103B50008280C207C18393F7F7FBC207C183C5BF49
:103B60004EA582804A2582800A256D8D3335A000BE
:103B7000828037F7FF1F032747701E21B7360140A9
:103B800011833D8BC2077117114303D84500922161
:103B9000C183938806C06363E306630615039386B7
:103BA0000640630AD50037570140930607C06304F7
:103BB000D5006317E5040967D98F93F7F7F8C207B3
:103BC000BA21C18301A8BA2193F7F7F85D8F4207A4
:103BD00041838967D98FFA2193F7F7CFC207C18351
:103BE000D98F1EA123160503B737014012B51387DD
:103BF00007C06315E5069C251EB989A8E30F15FBD0
:103C000037070040E30BE5FA13070740E307E5FA3F
:103C10003717004093060780E301D5FA930607C0E3
:103C2000E30DD5F8B736014093860640E307D5F893
:103C3000B7560140938806C0E30115F9E30FD5F6A6
:103C40006319E5001EA12316050312B585475EA979
:103C5000828013070740E307E5FEB5BF938707405F
:103C6000E30BF5F8B7570140138707C0E305E5F804
:103C7000E31EF5FC49B71E294A25ED8F4205418117
:103C800089C76D8D3335A00082800145828093C540
:103C9000F5FFC205C1810EA98280EFC26FD516293A
:103CA000F577FD17FD8EFE21DA250111D58F1EA9AE
:103CB0005625FD779387379FFD8EDE212A84AE84BB
:103CC000D58F9625D58FB625D58F5EA55E29C207DF
:103CD000C18393F7F7CFD98F5EA96800EFF0FFACEF
:103CE000B747014093870780631EF402E2476547A8
:103CF000B387E7029840930640060A07B3D7E70266
:103D000033D7D702B3F7D702120792079387270357
:103D1000B3D7D702BD8BD98FC207C1831EA405615B
:103D20006FC04FCFD247E1B75E2589C50967D98FEC
:103D30005EA5828079777D17F98FDDBF13F7F50FC8
:103D400085471583B395B7006319F7009307C5003E
:103D5000984301CE4D8F98C38280894693074501D1
:103D6000E318D7FE93070501E5B793C5F5FFF98D75
:103D70008CC3828093F5F51F4EA182804A21137572
:103D8000F51F82800A216D8D3335A000828093F665
:103D9000F50F054695822A87B317B6006391C602D0
:103DA000562533F5F6001E23C207C18301C9A18140
:103DB00005473317B700F98F3335F0008280094685
:103DC0006394C6001629F1BF5629E1BF83A78184F9
:103DD00037177A0013070720B3D7E70293F7F70FD7
:103DE0002384F1981307803EB387E7022393F19869
:103DF0008280B7F700E0D8438146799BD8C303C7D8
:103E000081983306A70290CBD4CB98431367070160
:103E100098C398431367170298C3D843058B75DF7F
:103E20009843799B98C38280B7F700E0D8438146D6
:103E3000799BD8C303D761983306A70290CBD4CB24
:103E400098431367070198C398431367170298C3F1
:103E5000D843058B75DF9843799B98C38280757131
:103E600022C726C54AC34EC182FE86FC8AFA8EF856
:103E700092F696F49AF29EF0A2EEA6ECAAEAAEE8CA
:103E8000B2E6B6E4BAE2BEE042FE46FC4AFA4EF8BA
:103E900052F656F45AF25EF062EE66EC6AEA6EE8AA
:103EA00072E603A581859305505276E47AE27EE0BE
:103EB000EFF0FFED3DC503A58185EFF03FEC03C7B3
:103EC00041989307F0031375F50F63F4E70023821D
:103ED000019803C741989387C1C393041700BA9709
:103EE00093F4F40F88A323829198A947631BF502EA
:103EF000130600048145138581BAEFC02FB62686CC
:103F00009385C1C3138581BAEFC08FB11306000436
:103F100081451385C1C3EFC06FB423820198EFC000
:103F2000BFAD3A44AA441A498A497670E670567180
:103F3000C6713672A672167386737664E664566529
:103F4000C6653666A666166786677278E278527925
:103F5000C279327AA27A127B827B726CE26C526DE9
:103F6000C26D326EA26E126F826F49617300203093
:103F7000EFC20FA82A84116579718545110502C623
:103F800002C8EFF01F9893070020FC82B71401408D
:103F90008D473ECC4C08E147138504803ECEEFF0C0
:103FA000AFB793070040FC824C089147138504800B
:103FB0003ECEEFF06FB622D003A58185B7070C0087
:103FC0000C103ED402D223160102EFF01FCD03A540
:103FD0008185054693055052EFF05FD683A7418552
:103FE00068005C868547DC865C873EC8EFF06FEB37
:103FF00003A581858545EFF03FD345616FC08FA153
:10400000EFC26F9D2E893284814463C5840022856E
:104010006FC0AF9F03A5818593050004EFF09FD685
:1040200075D9B30799008385070003A581858504A9
:10403000C205C181EFF01FD4C9BFAA8703A50185BE
:104040001387C1C7AA9763EBE700378700201307E0
:1040500007806365F70023A8F18482807D55828004
:104060009357750193F7F70F938617F80547635336
:1040700005007D5779466345D60463D80600FD5791
:104080006383F60001473A858280B7058000138676
:10409000F5FF698E4D8ED94563D9D5009387A7F674
:1040A000B317F6003307F702F9BFB7074000B3D7DD
:1040B000D740B2975D46B306D640B3D7D700DDB739
:1040C000411106C6EF10B046B240410182809316FE
:1040D000850193578501D58FC16613578500938657
:1040E00006F0758FD98F22053707FF00798D5D8D1A
:1040F0008280B70710000111FD1733F8B70093D87D
:104100004601F58F22CC13D44501139737000E08D2
:104110004AC84EC69357D6019359D50113D9F50114
:104120001374F47F93F8F87F06CE26CAFD82B3E9B4
:104130000901D98F93153500131836003307144140
:104140006304D918635EE010638808209306F07F4B
:104150006306D45293068003854463C9E602B7061A
:104160008000D58FFD4663C7E64293060002998E14
:10417000B394D7003356E800B316D800D18CB336C9
:10418000D00033D7E700D58CB389E940B38495409C
:10419000B3B79500B389F940B707800033F7F9004A
:1041A00063080724FD17B3F9F9006386092A4E85D1
:1041B000EF10B054130785FF93060002B387E64063
:1041C000B3D7F400B399E900B3E73701B394E4003F
:1041D00063458732018F0507998E3396D400B3D992
:1041E000E4003336C00033663601B396D700B3E43B
:1041F000C600B3D9E700014493F7740081CF93F769
:10420000F40011476388E70093874400B3B4970034
:10421000A699BE84B7078000B3F7F9006387072823
:1042200005049307F07F6300F41CB70780FFFD17B8
:10423000B3F7F9001397D7018D80A607458FB18397
:104240001374F47F52047E095D8C33642401F240C0
:10425000A2856244D2444249B2493A8505618280CE
:10426000630F0710338788406318043033E5B900C3
:10427000630E05261305F7FF630E05481303F07F51
:10428000630A67421307800385446346A7022A87AF
:104290007D466340E64413060002198EB394C900BC
:1042A00033D5E5003396C500C98C3336C00033D70B
:1042B000E900D18C998FB304984033389800B389C2
:1042C000074146843689C9BD6359E01263900810DE
:1042D000B3E60701638F06201306F7FF6305063672
:1042E0009306F07F630ED744130780038546634629
:1042F000C7023287FD4663CBE63813060002198EEB
:10430000B396C7003355E8003316C800C98E33365C
:10431000C00033D7E700D18EBA99B387B600B3B6E1
:10432000D700BE84B699B7078000B3F7F900E9C398
:1043300005049307F07F6308F40AB70780FFFD17B1
:10434000B3F7F90013D714008588458F9394F701CC
:10435000D98C93D917004DB5B3E60701638B0618C6
:104360009306F7FF638106301306F07F630FC714CF
:10437000130780038544E34BD7E03687E5B3130783
:1043800014001377E77F6315071CB3E8B90033E720
:1043900007016310042A638B0838630C073AB3845F
:1043A000054133B795003386F940198E37078000F1
:1043B000718F63010740B305B840B3873741333885
:1043C000B800AE84B389074136893DB59306F07FC6
:1043D000630DD40E130680038546E340E6F4B7066A
:1043E0008000D58F01BF1304F07F8147014799BD3D
:1043F00013F77400E31507E089AA630707103387F2
:104400008840630D041A9306F07F638DD82A130643
:10441000800385466349E602B7068000B3E9D90008
:10442000FD4663C6E63613060002198EB396C90030
:1044300033D5E5003396C500C98E3336C00033D777
:10444000E900D18EBA973698B336D800C284B389C2
:10445000F6004684C9BD2685EF10302A1307850172
:10446000FD46E3DBE6D4930785FFB397F400634989
:104470008716B30487401387140063DBE634851482
:1044800093060002B3D49700630BD7009306000491
:104490003387E640B397E700B337F000DD8C13F7BE
:1044A00074000144E31D07D44DA093D73400139743
:1044B000D9019306F07F5D8F93D73900630FD40045
:1044C000B207B1831374F47FB5BB0E059397D9017E
:1044D000135735005D8F93D739005D8F09D7014998
:1044E0001304F07FB70708000147A9BBC285BE8946
:1044F000368993D735003A845DBFB70980FFFD192F
:10450000198CB3F93701CDB99306140013F7E67F80
:104510006DE333E7B9006311041E630A072433E730
:104520000701630D07242E98CE97B335B800B389E1
:10453000B7003707800033F7E900C28419C7B7070F
:1045400080FFFD17B3F9F9000544A685228755B70A
:10455000B384054133B795003386F940198E370788
:104560008000718F45EF33E7C400B289E31F07C2B3
:10457000014901448147F9B11305F07F638CA8120A
:10458000130680038544E348E6D237068000B3E98A
:10459000C900FDB9930607FE13060002B3D6D70083
:1045A000630AC700130600043307E640B397E70029
:1045B0003368F800B3340001D58CC9BEB3E6B90046
:1045C0006382061A1305F7FF3DCD9306F07F630B58
:1045D000D70E130780038546E347A7E62A8789B5E8
:1045E000B70680FFFD16F58F198C1397D7018D83C1
:1045F000C1BD1307F07FE388E6DE33870501CE9760
:10460000B335B700AE9705839394F701D98C1D8B12
:1046100093D917003684E31407BE05BFB305B8402D
:10462000B38737413338B800AE84B3890741368940
:10463000ADBE639C08126315071801491304F07F8F
:10464000B707080001B12E98CE97B335B800B389EB
:10465000B700B7078000B3F7F900C2840544E389C7
:1046600007D80944D9B933880541B387F940B3B5B0
:104670000501C284B389B740054439BE0E050D81DA
:104680001397D901498F93D7390081BD130607FECF
:104690009306000233D6C700630AD70093060004CE
:1046A0003387E640B397E7003368F800B33600017C
:1046B000D18EA5B10E061397D7010D82518F8D8330
:1046C000368921BD0E061397D7010D82518F8D8338
:1046D00029B5130607FE1305000233D6C900630986
:1046E000A700130500043307E5403397E900D98D8F
:1046F000B334B000D18CC1B671D733E80701E310F1
:1047000008DE0E059397D9010D813367F50093D725
:104710003900E1B3B305B840B38737413338B80047
:10472000AE84B389074136890544BDB4E30207E48A
:104730000E061397D7010D82518F8D83368949B3A9
:10474000931735008D831397D9015D8F93D7390067
:1047500069B3931735008D831397D9015D8F93D774
:104760003900B9BBC285BE8969B341DF8DBB0E0676
:104770001397D7010D82518F8D8399B30E059397AF
:10478000D9010D813367F50093D7390015BB1306A6
:1047900007FE9306000233D6C9006309D7009306CB
:1047A00000043387E6403397E900D98DB336B00073
:1047B000D18E51B933E7C400B289E31807D84DBB95
:1047C0000E061397D7010D82518F8D83368931B331
:1047D00093060002998E014639B4797193D7450149
:1047E00022D426D24AD056CA5EC69394C50006D6B5
:1047F0004ECE52CC5AC862C493F7F77F2A84B28B4C
:104800003689B18093DAF501638C07101307F07FC6
:104810006387E7148E04135BD501336B9B00370766
:104820008000336BEB00131A3500938917C0814465
:10483000014C935749011314C90093F7F77F318056
:104840001359F901D5C31307F07F6384E7080E04F9
:1048500013D7DB01418F938717C037048000598C31
:1048600093983B00B389F94001463D47B3C62A01FE
:1048700063689718176700001307C7BA8A04BA94C9
:104880009C40BA9782871D8F13068003635CE640C5
:10489000814701460147B2502254D207D18FFE060C
:1048A000D58F92540259F249624AD24A424BB24BD6
:1048B000224C3A85BE85456182809307F07F014690
:1048C0000147D1BF81469307F07F370608000147B3
:1048D000D9B7B3687401938919806399081093E478
:1048E00024000144094651B7B3687401638B080E74
:1048F000630604362285EF104060AA87930655FFB1
:104900007547938887FF158F3314140133D7EB0055
:10491000598CB3981B01CE979389373F0146B1B7A5
:1049200033EBA40063090B0C638B04302685EF1076
:10493000C05C2A87930655FFF547130A87FF958FBA
:10494000B3944401B357F40033EB9700331A440196
:104950009307D0C0B389E7408144014CD9BD33EB04
:10496000A40063190B06014AA1449309F07F094C86
:10497000C9B5328C89476302FC3E8D47E304FCF4E1
:104980008547CA86E306FCF09387F93F6350F0221F
:1049900013F778006319073A37070001618F19C7C9
:1049A000B70700FFFD177D8C938709401307E07F51
:1049B000E345F7F093D838001317D4011316940089
:1049C00033671701318293F7F77FF1B556895A841F
:1049D000D2884DB7268B2A8AB1449309F07F0D4CBB
:1049E00089BD93E414000144054641B593E43400C5
:1049F000DE880D469DBD014A91448149054C15BD97
:104A00006365642363018B225283FD19DA87014AAF
:104A1000131784001355070133D4A70213D6880156
:104A2000598E1318060113580801939588001357DF
:104A30000301B3F7A702B3088802C207D98F63F84E
:104A40001701B2971307F4FF63F9C7243A84B387B9
:104A50001741B3D8A702131703014183B3F7A70285
:104A6000B30F1803C2075D8F6378F70132979387FE
:104A7000F8FF637FC720BE884204C162336414011B
:104A80001383F2FFB3786400935E040113DE050123
:104A900033F36500330F13033307F741B3081E03E5
:104AA00093570F01B38F6E02FE98C697B38ECE0355
:104AB00063F3F701969EC16FFD1F93D80701B3F70B
:104AC000F701C207337FFF01F698FA97636B17135C
:104AD00063071713B307FA4033071741333AFA0055
:104AE000330747416303E624B358A70293DE070167
:104AF0003377A702330F1803420733E7EE00637BD7
:104B0000E7013297938EF8FF6367C7246375E72543
:104B1000F91832973307E741B35EA702C207C18392
:104B20003377A7023308D8034207D98F63FB070105
:104B3000B2971387FEFF63EEC72063FC0721F91EBF
:104B4000B297C208B3E8D8011395080113DF080132
:104B50004181B30E6502B38707413305AE0213D717
:104B60000E0133036F021A952A97330EEE03637416
:104B7000670041652A9E41687D1813550701337708
:104B800007014207B3FE0E017295769763F7A70EF1
:104B9000B2971383F8FF3E8863E7C71663E5A71C47
:104BA000638EA71C9A8893E81800F9BB0547E39C1D
:104BB00007CC9387E9413396F8003336C000B3172A
:104BC000F400D18FB3D8E800B3E8F80093F7780089
:104BD0003354E40081CF93F7F80011476388E7006E
:104BE00093874800B3B817014694BE88B705800084
:104BF000E18D854701460147E39F05C8D5A8E37BC2
:104C0000FAECB30EBA0033BF4E01B30FCF007E975C
:104C1000768A930FF4FF6377E60663601711638C5F
:104C2000E80E7E8445BDE3611ADF13571A001313A3
:104C3000FB0193571B003363E3007E0AD1BBEF10E7
:104C4000C02B93065501F14713070502E3D6D7CED3
:104C5000930785FF331BF400014ADDB95E85EF1031
:104C6000C02993065501714793070502E35AD7C837
:104C7000611581483394AB0079B9E396A7F2E30557
:104C800007D039B7E31FE6F8E3090FF87E8499B53A
:104C9000E373F7DFF9183297C5B3E3F917DB79143B
:104CA000B29775B37D46E356E6F005561D8E930721
:104CB00000023356C4006308F7009387E943B31733
:104CC000F400B3E8F800B3381001B3E8C80013F7F4
:104CD000780001461DC393F7F8001147014463892A
:104CE000E70093874800B3B8170133341001BE883A
:104CF000131694001317D401318293D8380033E788
:104D0000E800814749BE9A88E31FA8E8E30EB7C6CA
:104D100093E8180095B9E3F6FEF0AE9E33BFBE00EF
:104D2000329F7914768A7A9775B3130720C09387D8
:104D3000F93FFD58E3CCE9E613874800B338170183
:104D40004694BA8891B913F7F8001146E306C7C430
:104D5000E5B7BA8EFDB3F68875BBCA869307F07FB8
:104D6000014601470DBE139315003338B300329846
:104D70003E98F9189A85E30BA8F835B5E3E5E5FE0A
:104D80009A88E317B7F809B113D74501B7071000A0
:104D9000FD1713D846011377F77F1303F07F33FE17
:104DA000B700AA88F58FFD811378F87FFD8205454D
:104DB000630A670063076800631407016300FE026B
:104DC00082808280E31EE8FEB367FE00D18FB3E7E6
:104DD0001701FDF7958D3335B0008280E392C8FE50
:104DE0006388D50071FF336E1E013335C0018280A8
:104DF0000145828013D84501B7071000FD1793D8ED
:104E000046011378F87F130EF07F33F3B7002A873B
:104E1000AA8EFD81328FF58F93F8F87F13D5F601B6
:104E2000630CC803638DC801631508043367E3008E
:104E3000639E08025D8E25C235EB1DC582805D8EA6
:104E400025E6631608003363E300E30803FE639B73
:104E5000A50099C92E8582803363E300631603049D
:104E6000638E08030545F9D97D5582806DF379F588
:104E7000E5BFE38908FEE397A5FEE3C508FFE34A23
:104E800018FDE3E167FEE316F3FCE36DDFFD01458A
:104E9000E3E1EEFD8280014571F78280D18F89E7E1
:104EA000E392A5FC0145828079558280E38BA5FCC5
:104EB00055BF13D84501B7071000FD1793D8460119
:104EC0001378F87F1303F07F33FEB7002A87AA8E8A
:104ED000FD81328FF58F93F8F87F13D5F601630DBE
:104EE0006802638D6800631308043367EE00639300
:104EF00008065D8E3DC22DEB11CD82805D8E0DE6E4
:104F000063160800336EEE00E3080EFE6381A5040D
:104F10000545E5D57D558280336EEE0063160E00A3
:104F2000E39808FFD18F8DCF09458280E38208FE88
:104F3000E390A5FEE3CE08FD634B1801E3EAC7FD4D
:104F40006317FE00E366DFFD0145E3F8EEFBF9D1F0
:104F50002E85828045FF55F175BF014555FB828046
:104F6000E398A5FA01458280E38AA5FC55B739711B
:104F700093D7450122DC26DA4ED662CC9394C50045
:104F800006DE4AD852D456D25AD05ECE93F7F77F77
:104F90002A84328CB18093D9F501638607161308F1
:104FA000F07F6382071B8E049355D501C58DB7042E
:104FB0008000CD8C131A3500938B17C0014B814AAA
:104FC00093D746011398C60093F7F77FE28E1354E8
:104FD000C80013D9F601F5C71308F07F638E0707E1
:104FE00093163400938717C09355DC01D58D338E0B
:104FF0007701B7068000A94733E4D500931E3C0033
:10500000014513031E0063C6671933C82901C28610
:105010000946634766079308FBFF854563EB151B4D
:10502000630DC51285473688631FF50681478146A3
:105030000147F2506254D207D58F7E08B3E70701CB
:10504000D2544259B259225A925A025BF24B624CE4
:105050003A85BE852161828033678401138EFB7F90
:1050600063090710056733C8290113070780136B0D
:105070003B002946C2863383EB00634366430D45FC
:105080000546331666011377065305C389476386C1
:10509000FA0C8D476388FA12568585472684D28E8E
:1050A0003688E305F5F81A8E79A493770624C5EFC0
:1050B00013768608630F0610CA86A284768AAA8AA7
:1050C000F1B7B3678401FDC3630B04322285EF009F
:1050D000D0622A8E130755FFF547930E8EFF998FE6
:1050E000B316D401B357FC0033E4D700B31EDC0180
:1050F000338ECB41130EDEC0A947014513031E00BA
:10510000E3D567F179A033EAA400630C0A0836C638
:105110006388042C2685EF00505EB2462A8713066A
:1051200055FFF547130A87FF918FB3944401B35796
:10513000F400DD8C331A44019307D0C0B38BE740F1
:10514000014B814AB5BD33EAA40063160A048144C9
:10515000214B930BF07F894AA5B536889307F07FE2
:1051600081460147F9B501489307F07FB70608006B
:10517000C9B5856793870780136B2B00A9463383D6
:10518000FB0063D2662B814EB9470945AD46638764
:10519000D730CE86E5BD2A8A314B930BF07F8D4AFE
:1051A00005B58144114B814B854A19BD5E8E136B49
:1051B0001B00A9470144814E054513031E00E3D699
:1051C00067E5C1BF01489307F07FB70608000147B4
:1051D0008DB5C1651387F5FF93570A0193D80E016A
:1051E000337AEA00B3FEEE003307DA033386D703DF
:1051F00013550701B3864803B2963695338F1703CC
:105200006373C5002E9FC1631386F3FFB375C5009A
:10521000B376C400718F935F0401C205B302DA0252
:10522000BA9541813387D70213D60201338A4F03DF
:105230003A9A5296B387F7036373E6009E974169E3
:105240001304F9FF3377860093D30401B3F282008D
:10525000E18C420733849E02169741823E963A952E
:10526000B382980293570401B38ED303F6929697B4
:10527000B388780263F3D701CA984169930EF9FFA6
:10528000B3F2D701B37ED401C202C183C69733847F
:105290009602B388D201B386D30293520401B38439
:1052A0009F02B694A692B38E7F0263F3D200CA9E89
:1052B000C16FFD1FB3F6F2013374F401C2067A9593
:1052C000A29636963337E5003297AA98BA9733B547
:1052D000A8003E95B336D6003336C700D18E33B71B
:1052E000E70013D60201B337F5005D8FB29636970B
:1052F0007697939E9800935775012607B3EEBE00EC
:105300003364F700B33ED00193D77801B3EEFE00CB
:10531000B70700012605E18FB3EEAE0089CF93D722
:105320001E0093FE1E001317F401B3E7D701B3EE7E
:10533000E70005801A8E9307FE3F635AF00413F7C7
:105340007E0001CF13F7FE0091466308D700138754
:105350004E00B33ED7017694BA8E37070001618FB5
:1053600019C7B70700FFFD177D8C93070E40130781
:10537000E07F6345F70A93DE3E001317D4019316CE
:1053800094003367D701B18293F7F77F5DB105478A
:10539000D5E3130EEE413396CE013336C000331EF3
:1053A000C401B3DEEE003366C6013366D6019377DF
:1053B0007600B355E40081CF9377F60011476388F8
:1053C000E7009307460033B6C700B2953E8637051F
:1053D00080006D8D854781460147E31C05C475A09B
:1053E000EF00B03113065501F147B246130705022D
:1053F000E3D9C7D26115014AB314A40035BB628555
:10540000EF00B02F13075501F147130E0502E3D546
:10541000E7CC6115814E3314AC00D9B99307F07F06
:105420008146014739B133C82901C2860144814E02
:105430000945F9BE1D8F93068003E3C9E6BEFD460C
:10544000E3D9E6F48556B387F64093060002B357D6
:10545000F4006308D700130EEE43331EC401B3EE0D
:10546000CE013336D0015D8E1377760081461DC3A1
:105470009377F600114781456389E700930746005B
:1054800033B6C700B335C0003E8693969500139798
:10549000D501B1820D82518F814761BE3A8429B90D
:1054A0003D476317EB000148B7060800014751B6B6
:1054B0002287AD470D45D9B9B7071000FD17011177
:1054C000B3F8B70013D84601F58F8E08139737004D
:1054D00022CC26CA13D445014AC89357D601135982
:1054E000D50106CE4EC61378F87F1303F07F93D410
:1054F000F501336919011374F47F93183500FD82A7
:10550000D98F931536006302681C93C616003307C3
:1055100004416382D4126356E0686304081E630B7F
:10552000645293068003854963CBE602B706800088
:10553000D58FFD4663C2E63E93060002998EB3996D
:10554000D70033D6E500B396D500B3E9C900B3362A
:10555000D00033D7E700B3E9D9003309E940B38974
:105560003841B3B738013309F940B70780003377C2
:10557000F90063070728FD173379F9006307092845
:105580004A85EF009017130785FF93060002B38743
:10559000E640B3D7F9003319E900B3E72701B3991F
:1055A000E900634B872E018F0507998E3396D9004A
:1055B00033D9E9003336C0003366C900B396D7004B
:1055C000B3E9C60033D9E700014493F7790081CFEE
:1055D00093F7F90011476388E70093874900B3B94F
:1055E00037014E99BE89B7078000B377F900638809
:1055F000072605049307F07F630EF41EB70780FFAC
:10560000FD17B377F9001397D70193D93900A6078F
:1056100033673701B1831374F47F85885204FE0425
:105620005D8C458CF240A2856244D2444249B24925
:105630003A8505618280635AE0586312081AB3E61E
:10564000B700638706241306F7FF6301063C630275
:1056500067441307800385466346C7023287FD46C9
:1056600063C2E64013060002198EB396C70033D515
:10567000E5003396C500C98E3336C00033D7E70046
:10568000D18E3A99B3871601B3B6D700BE89369941
:10569000B7078000B377F900638407160504930702
:1056A000F07F6309F414B70780FFFD17B377F900A3
:1056B00013D7190093F91900336737019399F7014C
:1056C000B3E9E90013D9170009B733E7B7001303AB
:1056D000148029CB638CD404630C030A6302041A7C
:1056E0000E061397D7010D82518F8D83B6845D8F7F
:1056F0006302071081441304F07FB70708000147D5
:1057000031BFB3E6B700638506189306F7FF6388D9
:105710000632630D6730130780038549E341D7E400
:10572000368701BD93C61600E398D4FA630D0316BD
:10573000631304261307F07FB36619016387063CE1
:105740009306F7FF6384062C1305F07F6305A724F7
:105750001306800305476345D6027D47634DD73E58
:1057600013060002158E3317C90033D5D8003396BF
:10577000C800498F3336C000B356D900518FB69751
:10578000BA9533B7E500AE893309F700428409B70B
:10579000130714001377E77F631C071433E7B70080
:1057A00033681901631A042463020832630607345C
:1057B000B389B84033B738013306F940198E37073B
:1057C0008000718F6304073CB3881541B38727417C
:1057D000B3B51501C6893389B740B684FDB36307F5
:1057E0006424130680038546E34EE6E8B70680008E
:1057F000D58FB5B585881304F07F8147014739BD42
:1058000013F77900E31607DCCDA04E85FD251307BD
:105810008501FD46E3DBE6D6930785FFB397F900E4
:1058200063428718B30987401387190063D6E636A9
:10583000851993060002B3D93701630CD70093068C
:1058400000043387E640B397E700B337F000B3E9CD
:10585000F90013F779000144E31C07D679A093D728
:1058600039001317D9019306F07F5D8F93573900E4
:10587000E30FD4E6B207B1831374F47F858879BB54
:105880001307F07F3365190145ED3E89AE88B68474
:1058900093D738003A84F1B7370980FF7D19198C06
:1058A00033F927011DB39306140013F7E67F631441
:1058B000071033671901631A041C6306072633E7D0
:1058C000B70063010728C695CA97B3B81501338995
:1058D0001701370780003377E900AE8919C7B7078A
:1058E00080FFFD173379F9000544CE8822874DB734
:1058F000B389B84033B738013306F940198E3707FA
:105900008000718F79EF33E7C9003289E31807C649
:1059100081440144814719B3930607FE1306000230
:10592000B3D6D7006309C700130600043307E64067
:10593000B397E700DD8DB339B000B3E9D90005B105
:105940001305F7FF630E05181303F07F6304671E4A
:1059500013078003B68485496347A7027D476343E5
:10596000A71413070002098FB319E900B3D6A800E2
:105970003397E800B3E9D9003337E0003355A90085
:10598000B3E9E900898FB3893541B3B5350133896E
:10599000B7404284D9BE0E061397D7010D82518FAE
:1059A0008D83B1B3B70680FFFD16F58F198C139761
:1059B000D7018D83C1B51307F07FE38DE6E233870E
:1059C000B800CA97B3381701C69705839399F701B2
:1059D000B3E9E9001D8B13D917003684E31A07BE1B
:1059E00029B7B3881541B3872741B3B51501C689D7
:1059F0003389B740B68459B6631C0810E31207CE4A
:105A000081441304F07FB707080009B9C695CA9707
:105A1000B3B8150133891701B7078000B377F900D0
:105A2000AE890544E38E07DC0944B5B90E0593172A
:105A3000D901135735005D8F935739004DB9B385A0
:105A4000B840B307F940B3B8B800AE8933891741FD
:105A5000054421BE0E051317D9010D81498F9357B7
:105A6000390071B1130607FE9306000233D6C70052
:105A70006309D700930600043387E640B397E70035
:105A8000DD8DB336B000D18EF5BE6DCBDD8DE393E9
:105A900005C60E059317D9010D813367F50093579D
:105AA0003900B1B1130705FE930600023357E90030
:105AB0006309D50093060004898EB316D900B3E8B4
:105AC000D800B3391001B3E9E90075BDE30207E47A
:105AD0000E061397D7010D82518F8D83B68459BB63
