:040000006F20D07A23
:100004000000000000000000A4050000A605000098
:1000140000000000AA2F0000000000000000000003
:10002400AA2F0000AA2F000000000000000000001A
:10003400AA2F000000000000AA2F0000000000000A
:10004400AA2F0000AA2F0000AA2F0000002D0000F4
:10005400AA2F0000AA2F0000AA2F0000AA2F000038
:10006400AA2F0000AA2F0000AA2F0000AA2F000028
:10007400AA2F0000AA2F0000AA2F0000AA2F000018
:10008400AA2F0000AA2F0000AA2F0000AA2F000008
:10009400AA2F0000AA2F0000AA2F0000AA2F0000F8
:1000A400AA2F0000940B0000AA2F0000AA2F000022
:1000B400AA2F0000AA2F0000AA2F0000AA2F0000D8
:1000C400AA2F0000AA2F0000AA2F0000AA2F0000C8
:1000D400AA2F00001A3F0000AA2F0000AA2F000038
:1000E400AA2F0000AA2F0000AA2F0000AA2F0000A8
:1000F400AA2F0000AA2F0000AA2F0000AA2F000098
:1001040000000000AA2F0000AA2F0000AA2F000060
:1001140084040000AA2F0000AA2F0000AA2F0000C8
:10012400AA2F0000AA2F0000AA2F0000AA2F000067
:10013400AA2F0000AA2F0000AA2F0000AA2F000057
:10014400AA2F0000AA2F0000AA2F0000AA2F000047
:10015400AA2F0000AA2F0000AA2F0000AA2F000037
:10016400AA2F0000AA2F0000AA2F0000AA2F000027
:10017400AA2F0000AA2F0000AA2F0000AA2F000017
:10018400AA2F0000AA2F0000AA2F0000AA2F000007
:10019400AA2F0000AA2F0000AA2F0000AA2F0000F7
:1001A400000000000000000000000000000000004B
:0C01B4000000000000000000000000003F
:1001C000397101436EC619A0397141536AC866CAB4
:1001D00062CC5ECE19A0397101535AD056D252D496
:1001E0004ED64AD826DA22DC06DE3301614082820E
:1001F00041114AC026C222C406C68282B24D4101C4
:10020000024D924C224CB24B4101024B924A224A7F
:10021000B2494101024992442244B24041018280E4
:100220002A8309CA83830500230073007D16050312
:1002300085056DFA828015C22A8385466367B500FD
:10024000FD561307F6FF3A93BA9583830500230002
:1002500073007D163693B6956DFA82802A8311C697
:100260002300B3007D16050365FE8280EFF25FF880
:1002700079712A8485453705080002CA02CC02CE6E
:1002800002D002D202D402D602C602C8EF300075F4
:1002900085454145EF30A07293070040FC828D47B1
:1002A0003ECC4C08E147371501403ECEEF3080127E
:1002B000856793870780FC824C089147371501407A
:1002C0003ECEEF30201122D037540040B7070C004B
:1002D0000C10130504C03ED402D223160102EF30E5
:1002E0009027054693055052130504C0EF30D030D7
:1002F000930740147C86680085475C873EC8EF30D2
:1003000000468545130504C0EF30D02D456119B76F
:10031000EFF27FEC2E84A9452A89EF60001411C901
:10032000A16523000500938545B14A85EF60201142
:100330000504B75900408144938909C063C3840010
:10034000E9B5930500084E85EF30902F7DD9B307AE
:100350009900838507004E858504C205C181EF3071
:10036000302DE9BFEFF2DFE83289A9C1B7070020DD
:100370000A059387C703AA9788432E84EF60A010CD
:10038000AA84A9452285EF60400D31E16308090088
:100390002165A2851305459FEF50106E3759004027
:1003A000A294130909C0639D8402ADB59377F50F3C
:1003B0004547E36CF7FEB70700200A059387C7039C
:1003C000AA9780432285EF60000CAA84C1B7A1657B
:1003D00023000500938545B12285EF604006DDB717
:1003E000930500084A85EF30B0257DD983050400C8
:1003F0004A850504C205C181EF3090236DB7EFF245
:100400003FDFB704002093840400CC442A84EF60CB
:10041000A0080DC1B70700200D470565238AE71026
:100420001305853805472386E194EF00E07023A487
:10043000A194CDB38C482285EF60000609CDB707A3
:1004400000201147238AE7102386019423A40194F6
:1004500023820194F9BFB707002083A507112285E5
:10046000EF60800311C983C7C194E1D723A401942D
:1004700005472382E19475BFB70700207D57238A83
:10048000E71045BF757122C73754004026C582FE6C
:1004900086FC8AFA8EF892F696F49AF29EF0A2EE14
:1004A000A6ECAAEAAEE8B2E6B6E4BAE2BEE042FEE4
:1004B00046FC4AFA4EF852F656F45AF25EF062EEF4
:1004C00066EC6AEA6EE872E676E49305505213052C
:1004D00004C07AE27EE0EF3050173DC1130504C03E
:1004E000EF30901503D7E1949376F50F930717003B
:1004F000C207C1832397F1949387419BBA9703D78F
:10050000E19488A3930700106314F70023970194E4
:10051000A9476397F6028387419B81CB2165938529
:10052000419B1305459FEF5030551385419BC13DBD
:100530001306001081451385419B0D3323970194C9
:100540003A44AA447670E6705671C6713672A67245
:10055000167386737664E6645665C6653666A66667
:10056000166786677278E2785279C279327AA27A0F
:10057000127B827B726CE26C526DC26D326EA26E27
:10058000126F826F49617300203083C7C19491CB91
:10059000B70700201547054681451545A38AE71092
:1005A000D1B3828001A0757122C726C582FE86FC68
:1005B0008AFA8EF892F696F49AF29EF0A2EEA6ECE3
:1005C000AAEAAEE8B2E6B6E4BAE2BEE042FE46FC13
:1005D0004AFA4EF852F656F45AF25EF062EE66ECC3
:1005E0006AEA6EE872E676E4B707EFBE7AE237E7CA
:1005F00000E07EE093870708371401403CC7814440
:100600001304048099E8054685442285A145EF201E
:10061000B0681305800C252BF5B701468144F5B76A
:10062000EFF21FBD05650111854511053714014025
:1006300002C002C202C402C602C802CA02CC231E01
:100640000100EF30C037054613050480C145EF2097
:10065000B064C1478D448A85130504807C803EC404
:1006600026C2EF20305713050480C145EF205062A9
:100670009307000261498A85130504807C804AC47F
:1006800026C2EF203055930700047C808A8591476D
:10069000130504803EC4EF20F053930700088A85B9
:1006A000130504807C804AC426C2EF20B052B707ED
:1006B00004013EC6B70702003EC8B707000203A503
:1006C000418185073ECAA1473ECC6C009D47FC8610
:1006D000EF30404F03A541818545EF3080520561E1
:1006E00015BEEFF2FFB0AA8403A541818945EF3022
:1006F00060537DD903A54181A685EF30205203A523
:1007000041818545EF3000527DD903A54181EF300D
:1007100020511375F50FFDBCEFF29FADB7140140EA
:100720000146C14513850480EF2010571545553FFC
:100730001305F00F7D372A84054613850480C145D3
:10074000EF2090552285F9B4EFF29FAAF137058981
:1007500075FDC9B4EFF2DFA9371401400146C14568
:1007600013050480EF2050531945A53F0546C145A8
:1007700013050480EF20505271BCEFF27FA73715AC
:10078000014041110146C1451305058002C202C462
:1007900023060100EF2050501305F009993701445A
:1007A000A54401453D3F5C00A29788A30504E31AD8
:1007B00094FE1C86988537150140A207D98F1394A3
:1007C0008700A1835D8C0546C14513050580420461
:1007D000EF20904C4180228541012DBCEFF25FA1BA
:1007E0002A89371501402E8413050580C145B2843E
:1007F0000146EF20704A0D45ED3513550401137580
:10080000F50FC535135584001375F50FD93D1375D4
:10081000F40FC13D014493170401C18363EB9700BA
:10082000371501400546C14513050580EF20D04628
:10083000D5B201457D35B307890088A30504E1BF22
:10084000EFF21F9B2E842A89B28429373715014085
:100850000146C14513050580EF2010440945513577
:10086000135504011375F50FAD3D13558400137531
:10087000F50F853D1375F40FAD3501449317040151
:10088000C18363ED9700371501400546C145130547
:100890000580EF2070404D3D6FF0DF97B307890072
:1008A000882305043D3DD9BFEFF21F9213F9F57F70
:1008B000AA8A2E8493DBB50063000906850B85693F
:1008C000938509800545EF5040762A8A814431C1DD
:1008D0007D5B93890980138CFBFF050B63926B058D
:1008E0005285EF5020752685EF30300AB70600207C
:1008F00013178400218093878611418FDAA30D6737
:1009000088C3130727412146814513858611FAA321
:10091000053F26856FF0DF8E05691309098045B70D
:1009200063136C01CA8913960901D68541825285E9
:10093000753526854E86D2858120CE9AAA8471BFD0
:10094000EFF21F8B411128002146814502C402C6E7
:10095000713538878D67938727410145631BF70001
:100960002245EF30900283A781963385A740133547
:10097000150041016FF01F8A9DC515C629671345F3
:10098000F5FF2E96130747F79C21935685008505A2
:10099000A98F93F7F70F8A07BA978843358DE395A8
:1009A000C5FE1345F5FF8280A30005002300050066
:1009B0001306250001471548FD5693050003B307AC
:1009C000070318A205071506AA97B4B3D4A3D4B396
:1009D000F4A3E316B7FE0545828098219547B30737
:1009E000F702AE97D423B033A206D18ED03342069D
:1009F000558EF423E206D18E7D566398C602935637
:100A00008500A8B3D4A3935605016181E8A3D4B3AC
:100A1000038527009307170093F7F70F1307F002DA
:100A20006373F70081479CA182807D5582801431D9
:100A300095472A86B387F602AA97D823AC332207B4
:100A40004D8FCC33C205D98DF82362073365B700CB
:100A50007D576304E502B8B3D8A3D8B3F8A3634EB7
:100A600005009387160093F7F70F1307F0026364EE
:100A7000F7001CB28280A30006008280938741ACFD
:100A800098239546938541ACB306D7027D55B6971A
:100A9000D423B033A206D18ED0334206558EF42330
:100AA000E206D18E7D566396C602A54603852700D1
:100AB000B4B323820700A3820700238307009307B0
:100AC000170093F7F70F1307F0026373F7008147DE
:100AD0009CA18280D30705F0D39717C053F717D096
:100AE0009CC1D3F7E70807A78192D3F7E710D39704
:100AF00017C0DCC1828083A781973E958280EFF288
:100B00002FEF83C7E1982E848DE7EF2040041388F0
:100B100001C4034678008346680003470800834702
:100B2000180003482800A9659385C5BF2285EF50AA
:100B3000F00C22856FF00FEE83A7C1973E9582805F
:100B400083A7C19733B5A70013451500828003A77B
:100B5000C1973A9503A7C197E36EA7FE8280EFF293
:100B60002FE9371702401C4F41112313010093E76F
:100B700047001CCFA1477C8237150140C1473EC6C4
:100B80004C008D47130505803EC4EF20B0044101A1
:100B90006FF04FE875713735014082FE86FC8AFAA6
:100BA0008EF892F696F49AF29EF0A2EEA6ECAAEADD
:100BB000AEE8B2E6B6E4BAE2BEE042FE46FC4AFA6D
:100BC0004EF852F656F45AF25EF062EE66EC6AEABD
:100BD0006EE872E676E422C726C58545130505C092
:100BE0007AE27EE0EF30E0148547631AF50683A7CA
:100BF000C1972A84850723AEF19603C7119819C7B8
:100C0000938541AC1545A3800198C13B03A6C197CC
:100C10009307703E3376F60239E283A601970147C7
:100C200099E22286054737150140A1451305058045
:100C300023A8E196EF20500683A78197938541ACC6
:100C400085070D4523ACF196493B83A7819729473A
:100C5000B3F7E70289E7938541AC1145BD3B3735D2
:100C600001408545130505C0EF30200E3A44AA44E3
:100C70007670E6705671C6713672A67216738673F8
:100C80007664E6645665C6653666A6661667866748
:100C90007278E2785279C279327AA27A127B827BB8
:100CA000726CE26C526DC26D326EA26E126F826F08
:100CB000496173002030EFF2AFD3B71602409C4E6B
:100CC0000567011113070780D98F231C0100231E1C
:100CD000010002C602C8231B0100231D01009CCE97
:100CE00083D76182373401404C08FC8483D741822A
:100CF000130504C0930404C0FC8293072003230E51
:100D0000F100EF20D072F9572318F4C09307900236
:100D10007C86680085475C873EC8EF205024835757
:100D2000C4C093E717002316F4C0835704C093E7A9
:100D300017002310F4C005616FF0CFCD9377F50055
:100D400011476396E704B7073230137505F09387B0
:100D50000750630BF50E63E2A702B70730309387A5
:100D600007506307F50EB7073130938707506305C7
:100D7000F50E2965130585C68280B7073330938742
:100D80000750E318F5FE2965130585C182802147C8
:100D9000E391E7FEB7077130137505F093870750AD
:100DA0006300F50C63EAA704B7075B30938707502D
:100DB000630CF50A63E2A702B70750309387075028
:100DC0006308F50AB707523093870750E313F5FA23
:100DD0002965130585C58280B7075C309387075066
:100DE000630CF508B707703093870750E313F5F8E5
:100DF0002965130505CC8280B7B7703193870750FA
:100E00006300F50863E2A702B707723093870750C3
:100E1000630CF506B707733093870750E31BF5F4AF
:100E20002965130505CF8280B7B7733193870750C3
:100E30006300F506B7B7753193870750E31BF5F2EA
:100E40002965130505C982802965130585C282803D
:100E50002965130585C482802965130585C38280B1
:100E60002965130505CD82802965130505C7828094
:100E70002965130505C882802965130505D0828080
:100E80002965130505CB82802965130505CE82806F
:100E90002965130505CA82802965130505D16F50A0
:100EA000C052EFF2EFB47971AA84814513060002B3
:100EB0000808EFF0AFBA85451305002002C202C44E
:100EC00002C6EF20D02FD9E80145EF207013372458
:100ED000014013050440EF20E015B7070E003ECE99
:100EE0000C088547130504402302F10202C802CA18
:100EF00002CC02D0EF206018854513050440EF2096
:100F0000201D814513050440EF20403313050440A4
:100F1000EF20001D130904404A85EF20001D6DFDE0
:100F20001305044037240140EF20A01C130904409E
:100F30004A85EF20A01C6DFD13050440EF20803191
:100F40002392A196854513050440EF20202F81E4CC
:100F50000545EF20A02845616FF0CFAB85454145A1
:100F6000EF20F0250145EF20B009930700024C0067
:100F7000371501407C8202C6EF20C04589BFEFF2E1
:100F80002FA737240140AA858D4605461305044046
:100F9000EF20C018854513050440EF20A0169304E8
:100FA000044089452685EF20602565DD1305044052
:100FB000EF2040226FF00FA6EFF2EFA12E8AC1378B
:100FC00003C91196AA84138441AB631A0902A1478D
:100FD0000AA02AA04AA06AA00AA42AA44AA46AA431
:100FE000A380F19613070401814716200904B697E0
:100FF000E31DE4FE8D832310FA0005452DA039463C
:10100000938541AB138561ABEFF0EFA29D4706A03E
:1010100063E527010509A380219703C71196A1471E
:101020000145E301F7FC6FF04F9E03974196AA87B5
:101030002A9701456340070291CF05669306F6FFA4
:1010400036856359C7003E856386D70013150701AF
:101050004181828082808967138787506302E5021D
:10106000138707646306E50293870740631AF50256
:1010700037070200296523ACE194130505E582805A
:1010800037070400296523ACE194130545E6828007
:1010900037070800296523ACE194130585E78280B2
:1010A00029651305C5E88280EFF2EF925171714610
:1010B0008145AA89C80082C0EFF04F9A1306C00389
:1010C0008145C81082D0EFF06F991306C0048145A6
:1010D000481102D1EFF08F9883C721968410638F57
:1010E000071403A6018263480600A965938545EBB2
:1010F0002685EF50A03083C701966381070E83C712
:10110000F195130780056386E716130700066386CB
:10111000E7162966130686C6A965938505ED0811AD
:10112000EF50C02D83C7E195D5CB138441C3183050
:101130001C20283022075D8F3C2062052C10C2073E
:10114000D98F5D8DEFF01F9958305C2068302207F1
:101150005D8F7C2062050C18C207D98F5D8DEFF082
:101160007F970811EF502032D257B2560969130900
:101170000971B3D72703425722561308010AA965FC
:10118000938505EE4295B3D62603EF50202703C77B
:10119000F19593070006631DF70218341C242834C8
:1011A00022075D8F3C2462052C18C207D98F5D8D04
:1011B000EFF05F920811EF50002DF2566256A965CC
:1011C000B3D626031C119385C5EF3E95EF5000233F
:1011D000A965938585F00811EF5060268C004E8537
:1011E000EFF0FF9103A981832A8403A54197EFF0D3
:1011F000FFB403A7C184B7470F0093870724335771
:10120000F702AA8603D5C1952DCD3ACE36CCA135AD
:10121000E2467247AA8703C6619625CA2968130861
:1012200048EA296526C09308010A4A86A285130563
:10123000C5F0EF5060046D616FE03FFD87A7C1818D
:10124000530700F0D307F7A0E38707EA538507E0C9
:101250002C18EFF03F88F256896793870771B3D651
:10126000F6026256A965938505EC2685EF500019B4
:1012700059B52966130646E945B529661306C6E938
:1012800061BDA167938787AA79B72168130888AAE7
:1012900049BF4DC6EFE25FF3368AD9CEAE8AC9CDDB
:1012A000AA84931526000545B289EF4010582A8478
:1012B00041C5EF50401D296B268693054BF62295BC
:1012C000EF50C0130149A96B2285EF50C01BB387B3
:1012D0002A0190239385CBF622950509EF50001241
:1012E00063852903B3674903E5F383A54183228519
:1012F000D294EF50C0142285EF50E0182686930553
:101300004BF62295EF50800FC1B72285EF50A01702
:1013100022950307F5FFA9476307F70083A54183DB
:101320002285EF50C0112165A2851305459FEF402E
:10133000B0742285EF4010506FE09FEC8280EFE2A6
:101340009FE90111AA842E842545854502C202C465
:1013500002C602C802CA02CC02CEEF204066854512
:101360000945EF200014854537052000EF20006770
:101370003719014093070010714A8D494C0013053D
:1013800009C07C8252C64EC4EF20C00493070020DF
:101390004C00130509C07C8252C64EC4EF20800366
:1013A000E08403A5C183B707FFBF3ECA930700408F
:1013B000FC850C089167FC8626C8EF20601D03A5FC
:1013C000C1838545EF20C02C03A5C1838545EF204F
:1013D000E03005616FE07FE3EFE2FFDFAA842E8B50
:1013E000328AB68903A5C183B7050200EF20A03376
:1013F0002A896DF903A5C1838545B70A0300EF204B
:10140000A02A850A03A5C183D685EF2060307DD947
:1014100003A5C183860493F4F40F0146A685B70A99
:101420000700EF20002E938A2A0803A5C183D685E2
:10143000EF20002E7DD903A5C183DA85B70A070006
:10144000EF20602B938A4A0803A5C183D685EF203D
:10145000202C7DD903A5C1838545B70A0300EF2061
:10146000A024850A03A5C183D685EF20602A7DD9F3
:1014700003A5C183A6850546B7040300EF206028B5
:10148000890403A5C183A685EF2080287DD9B704F0
:1014900000109384040493170901C18763C93701BD
:1014A00003A5C1838545EF20C0216FE01FD603A5AA
:1014B000C183A685EF2020277DD903A5C183EF2016
:1014C000C023B3072A0188A30509F1B7EFE2BFD013
:1014D000AA842E8A3289B68903A5C183B705020082
:1014E000EF20602475F903A5C1838545B70A030081
:1014F000EF20801B850A03A5C183D685EF204021FC
:101500007DD903A5C183860493F5E40F0146B70492
:101510000700EF20001F9384240803A5C183A6853C
:10152000EF20001F7DD903A5C183D285B704070032
:10153000EF20601C9384440803A5C183A685EF2097
:10154000201D7DD9370A0010B70A0700FD54130A81
:101550000A08938A4A088504C204C18403A5C1838A
:1015600063C734018545EF20C0156FE01FCAD285DF
:10157000EF20601B6DD18345090003A5C183130BC8
:101580001900EF20401703A5C183D685EF2040182E
:101590007DD95A89C9B7EFE2BFC54111930760FBF6
:1015A000DC870DC52A8485461306F1009305000EDD
:1015B00013056007213F13056007854622869305C2
:1015C000000D193D054541016FE0DFC40145E5BF50
:1015D0006350C002AA87054591CDEFE27FC1B28674
:1015E000130560072E86BE85C53B01456FE09FC28F
:1015F000054582808280EFE2BFBFB7F740F241111C
:10160000938757523EC485475C8603C7F19593077D
:1016100000062A8495466303F7008D463000930543
:10162000400F130560075D358D4630009305300F80
:101630001305600755332C000D4613051400EFE029
:101640003FBE41016FE01FBDEFE2FFB8AA89E1464E
:10165000138681BF9305800813056007B53B938708
:1016600081C223A0070023A2070023A4070083A7A9
:1016700081BF938481BF23A8F1C0DC40138401C1E2
:101680005CC09C441CC4DC445CC49C481CC8DC4852
:101690005CC893070006639AF9048546138681BFE8
:1016A0009305100A13056007EFF01FD39C209D4699
:1016B000138681BF9305100E130560071CACEFF075
:1016C000BFD183D781BFD8203EACBC209376F70032
:1016D00011835CACBC309207D58F7EACDC309207B6
:1016E000D98F1EB0FC202301F40201456FE0FFB149
:1016F000EFE21FAD79712A8432853AD0938401C11B
:1017000036CE2ECCEF40A060AA8C8A20AE8BEF4064
:10171000E06603A6818783A6C187AA8A2E8A66858A
:10172000DE85EF30901003A6018883A64188AA8940
:101730002E895685D285EF30500F2A86AE864E858B
:10174000CA85EF30306303A6818883A6C188AA8941
:101750002E896685DE85EF30500D03A6018983A6AC
:101760004189AA8CAE8B5685D285EF30100C2A8623
:10177000AE866685DE85EF30F05FAA8A0395240089
:101780002E8AEF40C0582A86AE865685D285EF3025
:10179000D009AA8A039544002E8AEF404057AA8CAC
:1017A000AE8B4E86CA864E85CA85EF3010082A86D3
:1017B000AE866685DE85EF3050072A86AE86568572
:1017C000D285EF20D01E03A6818983A6C189AA896C
:1017D0002E89EF30400C2AD42ED64E85CA85EF4094
:1017E000A04CEF40C05203A6018A2AD283A6418AA8
:1017F0002E8BEF30900303A6818A83A6C18AEF3037
:10180000705783970401AA890395A4003EC6839765
:10181000E4002E893EC88397C4003ECAEF40204FA3
:101820004E86CA86EF3070004E86CA86EF30E07F63
:1018300003A6018B83A6418BEF30207FAA8B0395F3
:1018400084002E8AEF40A04C4E86CA86EF30E07DA1
:101850002A86AE865E85D285EF20701503A6018BA1
:1018600083A6418BEF30607C03A6818B83A6C18B5E
:10187000EF30A07B03A6018C83A6418CEF203013B0
:10188000AA8CEA202E8CEF40604F6686E286EF300D
:10189000C07901468146AA8C2E8CEF30A05A630B8A
:1018A000052C4E86CA864E85CA85EF300078AA8DF3
:1018B00032452E8DEF40A0452A86AE866E85EA859C
:1018C000EF30A07603A6818B83A6C18BEF30E07545
:1018D0002A8D4245AE8DEF4080434E86CA86EF305A
:1018E000C0742A86AE86EF20900C6A86EE86EF20C2
:1018F000100C03A6818C83A6C18CEF300073AA8DD7
:1019000072452E8DEF40A0402A86AE8603A5018D3C
:1019100083A5418DEF301046AA8952452E89EF40AC
:10192000003F03A6818D83A6C18DEF3000706E86C7
:10193000EA86EF20D00703A6018E83A6418EEF3002
:10194000C06E2A86AE864E85CA85EF30B04203A6A9
:10195000818E83A6C18EEF30406D6686E286EF20D1
:101960009073AA89039564012E89EF40403A4E8610
:10197000CA86EF30806B4E86CA86EF30006B03A6B6
:10198000018F83A6418FEF30406AAA8C03954401F2
:101990002E8CEF40C0374E86CA86EF30006903A612
:1019A000818B83A6C18BEF3040682A86AE86668520
:1019B000E285EF20C07F2A8C03952401AE8BEF4097
:1019C00000352A86AE866285DE85EF20407E03A63E
:1019D000818F83A6C18FEF3040654E86CA86EF2087
:1019E000007DAA8703A6018783A641873E85EF2055
:1019F000906A03A6019083A64190EF30006362478E
:101A0000930700062A89AE896319F71603A6819009
:101A100083A6C1901255DA85EF30D0352A8C025555
:101A2000AE8BEF40C02E2A8D039504022E8BEF4023
:101A3000002E03A6818883A6C188EF30005F6286EE
:101A4000DE86EF30805E2AC60395E401AE8DEF405E
:101A5000002C03A6019183A64191EF30005DB247AF
:101A60002A86AE863E85EE85EF2060742A86AE8695
:101A70006A85DA85EF3010302A8D0385C4012E8BFC
:101A8000EF40E02803A6819183A6C191EF30E05991
:101A90006286DE86EF30605903A6018C83A6418CF6
:101AA000EF20E0702AC603852402AE8DEF40202689
:101AB00003A6819183A6C191EF3020576286DE860E
:101AC000EF30A056B2472A86AE863E85EE85EF30CF
:101AD000C05503A6018C83A6418CEF20406D2A8C53
:101AE0000395A401AE8BEF40802203A6019283A64A
:101AF0004192EF3080532A86AE866285DE85EF30D4
:101B0000C0522A86AE866A85DA85EF300052AA8BEB
:101B1000038584012E8BEF40801FDA865E86EF30CE
:101B2000C05003A6018B83A6418BEF3000502A865C
:101B3000AE8603A5018C83A5418CEF30B023DA86F5
:101B40005E86EF30804E03AB018783AA41872A8AE5
:101B50005A86D686AE84EF30A0356341A008014690
:101B600081465285A685EF308040635C0500014ABE
:101B7000814401A881478145B5B503AA818683A424
:101B8000C186B2552255EF40402C1357850093571C
:101B9000850118B01357050108A038A03CB0CE85C8
:101BA0004A85EF40802A135785009357850158B026
:101BB0001357050148A078A07CB05285A685EF4058
:101BC000C0281357850018B4935785011357050192
:101BD00008A438A43CB445616FE04FE25A8AD68429
:101BE0004DB7EFE2EFE02A84371501408565130514
:101BF00005C0EF10300A03A581848945EF208002DB
:101C00007DD903A58184A285EF2040010545EF2001
:101C1000002A371501408565130505C0EF105007F0
:101C20006FE04FDFEFE22FDB2A89AE84014463448B
:101C300094006FE08FDD03A581848945EF10907ECD
:101C40007DD9B30789008C2303A581840504EF1097
:101C5000F07CF1BFEFE2CFD92A842181EFF07FF849
:101C60001375F40FEFF0FFF76FE0CFDAEFE24FD824
:101C7000B71401402A8493050040138504C0EF1077
:101C800070012285EFF0FFF593050040138504C035
:101C9000EF1010006FE00FD8EFE2EFD3AA89130521
:101CA000A0023684AE843289EFF05FFC4E85EFF0FF
:101CB0007FFA4A85EFF01FFA1305B002EFF01FFB21
:101CC0002685EFF03FF92285EFF0DFF81305C0021B
:101CD000EFF0DFF96FE06FD3EFE28FD101118545AF
:101CE000214502C002C202C402C602C802CA02CC16
:101CF000231E0100EF10B04C85451165EF10104E0A
:101D0000096937140140930709C08D447C808A8596
:101D1000C147130504C03EC426C2EF10A06B8A85DC
:101D200023102101130504C061494AC426C2EF10E3
:101D3000606A91677C808A859147130504C03EC420
:101D4000EF104069E1778A85130504C07C804AC49E
:101D500026C2EF102068B7C704013EC6B7070200CD
:101D600003A581843EC8B707000285073ECA6C0000
:101D70009D47FC8602CCEF10F06403A58184854565
:101D8000EF103068014505616FE0CFC8EFE2CFC3C7
:101D9000B28A368A7D16FD16C2064206C18241828B
:101DA0003A8BAA8B2E84EFF03FEF37150140856503
:101DB000130505C0EF10006E93598B00636A44054C
:101DC000371501408565130505C0EF10606C6FE0A5
:101DD0002FC303A581848945EF10D0647DD903A565
:101DE0008184CE85EF10906303A581848945EF102F
:101DF00070637DD903A581848504DA85C204EF1060
:101E0000F061C180E3E754FD0504420441807DB7E1
:101E1000DE84CDBFEFE2CFBD1971AA841306C007DF
:101E20002E8448008145EFE06FC31306F007930549
:101E300000020A85EFE08FC22685EF40C0641319C7
:101E4000850113598941635989023304244105846A
:101E500062046184A685330581004A86EFE04FBCA9
:101E6000060493070408338427004A948A8526854C
:101E7000A30004F8EF400060268509616FE08FB988
:101E8000EFE26FB5328493D9860093F9F90F01140C
:101E900001113E8913FAF60F9387F9FF33043403D7
:101EA00036C4B386F5009307FAFF3306F500C20681
:101EB0004206C1824182C2843AC6EFF0FFDD931729
:101EC000890013598900B3E72701FC8437150140C5
:101ED00093978400A180C58F8565130505C0FC8696
:101EE0000604EF10205B0149A16A636C39013715C4
:101EF00001408565130505C0EF10805905616FE04D
:101F0000CFB0B2478144A29703DB070063E54401E9
:101F100005090904D9BFB3179B00B3F75701680837
:101F200091C328088945EFF0FFCF8504C5B7EFE2DC
:101F3000AFA9411136C43AC61DC2034A8100834984
:101F40009100AA842E84BE8A428B13091600930B3B
:101F5000F00E294C930C00020306F9FF01E6410143
:101F60006FE00FAAB387440163DCFB004E94420488
:101F70004180B3073401E3C4FBFE8144630396034D
:101F80006303860323044101A3043101A2463247BF
:101F90002685D2945A88D687A285C204EFF05FEED8
:101FA000C180050955BF4E94420441808144D5BF8C
:101FB000EFE26FA283A74195139916004209AA8404
:101FC000AE8A328AB68913590901A9CB9386FAFFE2
:101FD0001306FAFF2696CE96C20642062685C182D1
:101FE0004182D68503AB0181EFF01FCB371501404D
:101FF0008565130505C0EF10E049814463994403EA
:10200000371501408565130505C0EF10604803A52D
:102010004195EF40200223AA019401A8CA850545F5
:10202000EF40A00023AAA19455F16FE00F9E03A5F5
:1020300041954A86DA85EFE06FFA814A93970A0163
:10204000C18313971A0063E737018504C2044A9BD2
:10205000C1806DB703A541958945850A3A95EFF092
:102060007FBCE9BFEFE2CF984111EFF0FFC62945F1
:10207000EFE0FFAD371401408565938505801305BA
:1020800004C0EF10E0402945EFE07FAC930500204D
:10209000130504C0EF10C03F2945EFE05FAB454595
:1020A000EFF0DFBC13058007EFE07FAA13056003A4
:1020B000EFF0DFBB13050007EFF0BFB21305A0037D
:1020C000EFF0DFBA1545EFF0DFB11305200BEFF0AD
:1020D000FFB9B71700339387C7C095453EC00A853F
:1020E000930730035C82EFF0FFB31305700BEFF042
:1020F000FFB713055003EFF0DFAE1305B00BEFF0A1
:10210000FFB613052003EFF0DFAD1305200CEFF051
:10211000FFB50545EFF0FFAC1305300CEFF01FB530
:102120005545EFF01FAC1305400CEFF03FB413051D
:102130000002EFF01FAB1305600CEFF03FB33D451D
:10214000EFF03FAA1305000DEFF05FB21305400A50
:10215000EFF03FA91305100AEFF0BFA81305000E1A
:10216000EFF0DFB0A9653946938585380A85EFE041
:102170002F8BB9450A85EFF0FFAA1305100EEFF07B
:10218000FFAEA9653946938585390A85EFE04F8909
:10219000B9450A85EFF01FA913051002EFF01FAD36
:1021A000370400201305900213040408C164EFF003
:1021B000FFAB13090401FD141A2001459306000F1B
:1021C0001306000F8145EFF07FBC1E201305D007DA
:1021D0006393970005450904EFE07F97E31E24FD14
:1021E000014541016FE00F83130580026FF01FA8C6
:1021F000EFD21FFD1D71EF10401D23AAA1960945C6
:10220000EF108055EF003049EF101048EFE0BFAA03
:10221000EFE0FF94138541ACEFE00FF92380A19824
:10222000716513050520EF10706071468145C80087
:1022300082C0EFE0AF82EFF0FFE27D47FD4613067C
:10224000000F81450145EFF07FB441671307078018
:102250009306000F1306000F9305F00C0145EFF0F5
:10226000FFB2EF00501E2387A198854705453A84A9
:102270002381F196EFE0FFC283C7219681E74147B2
:10228000238CE1800945EFE03F8B2AC0372506000B
:1022900093056007130505A8EFF06F8A1385F19584
:1022A00002D402D6EFF02FAF2380A1961DC103C741
:1022B000F19565452382E198EFE01F8803C7F1950A
:1022C000930700062A89994A6305F71499473EC285
:1022D00029A09947FD5A3EC2014929651305854A3F
:1022E000EF40A00EEFE0CFB3EFE02FC9239EA19403
:1022F000896713878750630AE500138707646306BD
:10230000E500938707406315F500A14723A8F194E2
:10231000938541AC3545EFE04FECB565938505CC31
:102320004145EFE06FD883A5019523A4A196A1C5EF
:102330001146081802D8EFE06FCA03A7C182C2573E
:1023400063FBE70083A7C18283A5019511460818A6
:102350003ED8EFE0EFCEC2577D57638EE70023A64D
:10236000F18203A5C18283A781823E95EF10007A96
:102370002945EFE0CFFD716513050520EFD01FEF74
:102380001305007DEFE04FFB2AC40145EFE0DFD1EC
:1023900085473ECCA9679387C74A02C802C602CACE
:1023A000014C014D01447D5BC1443ECE83CD01987B
:1023B00063930D06EF10606F83A7818283A501955B
:1023C000B307F54023A6F18291C91385C182114656
:1023D000EFE00FC71305A00FEFE06FF7854763131A
:1023E000FC6EB707EFBE37E700E0938707083CC7EE
:1023F00037150140130505800146A145EF10C009BE
:10240000296513050549EF30507C0545EF10902DE7
:10241000EDBFA1476DBDE31F0CF8630E09004A85AF
:10242000EFE00FF211C9FD576387FA00938541ACC5
:102430005685EFE08FDA0149A24799CF3E85EFE05C
:102440002FF001CDB7070020114705468145114502
:10245000A38AE710EFD01FF102C403A5819419C924
:1024600083C7419481EBEFE0AFED09C523A401944C
:10247000EFE0AF91138541ACEFE06FDB23A8A182C1
:102480007D15B54763E8A708F2470A053E951C414C
:1024900082872165938581BB1305459FEF30D05D11
:1024A000A9659385853A138581BBEF30F07E63176C
:1024B0000560A9659385053B138581BBEF30D07D11
:1024C00063100560A9659385853B138581BBEF305B
:1024D000B07C1DC51905EF30F03403A7C182637BC2
:1024E000A70223A6A18203A5C18283A781823E956C
:1024F000EF10C061938541AC3945EFE00FCE19A8CC
:10250000A9659385053C138581BBEF30F0780DC13B
:10251000EFE09F98824781CB3E85EFE06FE209C5EF
:102520000547A380E19802C00545EFE04FE2BDBD3D
:10253000A9659385853C138581BBEF30F07529C56E
:10254000930955004E85EF30F02D83A78195AA841D
:10255000E372F5FC9305A0034E85EF301070130471
:10256000001019CD0505EF30F02B2A848567420550
:1025700041819387078063F3A7003E844204418032
:10258000938541AC294595BFA9659385053D138584
:1025900081BBEF3070703DC5930965004E85EF300B
:1025A000702883A78195AA84E376F5F69305A003A6
:1025B0004E85EF30906A7D5B31C113041500228592
:1025C000EF305026131B05019305A0032285EF3041
:1025D000D068135B0B41130400100DC10505EF30EB
:1025E00070242A848567420541819387078063F5BB
:1025F000A70005641304048042044180938541AC24
:102600002D45E5BDA9659385853D138581BBEF30DB
:10261000B06809C5938541AC3545C5B5A9659385B5
:10262000C53D138581BBEF30306729C59305D003C5
:10263000138581BBEF30706215C9930915004E8573
:10264000EF30501E83A78195AA846371F50293052C
:10265000A0034E85EF3070601304001001C905051A
:10266000EF30501C1314050141806E8D938541ACF1
:10267000314561B5A9659385053E138581BBEF3072
:10268000B06111E9A9659385853E138581BBEF3063
:10269000B060E30105E8930945004E85EF30B05E78
:1026A000AA854E85EFD0DFC6B5B583A50195E38336
:1026B00005E61385C1821146EFE08F98938541AC02
:1026C000114525BD83A7819802D802DA02DC02DE1B
:1026D00089CB03A6C196A9659385053F0818EF30FD
:1026E000F05163030D02A2852685EFE0EF9BAA86D9
:1026F0001386F4FF296518182296A6851305C53F91
:10270000EF309037014D39B5B565938505CC2685F9
:10271000EFE08F99AA8523A4A196296510181305C7
:102720000542EF307035F9BFEFE08FA10DC541676D
:102730009306000D1306000F9305000201457D1757
:10274000EFF0CFE4930600091306600B93056002D7
:102750007545EFF0FF85E247E38E07DA03A5419761
:102760009309000DEFE08FDDAA858800EF309050CF
:1027700083A741849305000F880098339C23B38975
:10278000E940B3C5F502C20993D90901EFF08FE81A
:1027900003A7418441682A86144358437D18930750
:1027A000F01CCE852145EFF08FF802CCA5B3EF10D9
:1027B000C02F8C00EFE0AFB483A741849305000FD6
:1027C00088009C23B3C5F502EFF0CFE403A7418452
:1027D000C1672A86144358437D48FD17914511452A
:1027E000EFF0EFF405BB83C7E19891E78D26014533
:1027F000EFE09F8B05B30145EFE0EFAFD5BFA285BA
:102800000545EF309002AA89E30605D029652286A6
:10281000A6851305C543EF3030262286A6854E8552
:10282000EFD0DFFB930600022286CE852685EFE0FF
:102830005FA6CDB1A2850545EF30207FAA89E30BC5
:1028400005CC2965DA862286A68513054545EF3035
:10285000B022FD576313FB02814729A03387F9009B
:102860001CA38507139707014183E36987FE22862E
:10287000A6854E85EFD0DFFC75B722869375FB0FDA
:102880004E85EFD0BF9DE5B7FD5723A8F18259B122
:1028900003C5818193056102EFE00FF205CD0315B9
:1028A0006102EFE08FF88567938747CE2313A1027B
:1028B0003305F502318523A0A18283C7219689E7DC
:1028C000EF00901423AEA1801305B004EFE0CFA673
:1028D0002AC089B10547A380E1982DB91385419895
:1028E000EFE07FD113052003EFE00FA52A899D4A71
:1028F00015B193874198983312462C103D8B1305E0
:10290000700F98B302D402D6EFE09FCCE31405C059
:1029100003C5F195EFE05FD3E31E05BE1305200369
:10292000EFE08FA12A89A14AF5B683468102834749
:1029300091020346B102B2069207DD8E8347A102DF
:10294000320683C5F1959183DD8E8347C10201472D
:1029500092075D8E8347D10291835D8E93070006B7
:10296000639AF5008357E10213978700A1835D8F77
:1029700042074183138541C3EFE09FD7130540060B
:10298000EFE08F9B138641C305471432238FE194F8
:102990001C223822A206DD8E3C324207558FE20708
:1029A000B3EDE700D3870DF052672A89938741C3BF
:1029B00053A7E7A039C3D833D423B2672207558F72
:1029C000F423C206D98EF8336207558F530707F0F8
:1029D00053A7E7A01DC398379427C2672207558FD6
:1029E000B427994AC206D98EB8376207558F530764
:1029F00007F053A7E7A0E31F07B0D433D82383CA57
:102A00007700A206D98EF823E20A83C9B7004207ED
:102A1000558F9437B3EAEA009827A206E209D98EC7
:102A2000B8276E8556C64207558FB3E9E9004EC8F0
:102A3000EF10C06E2ACA5685EF10406E5246A96547
:102A4000AA86938545478800EF30501B03C7F19550
:102A5000930700066312F7028800EF30D022AA8A9B
:102A60004E85EF10A06BA9659C002A86938545488A
:102A700033855701EF30901883A701849305000F29
:102A80009309C00E98339C238800B389E940B3C5ED
:102A9000F502C20993D90901EFF0CFB703A701846A
:102AA000C1672A861443584313880780CE85FD17D3
:102AB0002145EFF0CFC7994A6ECAA9BC094C99BC11
:102AC000054C89BC8947E315FC92EFF0EFF1EF006C
:102AD00030506FF0FF9113773500AA8711EF13077D
:102AE00040063377E502054509EB13070019B3F7F4
:102AF000E70213B517008280014582801307400664
:102B0000B377E5023355E5024D471375F50F63744E
:102B1000A7009387470613D527003E951D473375B9
:102B2000E50229671307074F2E970347F7FF8D8BA1
:102B30003A9632954205418199E7894763E5B700A6
:102B40007D15420541819D473375F5028280EFD2A4
:102B5000AFE75564EF007075130404183354850211
:102B600003D7C198AA8463068704239681989309A2
:102B7000207B1309C016130AD01663608908938757
:102B800001C4A96A23923701138901C481496D4B9D
:102B9000938A4A4E854B714C138A1900636F8B06DA
:102BA000137AFA0F0504230349011374F40FA303E6
:102BB0008900D56793870718B3F4F4028567938774
:102BC00007E1138401C433D7F402B3F4F40213779A
:102BD000F70F18A01307C003B3D7E402B3F4E4025D
:102BE00093F7F70F1CB024A04A206C207030EFF050
:102BF000FFF008A401456FD0AFE04E85EFF0BFEDC8
:102C000011C9E30E44F7130424E98509C20993D9D5
:102C10000901A5B7130434E9CDBF03554900EFF00E
:102C20009FEB19C9639A7901E30C84F70D1493198A
:102C30000A0193D909018DB7D69983C70900E361C9
:102C4000F4F61D8CEDB7EFD2AFDA411185453705AB
:102C50000018EF00B0580545EF0030360545EF008D
:102C60003076352F0545EF00D03A01449304A00F8C
:102C700013051004EF00505C11ED631694002285DB
:102C800041016FD02FD9050451451374F40FEFD0D3
:102C90001FECF9BF9307A00FE303F4FE1305001028
:102CA000EF00B0390545EF00103AEF00106BEF0070
:102CB000F06B85450545EF00105BEF00106AEF00F3
:102CC000305C21657D15EF00D066EF00106903A52B
:102CD000C18283A7818201443E95EF003063EF00FB
:102CE000505BA9659385151A1145D125CD473EC482
:102CF000280085473EC6EF009026EFF05FE541B71C
:102D00001971054582FE86FC8AFA8EF892F696F4D1
:102D10009AF29EF0A2EEA6ECAAEAAEE8B2E6B6E41B
:102D2000BAE2BEE042FE46FC4AFA4EF852F656F4CB
:102D30005AF25EF062EE66EC6AEA6EE872E676E4FB
:102D40007AE27EE0EF00D06519C1EFF05FE0154553
:102D5000EF001067EF0070607670E6705671C67114
:102D60003672A672167386737664E6645665C66517
:102D70003666A666166786677278E2785279C279F7
:102D8000327AA27A127B827B726CE26C526DC26DD7
:102D9000326EA26E126F826F096173002030B71716
:102DA00002409843B706FFF041111367170098C31C
:102DB000D84337060200758FD8C39843B706F7FE8D
:102DC000FD16758F98C39843B706FCFFFD16758FE7
:102DD00098C3D843B70601FFFD16758FD8C3984333
:102DE000B70600ECFD16758F98C33707FF0098C72C
:102DF00023A6070202C402C69843C166558F98C332
:102E0000B716024005679C42F18F3EC6A247850770
:102E10003EC4B24781E7A247E397E7FEB7170240F7
:102E20009C4337070200F98FADC785473EC632473E
:102E30008547631EF704B7170240D843B706C1FFA2
:102E4000FD16D8C3D843D8C3D84313670740D8C3A7
:102E5000D843758FD8C3D843C166558FD8C398431C
:102E6000B7060001558F98C3B70600029843758FC7
:102E700075DFD843B7160240719BD8C3D843136798
:102E80002700D8C32147DC42B18BE39EE7FE410116
:102E9000828002C669BF371702405C43A146B18BEE
:102EA000638AD702B7177A009387072023A6F18495
:102EB000B7170240D843B70700209387070911834B
:102EC0003D8BBA97982383A7C184B3D7E70023A685
:102ED000F18482805C4354434167C983BD8BF98E82
:102EE0001387270085CFBD47630CF702C147630CEA
:102EF000F702C547630CF7028145A9E2B7470240D4
:102F000083A70780C18B95C7B7177A0093870720DF
:102F10003307F702C9E923A6E18459BF4947E9BF4E
:102F200085453547D9BF81453D47C1BF81454147AB
:102F3000E9B7B7173D0093870790D9BF371502400F
:102F40005C55C166F58F5455A1CB9182BD8AB717E8
:102F50007A00850693870720B3D7D7025455A182FC
:102F6000BD8A89EE9546B387D7028583B71602409E
:102F7000D456BD8A8506B3D7D70259BF0545639499
:102F8000A600E546CDB73D456396A600D146B3877A
:102F9000F602E9BF8906E5BFBD8AB7177A00850644
:102FA00093870720C9BF0583BDB701A097E1FF1F25
:102FB00093814196175100201301C1041785000029
:102FC0001305858797D5FF1F9385C5031386419405
:102FD00063FAC5008322050023A055001105910561
:102FE000E3EAC5FE138541949385C1C86377B500B4
:102FF000232005001105E36DB5FEFD42739002BC70
:10300000AD4273904280996293828208739002303D
:1030100097D2FFFF938242FF93E2320073905230C7
:10302000EFF0FFD797F2FFFF9382C21C7390123428
:1030300073002030EFD2CF9BB72701409387074022
:10304000631EF500854513050020EF00101B814528
:1030500013050020EF00701A6FD0CF9BB7370140E7
:1030600093870780E31AF5FE854513050040EF00BE
:10307000D018814513050040F1BF5841B707F1E072
:103080009387F7EF944D7D8F9C41D58FD44DD58F8D
:10309000D441A206D58FD98F5CC11845B7F7F1FF8F
:1030A0009387D77FD4457D8F9C49D58F94458606DD
:1030B000D58FD98F1CC55855B70710FFFD177D8FC9
:1030C000DC29FD1793F7F70FD207D98F5CD58280E3
:1030D0001C4589C593E717001CC58280F99BEDBF8D
:1030E0001C4593E787001CC5828008450D81058932
:1030F00082801C4593E747001CC5828008450981F2
:10310000058982801C4591C537075000D98F1CC5A1
:1031100082803707B0FF7D17F98FD5BFA54763F7CA
:10312000B7048D47138765FF3307F7020328C500EF
:103130009D47B397E70093C7F7FFB3F70701B3962F
:10314000E600DD8E54C5994763E3C70495477D16B5
:103150003306F6025859FD47B397C70093C7F7FFE8
:10316000F98F3396C5005D8E50D982800D47338725
:10317000E502032805019D47B397E70093C7F7FFD2
:10318000B3F70701B396E600DD8E14C96DBFB147F2
:1031900063E2C702954765163306F6021859FD47E4
:1031A000B397C70093C7F7FFF98F3396C5005D8EBD
:1031B00010D9828095474D163306F6025855FD47C3
:1031C000B397C70093C7F7FFF98FB395C500DD8D9F
:1031D0004CD582806845420541818280B7270140F5
:1031E00093870740984711C5B7068000558F98C749
:1031F0008280B70680FFFD16758FD5BF1C4133F561
:10320000F5003335A0008280B7F7FF1F83A7077250
:1032100013D70701C207C1831D8DA9473305F502E6
:1032200087A6C192537707D05505D37705D0D3F73A
:10323000D718D377F708538507E082805C4191C5A2
:1032400037070004D98F5CC18280370700FC7D17E7
:10325000F98FD5BFEFC2DFF901112A8423040100E1
:10326000A5441C8463F9F40423040100A546214607
:103270001C8463F0F6082315010023040100954621
:103280001C8463FBF60E38853C8599460D46B3F7E2
:10329000D702056513050580B3D7C7023357D70298
:1032A000BA97C207C1837C853C8505611D8D4205A7
:1032B00041856FC03FF61C4493E787001CC42285FC
:1032C000EFF0BFE26DFD1C4493E747001CC422856C
:1032D000EFF0DFE26DFD78441C84860793870702D8
:1032E0008A972396E7FE1C84850793F7F70F5C8483
:1032F0008DBFA30401009C846378F6001C848507BD
:1033000093F7F70F5C84ADB798849C840607850714
:10331000860713070702938707020A978A970357BE
:10332000C7FE83D7C7FE63F3E7049C8486079387B1
:1033300007028A9783D7C7FE7C859C84988485077B
:103340008607938707028A9783D5C7FE93171700CE
:10335000938707028A972396B7FE9C843885850752
:103360008607938707028A972396E7FE9C84850742
:1033700093F7F70FDC8441B71C84388589078607EB
:10338000938707028A9783D7C7FEBA97C207C1837C
:103390007C851C84850793F7F70F5C84D5B5EFC255
:1033A0003FE50545952D0145852D6FC0BFE64111CF
:1033B000B777004002C6938707C03EC6B2473E9526
:1033C0002AC6B2478CC341018280B7F7FF1F03A50D
:1033D000477082809C4513F7070113F8F70001C777
:1033E000D8413368E8008E2113F7F50F31C3184137
:1033F0008146054E930E80023D4F930F800421437A
:103400003316DE00B3F8C50063101603639AD707BE
:1034100050C913962600B318CF0093C8F8FF33F7AE
:10342000E8003316C800518F8506E39B66FC18C17F
:103430001307F00F6375B70454410146054E930E10
:103440008002130F80042143130786003317EE0018
:10345000B3F8E500631117036398D70358C99318AD
:1034600026003D47331717011347F7FFF98EB318AE
:103470001801B3E6D8000506E31866FC54C1828043
:10348000E399F7F910C971B7E39BE7FD18C9C1BF0C
:103490000CC982804CC9828019C20CC982804CC977
:1034A0008280B70830009356050113170501337366
:1034B0001501BD8A418363530502B7070140DC4F04
:1034C00063151305C1060D46B316D60093C6F6FF65
:1034D000F58FC5E9370701405CCF8280370801408E
:1034E0000326480063121307B70600F1FD16B377F1
:1034F000D60003264800F18E2322D800BDCD558189
:1035000012053315A700C98F8DA837061000698EE4
:1035100005C20D46B316D60093C6F6FFF58FDDD96A
:1035200055811375F53F12053315A700C98F5DB797
:1035300055811375F53F12053317A7009346F7FF22
:10354000F58FC9D9D98F79B7B7071000E98F99CB13
:103550008D47B397D70093C7F7FFF18FB706000FDA
:10356000D58F69BF558112053315A7009347F5FF25
:10357000F18F3707000FD98FD9F5370701405CC3AA
:10358000828055811375F53F12053317A7005DBF83
:10359000EFC21FC6462101112A8468002E89C20489
:1035A000D924C180D24793F404FCB7869303C204A4
:1035B0009386F66FC1801307C00363EAF6003747AE
:1035C0000F001307072433D7E70242074183D98C42
:1035D00046A0162061661306066AC206C182F99AE1
:1035E000C206C18216A083260900636CD604860633
:1035F000B3D6D7021146B687C206C18263F3C600AE
:103600009147C207C1830507420741831AB05EACE8
:103610001E20035749008356A90093E717001EA0F8
:103620001E20558FC207C18393F757BFD98F1EA0A5
:10363000035789008357C900D98F1EA405616FC045
:103640007FBD8355690031667D166399C5020D46BD
:10365000B386C602B3D7D702C207C1839396470188
:1036600099E293E71700A166D58F9306C01233073E
:10367000D7029306803E3347D70271B76546B386BB
:10368000C602B3D7D7029166C207C183D58FF9B7F7
:103690001E2189C593E717001EA18280C207C1833E
:1036A000F99BC207C183CDBF1E2189C593E70710CF
:1036B0001EA18280C207C18393F7F7EFC207C183BF
:1036C000C5BF1E2189C593E707201EA18280C207BE
:1036D000C18393F7F7DFC207C183C5BF1E2189C528
:1036E00093E707401EA18280C207C18393F7F7BF0B
:1036F000C207C183C5BF0EA982800A291375F50FC1
:10370000828093F7E50F19C293E715001EA9828006
:103710005E290A2D42055D8D6D8D220521810D8D5D
:10372000133515008280411102C402C693D7C5012A
:103730002AC63EC4A247A205A18199CBB247D107B0
:103740003EC6B247884341016D8D3335A00082806B
:10375000B247C181E107EDB723A8A198828003A7F2
:103760000199894714216311F70218318D4763EDE0
:10377000E7003C211A079607D98F37E700E093F757
:10378000F70F36972300F740054793D756003317B6
:10379000D700544189CA938707048A07B7E600E037
:1037A000B69798C3828093870706B7E600E08A073A
:1037B000B69798C30F1000008280377700401C43F3
:1037C00009C593E707101CC3828093F7F7EFE5BFA5
:1037D000B777004098431367470098C3984313672F
:1037E000270098C3B7F700E0938707D0984B13677B
:1037F000470098CB984B5D9B98CB7300501082800C
:10380000B7160240DC4251777D17F98FC98FDCC2B1
:103810008280B717024023800702238007020547F2
:103820006306E50011476306E50082802380A70256
:10383000828015472380E7028280371702401C539D
:10384000C98F1CD3828001C9371702401C53A1665F
:10385000D58F1CD38280B71602409C5261777D17AA
:10386000F98F9CD28280371702405C43A146B18B0E
:103870006381D706B7177A00938707201CC13716D4
:1038800002405C42370700201307070A9183BD8B73
:10389000BA9794231C41B3D7D7005CC15442A1828C
:1038A0009D8ABA969422B3D6D70014C55442AD82ED
:1038B0009D8A3697182393860185B3D7E7005CC5A8
:1038C000584239830D8B36971823B3D7E7021CC9AA
:1038D00082805C435843C166C983758FB7F6FF1F6A
:1038E00003A6C6709166BD8BF18E890795E6C54625
:1038F00001466393D700C94731EF3747024003279A
:103900000780418B39C337177A0013070720B38725
:10391000E7022DD685839DB78946638DD700BD46C6
:10392000638CD700C146638CD700C546638CD70033
:103930000146D9B7C947EDBF0546B54775BF014632
:10394000BD475DBF0146C14745BF37173D0013075F
:10395000079075BFB7150240D855C166758FD4550D
:1039600021CB9182BD8A37177A008506130707207D
:103970003357D702D455A182BD8A89EE95463307C5
:10398000D7020583B7160240D456BD8A8506335741
:10399000D702B5BF85456394B600E546CDB7BD45B2
:1039A0006396B600D1463387E602E9BF8906E5BFD4
:1039B000BD8A37177A00850613070720C9BF99C546
:1039C000371702401C4FC98F1CCF8280B7170240A7
:1039D000984F1345F5FF798D88CF828099C53717A9
:1039E00002405C4FC98F5CCF8280B7170240D84F2E
:1039F0001345F5FF798DC8CF828099C537170240EE
:103A00005C47C98F5CC78280B7170240D84713450F
:103A1000F5FF798DC8C7828001C9371702401C5352
:103A2000C166D58F1CD38280B71602409C52417765
:103A30007D17F98F9CD28280935755000547639973
:103A4000E700B71702409C4333D5A7000589828061
:103A500009476396E700B71702409C53F5B7B717BD
:103A60000240DC53D5B7373700408357078089C5FC
:103A7000C98F2310F78082801345F5FFE98FD5BFEA
:103A8000B737004003D74780136707012392E780C9
:103A900082803737004083574780C207C183BD9B70
:103AA000C207C1832312F7808280B7370040938713
:103AB0000780962F9A2F131607014182E39BE6FE9B
:103AC000B737004093870780D62FDA2F13150701E9
:103AD0004181E39BE6FE37370040130707800E2F36
:103AE000162F93970601C183E39BD5FE630DF60065
:103AF0003737004013070780522F562F13950601C2
:103B00004181E31BD6FEC2075D8D8280EFC24FEE7E
:103B10002A84EFF0FFF613570401B7370040420440
:103B2000239CE7804180239E8780EFF09FF66FC043
:103B30006FEEEFC2EFEB2A84EFF09FF4135704010E
:103B4000B73700403D8B42042394E78041802396A1
:103B50008780EFF01FF46FC0EFEB3737004013079B
:103B600007805E2393F70702EDDF8280373700403E
:103B70008357478013070780C207C183DD9BC207B5
:103B8000C1835EA35E23A18BF5DF8280B73700403F
:103B900003D747801345F5FF698F2392E780828022
:103BA000373700408357478003570780C207698F24
:103BB000C18309C77D8D3335A00082800145828095
:103BC0006FF0DFFC1E210D6713070704B6217D8F00
:103BD0009E21D58FD621D58FF621D58F9625D58FCD
:103BE000B625D58FD625D58FF625D58FD98F1EA191
:103BF0005E2D7D771307F77FF98F5EAD9E291EA995
:103C000082801E2189C593E707041EA18280C20716
:103C1000C18393F7F7FBC207C183C5BF4EA582805E
:103C20004A2582800A256D8D3335A000828037F7C2
:103C3000FF1F032747701E21B736014011833D8BBC
:103C4000C2077117114303D845009221C18393889D
:103C500006C06363E3066306150393860640630AA2
:103C6000D50037570140930607C06304D50063179A
:103C7000E5040967D98F93F7F7F8C207BA21C18322
:103C800001A8BA2193F7F7F85D8F4207418389674E
:103C9000D98FFA2193F7F7CFC207C183D98F1EA11D
:103CA00023160503B737014012B5138707C0631504
:103CB000E5069C251EB989A8E30F15FB37070040D0
:103CC000E30BE5FA13070740E307E5FA371700406F
:103CD00093060780E301D5FA930607C0E30DD5F8F4
:103CE000B736014093860640E307D5F8B756014042
:103CF000938806C0E30115F9E30FD5F66319E500D3
:103D00001EA12316050312B585475EA982801307FD
:103D10000740E307E5FEB5BF93870740E30BF5F8DF
:103D2000B7570140138707C0E305E5F8E31EF5FC2C
:103D300049B71E294A25ED8F4205418189C76D8DFE
:103D40003335A00082800145828093C5F5FFC2050E
:103D5000C1810EA98280EFC2AFC91629F577FD1780
:103D6000FD8EFE21DA250111D58F1EA95625FD777E
:103D70009387379FFD8EDE212A84AE84D58F9625CA
:103D8000D58FB625D58F5EA55E29C207C18393F76F
:103D9000F7CFD98F5EA96800EFF0FFACB7470140BD
:103DA00093870780631EF402E2476547B387E70203
:103DB0009840930640060A07B3D7E70233D7D702E5
:103DC000B3F7D7021207920793872703B3D7D70217
:103DD000BD8BD98FC207C1831EA405616FC08FC37D
:103DE000D247E1B75E2589C50967D98F5EA5828074
:103DF00079777D17F98FDDBF13F7F50F85471583A9
:103E0000B395B7006319F7009307C500984301CE37
:103E10004D8F98C38280894693074501E318D7FEEA
:103E200093070501E5B793C5F5FFF98D8CC3828033
:103E300093F5F51F4EA182804A211375F51F8280EC
:103E40000A216D8D3335A000828093F6F50F05466B
:103E500095822A87B317B6006391C602562533F5BB
:103E6000F6001E23C207C18301C9A181054733178C
:103E7000B700F98F3335F000828009466394C6009D
:103E80001629F1BF5629E1BF83A7C18437177A00ED
:103E900013070720B3D7E70293F7F70F238CF198A6
:103EA0001307803EB387E702239BF1988280B7F720
:103EB00000E0D8438146799BD8C303C78199330674
:103EC000A70290CBD4CB98431367070198C39843BC
:103ED0001367170298C3D843058B75DF9843799B06
:103EE00098C38280B7F700E0D8438146799BD8C356
:103EF00003D761993306A70290CBD4CB98431367BD
:103F0000070198C398431367170298C3D843058BDA
:103F100075DF9843799B98C38280757122C726C547
:103F20004AC34EC182FE86FC8AFA8EF892F696F457
:103F30009AF29EF0A2EEA6ECAAEAAEE8B2E6B6E4E9
:103F4000BAE2BEE042FE46FC4AFA4EF852F656F499
:103F50005AF25EF062EE66EC6AEA6EE872E603A57B
:103F6000C1859305505276E47AE27EE0EFF0FFEDF2
:103F70003DC503A5C185EFF03FEC03C74199930709
:103F8000F0031375F50F63F4E700238A019803C764
:103F900041999387C1C493041700BA9793F4F40F1F
:103FA00088A3238A9198A947631BF502130600048E
:103FB0008145138581BBEFC06FAA26869385C1C456
:103FC000138581BBEFC0CFA513060004814513857F
:103FD000C1C4EFC0AFA8238A0198EFC03FAA3A44FA
:103FE000AA441A498A497670E6705671C6713672CB
:103FF000A672167386737664E6645665C665366681
:10400000A666166786677278E2785279C279327A44
:10401000A27A127B827B726CE26C526DC26D326E40
:10402000A26E126F826F496173002030EFC24F9C05
:104030002A84116579718545110502C602C8EFF021
:104040001F9893070020FC82B71401408D473ECC97
:104050004C08E147138504803ECEEFF0AFB79307DD
:104060000040FC824C089147138504803ECEEFF05F
:104070006FB622D003A5C185B7070C000C103ED443
:1040800002D223160102EFF01FCD03A5C18505461C
:1040900093055052EFF05FD683A7818568005C8658
:1040A0008547DC865C873EC8EFF06FEB03A5C185D2
:1040B0008545EFF03FD345616FC0CF95EFC2AF911B
:1040C0002E893284814463C5840022856FC0EF93BA
:1040D00003A5C18593050004EFF09FD675D9B307FA
:1040E00099008385070003A5C1858504C205C181A8
:1040F000EFF01FD4C9BFAA8703A541851387C1C8A4
:10410000AA9763EBE70037870020130707806365F2
:10411000F70023AAF18482807D5582809357750130
:1041200093F7F70F938617F80547635305007D57FC
:1041300079466345D60463D80600FD576383F600CD
:1041400001473A858280B70580001386F5FF698EA6
:104150004D8ED94563D9D5009387A7F6B317F600DE
:104160003307F702F9BFB7074000B3D7D740B2977C
:104170005D46B306D640B3D7D700DDB7411106C6BA
:10418000EF10B046B24041018280931685019357EB
:104190008501D58FC16613578500938606F0758F0C
:1041A000D98F22053707FF00798D5D8D8280B70793
:1041B00010000111FD1733F8B70093D84601F58FB1
:1041C00022CC13D44501139737000E084AC84EC6B7
:1041D0009357D6019359D50113D9F5011374F47F80
:1041E00093F8F87F06CE26CAFD82B3E90901D98F7C
:1041F0009315350013183600330714416304D9189A
:10420000635EE010638808209306F07F6306D45253
:1042100093068003854463C9E602B7068000D58F04
:10422000FD4663C7E64293060002998EB394D70019
:104230003356E800B316D800D18CB336D00033D74C
:10424000E700D58CB389E940B3849540B3B79500B6
:10425000B389F940B707800033F7F90063080724F2
:10426000FD17B3F9F9006386092A4E85EF10B054A3
:10427000130785FF93060002B387E640B3D7F40027
:10428000B399E900B3E73701B394E400634587329B
:10429000018F0507998E3396D400B3D9E4003336E5
:1042A000C00033663601B396D700B3E4C600B3D975
:1042B000E700014493F7740081CF93F7F4001147AE
:1042C0006388E70093874400B3B49700A699BE843F
:1042D000B7078000B3F7F900638707280504930741
:1042E000F07F6300F41CB70780FFFD17B3F7F900F8
:1042F0001397D7018D80A607458FB1831374F47F80
:1043000052047E095D8C33642401F240A28562442C
:10431000D2444249B2493A8505618280630F071051
:10432000338788406318043033E5B900630E0526EF
:104330001305F7FF630E05481303F07F630A674216
:104340001307800385446346A7022A877D4663409E
:10435000E64413060002198EB394C90033D5E50074
:104360003396C500C98C3336C00033D7E900D18CF1
:10437000998FB304984033389800B3890741468435
:104380003689C9BD6359E01263900810B3E607018E
:10439000638F06201306F7FF630506369306F07F4A
:1043A000630ED7441307800385466346C7023287EE
:1043B000FD4663CBE63813060002198EB396C7009C
:1043C0003355E8003316C800C98E3336C00033D7E2
:1043D000E700D18EBA99B387B600B3B6D700BE84D2
:1043E000B699B7078000B3F7F900E9C3050493074E
:1043F000F07F6308F40AB70780FFFD17B3F7F900F1
:1044000013D714008588458F9394F701D98C93D9DD
:1044100017004DB5B3E60701638B06189306F7FF47
:10442000638106301306F07F630FC7141307800300
:104430008544E34BD7E03687E5B3130714001377C1
:10444000E77F6315071CB3E8B90033E70701631082
:10445000042A638B0838630C073AB384054133B7E9
:1044600095003386F940198E37078000718F6301FC
:104470000740B305B840B38737413338B800AE843E
:10448000B389074136893DB59306F07F630DD40E9D
:10449000130680038546E340E6F4B7068000D58F17
:1044A00001BF1304F07F8147014799BD13F77400E2
:1044B000E31507E089AA6307071033878840630D77
:1044C000041A9306F07F638DD82A1306800385466D
:1044D0006349E602B7068000B3E9D900FD4663C62A
:1044E000E63613060002198EB396C90033D5E500EF
:1044F0003396C500C98E3336C00033D7E900D18E5C
:10450000BA973698B336D800C284B389F600468489
:10451000C9BD2685EF10302A13078501FD46E3DB70
:10452000E6D4930785FFB397F40063498716B30475
:1045300087401387140063DBE6348514930600027A
:10454000B3D49700630BD700930600043387E6408B
:10455000B397E700B337F000DD8C13F77400014424
:10456000E31D07D44DA093D734001397D9019306C8
:10457000F07F5D8F93D73900630FD400B207B1830A
:104580001374F47FB5BB0E059397D901135735000B
:104590005D8F93D739005D8F09D701491304F07FF0
:1045A000B70708000147A9BBC285BE89368993D7E2
:1045B00035003A845DBFB70980FFFD19198CB3F946
:1045C0003701CDB99306140013F7E67F6DE333E7A7
:1045D000B9006311041E630A072433E70701630D62
:1045E00007242E98CE97B335B800B389B7003707A4
:1045F000800033F7E900C28419C7B70780FFFD17B1
:10460000B3F9F9000544A685228755B7B38405415F
:1046100033B795003386F940198E37078000718FC4
:1046200045EF33E7C400B289E31F07C201490144E3
:104630008147F9B11305F07F638CA812130680033C
:104640008544E348E6D237068000B3E9C900FDB9E6
:10465000930607FE13060002B3D6D700630AC7000D
:10466000130600043307E640B397E7003368F80009
:10467000B3340001D58CC9BEB3E6B9006382061A13
:104680001305F7FF3DCD9306F07F630BD70E13079D
:1046900080038546E347A7E62A8789B5B70680FFEA
:1046A000FD16F58F198C1397D7018D83C1BD1307A4
:1046B000F07FE388E6DE33870501CE97B335B70098
:1046C000AE9705839394F701D98C1D8B93D917006E
:1046D0003684E31407BE05BFB305B840B38737413E
:1046E0003338B800AE84B38907413689ADBE639CC8
:1046F00008126315071801491304F07FB707080073
:1047000001B12E98CE97B335B800B389B700B7077B
:104710008000B3F7F900C2840544E38907D809444F
:10472000D9B933880541B387F940B3B50501C284CF
:10473000B389B740054439BE0E050D811397D901E1
:10474000498F93D7390081BD130607FE93060002F7
:1047500033D6C700630AD700930600043387E640C8
:10476000B397E7003368F800B3360001D18EA5B1E6
:104770000E061397D7010D82518F8D83368921BD87
:104780000E061397D7010D82518F8D8329B513061D
:1047900007FE1305000233D6C9006309A7001305FD
:1047A00000043307E5403397E900D98DB334B000F6
:1047B000D18CC1B671D733E80701E31008DE0E05CE
:1047C0009397D9010D813367F50093D73900E1B391
:1047D000B305B840B38737413338B800AE84B389E6
:1047E000074136890544BDB4E30207E40E0613977A
:1047F000D7010D82518F8D83368949B393173500C8
:104800008D831397D9015D8F93D7390069B39317BF
:1048100035008D831397D9015D8F93D73900B9BBCC
:10482000C285BE8969B341DF8DBB0E061397D701E0
:104830000D82518F8D8399B30E059397D9010D8108
:104840003367F50093D7390015BB130607FE9306AF
:10485000000233D6C9006309D700930600043387EA
:10486000E6403397E900D98DB336B000D18E51B907
:1048700033E7C400B289E31807D84DBB0E0613977F
:10488000D7010D82518F8D83368931B39306000293
:10489000998E014639B4797193D7450122D426D235
:1048A0004AD056CA5EC69394C50006D64ECE52CCA8
:1048B0005AC862C493F7F77F2A84B28B3689B180D5
:1048C00093DAF501638C07101307F07F6387E71411
:1048D0008E04135BD501336B9B0037078000336B6D
:1048E000EB00131A3500938917C08144014C93578C
:1048F00049011314C90093F7F77F31801359F90167
:10490000D5C31307F07F6384E7080E0413D7DB01D8
:10491000418F938717C037048000598C93983B00D0
:10492000B389F94001463D47B3C62A016368971829
:10493000176700001307C7BC8A04BA949C40BA9753
:1049400082871D8F13068003635CE6408147014622
:104950000147B2502254D207D18FFE06D58F925410
:104960000259F249624AD24A424BB24B224C3A8532
:10497000BE85456182809307F07F01460147D1BF24
:1049800081469307F07F370608000147D9B7B3681F
:104990007401938919806399081093E424000144F9
:1049A000094651B7B3687401638B080E6306043679
:1049B0002285EF104060AA87930655FF75479388BC
:1049C00087FF158F3314140133D7EB00598CB3983C
:1049D0001B01CE979389373F0146B1B733EBA40053
:1049E00063090B0C638B04302685EF10C05C2A87AB
:1049F000930655FFF547130A87FF958FB39444013B
:104A0000B357F40033EB9700331A44019307D0C037
:104A1000B389E7408144014CD9BD33EBA40063194D
:104A20000B06014AA1449309F07F094CC9B5328CA9
:104A300089476302FC3E8D47E304FCF48547CA8640
:104A4000E306FCF09387F93F6350F02213F77800F8
:104A50006319073A37070001618F19C7B70700FFCD
:104A6000FD177D8C938709401307E07FE345F7F03E
:104A700093D838001317D401131694003367170125
:104A8000318293F7F77FF1B556895A84D2884DB7B2
:104A9000268B2A8AB1449309F07F0D4C89BD93E49B
:104AA00014000144054641B593E43400DE880D4608
:104AB0009DBD014A91448149054C15BD6365642340
:104AC00063018B225283FD19DA87014A1317840090
:104AD0001355070133D4A70213D68801598E131832
:104AE0000601135808019395880013570301B3F783
:104AF000A702B3088802C207D98F63F81701B297DB
:104B00001307F4FF63F9C7243A84B3871741B3D876
:104B1000A702131703014183B3F7A702B30F1803CA
:104B2000C2075D8F6378F70132979387F8FF637F41
:104B3000C720BE884204C162336414011383F2FFAC
:104B4000B3786400935E040113DE050133F365005E
:104B5000330F13033307F741B3081E0393570F01B5
:104B6000B38F6E02FE98C697B38ECE0363F3F70140
:104B7000969EC16FFD1F93D80701B3F7F701C207D7
:104B8000337FFF01F698FA97636B171363071713C8
:104B9000B307FA4033071741333AFA003307474166
:104BA0006303E624B358A70293DE07013377A70215
:104BB000330F1803420733E7EE00637BE7013297B8
:104BC000938EF8FF6367C7246375E725F91832975A
:104BD0003307E741B35EA702C207C1833377A70259
:104BE0003308D8034207D98F63FB0701B2971387B5
:104BF000FEFF63EEC72063FC0721F91EB297C208CF
:104C0000B3E8D8011395080113DF08014181B30E01
:104C10006502B38707413305AE0213D70E01330394
:104C20006F021A952A97330EEE036374670041658D
:104C30002A9E41687D181355070133770701420703
:104C4000B3FE0E017295769763F7A70EB2971383A2
:104C5000F8FF3E8863E7C71663E5A71C638EA71CB1
:104C60009A8893E81800F9BB0547E39C07CC938723
:104C7000E9413396F8003336C000B317F400D18F02
:104C8000B3D8E800B3E8F80093F778003354E400B1
:104C900081CF93F7F80011476388E70093874800B6
:104CA000B3B817014694BE88B7058000E18D8547EB
:104CB00001460147E39F05C8D5A8E37BFAECB30E94
:104CC000BA0033BF4E01B30FCF007E97768A930FA1
:104CD000F4FF6377E60663601711638CE80E7E8449
:104CE00045BDE3611ADF13571A001313FB019357F5
:104CF0001B003363E3007E0AD1BBEF10C02B930689
:104D00005501F14713070502E3D6D7CE930785FF78
:104D1000331BF400014ADDB95E85EF10C02993060C
:104D20005501714793070502E35AD7C861158148B9
:104D30003394AB0079B9E396A7F2E30507D039B70E
:104D4000E31FE6F8E3090FF87E8499B5E373F7DF14
:104D5000F9183297C5B3E3F917DB7914B29775B335
:104D60007D46E356E6F005561D8E93070002335646
:104D7000C4006308F7009387E943B317F400B3E86E
:104D8000F800B3381001B3E8C80013F77800014603
:104D90001DC393F7F800114701446389E700938727
:104DA0004800B3B8170133341001BE8813169400BD
:104DB0001317D401318293D8380033E7E8008147D4
:104DC00049BE9A88E31FA8E8E30EB7C693E8180027
:104DD00095B9E3F6FEF0AE9E33BFBE00329F791464
:104DE000768A7A9775B3130720C09387F93FFD58E9
:104DF000E3CCE9E613874800B33817014694BA8834
:104E000091B913F7F8001146E306C7C4E5B7BA8EA7
:104E1000FDB3F68875BBCA869307F07F014601474C
:104E20000DBE139315003338B30032983E98F9182D
:104E30009A85E30BA8F835B5E3E5E5FE9A88E31714
:104E4000B7F809B113D74501B7071000FD1713D8FC
:104E500046011377F77F1303F07F33FEB700AA886C
:104E6000F58FFD811378F87FFD820545630A6700A1
:104E700063076800631407016300FE02828082807A
:104E8000E31EE8FEB367FE00D18FB3E71701FDF71D
:104E9000958D3335B0008280E392C8FE6388D500DB
:104EA00071FF336E1E013335C0018280014582805F
:104EB00013D84501B7071000FD1793D846011378A2
:104EC000F87F130EF07F33F3B7002A87AA8EFD8197
:104ED000328FF58F93F8F87F13D5F601630CC80372
:104EE000638DC801631508043367E300639E0802FD
:104EF0005D8E25C235EB1DC582805D8E25E663166D
:104F000008003363E300E30803FE639BA50099C92F
:104F10002E8582803363E30063160304638E0803E7
:104F20000545F9D97D5582806DF379F5E5BFE389B3
:104F300008FEE397A5FEE3C508FFE34A18FDE3E199
:104F400067FEE316F3FCE36DDFFD0145E3E1EEFDF3
:104F50008280014571F78280D18F89E7E392A5FCB9
:104F60000145828079558280E38BA5FC55BF13D81B
:104F70004501B7071000FD1793D846011378F87F55
:104F80001303F07F33FEB7002A87AA8EFD81328F8C
:104F9000F58F93F8F87F13D5F601630D6802638DE2
:104FA0006800631308043367EE00639308065D8EA0
:104FB0003DC22DEB11CD82805D8E0DE6631608009B
:104FC000336EEE00E3080EFE6381A5040545E5D5CA
:104FD0007D558280336EEE0063160E00E39808FF65
:104FE000D18F8DCF09458280E38208FEE390A5FE34
:104FF000E3CE08FD634B1801E3EAC7FD6317FE002B
:10500000E366DFFD0145E3F8EEFBF9D12E858280F2
:1050100045FF55F175BF014555FB8280E398A5FA20
:1050200001458280E38AA5FC55B7397193D74501C4
:1050300022DC26DA4ED662CC9394C50006DE4AD82E
:1050400052D456D25AD05ECE93F7F77F2A84328C50
:10505000B18093D9F501638607161308F07F638248
:10506000071B8E049355D501C58DB7048000CD8CE8
:10507000131A3500938B17C0014B814A93D7460111
:105080001398C60093F7F77FE28E1354C80013D924
:10509000F601F5C71308F07F638E070793163400F7
:1050A000938717C09355DC01D58D338E7701B706F2
:1050B0008000A94733E4D500931E3C00014513034B
:1050C0001E0063C6671933C82901C28609466347B3
:1050D00066079308FBFF854563EB151B630DC5123F
:1050E00085473688631FF506814781460147F250A0
:1050F0006254D207D58F7E08B3E70701D2544259D4
:10510000B259225A925A025BF24B624C3A85BE85E2
:105110002161828033678401138EFB7F630907104E
:10512000056733C8290113070780136B3B00294625
:10513000C2863383EB00634366430D450546331651
:1051400066011377065305C389476386FA0C8D47BA
:105150006388FA12568585472684D28E3688E30501
:10516000F5F81A8E79A493770624C5EF137686088E
:10517000630F0610CA86A284768AAA8AF1B7B3673B
:105180008401FDC3630B04322285EF00D0622A8EB6
:10519000130755FFF547930E8EFF998FB316D40171
:1051A000B357FC0033E4D700B31EDC01338ECB4190
:1051B000130EDEC0A947014513031E00E3D567F1B6
:1051C00079A033EAA400630C0A0836C66388042C6D
:1051D0002685EF00505EB2462A87130655FFF54735
:1051E000130A87FF918FB3944401B357F400DD8C09
:1051F000331A44019307D0C0B38BE740014B814A77
:10520000B5BD33EAA40063160A048144214B930B15
:10521000F07F894AA5B536889307F07F814601471C
:10522000F9B501489307F07FB7060800C9B585674F
:1052300093870780136B2B00A9463383FB0063D24F
:10524000662B814EB9470945AD466387D730CE8678
:10525000E5BD2A8A314B930BF07F8D4A05B5814419
:10526000114B814B854A19BD5E8E136B1B00A947FC
:105270000144814E054513031E00E3D667E5C1BF17
:1052800001489307F07FB706080001478DB5C16557
:105290001387F5FF93570A0193D80E01337AEA007A
:1052A000B3FEEE003307DA033386D7031355070145
:1052B000B3864803B2963695338F17036373C500E0
:1052C0002E9FC1631386F3FFB375C500B376C40088
:1052D000718F935F0401C205B302DA02BA9541816E
:1052E0003387D70213D60201338A4F033A9A529674
:1052F000B387F7036373E6009E9741691304F9FFD0
:105300003377860093D30401B3F28200E18C420725
:1053100033849E02169741823E963A95B382980254
:1053200093570401B38ED303F6929697B38878020D
:1053300063F3D701CA984169930EF9FFB3F2D7011D
:10534000B37ED401C202C183C69733849602B38868
:10535000D201B386D30293520401B3849F02B69460
:10536000A692B38E7F0263F3D200CA9EC16FFD1F67
:10537000B3F6F2013374F401C2067A95A29636961A
:105380003337E5003297AA98BA9733B5A8003E950F
:10539000B336D6003336C700D18E33B7E70013D605
:1053A0000201B337F5005D8FB29636977697939EDC
:1053B0009800935775012607B3EEBE003364F700DB
:1053C000B33ED00193D77801B3EEFE00B7070001DA
:1053D0002605E18FB3EEAE0089CF93D71E0093FE72
:1053E0001E001317F401B3E7D701B3EEE700058001
:1053F0001A8E9307FE3F635AF00413F77E0001CF25
:1054000013F7FE0091466308D70013874E00B33EA2
:10541000D7017694BA8E37070001618F19C7B70795
:1054200000FFFD177D8C93070E401307E07F634557
:10543000F70A93DE3E001317D401931694003367E6
:10544000D701B18293F7F77F5DB10547D5E3130E1E
:10545000EE413396CE013336C000331EC401B3DEB5
:10546000EE003366C6013366D60193777600B355F6
:10547000E40081CF9377F60011476388E700930734
:10548000460033B6C700B2953E86370580006D8D65
:10549000854781460147E31C05C475A0EF00B03184
:1054A00013065501F147B24613070502E3D9C7D2E7
:1054B0006115014AB314A40035BB6285EF00B02F1B
:1054C00013075501F147130E0502E3D5E7CC61152B
:1054D000814E3314AC00D9B99307F07F8146014760
:1054E00039B133C82901C2860144814E0945F9BE4C
:1054F0001D8F93068003E3C9E6BEFD46E3D9E6F4BB
:105500008556B387F64093060002B357F40063084C
:10551000D700130EEE43331EC401B3EECE01333673
:10552000D0015D8E1377760081461DC39377F60018
:10553000114781456389E7009307460033B6C700EA
:10554000B335C0003E86939695001397D501B1827E
:105550000D82518F814761BE3A8429B93D47631757
:10556000EB000148B7060800014751B62287AD4756
:105570000D45D9B9B7071000FD170111B3F8B700F1
:1055800013D84601F58F8E081397370022CC26CA10
:1055900013D445014AC89357D6011359D50106CEF5
:1055A0004EC61378F87F1303F07F93D4F501336967
:1055B00019011374F47F93183500FD82D98F931568
:1055C00036006302681C93C61600330704416382E9
:1055D000D4126356E0686304081E630B645293069A
:1055E0008003854963CBE602B7068000D58FFD4670
:1055F00063C2E63E93060002998EB399D70033D674
:10560000E500B396D500B3E9C900B336D00033D76F
:10561000E700B3E9D9003309E940B3893841B3B7AA
:1056200038013309F940B70780003377F900630781
:105630000728FD173379F900630709284A85EF0029
:105640009017130785FF93060002B387E640B3D790
:10565000F9003319E900B3E72701B399E900634B77
:10566000872E018F0507998E3396D90033D9E9002B
:105670003336C0003366C900B396D700B3E9C6001D
:1056800033D9E700014493F7790081CF93F7F9000C
:1056900011476388E70093874900B3B937014E99F2
:1056A000BE89B7078000B377F90063880726050431
:1056B0009307F07F630EF41EB70780FFFD17B377E3
:1056C000F9001397D70193D93900A607336737013B
:1056D000B1831374F47F85885204FE045D8C458C7D
:1056E000F240A2856244D2444249B2493A850561FA
:1056F0008280635AE0586312081AB3E6B7006387E2
:1057000006241306F7FF6301063C63026744130790
:10571000800385466346C7023287FD4663C2E64082
:1057200013060002198EB396C70033D5E5003396F1
:10573000C500C98E3336C00033D7E700D18E3A9901
:10574000B3871601B3B6D700BE893699B707800074
:10575000B377F9006384071605049307F07F6309A4
:10576000F414B70780FFFD17B377F90013D71900BA
:1057700093F91900336737019399F701B3E9E90009
:1057800013D9170009B733E7B7001303148029CBE7
:10579000638CD404630C030A6302041A0E06139785
:1057A000D7010D82518F8D83B6845D8F6302071000
:1057B00081441304F07FB7070800014731BFB3E607
:1057C000B700638506189306F7FF63880632630DFA
:1057D0006730130780038549E341D7E4368701BD6D
:1057E00093C61600E398D4FA630D031663130426D8
:1057F0001307F07FB36619016387063C9306F7FF32
:105800006384062C1305F07F6305A7241306800329
:1058100005476345D6027D47634DD73E1306000218
:10582000158E3317C90033D5D8003396C800498F79
:105830003336C000B356D900518FB697BA9533B7F7
:10584000E500AE893309F700428409B71307140055
:105850001377E77F631C071433E7B7003368190138
:10586000631A04246302083263060734B389B8401C
:1058700033B738013306F940198E37078000718F2E
:105880006304073CB3881541B3872741B3B51501BD
:10589000C6893389B740B684FDB363076424130611
:1058A00080038546E34EE6E8B7068000D58FB5B5A0
:1058B00085881304F07F8147014739BD13F77900CC
:1058C000E31607DCCDA04E85FD2513078501FD46B7
:1058D000E3DBE6D6930785FFB397F90063428718A9
:1058E000B30987401387190063D6E63685199306F6
:1058F0000002B3D93701630CD70093060004338745
:10590000E640B397E700B337F000B3E9F90013F7C7
:1059100079000144E31C07D679A093D73900131707
:10592000D9019306F07F5D8F93573900E30FD4E6DA
:10593000B207B1831374F47F858879BB1307F07FB6
:105940003365190145ED3E89AE88B68493D738009A
:105950003A84F1B7370980FF7D19198C33F9270193
:105960001DB39306140013F7E67F63140710336723
:105970001901631A041C6306072633E7B7006301A5
:105980000728C695CA97B3B8150133891701370799
:1059900080003377E900AE8919C7B70780FFFD178C
:1059A0003379F9000544CE8822874DB7B389B840D2
:1059B00033B738013306F940198E37078000718FED
:1059C00079EF33E7C9003289E31807C681440144FF
:1059D000814719B3930607FE13060002B3D6D7001A
:1059E0006309C700130600043307E640B397E700D6
:1059F000DD8DB339B000B3E9D90005B11305F7FF68
:105A0000630E05181303F07F6304671E13078003FA
:105A1000B68485496347A7027D476343A7141307EC
:105A20000002098FB319E900B3D6A8003397E80044
:105A3000B3E9D9003337E0003355A900B3E9E900F1
:105A4000898FB3893541B3B535013389B740428475
:105A5000D9BE0E061397D7010D82518F8D83B1B336
:105A6000B70680FFFD16F58F198C1397D7018D832C
:105A7000C1B51307F07FE38DE6E23387B800CA971C
:105A8000B3381701C69705839399F701B3E9E90085
:105A90001D8B13D917003684E31A07BE29B7B388C4
:105AA0001541B3872741B3B51501C6893389B7407E
:105AB000B68459B6631C0810E31207CE8144130460
:105AC000F07FB707080009B9C695CA97B3B81501A2
:105AD00033891701B7078000B377F900AE89054411
