:040000006F20F0423B
:1000040000000000000000006C0200006E0200000E
:10001400000000002C2C0000000000000000000084
:100024002C2C00002C2C000000000000000000001C
:100034002C2C0000000000002C2C0000000000000C
:100044002C2C00002C2C00002C2C000082290000F9
:100054002C2C00002C2C00002C2C00002C2C00003C
:100064002C2C00002C2C00002C2C00002C2C00002C
:100074002C2C00002C2C00002C2C00002C2C00001C
:100084002C2C00002C2C00002C2C00002C2C00000C
:100094002C2C00002C2C00002C2C00002C2C0000FC
:1000A4002C2C0000520800002C2C00002C2C0000EA
:1000B4002C2C00002C2C00002C2C00002C2C0000DC
:1000C4002C2C00002C2C00002C2C00002C2C0000CC
:1000D4002C2C00009C3B00002C2C00002C2C00003D
:1000E4002C2C00002C2C00002C2C00002C2C0000AC
:1000F4002C2C00002C2C00002C2C00002C2C00009C
:10010400000000002C2C00002C2C00002C2C0000E3
:100114002C2C00002C2C00002C2C00002C2C00007B
:100124002C2C00002C2C00002C2C00002C2C00006B
:100134002C2C00002C2C00002C2C00002C2C00005B
:100144002C2C00002C2C00002C2C00002C2C00004B
:100154002C2C00002C2C00002C2C00002C2C00003B
:100164002C2C00002C2C00002C2C00002C2C00002B
:100174002C2C00002C2C00002C2C00002C2C00001B
:100184002C2C00002C2C00002C2C00002C2C00000B
:100194002C2C00002C2C00002C2C00002C2C0000FB
:1001A400000000000000000000000000000000004B
:0C01B4000000000000000000000000003F
:1001C000397101436EC619A0397141536AC866CAB4
:1001D00062CC5ECE19A0397101535AD056D252D496
:1001E0004ED64AD826DA22DC06DE3301614082820E
:1001F00041114AC026C222C406C68282B24D4101C4
:10020000024D924C224CB24B4101024B924A224A7F
:10021000B2494101024992442244B24041018280E4
:100220002A8309CA83830500230073007D16050312
:1002300085056DFA828015C22A8385466367B500FD
:10024000FD561307F6FF3A93BA9583830500230002
:1002500073007D163693B6956DFA82802A8311C697
:100260002300B3007D16050365FE828001A0757131
:1002700022C726C582FE86FC8AFA8EF892F696F48C
:100280009AF29EF0A2EEA6ECAAEAAEE8B2E6B6E4D6
:10029000BAE2BEE042FE46FC4AFA4EF852F656F486
:1002A0005AF25EF062EE66EC6AEA6EE872E676E4B6
:1002B000B707EFBE7AE237E700E07EE093870708F2
:1002C000371401403CC781441304048099E8054673
:1002D00085442285A145EF2050641305800C052B31
:1002E000F5B701468144F5B7EFF29FF005650111BE
:1002F000854511053714014002C002C202C402C67E
:1003000002C802CA02CC231E0100EF30603305464A
:1003100013050480C145EF205060C1478D448A8594
:10032000130504807C803EC426C2EF20D052130502
:100330000480C145EF20F05D9307000261498A8582
:10034000130504807C804AC426C2EF20D050930756
:1003500000047C808A859147130504803EC4EF2009
:10036000904F930700088A85130504807C804AC457
:1003700026C2EF20504EB70704013EC6B707020061
:100380003EC8B707000203A5C18085073ECAA14742
:100390003ECC6C009D47FC86EF30E04A03A5C1804F
:1003A0008545EF30204E0561B5B5EFF27FE4AA84B4
:1003B00003A5C1808945EF30004F7DD903A5C180D9
:1003C000A685EF30C04D03A5C1808545EF30A04D17
:1003D0007DD903A5C180EF30C04C1375F50F1DBD4D
:1003E000EFF21FE1B71401400146C14513850480B7
:1003F000EF20B0521545553F1305F00F7D372A8485
:10040000054613850480C145EF203051228519B57A
:10041000EFF21FDEF137058975FDEDBBEFF25FDD11
:10042000371401400146C14513050480EF20F04E0A
:100430001945A53F0546C14513050480EF20F04D41
:10044000D1BBEFF2FFDA3715014041110146C1453A
:100450001305058002C202C423060100EF20F04B01
:100460001305F00999370144A54401453D3F5C005F
:10047000A29788A30504E31A94FE1C869885371575
:100480000140A207D98F13948700A1835D8C054694
:10049000C145130505804204EF2030484180228584
:1004A00041018DBBEFF2DFD42A89371501402E843C
:1004B00013050580C145B2840146EF2010460D4565
:1004C000ED35135504011375F50FC535135584002B
:1004D0001375F50FD93D1375F40FC13D0144931702
:1004E0000401C18363EB9700371501400546C14500
:1004F00013050580EF20704231BB01457D35B30700
:10050000890088A30504E1BFEFF29FCE2E842A89DB
:10051000B2842937371501400146C14513050580CE
:10052000EF20B03F09455135135504011375F50F00
:10053000AD3D135584001375F50F853D1375F40F0C
:10054000AD35014493170401C18363EC970037155F
:1005500001400546C14513050580EF20103C4D3D87
:1005600055B9B3078900882305048135E1BFEFF24F
:10057000BFC513F9F57FAA8A2E8493DBB500630FFC
:100580000904850B8569938509800545EF50007244
:100590002A8A814431C17D5B93890980138CFBFFDA
:1005A000050B63916B055285EF50E0702685EF30A7
:1005B000F005B706002013178400218093870609F1
:1005C000418FDAA30D6788C3130727412146814570
:1005D00013850609FAA30D3F26851DB10569130988
:1005E00009804DB763136C01CA8913960901D6853A
:1005F00041825285453D26854E86D2853D28CE9A3C
:10060000AA8479BFEFF2DFBE41112800214681455F
:1006100002C402C6413D38878D6793872741014553
:10062000631BF7002245EF30607E83A74195338539
:10063000A740133515004101F1BE9DC515C62967B8
:100640001345F5FF2E96130707A59C2193568500A9
:100650008505A98F93F7F70F8A07BA978843358DD9
:10066000E395C5FE1345F5FF8280A3000500230036
:1006700005001306250001471548FD5693050003A4
:10068000B307070318A205071506AA97B4B3D4A3A6
:10069000D4B3F4A3E316B7FE0545828098219547AD
:1006A000B307F702AE97D423B033A206D18ED0336E
:1006B0004206558EF423E206D18E7D566398C6021B
:1006C00093568500A8B3D4A3935605016181E8A38E
:1006D000D4B3038527009307170093F7F70F130789
:1006E000F0026373F70081479CA182807D55828070
:1006F000143195472A86B387F602AA97D823AC33DC
:1007000022074D8FCC33C205D98DF823620733659C
:10071000B7007D576304E502B8B3D8A3D8B3F8A3F4
:10072000634E05009387160093F7F70F1307F00247
:100730006364F7001CB28280A30006008280938766
:10074000019B982395469385019BB306D7027D555F
:10075000B697D423B033A206D18ED0334206558E3D
:10076000F423E206D18E7D566396C602A546038524
:100770002700B4B323820700A38207002383070066
:100780009307170093F7F70F1307F0026373F7004F
:1007900081479CA18280D30705F0D39717C053F7F8
:1007A00017D09CC1D3F7E70807A70192D3F7E7104A
:1007B000D39717C0DCC1828083A741963E95828083
:1007C000EFF21FA383C7A1972E848DE7EF2040008F
:1007D0001388C1B2034678008346680003470800C7
:1007E0008347180003482800A56593850572228574
:1007F000EF50F008228539BC83A781963E95828010
:1008000083A7819633B5A70013451500828003A7FF
:1008100081963A9503A78196E36EA7FE8280EFF258
:100820003F9D371702401C4F41112313010093E7EE
:1008300047001CCFA1477C8237150140C1473EC607
:100840004C008D47130505803EC4EF20D0004101C8
:10085000D1B275713735014082FE86FC8AFA8EF876
:1008600092F696F49AF29EF0A2EEA6ECAAEAAEE810
:10087000B2E6B6E4BAE2BEE042FE46FC4AFA4EF800
:1008800052F656F45AF25EF062EE66EC6AEA6EE8F0
:1008900072E676E422C726C58545130505C07AE2CF
:1008A0007EE0EF3020118547631AF50683A7819615
:1008B0002A84850723A4F19603C7D19619C7938587
:1008C000019B1545A3860196D13B03A6819693070C
:1008D000703E3376F60239E283A6C195014799E26C
:1008E0002286054737150140A1451305058023AE33
:1008F000E194EF20900283A741969385019B8507A1
:100900000D4523A2F196593B83A741962947B3F79A
:10091000E70289E79385019B11454933373501404B
:100920008545130505C0EF30600A3A44AA44767045
:10093000E6705671C6713672A67216738673766447
:10094000E6645665C6653666A6661667866772787B
:10095000E2785279C279327AA27A127B827B726C07
:10096000E26C526DC26D326EA26E126F826F49617F
:1009700073002030EFF2DF87B71602409C4E056708
:10098000011113070780D98F231C0100231E0100CA
:1009900002C602C8231B0100231D01009CCE83D781
:1009A000E181373401404C08FC8483D7C1811305B1
:1009B00004C0930404C0FC8293072003230EF100BB
:1009C000EF20106FF9572318F4C0930790027C862C
:1009D000680085475C873EC8EF2090208357C4C0DD
:1009E00093E717002316F4C0835704C093E717005A
:1009F0002310F4C005616FF0FF819377F500114774
:100A00006396E704B7073230137505F093870750F4
:100A1000630BF50E63E2A702B707303093870750E8
:100A20006307F50EB7073130938707506305F50E5E
:100A300025651305C5788280B70733309387075043
:100A4000E318F5FE25651305C57382802147E39100
:100A5000E7FEB7077130137505F093870750630001
:100A6000F50C63EAA704B7075B3093870750630C64
:100A7000F50A63E2A702B70750309387075063086F
:100A8000F50AB707523093870750E313F5FA256547
:100A90001305C5778280B7075C3093870750630CD6
:100AA000F508B707703093870750E313F5F825650D
:100AB0001305457E8280B7B7703193870750630076
:100AC000F50863E2A702B707723093870750630CFB
:100AD000F506B707733093870750E31BF5F42965D4
:100AE000130545818280B7B7733193870750630040
:100AF000F506B7B7753193870750E31BF5F2256507
:100B00001305457B828025651305C57482802565A4
:100B10001305C576828025651305C5758280256518
:100B20001305457F828025651305457982802565FB
:100B30001305457A828029651305458282802565E3
:100B40001305457D828029651305458082802565D2
:100B50001305457C82802965130545836F50004F3E
:100B6000EFF20FE97971AA848145130600020808A3
:100B7000EFF0CFEE85451305002002C202C402C685
:100B8000EF20102CD9E80145EF20B00F37240140A9
:100B900013050440EF202012B7070E003ECE0C08CC
:100BA0008547130504402302F10202C802CA02CCA1
:100BB00002D0EF20A014854513050440EF206019F2
:100BC000814513050440EF20802F13050440EF20DA
:100BD0004019130904404A85EF2040196DFD1305A3
:100BE000044037240140EF20E018130904404A85EF
:100BF000EF20E0186DFD13050440EF20C02D239871
:100C0000A194854513050440EF20602B81E4054540
:100C1000EF20E02445616FF0EFDF85454145EF208F
:100C200030220145EF20F005930700024C003715F4
:100C300001407C8202C6EF20004289BFEFF24FDB09
:100C400037240140AA858D46054613050440EF2050
:100C50000015854513050440EF20E012930404407D
:100C600089452685EF20A02165DD13050440EF208E
:100C7000801E6FF02FDAEFF20FD62E8AC13703C92C
:100C8000D194AA841384019A631A0902A1470AA085
:100C90002AA04AA06AA00AA42AA44AA46AA4A386F5
:100CA000F19413070401814716200904B697E31D48
:100CB000E4FE8D832310FA0005452DA03946938567
:100CC000019A1385219AEFF00FD79D4706A063E59F
:100CD00027010509A386219503C7D194A1470145A2
:100CE000E301F7FC6FF06FD203970195AA872A976B
:100CF00001456340070291CF05669306F6FF3685EE
:100D00006359C7003E856386D700131507014181EB
:100D1000828082808967138787506302E502138788
:100D200007646306E50293870740631AF5023707F5
:100D30000200296523A2E19413058592828037077A
:100D40000400296523A2E1941305C5938280370727
:100D50000800296523A2E194130505958280296581
:100D6000130545968280EFF20FC751717146814598
:100D7000AA89C80082C0EFF06FCE1306C003814578
:100D8000C81082D0EFF08FCD1306C0048145481102
:100D900002D1EFF0AFCC83C7E1948410638E0714C7
:100DA00003A6818163480600A9659385C5982685B9
:100DB000EF50E02C83C7C1946381070E83C7B194C1
:100DC000130780056385E716130700066385E7169A
:100DD00025661306C678A9659385859A0811EF5094
:100DE000002A83C7A194D5CB138401B218301C20EC
:100DF000283022075D8F3C2062052C10C207D98F56
:100E00005D8DEFF05F9958305C20683022075D8F70
:100E10007C2062050C18C207D98F5D8DEFF0BF975B
:100E20000811EF50602ED257B256096913090971A3
:100E3000B3D72703425722561308010AA9659385A1
:100E4000859B4295B3D62603EF50602303C7B19428
:100E500093070006631DF70218341C242834220768
:100E60005D8F3C2462052C18C207D98F5D8DEFF091
:100E70009F920811EF504029F2566256A965B3D6E9
:100E800026031C119385459D3E95EF50401FA96593
:100E90009385059E0811EF50A0228C004E85EFF03F
:100EA0003F9203A901832A8403A50196B93603A7BB
:100EB0004184B7470F00938707243357F702AA8668
:100EC00003D581942DCD3ACE36CCA935E246724772
:100ED000AA8703C6219525CA29681308C8972965DA
:100EE00026C09308010A4A86A2851305459EEF5045
:100EF000C0006D616FF06FB187A74181530700F0AB
:100F0000D307F7A0E38807EA538507E02C18EFF032
:100F10009F88F256896793870771B3D6F6026256A7
:100F2000A965938585992685EF50601561B5296679
:100F30001306C6964DB529661306469769BDA9677F
:100F4000938747F079B72968130848F049BF4DC621
:100F5000EFF28FA7368AD9CEAE8AC9CDAA8493156F
:100F600026000545B289EF4070542A8441C5EF50F0
:100F7000A019296B26869305CBA32295EF5020104C
:100F80000149A96B2285EF502018B3872A019023CD
:100F900093854BA422950509EF50600E63852903C4
:100FA000B3674903E5F383A5C1822285D294EF504C
:100FB00020112285EF50401526869305CBA322955C
:100FC000EF50E00BC1B72285EF50001422950307C4
:100FD000F5FFA9476307F70083A5C1822285EF507B
:100FE000200E2965A2851305C5A4EF401071228546
:100FF000EF40704C6FF0CFA08280EFF2CF9D0111D7
:10100000AA842E842545854502C202C402C602C8B0
:1010100002CA02CC02CEEF20A06285450945EF202E
:101020006010854537052000EF20606337190140C7
:1010300093070010714A8D494C00130509C07C824A
:1010400052C64EC4EF202001930700204C00130528
:1010500009C07C8252C64EC4EF10F07FE08403A525
:101060004183B707FFBF3ECA93070040FC850C08C9
:101070009167FC8626C8EF20C01903A541838545EA
:10108000EF20202903A541838545EF20402D0561F0
:101090006FF0AF97EFF22F94AA842E8B328AB68925
:1010A00003A54183B7050200EF2000302A896DF9BE
:1010B00003A541838545B70A0300EF200027850A71
:1010C00003A54183D685EF20C02C7DD903A541839C
:1010D000860493F4F40F0146A685B70A0700EF20B3
:1010E000602A938A2A0803A54183D685EF20602AC7
:1010F0007DD903A54183DA85B70A0700EF20C02711
:10110000938A4A0803A54183D685EF2080287DD99C
:1011100003A541838545B70A0300EF200021850A16
:1011200003A54183D685EF20C0267DD903A5418341
:10113000A6850546B7040300EF20C024890403A553
:101140004183A685EF20E0247DD9B7040010938465
:10115000040493170901C18763C9370103A54183BB
:101160008545EF20201E6FF04F8A03A54183A68599
:10117000EF2080237DD903A54183EF202020B307F2
:101180002A0188A30509F1B7EFF2EF84AA842E8A19
:101190003289B68903A54183B7050200EF20C0203C
:1011A00075F903A541838545B70A0300EF20E017D1
:1011B000850A03A54183D685EF20A01D7DD903A50F
:1011C0004183860493F5E40F0146B7040700EF203E
:1011D000601B9384240803A54183A685EF20601B30
:1011E0007DD903A54183D285B7040700EF20C0183D
:1011F0009384440803A54183A685EF2080197DD9F7
:10120000370A0010B70A0700FD54130A0A08938A28
:101210004A088504C204C18403A5418363C734011D
:101220008545EF2020126FE05FFED285EF20C017CA
:101230006DD18345090003A54183130B1900EF20ED
:10124000A01303A54183D685EF20A0147DD95A8928
:10125000C9B7EFE2FFF94111930760FBDC870DC5C9
:101260002A8485461306F1009305000E13056007D6
:10127000213F13056007854622869305000D193D21
:10128000054541016FE01FF90145E5BF6350C0020C
:10129000AA87054591CDEFE2BFF5B2861305600739
:1012A0002E86BE85C53B01456FE0DFF60545828091
:1012B0008280EFE2FFF3B7F740F241119387575274
:1012C0003EC485475C8603C7B194930700062A8411
:1012D00095466303F7008D4630009305400F1305D4
:1012E00060075D358D4630009305300F13056007AC
:1012F00055332C000D4613051400EFE07FF2410139
:101300006FE05FF1EFE23FEDAA89E146138641AE5F
:101310009305800813056007B53B938741B123A06F
:10132000070023A2070023A4070083A741AE9384EC
:1013300041AE23AEF1AEDC401384C1AF5CC09C442F
:101340001CC4DC445CC49C481CC8DC485CC89307D3
:1013500000066398F9048546138641AE9305100A8A
:1013600013056007053B9C209D46138641AE9305FF
:10137000100E130560071CAC313B83D741AED8205B
:101380003EACBC209376F70011835CACBC30920776
:10139000D58F7EACDC309207D98F1EB0FC202301A4
:1013A000F40201456FE07FE6EFE29FE179712A8464
:1013B00032853AD09384C1AF36CE2ECCEF40405D1B
:1013C000AA8C8A20AE8BEF40806303A6018783A698
:1013D0004187AA8A2E8A6685DE85EF30300D03A606
:1013E000818783A6C187AA892E895685D285EF3049
:1013F000F00B2A86AE864E85CA85EF30D05F03A6F5
:10140000018883A64188AA892E896685DE85EF300A
:10141000F00903A6818883A6C188AA8CAE8B568565
:10142000D285EF30B0082A86AE866685DE85EF303D
:10143000905CAA8A039524002E8AEF4060552A8684
:10144000AE865685D285EF307006AA8A0395440091
:101450002E8AEF40E053AA8CAE8B4E86CA864E850C
:10146000CA85EF30B0042A86AE866685DE85EF3009
:10147000F0032A86AE865685D285EF20701B03A620
:10148000018983A64189AA892E89EF30E0082AD4F0
:101490002ED64E85CA85EF404049EF40604F03A6E7
:1014A00081892AD283A6C1892E8BEF30300003A612
:1014B000018A83A6418AEF30105483970401AA89D8
:1014C0000395A4003EC68397E4002E893EC8839707
:1014D000C4003ECAEF40C04B4E86CA86EF30007D46
:1014E0004E86CA86EF30807C03A6818A83A6C18A95
:1014F000EF30C07BAA8B039584002E8AEF404049D1
:101500004E86CA86EF30807A2A86AE865E85D28580
:10151000EF20101203A6818A83A6C18AEF300079DA
:1015200003A6018B83A6418BEF30407803A6818B05
:1015300083A6C18BEF20D00FAA8CEA202E8CEF401F
:10154000004C6686E286EF30607601468146AA8CC2
:101550002E8CEF304057630B052C4E86CA864E8585
:10156000CA85EF30A074AA8D32452E8DEF404042DF
:101570002A86AE866E85EA85EF30407303A6018B1E
:1015800083A6418BEF3080722A8D4245AE8DEF40AD
:1015900020404E86CA86EF3060712A86AE86EF20E4
:1015A00030096A86EE86EF20B00803A6018C83A678
:1015B000418CEF30A06FAA8D72452E8DEF40403DDB
:1015C0002A86AE8603A5818C83A5C18CEF30B042FC
:1015D000AA8952452E89EF40A03B03A6018D83A620
:1015E000418DEF30A06C6E86EA86EF20700403A672
:1015F000818D83A6C18DEF30606B2A86AE864E85C5
:10160000CA85EF30503F03A6018E83A6418EEF308E
:10161000E0696686E286EF203070AA89039564014E
:101620002E89EF40E0364E86CA86EF3020684E861F
:10163000CA86EF30A06703A6818E83A6C18EEF30E5
:10164000E066AA8C039544012E8CEF4060344E86F0
:10165000CA86EF30A06503A6018B83A6418BEF30CD
:10166000E0642A86AE866685E285EF20607C2A8C5F
:1016700003952401AE8BEF40A0312A86AE866285A9
:10168000DE85EF20E07A03A6018F83A6418FEF303D
:10169000E0614E86CA86EF20A079AA8703A68186DC
:1016A00083A6C1863E85EF20306703A6818F83A67F
:1016B000C18FEF30A05F6247930700062A89AE8989
:1016C0006319F71603A6019083A641901255DA8597
:1016D000EF3070322A8C0255AE8BEF40602B2A8D92
:1016E000039504022E8BEF40A02A03A6018883A64F
:1016F0004188EF30A05B6286DE86EF30205B2AC631
:101700000395E401AE8DEF40A02803A6819083A647
:10171000C190EF30A059B2472A86AE863E85EE854D
:10172000EF2000712A86AE866A85DA85EF30B02C0C
:101730002A8D0385C4012E8BEF40802503A60191DD
:1017400083A64191EF3080566286DE86EF300056E8
:1017500003A6818B83A6C18BEF20806D2AC60385EB
:101760002402AE8DEF40C02203A6019183A64191D1
:10177000EF30C0536286DE86EF304053B2472A8690
:10178000AE863E85EE85EF30605203A6818B83A640
:10179000C18BEF20E0692A8C0395A401AE8BEF404A
:1017A000201F03A6819183A6C191EF3020502A8685
:1017B000AE866285DE85EF30604F2A86AE866A850A
:1017C000DA85EF30A04EAA8B038584012E8BEF4083
:1017D000201CDA865E86EF30604D03A6818A83A6E0
:1017E000C18AEF30A04C2A86AE8603A5818B83A5E3
:1017F000C18BEF305020DA865E86EF30204B03AB92
:10180000818683AAC1862A8A5A86D686AE84EF301C
:1018100040326341A008014681465285A685EF30DB
:10182000203D635C0500014A814401A88147814550
:10183000B5B503AA018683A44186B2552255EF406F
:10184000E028135785009357850118B013570501F9
:1018500008A038A03CB0CE854A85EF40202713571A
:1018600085009357850158B01357050148A078A00B
:101870007CB05285A685EF4060251357850018B4CB
:10188000935785011357050108A438A43CB445615A
:101890006FE0DF965A8AD6844DB7EFE27F952A84AF
:1018A000371501408565130505C0EF10D00603A567
:1018B00001848945EF10307F7DD903A50184A2857D
:1018C000EF10F07D0545EF20A02637150140856516
:1018D000130505C0EF10F0036FE0DF93EFE2BF8F59
:1018E0002A89AE840144634494006FE01F9203A5EB
:1018F00001848945EF10307B7DD9B30789008C23A3
:1019000003A501840504EF109079F1BFEFE25F8E2B
:101910002A84218159371375F40F41376FE09F8F67
:10192000EFE21F8DB71401402A8493050040138510
:1019300004C0EF10407E22858D379305004013854B
:1019400004C0EF10007D6FE0FF8CEFE2DF88AA8912
:101950001305A0023684AE843289D9374E857D378F
:101960004A856D371305B002653F268545372285C8
:10197000713F1305C0026D376FE03F89EFE25F876B
:1019800001118545214502C002C202C402C602C837
:1019900002CA02CC231E0100EF10904A8545116552
:1019A000EF10F04B096937140140930709C08D44CB
:1019B0007C808A85C147130504C03EC426C2EF104F
:1019C00080698A8523102101130504C061494AC436
:1019D00026C2EF10406891677C808A859147130585
:1019E00004C03EC4EF102067E1778A85130504C068
:1019F0007C804AC426C2EF100066B7C704013EC609
:101A0000B707020003A501843EC8B7070002850797
:101A10003ECA6C009D47FC8602CCEF10D06203A545
:101A200001848545EF101066014505616FE08FFE6A
:101A3000EFE28FF9B28A368A7D16FD16C20642069B
:101A4000C18241823A8BAA8B2E84EFF01FF03715AA
:101A500001408565130505C0EF10E06B93598B00BD
:101A6000636A4405371501408565130505C0EF100D
:101A7000406A6FE0EFF803A501848945EF10B0627A
:101A80007DD903A50184CE85EF10706103A5018483
:101A90008945EF1050617DD903A501848504DA855D
:101AA000C204EF10D05FC180E3E754FD0504420497
:101AB00041807DB7DE84CDBFEFE28FF31971AA8438
:101AC0001306C0072E8448008145EFE02FF9130666
:101AD000F007930500020A85EFE04FF82685EF40F6
:101AE000A06213198501135989416359890233048E
:101AF0002441058462046184A685330581004A86F9
:101B0000EFE00FF2060493070408338427004A9499
:101B10008A852685A30004F8EF40E05D26850961EB
:101B20006FE04FEFEFE24FEA328413DA8600137A68
:101B3000FA0F01140111BE8913F9F60F9307FAFF8A
:101B40003304440336C4B386F5009307F9FF330624
:101B5000F500C2064206C1824182C2843AC6EFF055
:101B6000DFDE9397890093D98900B3E73701FC84BE
:101B70003715014093978400A180C58F85651305B3
:101B800005C0C16AFC860604EF10E0588149FD1AC1
:101B9000216B63EC4901371501408565130505C0CC
:101BA000EF10205705616FE0AFE5B24738858144FB
:101BB000B3F75701C207D98FA29783DB070063E50C
:101BC000240185090904F1B7B3979B00B3F76701B6
:101BD000680891C328088945EFF05FD08504C5B730
:101BE000EFE28FDE411136C43AC61DC2034A8100BE
:101BF00083499100AA842E84BE8A428B1309160061
:101C0000930BF00E294C930C00020306F9FF01E63A
:101C100041016FE0EFDEB387440163DCFB004E94CB
:101C200042044180B3073401E3C4FBFE81446303F3
:101C300096036303860323044101A3043101A246F2
:101C400032472685D2945A88D687A285C204EFF0FF
:101C50007FEDC180050955BF4E9442044180814407
:101C6000D5BFEFE24FD783A701941399160042091D
:101C7000AA84AE8A328AB68913590901B9CB9386F0
:101C8000FAFF1306FAFF2696CE96C2064206B7075B
:101C900000202685C1824182D68503AB8709EFF0FB
:101CA000DFCA371501408565130505C0EF10A04652
:101CB000814463994403371501408565130505C0C8
:101CC000EF10204503A50194EF30F07E23A001948E
:101CD00001A8CA850545EF30707D23A0A19445F188
:101CE0006FE0AFD203A501944A86DA85EFE08FFB5F
:101CF000814A93970A01C18313971A0063E737015A
:101D00008504C2044A9BC1806DB703A5019489452F
:101D1000850A3A95EFF09FBCE9BFEFE26FCD411124
:101D2000EFF0DFC52945EFE09FAE37140140856530
:101D300093850580130504C0EF10A03D2945EFE011
:101D40001FAD93050020130504C0EF10803C29450A
:101D5000EFE0FFAB4545EFF0BFBC13058007EFE0B8
:101D60001FAB13056003EFF0BFBB13050007EFF0D7
:101D7000DFB21305A003EFF0BFBA1545EFF0FFB1D6
:101D80001305200BEFF0DFB9B71700339387C7C0F7
:101D900095453EC00A85930730035C82EFF01FB47F
:101DA0001305700BEFF0DFB713055003EFF0FFAE34
:101DB0001305B00BEFF0DFB613052003EFF0FFAD16
:101DC0001305200CEFF0DFB50545EFF01FAD13054F
:101DD000300CEFF0FFB45545EFF03FAC1305400C6D
:101DE000EFF01FB413050002EFF03FAB1305600CDA
:101DF000EFF01FB33D45EFF05FAA1305000DEFF0C4
:101E00003FB21305400AEFF05FA91305100AEFF087
:101E1000DFA81305000EEFF0BFB0A9653946938522
:101E200045E60A85EFE0CFBFB9450A85EFF01FAB65
:101E30001305100EEFF0DFAEA9653946938545E72F
:101E40000A85EFE0EFBDB9450A85EFF03FA913051C
:101E50001002EFF0FFAC37040020130590021304CA
:101E60000400C164EFF0DFAB13090401FD141A2074
:101E700001459306000F1306000F8145EFF05FBB8D
:101E80001E201305D0076393970005450904EFE072
:101E90001F98E31E24FD014541016FE0AFB7130514
:101EA00080026FF0FFA7EFE2AFB11D71EF10001AD3
:101EB00023A0A1960945EF104052EF00F045EF1026
:101EC000D044EFE03FABEFE09F951385019BEFE03F
:101ED000CFF92386A196716513050520EF10305DBB
:101EE00071468145C80082C0EFE04FB7EFF0FFE2D6
:101EF0007D47FD461306000F81450145EFF05FB3B6
:101F00004167130707809306000F1306000F930520
:101F1000F00C0145EFF0DFB1EF00101B238DA1960F
:101F2000854705452387F194EFE09FC383C7E1947C
:101F300081E741472388E1800945EFE0FF8B2AC014
:101F40003725060093056007130505A8EFF0EF8A13
:101F50001385B19402D402D6EFF0AFAF2386A194DB
:101F60001DC103C7B19465452388E196EFE0DF8882
:101F700003C7B194930700062A89994A630BF712A5
:101F800099473EC229A09947FD5A3EC20149296599
:101F9000130545F7EF40800BEFE00FB5EFE06FCA98
:101FA0002394A194896713878750630AE5001387F8
:101FB00007646306E500938707406315F500A147B2
:101FC00023AEF1929385019B3545EFE02FEDB5658A
:101FD000938505CC4145EFE08FD983A5C19323AA12
:101FE000A194A1C51146081802D8EFE0AFCB03A712
:101FF0004182C25763FBE70083A7418283A5C19357
:10200000114608183ED8EFE02FD0C2577D57638E97
:10201000E70023A2F18203A5418283A701823E95B6
:10202000EF10E0762945EFE08FFE0145EFE0BFD3EA
:1020300085473ECCA967938787F702C802C602CAC4
:10204000014C02C401447D5BC1443ECE83CDC196A8
:1020500063930D06EF10806D83A7018283A5C19362
:10206000B307F54023A2F18291C91385418211463D
:10207000EFE08FC91305A00FEFE06FF985476314F8
:10208000FC6CB707EFBE37E700E0938707083CC753
:1020900037150140130505800146A145EF10E00703
:1020A00029651305C5F5EF30707A0545EF10B02BA3
:1020B000EDBFA147F9B5E31F0CF8630E09004A858F
:1020C000EFE00FF411C9FD576387FA009385019B78
:1020D0005685EFE0AFDC01491385019BEFE04FE14E
:1020E00023A4A1827D15B54763E8A708F2470A0536
:1020F0003E951C4182872965938541AA1305C5A495
:10210000EF30B05FA965938545E8138541AAEF409C
:10211000C00063160562A9659385C5E8138541AAC9
:10212000EF30B07F631F0560A965938545E913858E
:1021300041AAEF30907E1DC51905EF30D03603A7B8
:102140004182637BA70223A2A18203A5418283A7C8
:1021500001823E95EF10A0639385019B3945EFE026
:10216000EFD319A8A9659385C5E9138541AAEF3076
:10217000D07A0DC1EFE03F9E824781CB3E85EFE0F4
:102180002FE809C50547A386E19602C00545EFE0A3
:102190000FE86DBDA965938545EA138541AAEF3027
:1021A000D07729C5130A55005285EF30D02F83A769
:1021B0004194AA84E372F5FC9305A0035285EF30A5
:1021C000F0711304001019CD0505EF30D02D2A84CD
:1021D0008567420541819387078063F3A7003E84AA
:1021E000420441809385019B294595BFA96593854C
:1021F000C5EA138541AAEF3050723DC5130A650048
:102200005285EF30502A83A74194AA84E376F5F6ED
:102210009305A0035285EF30706C7D5B31C11304D0
:1022200015002285EF303028131B05019305A0030C
:102230002285EF30B06A135B0B41130400100DC10F
:102240000505EF3050262A84856742054181938732
:10225000078063F5A70005641304048042044180ED
:102260009385019B2D45E5BDA965938545EB1385B8
:1022700041AAEF30906A09C59385019B3545C5B5E4
:10228000A965938585EB138541AAEF301069E305B5
:1022900005EE9305D003138541AAEF30306415C9CC
:1022A000130A15005285EF30102083A74194AA84A9
:1022B0006371F5029305A0035285EF303062130479
:1022C000001001C90505EF30101E131405014180EF
:1022D0006EC49385019B314559B583A5C193E38DA8
:1022E00005E8138541821146EFE00FA29385019B1B
:1022F0001145B5B583A7419702D802DA02DC02DEA8
:1023000089CB03A68195A9659385C5EB0818EF30A5
:102310001057A24795C3A2852685EFE04FA5AA8650
:102320001386F4FF296518182296A685130585ECF7
:10233000EF30B03C02C489B5B565938505CC2685E0
:10234000EFE0EFA2AA8523AAA1942965101813052E
:10235000C5EEEF30903AF9BFEFE0CFAA0DC5416767
:102360009306000D1306000F9305000201457D172B
:10237000EFF00FEC930600091306600B9305600263
:102380007545EFF01F8EE247E38807DE03A501964F
:10239000130A000DEFE06FE6AA858800EF30B05514
:1023A00083A7C1839305000F880098339C23330AC9
:1023B000EA40B3C5F502420A135A0A01EFF0CFEF23
:1023C00083A7C1832A86416898339423AC232207CC
:1023D000558FC205D98DD833C823B4332207498F0E
:1023E0007D18E206CD8E9307F01C33770701D28566
:1023F0002145EFF0EFFE02CC41B3EF1020338C000B
:10240000EFE00FBC83A7C1839305000F88009C23D6
:10241000B3C5F502EFF04FEA83A7C1832A867D4852
:1024200098339423AC232207558FC205D98DD83316
:10243000C823B4332207C167498FFD17E206CD8E4A
:102440007D8F91451145EFF0AFF93DB383C7A1975B
:1024500091E7BD2E0145EFE01F9139BB0145EFE04B
:10246000AFB5D5BFA2850545EF3050042A8AE305F4
:1024700005D029652286A685130585F0EF30F02763
:102480002286A6855285EFE0EF8193060002228620
:10249000D2852685EFE0BFABC5B1A2850545EF30FB
:1024A000F0002A8AE30A05CC2965DA862286A68509
:1024B000130505F2EF307024FD576313FB028147CB
:1024C00029A03307FA001CA385071397070141834E
:1024D000E36987FE2286A6855285EFE0EF8275B715
:1024E00022869375FB0F5285EFD05FD7E5B7FD5776
:1024F00023A4F18251B103C5018193056102EFE08C
:102500008FF705CD03156102EFE00FFE8567938716
:1025100047CE2313A1023305F502318523ACA180F8
:1025200083C7E19489E7EF00501623AAA180130521
:10253000B004EFE06FAC2AC081B10547A386E196F5
:1025400025B913850197EFE0DFD613052003EFE0EF
:10255000AFAA2A899D4A0DB19387019798331246F5
:102560002C103D8B1305700F98B302D402D6EFE008
:10257000FFD1E31305C003C5B194EFE0BFD8E31D5D
:1025800005BE13052003EFE02FA72A89A14AEDB667
:1025900083468102834791020346B102B206920745
:1025A000DD8E8347A102320683C5B1949183DD8E0F
:1025B0008347C102014792075D8E8347D102918311
:1025C0005D8E93070006639AF5008357E102139727
:1025D0008700A1835D8F42074183138501B2EFE03D
:1025E000BFDC13054006EFE02FA1138601B20547BB
:1025F00014322385E1941C223822A206DD8E3C325F
:102600004207558FE207B3EDE700D3870DF052671D
:102610002A89938701B253A7E7A039C3D833D423BB
:10262000B2672207558FF423C206D98EF8336207AA
:10263000558F530707F053A7E7A01DC3983794277A
:10264000C2672207558FB427994AC206D98EB83778
:102650006207558F530707F053A7E7A0E31E07B0A3
:10266000D433D82383CA7700A206D98EF823E20A8E
:1026700003CAB7004207558F9437B3EAEA00982798
:10268000A206620AD98EB8276E8556C64207558FB4
:10269000336AEA0052C8EF1080702ACA5685EF10DC
:1026A00000705246A965AA86938505F48800EF302C
:1026B000101D03C7B194930700066312F702880048
:1026C000EF309024AA8A5285EF10606DA9659C00B6
:1026D0002A86938505F533855701EF30501A83A775
:1026E00081839305000F130AC00E98339C23880042
:1026F000330AEA40B3C5F502420A135A0A01EFF061
:10270000AFBB83A781832A86416898339423AC2387
:102710002207558FC205D98DD833C823B433220779
:102720009307F8FF498FE206CD8E130808807D8F4E
:10273000D2852145EFF0CFCA994A6ECA35BC094C03
:1027400025BC054C15BC8947E314FC94EFF02FF52C
:10275000EF0030506FF0DF9313773500AA8711EF49
:10276000130740063377E502054509EB1307001907
:10277000B3F7E70213B51700828001458280130783
:102780004006B377E5023355E5024D471375F50F63
:102790006374A7009387470613D527003E951D470E
:1027A0003375E50229671307C7FB2E970347F7FF29
:1027B0008D8B3A9632954205418199E7894763E5C9
:1027C000B7007D15420541819D473375F502828032
:1027D000EFD29F9F5564EF007075130404183354B3
:1027E000850203D78197AA8463068704239C819678
:1027F0009309207B1309C016130AD0166360890859
:102800009387C1B2A96A239237011389C1B2814962
:102810006D4B938A0AFB854B714C138A1900636FC9
:102820008B06137AFA0F0504230349011374F40F7E
:10283000A3038900D56793870718B3F4F40285676B
:10284000938707E11384C1B233D7F402B3F4F402DF
:102850001377F70F18A01307C003B3D7E402B3F43C
:10286000E40293F7F70F1CB024A04A206C207030CC
:10287000EFF0FFF008A401456FD09F984E85EFF070
:10288000BFED11C9E30E44F7130424E98509C20919
:1028900093D90901A5B7130434E9CDBF0355490005
:1028A000EFF09FEB19C9639A7901E30C84F70D14DB
:1028B00093190A0193D909018DB7D69983C70900E5
:1028C000E361F4F61D8CEDB7EFD29F92411185457F
:1028D00037050018EF00B0580545EF0030360545C4
:1028E000EF003076352F0545EF00D03A01449304D0
:1028F000A00F13051004EF00505C11ED6316940057
:10290000228541016FD01F91050451451374F40FC6
:10291000EFD0FFEFF9BF9307A00FE303F4FE130519
:102920000010EF00B0390545EF00103AEF00106BD2
:10293000EF00F06B85450545EF00105BEF00106A76
:10294000EF00305C21657D15EF00D066EF00106967
:1029500003A5418283A7018201443E95EF003063C5
:10296000EF00505BA9659385151A1145D125CD4718
:102970003EC4280085473EC6EF009026EFF05FE595
:1029800041B71971054582FE86FC8AFA8EF892F6E7
:1029900096F49AF29EF0A2EEA6ECAAEAAEE8B2E6AF
:1029A000B6E4BAE2BEE042FE46FC4AFA4EF852F6FF
:1029B00056F45AF25EF062EE66EC6AEA6EE872E68F
:1029C00076E47AE27EE0EF00D06519C1EFF05FE0D7
:1029D0001545EF001067EF0070607670E670567175
:1029E000C6713672A672167386737664E66456658F
:1029F000C6653666A666166786677278E27852798B
:102A0000C279327AA27A127B827B726CE26C526D4E
:102A1000C26D326EA26E126F826F09617300203038
:102A2000B71702409843B706FFF04111136717002C
:102A300098C3D84337060200758FD8C39843B706AA
:102A4000F7FEFD16758F98C39843B706FCFFFD1679
:102A5000758F98C3D843B70601FFFD16758FD8C38D
:102A60009843B70600ECFD16758F98C33707FF0033
:102A700098C723A6070202C402C69843C166558FB1
:102A800098C3B716024005679C42F18F3EC6A24725
:102A900085073EC4B24781E7A247E397E7FEB71731
:102AA00002409C4337070200F98FADC785473EC6F9
:102AB00032478547631EF704B7170240D843B7066D
:102AC000C1FFFD16D8C3D843D8C3D8431367074006
:102AD000D8C3D843758FD8C3D843C166558FD8C3E0
:102AE0009843B7060001558F98C3B7060002984374
:102AF000758F75DFD843B7160240719BD8C3D84392
:102B000013672700D8C32147DC42B18BE39EE7FE61
:102B10004101828002C669BF371702405C43A1466B
:102B2000B18B638AD702B7177A009387072023A255
:102B3000F184B7170240D843B707002093870701F5
:102B400011833D8BBA97982383A74184B3D7E700BD
:102B500023A2F18482805C4354434167C983BD8BC7
:102B6000F98E1387270085CFBD47630CF702C14755
:102B7000630CF702C547630CF7028145A9E2B7472A
:102B8000024083A70780C18B95C7B7177A00938748
:102B900007203307F702C9E923A2E18459BF494757
:102BA000E9BF85453547D9BF81453D47C1BF81450F
:102BB0004147E9B7B7173D0093870790D9BF37154D
:102BC00002405C55C166F58F5455A1CB9182BD8AF8
:102BD000B7177A00850693870720B3D7D7025455D5
:102BE000A182BD8A89EE9546B387D7028583B71641
:102BF0000240D456BD8A8506B3D7D70259BF0545D2
:102C00006394A600E546CDB73D456396A600D14640
:102C1000B387F602E9BF8906E5BFBD8AB7177A0018
:102C2000850693870720C9BF0583BDB701A097E13B
:102C3000FF1F938121C6175100201301A13C177576
:102C400000001305256C97D5FF1F9385A53B1386C0
:102C5000C19363FAC5008322050023A05500110526
:102C60009105E3EAC5FE1385C193938581B7637728
:102C7000B500232005001105E36DB5FEFD427390FC
:102C800002BCAD4273904280996293828208739035
:102C9000023097D2FFFF9382223793E23200739083
:102CA0005230EFF0FFD797F2FFFF9382022073902C
:102CB000123473002030EFD2AFD3B727014093878F
:102CC0000740631EF500854513050020EF00101B2B
:102CD000814513050020EF00701A6FD0AFD3B737CE
:102CE000014093870780E31AF5FE854513050040F0
:102CF000EF00D018814513050040F1BF5841B707D8
:102D0000F1E09387F7EF944D7D8F9C41D58FD44DA3
:102D1000D58FD441A206D58FD98F5CC11845B7F79E
:102D2000F1FF9387D77FD4457D8F9C49D58F9445FC
:102D30008606D58FD98F1CC55855B70710FFFD17CC
:102D40007D8FDC29FD1793F7F70FD207D98F5CD55C
:102D500082801C4589C593E717001CC58280F99BBA
:102D6000EDBF1C4593E787001CC5828008450D8197
:102D7000058982801C4593E747001CC58280084571
:102D80000981058982801C4591C537075000D98F7C
:102D90001CC582803707B0FF7D17F98FD5BFA547C7
:102DA00063F7B7048D47138765FF3307F7020328DE
:102DB000C5009D47B397E70093C7F7FFB3F7070137
:102DC000B396E600DD8E54C5994763E3C704954783
:102DD0007D163306F6025859FD47B397C70093C7CF
:102DE000F7FFF98F3396C5005D8E50D982800D476D
:102DF0003387E502032805019D47B397E70093C792
:102E0000F7FFB3F70701B396E600DD8E14C96DBF77
:102E1000B14763E2C702954765163306F6021859B3
:102E2000FD47B397C70093C7F7FFF98F3396C500E7
:102E30005D8E10D9828095474D163306F60258559F
:102E4000FD47B397C70093C7F7FFF98FB395C50048
:102E5000DD8D4CD582806845420541818280B7274F
:102E6000014093870740984711C5B7068000558FEA
:102E700098C78280B70680FFFD16758FD5BF1C41AD
:102E800033F5F5003335A0008280B7F7FF1F83A725
:102E9000077213D70701C207C1831D8DA9473305E8
:102EA000F50287A64192537707D05505D37705D011
:102EB000D3F7D718D377F708538507E082805C41B2
:102EC00091C537070004D98F5CC18280370700FCA9
:102ED0007D17F98FD5BFEFD2AFB101112A8423043A
:102EE0000100A5441C8463F9F40423040100A546F1
:102EF00021461C8463F0F608231501002304010019
:102F000095461C8463FBF60E38853C8599460D4634
:102F1000B3F7D702056513050580B3D7C70233574A
:102F2000D702BA97C207C1837C853C8505611D8D98
:102F3000420541856FD00FAE1C4493E787001CC447
:102F40002285EFF0BFE26DFD1C4493E747001CC4EF
:102F50002285EFF0DFE26DFD78441C8486079387BD
:102F600007028A972396E7FE1C84850793F7F70FDD
:102F70005C848DBFA30401009C846378F6001C84EC
:102F8000850793F7F70F5C84ADB798849C84060798
:102F90008507860713070702938707020A978A9710
:102FA0000357C7FE83D7C7FE63F3E7049C848607F5
:102FB000938707028A9783D7C7FE7C859C84988471
:102FC00085078607938707028A9783D5C7FE9317DD
:102FD0001700938707028A972396B7FE9C8438854B
:102FE00085078607938707028A972396E7FE9C84C6
:102FF000850793F7F70FDC8441B71C843885890770
:103000008607938707028A9783D7C7FEBA97C207B6
:10301000C1837C851C84850793F7F70F5C84D5B545
:10302000EFD20F9D0545952D0145852D6FD08F9EC3
:103030004111B777004002C6938707C03EC6B2472A
:103040003E952AC6B2478CC341018280B7F7FF1F65
:1030500003A5477082809C4513F7070113F8F7001A
:1030600001C7D8413368E8008E2113F7F50F31C34B
:1030700018418146054E930E80023D4F930F800408
:1030800021433316DE00B3F8C50063101603639ABC
:10309000D70750C913962600B318CF0093C8F8FF7E
:1030A00033F7E8003316C800518F8506E39B66FCB2
:1030B00018C11307F00F6375B70454410146054E5C
:1030C000930E8002130F80042143130786003317E9
:1030D000EE00B3F8E500631117036398D70358C9EE
:1030E000931826003D47331717011347F7FFF98E52
:1030F000B3181801B3E6D8000506E31866FC54C1FE
:103100008280E399F7F910C971B7E39BE7FD18C90D
:10311000C1BF0CC982804CC9828019C20CC982808F
:103120004CC98280B708300093560501131705017A
:1031300033731501BD8A418363530502B70701400C
:10314000DC4F63151305C1060D46B316D60093C6B2
:10315000F6FFF58FC5E9370701405CCF828037085D
:1031600001400326480063121307B70600F1FD165D
:10317000B377D60003264800F18E2322D800BDCDB8
:10318000558112053315A700C98F8DA83706100089
:10319000698E05C20D46B316D60093C6F6FFF58FAD
:1031A000DDD955811375F53F12053315A700C98F79
:1031B0005DB755811375F53F12053317A700934688
:1031C000F7FFF58FC9D9D98F79B7B7071000E98F05
:1031D00099CB8D47B397D70093C7F7FFF18FB70609
:1031E000000FD58F69BF558112053315A70093478E
:1031F000F5FFF18F3707000FD98FD9F53707014059
:103200005CC3828055811375F53F12053317A70003
:103210005DBFEFC2FFFD462101112A8468002E899F
:10322000C204D924C180D24793F404FCB786930327
:10323000C2049386F66FC1801307C00363EAF600E9
:1032400037470F001307072433D7E70242074183AC
:10325000D98C46A0162061661306066AC206C18292
:10326000F99AC206C18216A083260900636CD604AF
:103270008606B3D6D7021146B687C206C18263F36B
:10328000C6009147C207C1830507420741831AB0B0
:103290005EAC1E20035749008356A90093E7170030
:1032A0001EA01E20558FC207C18393F757BFD98F29
:1032B0001EA0035789008357C900D98F1EA405613A
:1032C0006FC05FF58355690031667D166399C5024D
:1032D0000D46B386C602B3D7D702C207C183939601
:1032E000470199E293E71700A166D58F9306C012B4
:1032F0003307D7029306803E3347D70271B765463E
:10330000B386C602B3D7D7029166C207C183D58FF1
:10331000F9B71E2189C593E717001EA18280C20755
:10332000C183F99BC207C183CDBF1E2189C593E725
:1033300007101EA18280C207C18393F7F7EFC2076F
:10334000C183C5BF1E2189C593E707201EA18280C6
:10335000C207C18393F7F7DFC207C183C5BF1E2130
:1033600089C593E707401EA18280C207C18393F7F6
:10337000F7BFC207C183C5BF0EA982800A29137592
:10338000F50F828093F7E50F19C293E715001EA988
:1033900082805E290A2D42055D8D6D8D2205218179
:1033A0000D8D133515008280411102C402C693D7DA
:1033B000C5012AC63EC4A247A205A18199CBB24746
:1033C000D1073EC6B247884341016D8D3335A00019
:1033D0008280B247C181E107EDB723AEA19682801A
:1033E00003A7C197894714216311F70218318D474C
:1033F00063EDE7003C211A079607D98F37E700E015
:1034000093F7F70F36972300F740054793D75600F9
:103410003317D700544189CA938707048A07B7E650
:1034200000E0B69798C3828093870706B7E600E06E
:103430008A07B69798C30F10000082803777004044
:103440001C4309C593E707101CC3828093F7F7EF6D
:10345000E5BFB777004098431367470098C3984388
:103460001367270098C3B7F700E0938707D0984BFE
:103470001367470098CB984B5D9B98CB7300501017
:103480008280B7160240DC4251777D17F98FC98FD1
:10349000DCC28280B7170240238007022380070224
:1034A00005476306E50011476306E5008280238037
:1034B000A702828015472380E702828037170240E7
:1034C0001C53C98F1CD3828001C9371702401C537B
:1034D000A166D58F1CD38280B71602409C526177BB
:1034E0007D17F98F9CD28280371702405C43A1463A
:1034F000B18B6381D706B7177A00938707201CC169
:10350000371602405C4237070020130707029183F9
:10351000BD8BBA9794231C41B3D7D7005CC15442EA
:10352000A1829D8ABA969422B3D6D70014C554427C
:10353000AD829D8A3697182393868184B3D7E7009E
:103540005CC5584239830D8B36971823B3D7E702F1
:103550001CC982805C435843C166C983758FB7F626
:10356000FF1F03A6C6709166BD8BF18E890795E695
:10357000C54601466393D700C94731EF374702403C
:1035800003270780418B39C337177A0013070720B9
:10359000B387E7022DD685839DB78946638DD70013
:1035A000BD46638CD700C146638CD700C546638C8B
:1035B000D7000146D9B7C947EDBF0546B54775BF26
:1035C0000146BD475DBF0146C14745BF37173D00B6
:1035D0001307079075BFB7150240D855C166758FA0
:1035E000D45521CB9182BD8A37177A0085061307FF
:1035F00007203357D702D455A182BD8A89EE95465C
:103600003307D7020583B7160240D456BD8A850614
:103610003357D702B5BF85456394B600E546CDB7AD
:10362000BD456396B600D1463387E602E9BF8906F9
:10363000E5BFBD8A37177A00850613070720C9BF83
:1036400099C5371702401C4FC98F1CCF8280B7170E
:103650000240984F1345F5FF798D88CF828099C538
:10366000371702405C4FC98F5CCF8280B71702408A
:10367000D84F1345F5FF798DC8CF828099C537178C
:1036800002405C47C98F5CC78280B7170240D847A9
:103690001345F5FF798DC8C7828001C937170240ED
:1036A0001C53C166D58F1CD38280B71602409C5232
:1036B00041777D17F98F9CD282809357550005473B
:1036C0006399E700B71702409C4333D5A7000589EB
:1036D000828009476396E700B71702409C53F5B70D
:1036E000B7170240DC53D5B7373700408357078000
:1036F00089C5C98F2310F78082801345F5FFE98FB4
:10370000D5BFB737004003D747801367070123921F
:10371000E78082803737004083574780C207C183E4
:10372000BD9BC207C1832312F7808280B737004058
:1037300093870780962F9A2F131607014182E39BE8
:10374000E6FEB737004093870780D62FDA2F131590
:1037500007014181E39BE6FE3737004013070780EE
:103760000E2F162F93970601C183E39BD5FE630DA1
:10377000F6003737004013070780522F562F139556
:1037800006014181E31BD6FEC2075D8D8280EFC238
:103790003FA62A84EFF0FFF613570401B737004025
:1037A0004204239CE7804180239E8780EFF09FF6B0
:1037B0006FC05FA6EFC2DFA32A84EFF09FF4135718
:1037C0000401B73700403D8B42042394E7804180D9
:1037D00023968780EFF01FF46FC0DFA337370040D8
:1037E000130707805E2393F70702EDDF82803737E8
:1037F00000408357478013070780C207C183DD9BC2
:10380000C207C1835EA35E23A18BF5DF8280B73739
:10381000004003D747801345F5FF698F2392E78067
:103820008280373700408357478003570780C2079D
:10383000698FC18309C77D8D3335A0008280014522
:1038400082806FF0DFFC1E210D6713070704B6218D
:103850007D8F9E21D58FD621D58FF621D58F9625A8
:10386000D58FB625D58FD625D58FF625D58FD98F6F
:103870001EA15E2D7D771307F77FF98F5EAD9E2920
:103880001EA982801E2189C593E707041EA182809C
:10389000C207C18393F7F7FBC207C183C5BF4EA51B
:1038A00082804A2582800A256D8D3335A000828072
:1038B00037F7FF1F032747701E21B73601401183DA
:1038C0003D8BC2077117114303D845009221C18374
:1038D000938806C06363E306630615039386064078
:1038E000630AD50037570140930607C06304D5002B
:1038F0006317E5040967D98F93F7F7F8C207BA2170
:10390000C18301A8BA2193F7F7F85D8F420741837D
:103910008967D98FFA2193F7F7CFC207C183D98F6F
:103920001EA123160503B737014012B5138707C040
:103930006315E5069C251EB989A8E30F15FB37071B
:103940000040E30BE5FA13070740E307E5FA3717F2
:10395000004093060780E301D5FA930607C0E30D04
:10396000D5F8B736014093860640E307D5F8B75639
:103970000140938806C0E30115F9E30FD5F66319FA
:10398000E5001EA12316050312B585475EA98280B6
:1039900013070740E307E5FEB5BF93870740E30B36
:1039A000F5F8B7570140138707C0E305E5F8E31EB4
:1039B000F5FC49B71E294A25ED8F4205418189C78B
:1039C0006D8D3335A00082800145828093C5F5FF5F
:1039D000C205C1810EA98280EFC29F811629F577A9
:1039E000FD17FD8EFE21DA250111D58F1EA9562562
:1039F000FD779387379FFD8EDE212A84AE84D58F95
:103A00009625D58FB625D58F5EA55E29C207C183C1
:103A100093F7F7CFD98F5EA96800EFF0FFACB747F7
:103A2000014093870780631EF402E2476547B3872E
:103A3000E7029840930640060A07B3D7E70233D758
:103A4000D702B3F7D7021207920793872703B3D79A
:103A5000D702BD8BD98FC207C1831EA405616FC079
:103A60006FFBD247E1B75E2589C50967D98F5EA58F
:103A7000828079777D17F98FDDBF13F7F50F8547C2
:103A80001583B395B7006319F7009307C5009843F2
:103A900001CE4D8F98C38280894693074501E31874
:103AA000D7FE93070501E5B793C5F5FFF98D8CC3E4
:103AB000828093F5F51F4EA182804A211375F51F70
:103AC00082800A216D8D3335A000828093F6F50F38
:103AD000054695822A87B317B6006391C60256251C
:103AE00033F5F6001E23C207C18301C9A181054732
:103AF0003317B700F98F3335F0008280094663949D
:103B0000C6001629F1BF5629E1BF83A741843717A4
:103B10007A0013070720B3D7E70293F7F70F238242
:103B2000F1981307803EB387E7022391F1988280D2
:103B3000B7F700E0D8438146799BD8C303C74198C3
:103B40003306A70290CBD4CB98431367070198C3E1
:103B500098431367170298C3D843058B75DF9843C2
:103B6000799B98C38280B7F700E0D8438146799B60
:103B7000D8C303D721983306A70290CBD4CB984360
:103B80001367070198C398431367170298C3D84374
:103B9000058B75DF9843799B98C38280757122C726
:103BA00026C54AC34EC182FE86FC8AFA8EF892F67A
:103BB00096F49AF29EF0A2EEA6ECAAEAAEE8B2E67D
:103BC000B6E4BAE2BEE042FE46FC4AFA4EF852F6CD
:103BD00056F45AF25EF062EE66EC6AEA6EE872E65D
:103BE00003A541859305505276E47AE27EE0EFF03A
:103BF000FFED3DC503A54185EFF03FEC03C70198FC
:103C00009307F0031375F50F63F4E7002380019821
:103C100003C70198938781B393041700BA9793F46D
:103C2000F40F88A323809198A947631BF50213061C
:103C300000048145138541AAEFC04FE22686938593
:103C400081B3138541AAEFC0AFDD1306000481459F
:103C5000138581B3EFC08FE023800198EFC03FAEA2
:103C60003A44AA441A498A497670E6705671C67178
:103C70003672A672167386737664E6645665C665F8
:103C80003666A666166786677278E2785279C279D8
:103C9000327AA27A127B827B726CE26C526DC26DB8
:103CA000326EA26E126F826F496173002030EFC2D4
:103CB0002FD42A84116579718545110502C602C881
:103CC000EFF01F9893070020FC82B71401408D4746
:103CD0003ECC4C08E147138504803ECEEFF0AFB7F1
:103CE00093070040FC824C089147138504803ECE28
:103CF000EFF06FB622D003A54185B7070C000C107A
:103D00003ED402D223160102EFF01FCD03A5418558
:103D1000054693055052EFF05FD683A701856800F2
:103D20005C868547DC865C873EC8EFF06FEB03A5B9
:103D300041858545EFF03FD345616FC0AFCDEFC200
:103D40008FC92E893284814463C5840022856FC067
:103D5000CFCB03A5418593050004EFF09FD675D91D
:103D6000B30799008385070003A541858504C20533
:103D7000C181EFF01FD4C9BFAA8703A5C1841387EF
:103D800081B7AA9763EBE700378700201307078006
:103D90006365F70023A6F18482807D558280935766
:103DA000750193F7F70F938617F8054763530500DE
:103DB0007D5779466345D60463D80600FD57638373
:103DC000F60001473A858280B70580001386F5FF2B
:103DD000698E4D8ED94563D9D5009387A7F6B31761
:103DE000F6003307F702F9BFB7074000B3D7D74053
:103DF000B2975D46B306D640B3D7D700DDB74111C1
:103E000006C6EF10B046B24041018280931685018C
:103E100093578501D58FC16613578500938606F0A9
:103E2000758FD98F22053707FF00798D5D8D8280D0
:103E3000B70710000111FD1733F8B70093D84601FA
:103E4000F58F22CC13D44501139737000E084AC8CA
:103E50004EC69357D6019359D50113D9F501137462
:103E6000F47F93F8F87F06CE26CAFD82B3E90901F4
:103E7000D98F9315350013183600330714416304A6
:103E8000D918635EE010638808209306F07F63060C
:103E9000D45293068003854463C9E602B7068000C6
:103EA000D58FFD4663C7E64293060002998EB39410
:103EB000D7003356E800B316D800D18CB336D00003
:103EC00033D7E700D58CB389E940B3849540B3B7C5
:103ED0009500B389F940B707800033F7F90063080C
:103EE0000724FD17B3F9F9006386092A4E85EF1000
:103EF000B054130785FF93060002B387E640B3D79B
:103F0000F400B399E900B3E73701B394E4006345E3
:103F10008732018F0507998E3396D400B3D9E40018
:103F20003336C00033663601B396D700B3E4C6001B
:103F3000B3D9E700014493F7740081CF93F7F400FD
:103F400011476388E70093874400B3B49700A699AC
:103F5000BE84B7078000B3F7F9006387072805041C
:103F60009307F07F6300F41CB70780FFFD17B3F7DA
:103F7000F9001397D7018D80A607458FB18313747D
:103F8000F47F52047E095D8C33642401F240A285E3
:103F90006244D2444249B2493A8505618280630F46
:103FA0000710338788406318043033E5B900630E87
:103FB00005261305F7FF630E05481303F07F630A18
:103FC00067421307800385446346A7022A877D461C
:103FD0006340E64413060002198EB394C90033D53A
:103FE000E5003396C500C98C3336C00033D7E900ED
:103FF000D18C998FB304984033389800B389074126
:1040000046843689C9BD6359E01263900810B3E64F
:104010000701638F06201306F7FF63050636930634
:10402000F07F630ED7441307800385466346C702BB
:104030003287FD4663CBE63813060002198EB3962D
:10404000C7003355E8003316C800C98E3336C000A8
:1040500033D7E700D18EBA99B387B600B3B6D7008D
:10406000BE84B699B7078000B3F7F900E9C3050429
:104070009307F07F6308F40AB70780FFFD17B3F7D3
:10408000F90013D714008588458F9394F701D98CD4
:1040900093D917004DB5B3E60701638B0618930655
:1040A000F7FF638106301306F07F630FC714130711
:1040B00080038544E34BD7E03687E5B3130714004C
:1040C0001377E77F6315071CB3E8B90033E70701EF
:1040D0006310042A638B0838630C073AB3840541E4
:1040E00033B795003386F940198E37078000718FFA
:1040F00063010740B305B840B38737413338B80090
:10410000AE84B389074136893DB59306F07F630DD0
:10411000D40E130680038546E340E6F4B70680001C
:10412000D58F01BF1304F07F8147014799BD13F775
:104130007400E31507E089AA6307071033878840F6
:10414000630D041A9306F07F638DD82A130680034B
:1041500085466349E602B7068000B3E9D900FD460B
:1041600063C6E63613060002198EB396C90033D52E
:10417000E5003396C500C98E3336C00033D7E90059
:10418000D18EBA973698B336D800C284B389F60078
:104190004684C9BD2685EF10302A13078501FD46E8
:1041A000E3DBE6D4930785FFB397F40063498716F2
:1041B000B30487401387140063DBE6348514930649
:1041C0000002B3D49700630BD70093060004338733
:1041D000E640B397E700B337F000DD8C13F77400C7
:1041E0000144E31D07D44DA093D734001397D901A0
:1041F0009306F07F5D8F93D73900630FD400B20729
:10420000B1831374F47FB5BB0E059397D90113578F
:1042100035005D8F93D739005D8F09D701491304AD
:10422000F07FB70708000147A9BBC285BE89368960
:1042300093D735003A845DBFB70980FFFD19198C0B
:10424000B3F93701CDB99306140013F7E67F6DE398
:1042500033E7B9006311041E630A072433E707013B
:10426000630D07242E98CE97B335B800B389B700F5
:104270003707800033F7E900C28419C7B70780FF0A
:10428000FD17B3F9F9000544A685228755B7B38415
:10429000054133B795003386F940198E3707800002
:1042A000718F45EF33E7C400B289E31F07C20149AC
:1042B00001448147F9B11305F07F638CA8121306FE
:1042C00080038544E348E6D237068000B3E9C9009D
:1042D000FDB9930607FE13060002B3D6D700630AA2
:1042E000C700130600043307E640B397E7003368BE
:1042F000F800B3340001D58CC9BEB3E6B9006382BF
:10430000061A1305F7FF3DCD9306F07F630BD70E1A
:10431000130780038546E347A7E62A8789B5B706D2
:1043200080FFFD16F58F198C1397D7018D83C1BDC2
:104330001307F07FE388E6DE33870501CE97B335B8
:10434000B700AE9705839394F701D98C1D8B93D951
:1043500017003684E31407BE05BFB305B840B38722
:1043600037413338B800AE84B38907413689ADBED2
:10437000639C08126315071801491304F07FB707FF
:10438000080001B12E98CE97B335B800B389B700B5
:10439000B7078000B3F7F900C2840544E38907D862
:1043A0000944D9B933880541B387F940B3B505014C
:1043B000C284B389B740054439BE0E050D811397F9
:1043C000D901498F93D7390081BD130607FE9306A3
:1043D000000233D6C700630AD70093060004338770
:1043E000E640B397E7003368F800B3360001D18E9A
:1043F000A5B10E061397D7010D82518F8D83368993
:1044000021BD0E061397D7010D82518F8D8329B5DB
:10441000130607FE1305000233D6C9006309A7007F
:10442000130500043307E5403397E900D98DB33411
:10443000B000D18CC1B671D733E80701E31008DEB4
:104440000E059397D9010D813367F50093D7390095
:10445000E1B3B305B840B38737413338B800AE8411
:10446000B389074136890544BDB4E30207E40E066B
:104470001397D7010D82518F8D83368949B39317D6
:1044800035008D831397D9015D8F93D7390069B3B8
:10449000931735008D831397D9015D8F93D739001A
:1044A000B9BBC285BE8969B341DF8DBB0E061397C8
:1044B000D7010D82518F8D8399B30E059397D90142
:1044C0000D813367F50093D7390015BB130607FE3E
:1044D0009306000233D6C9006309D700930600048F
:1044E0003387E6403397E900D98DB336B000D18EDB
:1044F00051B933E7C400B289E31807D84DBB0E06A3
:104500001397D7010D82518F8D83368931B393066E
:104510000002998E014639B4797193D7450122D4AE
:1045200026D24AD056CA5EC69394C50006D64ECE51
:1045300052CC5AC862C493F7F77F2A84B28B36896B
:10454000B18093DAF501638C07101307F07F63875E
:10455000E7148E04135BD501336B9B003707800093
:10456000336BEB00131A3500938917C08144014C5B
:10457000935749011314C90093F7F77F31801359FA
:10458000F901D5C31307F07F6384E7080E0413D73E
:10459000DB01418F938717C037048000598C9398B3
:1045A0003B00B389F94001463D47B3C62A01636821
:1045B000971817670000130767A18A04BA949C40F4
:1045C000BA9782871D8F13068003635CE64081479C
:1045D00001460147B2502254D207D18FFE06D58F33
:1045E00092540259F249624AD24A424BB24B224C8F
:1045F0003A85BE85456182809307F07F0146014779
:10460000D1BF81469307F07F370608000147D9B72D
:10461000B3687401938919806399081093E42400A6
:104620000144094651B7B3687401638B080E6306F1
:1046300004362285EF104060AA87930655FF754720
:10464000938887FF158F3314140133D7EB00598CEF
:10465000B3981B01CE979389373F0146B1B733EB2F
:10466000A40063090B0C638B04302685EF10C05C3B
:104670002A87930655FFF547130A87FF958FB39452
:104680004401B357F40033EB9700331A4401930706
:10469000D0C0B389E7408144014CD9BD33EBA400BD
:1046A00063190B06014AA1449309F07F094CC9B56F
:1046B000328C89476302FC3E8D47E304FCF4854756
:1046C000CA86E306FCF09387F93F6350F02213F7A4
:1046D00078006319073A37070001618F19C7B707D8
:1046E00000FFFD177D8C938709401307E07FE345AA
:1046F000F7F093D838001317D401131694003367DA
:104700001701318293F7F77FF1B556895A84D28821
:104710004DB7268B2A8AB1449309F07F0D4C89BD91
:1047200093E414000144054641B593E43400DE8867
:104730000D469DBD014A91448149054C15BD6365F7
:10474000642363018B225283FD19DA87014A131710
:1047500084001355070133D4A70213D68801598E5C
:104760001318060113580801939588001357030185
:10477000B3F7A702B3088802C207D98F63F81701FD
:10478000B2971307F4FF63F9C7243A84B38717413C
:10479000B3D8A702131703014183B3F7A702B30FDE
:1047A0001803C2075D8F6378F70132979387F8FF8C
:1047B000637FC720BE884204C1623364140113833F
:1047C000F2FFB3786400935E040113DE050133F356
:1047D0006500330F13033307F741B3081E039357E4
:1047E0000F01B38F6E02FE98C697B38ECE0363F3AC
:1047F000F701969EC16FFD1F93D80701B3F7F7012C
:10480000C207337FFF01F698FA97636B17136307AC
:104810001713B307FA4033071741333AFA00330747
:1048200047416303E624B358A70293DE07013377B9
:10483000A702330F1803420733E7EE00637BE7015B
:104840003297938EF8FF6367C7246375E725F918DD
:1048500032973307E741B35EA702C207C1833377BC
:10486000A7023308D8034207D98F63FB0701B29729
:104870001387FEFF63EEC72063FC0721F91EB29782
:10488000C208B3E8D8011395080113DF080141817C
:10489000B30E6502B38707413305AE0213D70E018D
:1048A00033036F021A952A97330EEE036374670081
:1048B00041652A9E41687D1813550701337707012A
:1048C0004207B3FE0E017295769763F7A70EB29773
:1048D0001383F8FF3E8863E7C71663E5A71C638E62
:1048E000A71C9A8893E81800F9BB0547E39C07CCFE
:1048F0009387E9413396F8003336C000B317F400CC
:10490000D18FB3D8E800B3E8F80093F778003354B8
:10491000E40081CF93F7F80011476388E70093879D
:104920004800B3B817014694BE88B7058000E18DF2
:10493000854701460147E39F05C8D5A8E37BFAEC0C
:10494000B30EBA0033BF4E01B30FCF007E97768A05
:10495000930FF4FF6377E60663601711638CE80E2C
:104960007E8445BDE3611ADF13571A001313FB0160
:1049700093571B003363E3007E0AD1BBEF10C02BBB
:1049800093065501F14713070502E3D6D7CE9307E7
:1049900085FF331BF400014ADDB95E85EF10C029A5
:1049A00093065501714793070502E35AD7C861156D
:1049B00081483394AB0079B9E396A7F2E30507D0B9
:1049C00039B7E31FE6F8E3090FF87E8499B5E3737E
:1049D000F7DFF9183297C5B3E3F917DB7914B2970B
:1049E00075B37D46E356E6F005561D8E930700022B
:1049F0003356C4006308F7009387E943B317F40004
:104A0000B3E8F800B3381001B3E8C80013F7780032
:104A100001461DC393F7F800114701446389E7007D
:104A200093874800B3B8170133341001BE881316BA
:104A300094001317D401318293D8380033E7E8008B
:104A4000814749BE9A88E31FA8E8E30EB7C693E8FA
:104A5000180095B9E3F6FEF0AE9E33BFBE00329F5C
:104A60007914768A7A9775B3130720C09387F93F34
:104A7000FD58E3CCE9E613874800B33817014694A4
:104A8000BA8891B913F7F8001146E306C7C4E5B731
:104A9000BA8EFDB3F68875BBCA869307F07F0146D0
:104AA00001470DBE139315003338B30032983E987A
:104AB000F9189A85E30BA8F835B5E3E5E5FE9A8881
:104AC000E317B7F809B113D74501B7071000FD1771
:104AD00013D846011377F77F1303F07F33FEB70037
:104AE000AA88F58FFD811378F87FFD820545630A5A
:104AF000670063076800631407016300FE02828099
:104B00008280E31EE8FEB367FE00D18FB3E7170192
:104B1000FDF7958D3335B0008280E392C8FE63883F
:104B2000D50071FF336E1E013335C001828001450F
:104B3000828013D84501B7071000FD1793D84601AE
:104B40001378F87F130EF07F33F3B7002A87AA8E0D
:104B5000FD81328FF58F93F8F87F13D5F601630C42
:104B6000C803638DC801631508043367E300639EBF
:104B700008025D8E25C235EB1DC582805D8E25E65F
:104B8000631608003363E300E30803FE639BA5009C
:104B900099C92E8582803363E30063160304638E14
:104BA00008030545F9D97D5582806DF379F5E5BF98
:104BB000E38908FEE397A5FEE3C508FFE34A18FD75
:104BC000E3E167FEE316F3FCE36DDFFD0145E3E19E
:104BD000EEFD8280014571F78280D18F89E7E392F3
:104BE000A5FC0145828079558280E38BA5FC55BFE9
:104BF00013D84501B7071000FD1793D84601137865
:104C0000F87F1303F07F33FEB7002A87AA8EFD8159
:104C1000328FF58F93F8F87F13D5F601630D680294
:104C2000638D6800631308043367EE00639308061E
:104C30005D8E3DC22DEB11CD82805D8E0DE663163B
:104C40000800336EEE00E3080EFE6381A5040545FF
:104C5000E5D57D558280336EEE0063160E00E39835
:104C600008FFD18F8DCF09458280E38208FEE39053
:104C7000A5FEE3CE08FD634B1801E3EAC7FD631709
:104C8000FE00E366DFFD0145E3F8EEFBF9D12E857A
:104C9000828045FF55F175BF014555FB8280E39841
:104CA000A5FA01458280E38AA5FC55B7397193D7EF
:104CB000450122DC26DA4ED662CC9394C50006DE8E
:104CC0004AD852D456D25AD05ECE93F7F77F2A8470
:104CD000328CB18093D9F501638607161308F07FF3
:104CE0006382071B8E049355D501C58DB7048000E0
:104CF000CD8C131A3500938B17C0014B814A93D783
:104D000046011398C60093F7F77FE28E1354C8004C
:104D100013D9F601F5C71308F07F638E07079316C2
:104D20003400938717C09355DC01D58D338E7701FE
:104D3000B7068000A94733E4D500931E3C00014527
:104D400013031E0063C6671933C82901C2860946CA
:104D5000634766079308FBFF854563EB151B630DEF
:104D6000C51285473688631FF5068147814601478E
:104D7000F2506254D207D58F7E08B3E70701D254B0
:104D80004259B259225A925A025BF24B624C3A850E
:104D9000BE852161828033678401138EFB7F6309A6
:104DA0000710056733C8290113070780136B3B0001
:104DB0002946C2863383EB00634366430D450546AF
:104DC000331666011377065305C389476386FA0CC9
:104DD0008D476388FA12568585472684D28E368899
:104DE000E305F5F81A8E79A493770624C5EF1376B8
:104DF0008608630F0610CA86A284768AAA8AF1B74B
:104E0000B3678401FDC3630B04322285EF00D062D7
:104E10002A8E130755FFF547930E8EFF998FB31611
:104E2000D401B357FC0033E4D700B31EDC01338E4A
:104E3000CB41130EDEC0A947014513031E00E3D585
:104E400067F179A033EAA400630C0A0836C66388C8
:104E5000042C2685EF00505EB2462A87130655FFC4
:104E6000F547130A87FF918FB3944401B357F400B9
:104E7000DD8C331A44019307D0C0B38BE740014B5C
:104E8000814AB5BD33EAA40063160A048144214B6C
:104E9000930BF07F894AA5B536889307F07F81464A
:104EA0000147F9B501489307F07FB7060800C9B577
:104EB000856793870780136B2B00A9463383FB001C
:104EC00063D2662B814EB9470945AD466387D7301B
:104ED000CE86E5BD2A8A314B930BF07F8D4A05B50E
:104EE0008144114B814B854A19BD5E8E136B1B00AB
:104EF000A9470144814E054513031E00E3D667E52B
:104F0000C1BF01489307F07FB706080001478DB580
:104F1000C1651387F5FF93570A0193D80E01337AC1
:104F2000EA00B3FEEE003307DA033386D7031355E6
:104F30000701B3864803B2963695338F1703637320
:104F4000C5002E9FC1631386F3FFB375C500B3760A
:104F5000C400718F935F0401C205B302DA02BA95EF
:104F600041813387D70213D60201338A4F033A9A1D
:104F70005296B387F7036373E6009E974169130463
:104F8000F9FF3377860093D30401B3F28200E18CFA
:104F9000420733849E02169741823E963A95B38229
:104FA000980293570401B38ED303F6929697B38871
:104FB000780263F3D701CA984169930EF9FFB3F2FF
:104FC000D701B37ED401C202C183C697338496024F
:104FD000B388D201B386D30293520401B3849F02F3
:104FE000B694A692B38E7F0263F3D200CA9EC16FBD
:104FF000FD1FB3F6F2013374F401C2067A95A2964E
:1050000036963337E5003297AA98BA9733B5A80099
:105010003E95B336D6003336C700D18E33B7E7009E
:1050200013D60201B337F5005D8FB29636977697A7
:10503000939E9800935775012607B3EEBE00336424
:10504000F700B33ED00193D77801B3EEFE00B70767
:1050500000012605E18FB3EEAE0089CF93D71E0085
:1050600093FE1E001317F401B3E7D701B3EEE70078
:1050700005801A8E9307FE3F635AF00413F77E00F3
:1050800001CF13F7FE0091466308D70013874E0047
:10509000B33ED7017694BA8E37070001618F19C7E6
:1050A000B70700FFFD177D8C93070E401307E07FC5
:1050B0006345F70A93DE3E001317D401931694005C
:1050C0003367D701B18293F7F77F5DB10547D5E329
:1050D000130EEE413396CE013336C000331EC401A9
:1050E000B3DEEE003366C6013366D60193777600F1
:1050F000B355E40081CF9377F60011476388E7004A
:105100009307460033B6C700B2953E863705800048
:105110006D8D854781460147E31C05C475A0EF00EE
:10512000B03113065501F147B24613070502E3D922
:10513000C7D26115014AB314A40035BB6285EF00E4
:10514000B02F13075501F147130E0502E3D5E7CC45
:105150006115814E3314AC00D9B99307F07F8146B5
:10516000014739B133C82901C2860144814E09453E
:10517000F9BE1D8F93068003E3C9E6BEFD46E3D961
:10518000E6F48556B387F64093060002B357F40061
:105190006308D700130EEE43331EC401B3EECE01F5
:1051A0003336D0015D8E1377760081461DC3937729
:1051B000F600114781456389E7009307460033B63F
:1051C000C700B335C0003E86939695001397D5016E
:1051D000B1820D82518F814761BE3A8429B93D4722
:1051E0006317EB000148B7060800014751B6228754
:1051F000AD470D45D9B9B7071000FD170111B3F838
:10520000B70013D84601F58F8E081397370022CCCC
:1052100026CA13D445014AC89357D6011359D5015C
:1052200006CE4EC61378F87F1303F07F93D4F501B2
:10523000336919011374F47F93183500FD82D98FF7
:10524000931536006302681C93C6160033070441A9
:105250006382D4126356E0686304081E630B6452D1
:1052600093068003854963CBE602B7068000D58F9D
:10527000FD4663C2E63E93060002998EB399D700BD
:1052800033D6E500B396D500B3E9C900B336D000F4
:1052900033D7E700B3E9D9003309E940B38938418E
:1052A000B3B738013309F940B70780003377F90005
:1052B00063070728FD173379F900630709284A8532
:1052C000EF009017130785FF93060002B387E640AF
:1052D000B3D7F9003319E900B3E72701B399E9001F
:1052E000634B872E018F0507998E3396D90033D9EA
:1052F000E9003336C0003366C900B396D700B3E97E
:10530000C60033D9E700014493F7790081CF93F7C2
:10531000F90011476388E70093874900B3B9370163
:105320004E99BE89B7078000B377F90063880726D6
:1053300005049307F07F630EF41EB70780FFFD1787
:10534000B377F9001397D70193D93900A6073367CC
:105350003701B1831374F47F85885204FE045D8C99
:10536000458CF240A2856244D2444249B2493A8512
:1053700005618280635AE0586312081AB3E6B700E9
:10538000638706241306F7FF6301063C6302674444
:105390001307800385466346C7023287FD4663C212
:1053A000E64013060002198EB396C70033D5E50018
:1053B0003396C500C98E3336C00033D7E700D18E8F
:1053C0003A99B3871601B3B6D700BE893699B707A5
:1053D0008000B377F9006384071605049307F07F14
:1053E0006309F414B70780FFFD17B377F90013D7EB
:1053F000190093F91900336737019399F701B3E95D
:10540000E90013D9170009B733E7B7001303148075
:1054100029CB638CD404630C030A6302041A0E06BE
:105420001397D7010D82518F8D83B6845D8F6302F0
:10543000071081441304F07FB7070800014731BF0C
:10544000B3E6B700638506189306F7FF6388063254
:10545000630D6730130780038549E341D7E436873E
:1054600001BD93C61600E398D4FA630D03166313C7
:1054700004261307F07FB36619016387063C930681
:10548000F7FF6384062C1305F07F6305A72413063A
:10549000800305476345D6027D47634DD73E13061B
:1054A0000002158E3317C90033D5D8003396C800D3
:1054B000498F3336C000B356D900518FB697BA958D
:1054C00033B7E500AE893309F700428409B7130703
:1054D00014001377E77F631C071433E7B7003368C2
:1054E0001901631A04246302083263060734B3897E
:1054F000B84033B738013306F940198E37078000BA
:10550000718F6304073CB3881541B3872741B3B556
:105510001501C6893389B740B684FDB36307642497
:10552000130680038546E34EE6E8B7068000D58F74
:10553000B5B585881304F07F8147014739BD13F75E
:105540007900E31607DCCDA04E85FD251307850104
:10555000FD46E3DBE6D6930785FFB397F900634288
:105560008718B30987401387190063D6E636851973
:1055700093060002B3D93701630CD70093060004E9
:105580003387E640B397E700B337F000B3E9F9009B
:1055900013F779000144E31C07D679A093D73900AB
:1055A0001317D9019306F07F5D8F93573900E30FEE
:1055B000D4E6B207B1831374F47F858879BB1307EF
:1055C000F07F3365190145ED3E89AE88B68493D7E7
:1055D00038003A84F1B7370980FF7D19198C33F907
:1055E00027011DB39306140013F7E67F6314071019
:1055F00033671901631A041C6306072633E7B700F3
:1056000063010728C695CA97B3B8150133891701F6
:10561000370780003377E900AE8919C7B70780FFE5
:10562000FD173379F9000544CE8822874DB7B38939
:10563000B84033B738013306F940198E3707800078
:10564000718F79EF33E7C9003289E31807C68144C7
:105650000144814719B3930607FE13060002B3D62F
:10566000D7006309C700130600043307E640B39769
:10567000E700DD8DB339B000B3E9D90005B11305FA
:10568000F7FF630E05181303F07F6304671E13070B
:105690008003B68485496347A7027D476343A71407
:1056A00013070002098FB319E900B3D6A800339796
:1056B000E800B3E9D9003337E0003355A900B3E976
:1056C000E900898FB3893541B3B535013389B740D6
:1056D0004284D9BE0E061397D7010D82518F8D8358
:1056E000B1B3B70680FFFD16F58F198C1397D7015C
:1056F0008D83C1B51307F07FE38DE6E23387B800F1
:10570000CA97B3381701C69705839399F701B3E990
:10571000E9001D8B13D917003684E31A07BE29B799
:10572000B3881541B3872741B3B51501C6893389BD
:10573000B740B68459B6631C0810E31207CE814403
:105740001304F07FB707080009B9C695CA97B3B824
:10575000150133891701B7078000B377F900AE89C7
:105760000544E38E07DC0944B5B90E059317D9014A
:10577000135735005D8F935739004DB9B385B84045
:10578000B307F940B3B8B800AE893389174105446F
:1057900021BE0E051317D9010D81498F935739008A
:1057A00071B1130607FE9306000233D6C7006309E2
:1057B000D700930600043387E640B397E700DD8DFA
:1057C000B336B000D18EF5BE6DCBDD8DE39305C64B
:1057D0000E059317D9010D813367F50093573900F2
:1057E000B1B1130705FE930600023357E9006309C0
:1057F000D50093060004898EB316D900B3E8D8000B
:10580000B3391001B3E9E90075BDE30207E40E0600
:105810001397D7010D82518F8D83B68459BBB388FE
:105820001541B3872741B3B51501C6893389B74000
:10583000B684054495BC931735008D831317D901A1
:105840005D8F93573900B5B33E89AE8849B3E312F3
:1058500007BE931735008D831317D9015D8F9357BA
:105860003900E9B60E061397D7010D82518F8D834B
:1058700089B30E061397D7010D82518F8D83B6849D
:1058800075B60E059317D9010D813367F50093574F
:10589000390005B3138606FE130700023356C9000C
:1058A0006389E60013070004158F3317E900B3E896
:1058B000E80033371001518F19B10E061397D70145
:1058C00093563600558F8D8395B633E7C9003289DC
:1058D000E31C07D4ADBB93060002998E014621BCA0
:1058E000E30707BE330588402A87E30C04CC13077F
:1058F00080036348A700370780003369E900B68456
:1059000069BBB68485497DBBE30E07CCB3068840EE
:1059100019E036878DB6130680030547E341D6BAF2
:10592000370780003369E90085BE93D74501B70684
:1059300010001387F6FF93F7F77F1306E03F6D8F94
:10594000FD81635BF6001306D0416359F60037050D
:1059500000807D152E95828001458280130630439C
:105960001D8E7D48558F635DC80093063041B38717
:10597000F6403357F7003305E040E5F13A85828081
:105980009387D7BE3317F7003355C500498FE5B766
:10599000411106C622C426C20DCD1357F541B344AA
:1059A000A700998CAA87268513D4F7017124930741
:1059B000E041898F294793F7F77F634BA7022D4773
:1059C000098F33D7E40055053207B394A40031831F
:1059D00029A00144814701478144D2077E04D98F21
:1059E000B240C18F22442685BE8592444101828007
:1059F00055153397A400320731838144F9BF411113
:105A000022C406C62A841DC9052C9307E041898F4C
:105A1000294793F7F77F634DA7022D47098F550557
:105A20003357E4003314A400B240228532072244E5
:105A30003183D207D98FBE8541018280B240228551
:105A4000814722440147D207D98FBE854101828018
:105A500055153317A4000144B24022853207224471
:105A60003183D207D98FBE854101828037068000FD
:105A7000135775019307F6FF1377F70F9305E007A8
:105A8000B3F6A7009357F50163DBE5009305D00952
:105A900063D9E500370500807D153E95828001457C
:105AA000828093055009D18E63CDE500130660090D
:105AB0003307E640B3D6E6003305D040F5F336852C
:105AC00082801307A7F6B396E600FDB793D745018A
:105AD00093F7F77F9396C50013861700A582135797
