:040000006F30B0218C
:1000040000000000000000006C0200006E0200000E
:1000140000000000183A000000000000000000008A
:10002400183A0000183A0000000000000000000028
:10003400183A000000000000183A00000000000018
:10004400183A0000183A0000183A0000A62A0000E6
:10005400183A0000183A0000183A0000183A000054
:10006400183A0000183A0000183A0000183A000044
:10007400183A0000183A0000183A0000183A000034
:10008400183A0000183A0000183A0000183A000024
:10009400183A0000183A0000183A0000183A000014
:1000A400183A0000CC080000183A0000183A000082
:1000B400183A0000183A0000183A0000183A0000F4
:1000C400183A0000183A0000183A0000183A0000E4
:1000D400183A00009A4A0000183A0000183A000042
:1000E400183A0000183A0000183A0000183A0000C4
:1000F400183A0000183A0000183A0000183A0000B4
:100104000000000056300000183A0000183A0000C1
:10011400183A0000183A0000183A0000183A000093
:10012400183A0000183A0000183A0000183A000083
:10013400183A0000183A0000183A0000183A000073
:10014400183A0000183A0000183A0000183A000063
:10015400183A0000183A0000183A0000183A000053
:10016400183A0000183A0000183A0000183A000043
:10017400183A0000183A0000183A0000183A000033
:10018400183A0000183A0000183A0000183A000023
:10019400183A0000183A0000183A0000183A000013
:1001A400000000000000000000000000000000004B
:0C01B4000000000000000000000000003F
:1001C000397101436EC619A0397141536AC866CAB4
:1001D00062CC5ECE19A0397101535AD056D252D496
:1001E0004ED64AD826DA22DC06DE3301614082820E
:1001F00041114AC026C222C406C68282B24D4101C4
:10020000024D924C224CB24B4101024B924A224A7F
:10021000B2494101024992442244B24041018280E4
:100220002A8309CA83830500230073007D16050312
:1002300085056DFA828015C22A8385466367B500FD
:10024000FD561307F6FF3A93BA9583830500230002
:1002500073007D163693B6956DFA82802A8311C697
:100260002300B3007D16050365FE828001A0757131
:1002700022C726C582FE86FC8AFA8EF892F696F48C
:100280009AF29EF0A2EEA6ECAAEAAEE8B2E6B6E4D6
:10029000BAE2BEE042FE46FC4AFA4EF852F656F486
:1002A0005AF25EF062EE66EC6AEA6EE872E676E4B6
:1002B000B707EFBE7AE237E700E07EE093870708F2
:1002C000371401403CC781441304048099E8054673
:1002D00085442285A145EF3010431305800C052B82
:1002E000F5B701468144F5B7EFF29FF005650111BE
:1002F000854511053714014002C002C202C402C67E
:1003000002C802CA02CC231E0100EF4000140546B9
:1003100013050480C145EF30103FC1478D448A85E5
:10032000130504807C803EC426C2EF309031130553
:100330000480C145EF30B03C9307000261498A85D3
:10034000130504807C804AC426C2EF30902F9307A7
:1003500000047C808A859147130504803EC4EF30F9
:10036000502E930700088A85130504807C804AC4B8
:1003700026C2EF30102DB70704013EC6B7070200B2
:100380003EC8B707000203A5C18085073ECAA14742
:100390003ECC6C009D47FC86EF40C03A03A5C1806F
:1003A0008545EF40003E0561B5B5EFF27FE4AA84D4
:1003B00003A5C1808945EF40E03E7DD903A5C180FA
:1003C000A685EF40A03D03A5C1808545EF40803D57
:1003D0007DD903A5C180EF40A03C1375F50F1DBD6D
:1003E000EFF21FE1B71401400146C14513850480B7
:1003F000EF3070311545553F1305F00F7D372A84D6
:10040000054613850480C145EF30F02F228519B5CC
:10041000EFF21FDEF137058975FDEDBBEFF25FDD11
:10042000371401400146C14513050480EF30B02D5B
:100430001945A53F0546C14513050480EF30B02C92
:10044000D1BBEFF2FFDA3715014041110146C1453A
:100450001305058002C202C423060100EF30B02A52
:100460001305F00999370144A54401453D3F5C005F
:10047000A29788A30504E31A94FE1C869885371575
:100480000140A207D98F13948700A1835D8C054694
:10049000C145130505804204EF30F02641802285D6
:1004A00041018DBBEFF2DFD42A89371501402E843C
:1004B00013050580C145B2840146EF30D0240D45B7
:1004C000ED35135504011375F50FC535135584002B
:1004D0001375F50FD93D1375F40FC13D0144931702
:1004E0000401C18363EB9700371501400546C14500
:1004F00013050580EF30302131BB01457D35B30751
:10050000890088A30504E1BFEFF29FCE2E842A89DB
:10051000B2842937371501400146C14513050580CE
:10052000EF30701E09455135135504011375F50F51
:10053000AD3D135584001375F50F853D1375F40F0C
:10054000AD35014493170401C18363EC970037155F
:1005500001400546C14513050580EF30D01A4D3DD9
:1005600055B9B3078900882305048135E1BFEFF24F
:10057000BFC513F9F57FAA8A2E8493DBB500630FFC
:100580000904850B8569938509800545EF60E06165
:100590002A8A814431C17D5B93890980138CFBFFDA
:1005A000050B63916B055285EF60C0602685EF40B7
:1005B000C075B70600201317840021809387861129
:1005C000418FDAA30D6788C3130727412146814570
:1005D00013858611FAA30D3F26851DB10569130900
:1005E00009804DB763136C01CA8913960901D6853A
:1005F00041825285453D26854E86D2853D28CE9A3C
:10060000AA8479BFEFF2DFBE41112800214681455F
:1006100002C402C6413D38878D6793872741014553
:10062000631BF7002245EF40406E83A78195338519
:10063000A740133515004101F1BE9DC515C62D67B4
:100640001345F5FF2E96130787A09C21935685002E
:100650008505A98F93F7F70F8A07BA978843358DD9
:10066000E395C5FE1345F5FF8280A3000500230036
:1006700005001306250001471548FD5693050003A4
:10068000B307070318A205071506AA97B4B3D4A3A6
:10069000D4B3F4A3E316B7FE0545828098219547AD
:1006A000B307F702AE97D423B033A206D18ED0336E
:1006B0004206558EF423E206D18E7D566398C6021B
:1006C00093568500A8B3D4A3935605016181E8A38E
:1006D000D4B3038527009307170093F7F70F130789
:1006E000F0026373F70081479CA182807D55828070
:1006F000143195472A86B387F602AA97D823AC33DC
:1007000022074D8FCC33C205D98DF823620733659C
:10071000B7007D576304E502B8B3D8A3D8B3F8A3F4
:10072000634E05009387160093F7F70F1307F00247
:100730006364F7001CB28280A30006008280938766
:10074000C19C982395469385C19CB306D7027D55DD
:10075000B697D423B033A206D18ED0334206558E3D
:10076000F423E206D18E7D566396C602A546038524
:100770002700B4B323820700A38207002383070066
:100780009307170093F7F70F1307F0026373F7004F
:1007900081479CA18280D30705F0D39717C053F7F8
:1007A00017D09CC1D3F7E70807A70192D3F7E7104A
:1007B000D39717C0DCC1828083A781963E95828043
:1007C000EFF21FA383C761982E848DE7EF204012BC
:1007D000138881B403467800834668000347080005
:1007E0008347180003482800A96593850569228579
:1007F000EF60C078228539BC83A7C1963E95828080
:1008000083A7C19633B5A70013451500828003A7BF
:10081000C1963A9503A7C196E36EA7FE828039710F
:1008200026CAAE8485654AC8938505802A89054510
:1008300006CE22CC32D436D63AD83EDA42DC46DE78
:10084000EF60A03639C12A840145630D0900A285F5
:10085000853FA9659385C56A2285EF60407622852C
:10086000EF60607A8565938505803410898D2686D2
:10087000229536C6EF6010192965A2851305056B10
:10088000EF6080572285EF60E032F2406244D2444C
:10089000424921618280EFF2BF95371702401C4F19
:1008A00041112313010093E747011CCFA1477C822C
:1008B00037150140C1473EC64C008D4713050580E2
:1008C0003EC4EF30005841016FF0DF947571373549
:1008D000014082FE86FC8AFA8EF892F696F49AF22D
:1008E0009EF0A2EEA6ECAAEAAEE8B2E6B6E4BAE260
:1008F000BEE042FE46FC4AFA4EF852F656F45AF270
:100900005EF062EE66EC6AEA6EE872E676E422C7B2
:1009100026C58545130505C07AE27EE0EF30707983
:100920008547631AF50683A7C1962A84850723A6FF
:10093000F19603C7119719C79385C19C1545A388E4
:100940000196A93B03A6C1969307703E3376F60243
:1009500039E283A60196014799E2228605473715B9
:100960000140A1451305058023A0E196EF30A05971
:1009700083A781969385C19C85070D4523A4F19695
:10098000313B83A781962947B3F7E70289E793852F
:10099000C19C11452133373501408545130505C0FC
:1009A000EF30B0723A44AA447670E6705671C67160
:1009B0003672A672167386737664E6645665C665EB
:1009C0003666A666166786677278E2785279C279CB
:1009D000327AA27A127B827B726CE26C526DC26DAB
:1009E000326EA26E126F826F496173002030EFF297
:1009F0003F80B71602409C4E056701111307078020
:100A0000D98F231C0100231E010002C602C8231B2C
:100A10000100231D01009CCE83D7E18137340140C2
:100A20004C08FC8483D7C181130504C0930404C01F
:100A3000FC8293072003230EF100EF305057F95743
:100A40002318F4C0930790027C86680085475C8772
:100A50003EC8EF30A0778357C4C093E71700231632
:100A6000F4C0835704C093E717002310F4C0056156
:100A70006FF04FFA9377F50011476396E704B707D5
:100A80003230137505F093870750630BF50E63E260
:100A9000A702B7073030938707506307F50EB707F3
:100AA0003130938707506305F50E296513054570AE
:100AB0008280B707333093870750E318F5FE296526
:100AC0001305456B82802147E391E7FEB70771303C
:100AD000137505F0938707506300F50C63EAA704CC
:100AE000B7075B3093870750630CF50A63E2A702F0
:100AF000B7075030938707506308F50AB70752309D
:100B000093870750E313F5FA29651305456F828033
:100B1000B7075C3093870750630CF508B707703050
:100B200093870750E313F5F829651305C57582808F
:100B3000B7B77031938707506300F50863E2A702E7
:100B4000B707723093870750630CF506B707733009
:100B500093870750E31BF5F429651305C578828058
:100B6000B7B77331938707506300F506B7B7753190
:100B700093870750E31BF5F229651305C572828040
:100B800029651305456C828029651305456E8280B1
:100B900029651305456D828029651305C576828018
:100BA00029651305C570828029651305C57182808A
:100BB00029651305C579828029651305C57482806E
:100BC00029651305C577828029651305C573828061
:100BD000A9659385C57A014599B1EFF26FE1797105
:100BE000AA848145130600020808EFF02FE7854527
:100BF0001305002002C202C402C6EF301005D9E876
:100C00000145EF30C0663724014013050440EF2052
:100C10005069B7070E003ECE0C0885471305044007
:100C20002302F10202C802CA02CC02D0EF20D06B2C
:100C3000854513050440EF2090708145130504405D
:100C4000EF30A00613050440EF2070701309044034
:100C50004A85EF2070706DFD130504403724014074
:100C6000EF201070130904404A85EF2010706DFDCD
:100C700013050440EF30E004239AA1948545130541
:100C80000440EF30800281E40545EF20107C45618F
:100C90006FF04FD885454145EF30207B0145EF305F
:100CA000005D930700024C00371501407C8202C6AC
:100CB000EF30201989BFEFF2AFD337240140AA8566
:100CC0008D46054613050440EF20306C854513051D
:100CD0000440EF20106A9304044089452685EF20E4
:100CE000D07865DD13050440EF20B0756FF08FD22A
:100CF000EFF26FCE2E8AC13703C91195AA841384EF
:100D0000C19B631A0902A1470AA02AA04AA06AA0AF
:100D10000AA42AA44AA46AA4A388F194130704018C
:100D2000814716200904B697E31DE4FE8D83231046
:100D3000FA0005452DA039469385C19B1385E19B9B
:100D4000EFF06FCF9D4706A063E527010509A38853
:100D5000219503C71195A1470145E301F7FC6FF009
:100D6000CFCA03974195AA872A9701456340070296
:100D700091CF05669306F6FF36856359C7003E8519
:100D80006386D700131507014181828082808967BD
:100D9000138787506302E502138707646306E50241
:100DA00093870740631AF502370702002D6523A4D5
:100DB000E1941305858E8280370704002D6523A4F6
:100DC000E1941305C58F8280370708002D6523A4A1
:100DD000E1941305059182802D651305459282806B
:100DE000EFF26FBF55711306C0038145C80082C082
:100DF000EFF0CFC61306C0048145480102C1EFF0F1
:100E0000EFC583C7219584006389071403A68181F8
:100E100063480600AD659385C5942685EF6000168E
:100E200083C701956381070E83C7F194130780057B
:100E30006380E716130700066380E716296613062A
:100E40004670AD65938585960801EF60201383C7D2
:100E5000E194D5CB1384C1B318301C20283022076D
:100E60005D8F3C2062052C10C207D98F5D8DEFF09D
:100E70009F9258305C20683022075D8F7C2062058D
:100E80000C18C207D98F5D8DEFF0FF900801EF605D
:100E90008017D257B256096913090971B3D72703CE
:100EA0004257225613080108AD65938585974295F0
:100EB000B3D62603EF60800C03C7F19493070006B6
:100EC000631DF70218341C24283422075D8F3C244C
:100ED00062052C18C207D98F5D8DEFF0DF8B0801FA
:100EE000EF606012F2566256AD65B3D626031C0160
:100EF000938545993E95EF606008AD659385059AA9
:100F00000801EF60C00B03A4018303A541969D3641
:100F100003A78184B7470F00938707243357F7024D
:100F2000AA8603D5C1942DCD3ACE36CC8D35E24676
:100F30007247AA8703C6619525CA2D681308C8930E
:100F4000AD6526C09308010822869385459A05451C
:100F5000EFF0FF8C69616FF04FAB87A741815307BA
:100F600000F0D307F7A0E38D07EA538507E02C18BC
:100F7000EFF07F82F256896793870771B3D6F60246
:100F80006256AD65938585952685EF50307F49BDC6
:100F90002D661306C69275B52D661306469355B594
:100FA000AD679387870379B72D681308880349BF16
:100FB0004DC6EFF26FA1368AD9CEAE8AC9CDAA84CA
:100FC000931526000545B289EF50303E2A8441C56D
:100FD000EF6060032D6B268693058B9F2295EF5063
:100FE000F0790149AD6B2285EF60E001B3872A01FA
:100FF000902393850BA022950509EF5030786385E7
:101000002903B3674903E5F383A5C1822285D294FE
:10101000EF50F07A2285EF50107F268693058B9F44
:101020002295EF50B075C1B72285EF50D07D229543
:101030000307F5FFA9476307F70083A5C18222854F
:10104000EF50F0772965A2851305056BEF50D05A54
:101050002285EF5030366FF0AF9A8280EFF2AF9773
:101060000111AA842E842545854502C202C402C608
:1010700002C802CA02CC02CEEF30203D85450945A8
:10108000EF201069854537052000EF30E03D371926
:10109000014093070010714A8D494C00130509C0A7
:1010A0007C8252C64EC4EF20D059930700204C00DA
:1010B000130509C07C8252C64EC4EF209058E084CC
:1010C00003A54183B707FFBF3ECA93070040FC85D5
:1010D0000C089167FC8626C8EF20707203A5418337
:1010E0008545EF30C00103A541838545EF30E0051C
:1010F00005616FF08F91EFF20F8EAA842E8B328AEA
:10110000B68903A54183B7050200EF30A0082A89FC
:101110006DF903A541838545B70A0300EF20B07F31
:10112000850A03A54183D685EF3060057DD903A5E7
:101130004183860493F4F40F0146A685B70A07009D
:10114000EF300003938A2A0803A54183D685EF3048
:1011500000037DD903A54183DA85B70A0700EF3084
:101160006000938A4A0803A54183D685EF302001A9
:101170007DD903A541838545B70A0300EF20B079E7
:10118000850A03A54183D685EF20707F7DD903A50D
:101190004183A6850546B7040300EF20707D8904CE
:1011A00003A54183A685EF20907D7DD9B70400106B
:1011B0009384040493170901C18763C9370103A508
:1011C00041838545EF20D0766FF02F8403A54183BE
:1011D000A685EF20307C7DD903A54183EF20D07810
:1011E000B3072A0188A30509F1B7EFE2DFFEAA845D
:1011F0002E8A3289B68903A54183B7050200EF2004
:10120000707975F903A541838545B70A0300EF207E
:101210009070850A03A54183D685EF2050767DD94D
:1012200003A54183860493F5E40F0146B704070044
:10123000EF2010749384240803A54183A685EF2032
:1012400010747DD903A54183D285B7040700EF2030
:1012500070719384440803A54183A685EF20307202
:101260007DD9370A0010B70A0700FD54130A0A088F
:10127000938A4A088504C204C18403A5418363C7D5
:1012800034018545EF20D06A6FE03FF8D285EF202A
:1012900070706DD18345090003A54183130B1900BC
:1012A000EF20506C03A54183D685EF20506D7DD98A
:1012B0005A89C9B7EFE2DFF34111930760FBDC877E
:1012C0000DC52A8485461306F1009305000E13050B
:1012D0006007213F13056007854622869305000DB0
:1012E000193D054541016FE0FFF20145E5BF63503F
:1012F000C002AA87054591CDEFE29FEFB2861305A4
:1013000060072E86BE85C53B01456FE0BFF00545F1
:1013100082808280EFE2DFEDB7F740F241119387E0
:1013200057523EC485475C8603C7F1949307000675
:101330002A8495466303F7008D4630009305400FDD
:10134000130560075D358D4630009305300F13059A
:10135000600755332C000D4613051400EFE05FECD9
:1013600041016FE03FEBEFE21FE7AA89E1461386F8
:1013700001B09305800813056007B53B938701B35F
:1013800023A0070023A2070023A4070083A701B01E
:10139000938401B023ACF1B0DC40138481B15CC014
:1013A0009C441CC4DC445CC49C481CC8DC485CC82D
:1013B000930700066398F9048546138601B09305E8
:1013C000100A13056007053B9C209D46138601B05B
:1013D0009305100E130560071CAC313B83D701B099
:1013E000D8203EACBC209376F70011835CACBC30B7
:1013F0009207D58F7EACDC309207D98F1EB0FC20CF
:101400002301F40201456FE05FE0EFE27FDB7971D9
:101410002A8432853AD0938481B136CE2ECCEF50D7
:101420000047AA8C8A20AE8BEF50404D03A601875F
:1014300083A64187AA8A2E8A6685DE85EF40E076FC
:1014400003A6818783A6C187AA892E895685D2855E
:10145000EF40A0752A86AE864E85CA85EF4090493A
:1014600003A6018883A64188AA892E896685DE8520
:10147000EF40A07303A6818883A6C188AA8CAE8B97
:101480005685D285EF4060722A86AE866685DE85F7
:10149000EF405046AA8A039524002E8AEF50203F41
:1014A0002A86AE865685D285EF402070AA8A03959B
:1014B00044002E8AEF50A03DAA8CAE8B4E86CA8681
:1014C0004E85CA85EF40606E2A86AE866685DE85CB
:1014D000EF40A06D2A86AE865685D285EF30300566
:1014E00003A6018983A64189AA892E89EF30B072AB
:1014F0002AD42ED64E85CA85EF500033EF502039BE
:1015000003A681892AD283A6C1892E8BEF40E06988
:1015100003A6018A83A6418AEF40D03D8397040148
:10152000AA890395A4003EC68397E4002E893EC88D
:101530008397C4003ECAEF5080354E86CA86EF407E
:10154000C0664E86CA86EF40406603A6818A83A69F
:10155000C18AEF408065AA8B039584002E8AEF50E4
:1015600000334E86CA86EF4040642A86AE865E858A
:10157000D285EF30C07B03A6818A83A6C18AEF4063
:10158000C06203A6018B83A6418BEF40006203A6D5
:10159000818B83A6C18BEF308079AA8CEA202E8CB8
:1015A000EF50C0356686E286EF40206001468146F6
:1015B000AA8C2E8CEF400041630B052C4E86CA8608
:1015C0004E85CA85EF40605EAA8D32452E8DEF5064
:1015D000002C2A86AE866E85EA85EF40005D03A664
:1015E000018B83A6418BEF40405C2A8D4245AE8D36
:1015F000EF50E0294E86CA86EF40205B2A86AE86F1
:10160000EF30E0726A86EE86EF30607203A6018CDE
:1016100083A6418CEF406059AA8D72452E8DEF5004
:1016200000272A86AE8603A5818C83A5C18CEF4056
:10163000702CAA8952452E89EF50602503A6018D92
:1016400083A6418DEF4060566E86EA86EF30206EAD
:1016500003A6818D83A6C18DEF4020552A86AE86D4
:101660004E85CA85EF40102903A6018E83A6418EC0
:10167000EF40A0536686E286EF30F059AA890395C1
:1016800064012E89EF50A0204E86CA86EF40E051BB
:101690004E86CA86EF40605103A6818E83A6C18E16
:1016A000EF40A050AA8C039544012E8CEF50201ED1
:1016B0004E86CA86EF40604F03A6018B83A6418BFE
:1016C000EF40A04E2A86AE866685E285EF30206622
:1016D0002A8C03952401AE8BEF50601B2A86AE86C0
:1016E0006285DE85EF30A06403A6018F83A6418F5B
:1016F000EF40A04B4E86CA86EF306063AA8703A6F0
:10170000818683A6C1863E85EF30F05003A6818F87
:1017100083A6C18FEF4060496247930700062A897C
:10172000AE896319F71603A6019083A6419012555E
:10173000DA85EF40301C2A8C0255AE8BEF50201515
:101740002A8D039504022E8BEF50601403A60188A6
:1017500083A64188EF4060456286DE86EF40E04424
:101760002AC60395E401AE8DEF50601203A6819066
:1017700083A6C190EF406043B2472A86AE863E857D
:10178000EE85EF30C05A2A86AE866A85DA85EF404C
:1017900070162A8D0385C4012E8BEF50400F03A6CF
:1017A000019183A64191EF4040406286DE86EF4082
:1017B000C03F03A6818B83A6C18BEF3040572AC65A
:1017C00003852402AE8DEF50800C03A6019183A601
:1017D0004191EF40803D6286DE86EF40003DB2479A
:1017E0002A86AE863E85EE85EF40203C03A6818B9F
:1017F00083A6C18BEF30A0532A8C0395A401AE8B36
:10180000EF50E00803A6819183A6C191EF40E03933
:101810002A86AE866285DE85EF4020392A86AE862E
:101820006A85DA85EF406038AA8B038584012E8BA8
:10183000EF50E005DA865E86EF40203703A6818A06
:1018400083A6C18AEF4060362A86AE8603A5818BC7
:1018500083A5C18BEF40100ADA865E86EF40E03444
:1018600003AB818683AAC1862A8A5A86D686AE842D
:10187000EF40001C6341A008014681465285A685C1
:10188000EF40E026635C0500014A814401A88147DE
:101890008145B5B503AA018683A44186B255225578
:1018A000EF50A012135785009357850118B01357B6
:1018B000050108A038A03CB0CE854A85EF50E01065
:1018C000135785009357850158B01357050148A059
:1018D00078A07CB05285A685EF50200F1357850065
:1018E00018B4935785011357050108A438A43CB4D4
:1018F00045616FE0BF905A8AD6844DB7EFE25F8FA3
:101900002A84371501408565130505C0EF20605F07
:1019100003A501848945EF20F0687DD903A50184E2
:10192000A285EF20B0670545EF3060103715014004
:101930008565130505C0EF20805C6FE0BF8DEFE289
:101940009F892A89AE840144634494006FE0FF8B31
:1019500003A501848945EF20F0647DD9B307890090
:101960008C2303A501840504EF205063F1BFEFE24F
:101970003F882A84218159371375F40F41376FE06E
:101980007F89EFE2FF86B71401402A849305004067
:10199000138504C0EF20E05622858D379305004063
:1019A000138504C0EF20A0556FE0DF86EFE2BF8211
:1019B000AA891305A0023684AE843289D9374E85B0
:1019C0007D374A856D371305B002653F268545375B
:1019D0002285713F1305C0026D376FE01F83EFE270
:1019E0003F8101118545214502C002C202C402C6E1
:1019F00002C802CA02CC231E0100EF201025854533
:101A00001165EF207026096937140140930709C05A
:101A10008D447C808A85C147130504C03EC426C21C
:101A2000EF2020428A8523102101130504C061495B
:101A30004AC426C2EF20E04091677C808A859147A6
:101A4000130504C03EC4EF20C03FE1778A8513052B
:101A500004C07C804AC426C2EF20A03EB7C7040160
:101A60003EC6B707020003A501843EC8B7070002BF
:101A700085073ECA6C009D47FC8602CCEF20904C47
:101A800003A501848545EF20D04F014505616FE036
:101A90006FF8EFE26FF3B28A368A7D16FD16C20642
:101AA0004206C18241823A8BAA8B2E84EFF01FF04E
:101AB000371501408565130505C0EF208044935913
:101AC0008B00636A4405371501408565130505C021
:101AD000EF20E0426FE0CFF203A501848945EF20BB
:101AE000704C7DD903A50184CE85EF20304B03A532
:101AF00001848945EF20104B7DD903A5018485041D
:101B0000DA85C204EF209049C180E3E754FD050463
:101B1000420441807DB7DE84CDBFEFE26FED1971E5
:101B2000AA841306C0072E8448008145EFE00FF316
:101B30001306F007930500020A85EFE02FF22685D1
:101B4000EF50604C1319850113598941635989027B
:101B500033042441058462046184A6853305810031
:101B60004A86EFE0EFEB060493070408338427006E
:101B70004A948A852685A30004F8EF50A04726855D
:101B800009616FE02FE9EFE20FE5328493D9860017
:101B900093F9F90F011401113E8913FAF60F938797
:101BA000F9FF3304340336C4B386F5009307FAFF14
:101BB0003306F500C2064206C1824182C2843AC69B
:101BC000EFF0DFDE9317890013598900B3E727018F
:101BD000FC843715014093978400A180C58F8565EB
:101BE000130505C0FC860604EF20A0310149A16A57
:101BF000636C3901371501408565130505C0EF2079
:101C0000003005616FE06FE0B2478144A29703DBCB
:101C1000070063E5440105090904D9BFB3179B0018
:101C2000B3F75701680891C328088945EFF03FD101
:101C30008504C5B7EFE24FD9411136C43AC61DC27B
:101C4000034A810083499100AA842E84BE8A428B74
:101C500013091600930BF00E294C930C0002030697
:101C6000F9FF01E641016FE0AFD9B387440163DCBE
:101C7000FB004E9442044180B3073401E3C4FBFEF1
:101C80008144630396036303860323044101A30491
:101C90003101A24632472685D2945A88D687A2853A
:101CA000C204EFF05FEEC180050955BF4E944204B7
:101CB00041808144D5BFEFE20FD283A741941399AD
:101CC00016004209AA84AE8A328AB68913590901DC
:101CD000B9CB9386FAFF1306FAFF2696CE96C20674
:101CE0004206B70700202685C1824182D68503AB14
:101CF0000712EFF0BFCB371501408565130505C00E
:101D0000EF20202081446399440337150140856505
:101D1000130505C0EF20A01E03A54194EF40906974
:101D200023A2019401A8CA850545EF40106823A2AB
:101D3000A19445F16FE06FCD03A541944A86DA8501
:101D4000EFE04FF6814A93970A01C18313971A0077
:101D500063E737018504C2044A9BC1806DB703A5C0
:101D600041948945850A3A95EFF07FBDE9BFEFE2DE
:101D70002FC84111EFF0BFC62945EFE05FA9371426
:101D80000140856593850580130504C0EF20201769
:101D90002945EFE0DFA793050020130504C0EF20DD
:101DA00000162945EFE0BFA64545EFF09FBD13059E
:101DB0008007EFE0DFA513056003EFF09FBC13057C
:101DC0000007EFF0BFB31305A003EFF09FBB15456D
:101DD000EFF0DFB21305200BEFF0BFBAB7170033F7
:101DE0009387C7C095453EC00A85930730035C8240
:101DF000EFF0FFB41305700BEFF0BFB813055003FD
:101E0000EFF0DFAF1305B00BEFF0BFB71305200302
:101E1000EFF0DFAE1305200CEFF0BFB60545EFF095
:101E2000FFAD1305300CEFF0DFB55545EFF01FADFA
:101E30001305400CEFF0FFB413050002EFF01FACE8
:101E40001305600CEFF0FFB33D45EFF03FAB13051A
:101E5000000DEFF01FB31305400AEFF03FAA130582
:101E6000100AEFF0BFA91305000EEFF09FB1AD65AA
:101E700039469385C5E10A85EFE08FBAB9450A85F1
:101E8000EFF0FFAB1305100EEFF0BFAFAD653946B5
:101E90009385C5E20A85EFE0AFB8B9450A85EFF052
:101EA0001FAA13051002EFF0DFAD37040020130561
:101EB000900213040400C164EFF0BFAC13090401E5
:101EC000FD141A2001459306000F1306000F8145EB
:101ED000EFF03FBC1E201305D00763939700054524
:101EE0000904EFE0DF92E31E24FD014541016FE0AC
:101EF0006FB2130580026FF0DFA8EFE26FAC59718B
:101F0000EF10907323A2A1960945EF20C02BEF108C
:101F1000701FEF20702FEFE09FADEFE0DF9713858C
:101F2000C19CEFE08FF42388A1967165130505200D
:101F3000EF20D04771468145C80882C8EFE00FB254
:101F4000EFF0FFE27D47FD461306000F8145014596
:101F5000EFF03FB44167130707809306000F1306A5
:101F6000000F9305F00C0145EFF0BFB2EF00D02752
:101F70002383A198854705453A842389F194EFE0AE
:101F8000DFC583C7219581E741472388E180094563
:101F9000EFE09F862AC437250600930560071305E6
:101FA00005A8EFF0AF8B1385F19402DC02DEEFF0B1
:101FB0006FB02388A1941DC103C7F1946545238E9A
:101FC000E196EFE07F8303C7F194930700062A8927
:101FD000194B630DF71699473EC629A099477D5BBB
:101FE0003EC601492D651305C5E3EF401076EFE0CD
:101FF000AFAFEFE00FC52396A19489671387875091
:10200000630AE500138707646306E50093870740CA
:102010006315F500A14723A0F1949385C19C354534
:10202000EFE0CFE7B565938505CC4145EFE02FD4D0
:1020300083A5019423ACA194A1C51146880082C058
:10204000EFE04FC603A74182864763FBE70083A703
:10205000418283A5019411468800BEC0EFE0CFCA3B
:1020600086477D57638EE70023A2F18203A5418254
:1020700083A701823E95EF2020522945EFE02FF9FA
:10208000EF10E064AA896309050C0565130585381E
:10209000EFE08FF6930710022A8463EB370BB70744
:1020A00000201397290093870701BA979043AD65E5
:1020B000CE86938505E40545EFE06FF6A2890145DC
:1020C000EFE01FD285473ED2AD67938747F702CC3A
:1020D00002CA02CE814C02C80144FD5DC1443ED417
:1020E00083C701973ED0C5E3238C0196EF20A0441F
:1020F00083A7018283A50194B307F54023A2F1824F
:1021000091C9138541821146EFE00FC01305A00F5E
:10211000EFE0EFEF85476398FC74B707EFBE37E752
:1021200000E0938707083CC737150140A145130518
:1021300005800146EF10305DAD65938585F5054559
:10214000EFE0EFED0545EF20F011EDBFA14769B5D8
:10215000296613064670A1BFAD659385C5E50545A3
:10216000EFE0EFEBEF102062938781B5F847B047BF
:10217000AD6532075182598E05829385C5E60545C6
:10218000EFE0EFE92DBFE3910CF6630E09004A85FD
:10219000EFE00FE711C9FD576307FB009385C19C72
:1021A0005A85EFE0AFCF0149638C09084E85EFE017
:1021B0002FE515CDEF10A0512AD629CD05651305C1
:1021C0008538EFE06FE3B25693071002AA8963EFF8
:1021D000D702B70700201397260093870701BA9705
:1021E0009043AD65938505E40545EFE04FE3138526
:1021F000C19CEFE0EFCF23A4A1827D15B54763E436
:10220000A70CA2570A053E951C4182872966130632
:102210004670C1BFAD659385C5E50545EFE02FE08C
:10222000EF106056938781B5F847B047AD65320728
:102230005182598E05829385C5E60545EFE02FDE74
:10224000814975B7AD65938505E8138501ACEF400D
:10225000B05C6317051EAD65938585E8138501ACF9
:10226000EF40905B6310051EAD65938505E913850E
:1022700001ACEF40705A1DC51905EF40B01203A71D
:102280004182637BA70223A2A18203A5418283A787
:1022900001823E95EF2040309385C19C3945EFE0A7
:1022A000EFBF19A8AD65938585E9138501ACEF40B3
:1022B000B05639C1EFE0DF912965938501AC130574
:1022C000056BEF40703303A5419709C9EFE04FD389
:1022D00011C523AA01960547238CE196A24781CB1D
:1022E0003E85EFE0EFD109C50547A388E19602C41A
:1022F0000545EFE0CFD1EDB3AD65938505EA1385D4
:1023000001ACEF40705129C5930B55005E85EF403D
:10231000700983A78194AA84E370F5FA9305A0035A
:102320005E85EF40904B1304001019CD0505EF407A
:1023300070072A848567420541819387078063F38C
:10234000A7003E84420441809385C19C294581BFFA
:10235000AD65938585EA138501ACEF40F04B3DC533
:10236000930B65005E85EF40F00383A78194AA84F8
:10237000E374F5F49305A0035E85EF401046FD5D20
:1023800031C1130415002285EF40D001931D0501D2
:102390009305A0032285EF40504493DD0D411304C3
:1023A00000100DC10505EF40E07F2A8485674205D6
:1023B00041819387078063F5A700056413040480B7
:1023C000420441809385C19C2D45D1BDAD65938567
:1023D00005EB138501ACEF40304409C59385C19CE2
:1023E000354575BDAD65938545EB138501ACEF4073
:1023F000B042E30305EC9305D003138501ACEF4035
:10240000D03D1DC9930B15005E85EF40A07983A7D1
:102410008194AA846372F5029305A0035E85EF4060
:10242000D03B1304001009C90505EF40A07782577F
:102430001314050141803EC89385C19C314585B583
:10244000894C9DBD854C8DBD83A50194E38D05E62A
:10245000114613854182EFE02F8B9385C19C114576
:10246000EFE0CFA38DB583A7019882C082C282C45A
:1024700082C689CB03A6C195AD65938585EB88009F
:10248000EF40D02FC2479DC3A2852685EFE02F8E57
:102490009386F4FFAD652A879C00A29626869385D5
:1024A00045EC0545EFE0AFB702C831BDB565938592
:1024B00005CC2685EFE0AF8BAD652A8623ACA194D1
:1024C0009400938585EE0545EFE06FB5F1BFEFE031
:1024D0006F930DC541679306000D1306000F93051A
:1024E000000201457D17EFF0CFDA930600091306CD
:1024F000600B930560027545EFF0EFFB9257E384A4
:1025000007DC03A54196930A000DEFE0AFD6AA853C
:102510008808EF40302E83A7C1839305000F8808F9
:1025200098339C23B38AEA40B3C5F502C20A93DA12
:102530000A01EFF08FDE03A7C18341682A861443A6
:1025400058437D189307F01CD6852145EFF08FEE98
:1025500002D295BBEF10307E8C08EFE06FA683A708
:10256000C1839305000F88089C23B3C5F502EFF0E3
:10257000CFDA03A7C183C1672A86144358437D4835
:10258000FD1791451145EFF0EFEA35BB83C7619820
:1025900091E7B92E0145EFE0BF8435B30145EFE087
:1025A000AFA1D5BFA2850545EF402060AA8AE30C04
:1025B00005D0AD652686938545F00145A286EFE0FE
:1025C0000FA62286A6855685EFD0DFED9306000282
:1025D0002286D6852685EFE0BF9DF5B1A28505450B
:1025E000EF40A05CAA8AE30005CEAD656E87A286A7
:1025F00026869385C5F10145EFE06FA2FD576393F1
:10260000FD02814729A03387FA001CA38507139791
:1026100007014183E36987FE2286A6855685EFD0B0
:10262000BFEE6DB7228693F5FD0F5685EFD01FC321
:10263000E5B7FD5723A4F18279B103C50181930564
:102640006103EFE0EFEA05CD03156103EFE06FF101
:102650008567938747CE231BA1023305F502318599
:1026600023ACA18083C7219589E7EF10C06023AA1E
:10267000A1801305B004EFE02F982AC4A9B1054743
:10268000A388E19689B11385C197EFE0BFC8130510
:102690002003EFE06F962A891D4B35B19387C197D0
:1026A000983332462C183D8B1305700F98B302DC1B
:1026B00002DEEFE0DFC3E31805C003C5F194EFE0ED
:1026C0009FCAE31205C013052003EFE0EF922A89A9
:1026D000214BD5BE83468103834791030346B10353
:1026E000B2069207DD8E8347A103320683C5F194BB
:1026F0009183DD8E8347C103014792075D8E834737
:10270000D10391835D8E93070006639AF50083578A
:10271000E10313978700A1835D8F420741831385EF
:10272000C1B3EFE09FCE13054006EFE0EF8C1386B8
:10273000C1B3054714322387E1941C223822A20634
:10274000DD8E3C324207558FE207B3EBE700D387BB
:102750000BF072672A899387C1B353A7E7A039C3E7
:10276000D833D423D2672207558FF423C206D98EDB
:10277000F8336207558F530707F053A7E7A01DC32F
:1027800098379427E2672207558FB427194BC20662
:10279000D98EB8376207558F530707F053A7E7A0C4
:1027A000E31307B2D433D82303CB7700A206D98E24
:1027B000F823620B83CAB7004207558F9437336BF7
:1027C000EB009827A206E20AD98EB8275E855ACA7E
:1027D0004207558FB3EAEA0056CCEF20204C2ACEB0
:1027E0005A85EF20A04B7246AD65AA869385C5F346
:1027F0008808EF40A07803C7F1949307000663129E
:10280000F7028808EF4030002A8B5685EF200049F8
:10281000AD659C082A869385C5F433856701EF4032
:10282000E07583A781839305000F930AC00E983348
:102830009C238808B38AEA40B3C5F502C20A93DA3A
:102840000A01EFF08FAD03A78183C1672A86144385
:10285000584313880780D685FD172145EFF08FBDBB
:10286000194B5ECE8DB48947E390FC8CEFF06FE896
:10287000EF10F01C6FF05F8B13773500AA8711EF14
:10288000130740063377E502054509EB13070019E6
:10289000B3F7E70213B51700828001458280130762
:1028A0004006B377E5023355E5024D471375F50F42
:1028B0006374A7009387470613D527003E951D47ED
:1028C0003375E5022D67130787FB2E970347F7FF44
:1028D0008D8B3A9632954205418199E7894763E5A8
:1028E000B7007D15420541819D473375F502828011
:1028F000EFD29F8D5564EF10104413040418335425
:10290000850203D74198AA8463068704239281989D
:102910009309207B1309C016130AD0166360890837
:10292000938781B4AD6A23923701138981B48149B9
:102930006D4B938ACAFA854B714C138A1900636FE9
:102940008B06137AFA0F0504230349011374F40F5D
:10295000A3038900D56793870718B3F4F40285674A
:10296000938707E1138481B433D7F402B3F4F402FC
:102970001377F70F18A01307C003B3D7E402B3F41B
:10298000E40293F7F70F1CB024A04A206C207030AB
:10299000EFF0FFF008A401456FD09F864E85EFF061
:1029A000BFED11C9E30E44F7130424E98509C209F8
:1029B00093D90901A5B7130434E9CDBF03554900E4
:1029C000EFF09FEB19C9639A7901E30C84F70D14BA
:1029D00093190A0193D909018DB7D69983C70900C4
:1029E000E361F4F61D8CEDB7EFD29F804111854570
:1029F00037050018EF1050270545EF10F002054588
:102A0000EF10D044EF1080400545EF1070070144EF
:102A10009304A00F13051004EF10D02A11ED6316D4
:102A20009400228541016FD0EFFE050451451374D7
:102A3000F40FEFD0DFDDF9BF9307A00FE303F4FE3F
:102A400013050010EF1050060545EF10B006EF100B
:102A50009039EF10703A85450545EF109029EF1039
:102A60009038EF10B02A21657D15EF105035EF102A
:102A7000903703A5418283A7018201443E95EF1060
:102A8000B031EF10D029A9659385151A1145EF10C3
:102A9000E038CD473EC4280085473EC6EF1000739E
:102AA000EFF01FE5BDBF1971054582FE86FC8AFA6D
:102AB0008EF892F696F49AF29EF0A2EEA6ECAAEAAE
:102AC000AEE8B2E6B6E4BAE2BEE042FE46FC4AFA3E
:102AD0004EF852F656F45AF25EF062EE66EC6AEA8E
:102AE0006EE872E676E47AE27EE0EF10303419C1E7
:102AF000EFF01FE01545EF107035EF10D02E767017
:102B0000E6705671C6713672A67216738673766455
:102B1000E6645665C6653666A66616678667727889
:102B2000E2785279C279327AA27A127B827B726C15
:102B3000E26C526DC26D326EA26E126F826F0961CD
:102B400073002030378701405C4393F707F05D8DB9
:102B500048C3828083C8419983A70199138601BC29
:102B6000231AF50483D701BC230B1505A306050022
:102B700013978700A1835D8F1C425AA1584213D836
:102B8000E7012300050113D8A7011378F80093D6B5
:102B90008701A3000501C183135807018D8A1378AB
:102BA000F80F3CB19357870134A192079356480020
:102BB000D58F7EA19357870093F6F70F13D3760036
:102BC000A304650013D36740137313002305650046
:102BD00013D3574013731300A305650013D3474065
:102BE000137313001378F80023066500230405010E
:102BF00005431046938501BC637513010D43639D26
:102C0000681E8568938808C0AA070A07B3F71701EA
:102C10001377C73FD98F1357E601D98F1357B601E2
:102C2000935686011D8B58A913F7760058B9135790
:102C300006019376F70F958274A9935627409D8AD3
:102C400074B99356860093F6F60F060793D876006C
:102C5000198B3367170118AD8548090733980801A8
:102C60001CC9B398E8008507338717032328050597
:102C7000B3A7F8029358F841B388E802B387070373
:102C8000C697B30807033337070323241505BA97FC
:102C90007CC593D76640858B1CBD9377F60F13D701
:102CA000770093F7F7073CBDDC45860693F6E60709
:102CB000D98E13D7F70158AD13D7D7010D8B58BD57
:102CC00013D7A7011D8B78AD13D7070134AD137649
:102CD000F70F93D66701158793556600058BB18A68
:102CE000CD8E2300E50213D7870074BD058A937645
:102CF000F70F2301C50213D67600A301C5021356B0
:102D00006740058A2302C50213565740058A8D8AFB
:102D1000A302C5022304D5021356474009879386B0
:102D200001BB0D8BA303E502984293F7F70F858350
:102D3000A304F502935787012306F5029357070171
:102D400003A846009355870093F7F70F93F5F50F07
:102D5000A207CD8F7EB5935588009357880193F5D0
:102D6000F50FC207CD8F6207D98FC16513570801D0
:102D7000FD1522076D8FD98F98461CD9230A0503AC
:102D80009357870103A8C600A30AF502931687008C
:102D900093570701ED8EE207D58F93568801D58FA3
:102DA0002207B706FF00758FD98F8346C5031357D7
:102DB00008019375F70F9181CD8E230ED50285669C
:102DC000938606F02207758F93568800058A93F63E
:102DD000F60F2303C5021CDD0546558F9377F80FC8
:102DE0002305C5027ABDA300050285832300F504EF
:102DF000A300C504014582808947E39CF8E8931746
:102E0000070137073F00F98F135786012207D98F33
:102E1000135706011377F70FD98F1CC9850713D7EE
:102E2000D700CE07935686003CC59307002093F643
:102E3000F60F78C53CC9B1BDEFD28FBB4164FD54DC
:102E40007D14631894001305F05FEF10300F0145F7
:102E500001A813050008EF10900D7DD10D4565F414
:102E60006FD04FBBEFD2CFB84167FD5637860140D8
:102E70007D17631DD70013F4470011EC93F7070487
:102E800099CF13050004EF10700B11A85C5A93F54D
:102E90005704F9DD6DF31145EF10500A0D442285FA
:102EA0006FD04FB7EFD2CFB4AA84378401405C58BB
:102EB00093F75704EDDF1145EF10700719C5114561
:102EC000EF10D0070D456FD0EFB40545EF10300679
:102ED00011C50545EF1090060545F5B71C4841455D
:102EE000E39397FE9307F05F1CDC4848B7E7FFFDCC
:102EF000A1077D8DC9BFEFD2AFAF938781BE9D463D
:102F0000D4C39306000488C394C7138581BE930677
:102F1000004023A6070094CBEF10407C1D45EFF046
:102F20007FF86FD02FAFEFD2AFAC378401405C5841
:102F300093F70710BDC303C7C1988547631CF70407
:102F4000938781BE3147D8C31307000498C7138500
:102F500081BE1307004023A0070023A6070098CBDB
:102F6000EF10C0773145EFF0FFF323A4A198B787A6
:102F70000140985FD176938656CC1367071098DF8F
:102F8000D85F758FD8DF0547A383E19803A58198A3
:102F90006FD04FA823A40198D9BF0945EF1020791D
:102FA00019CD0945EF1080795C5C5177130757CC38
:102FB000F98F5CDC094723A4E1980945D1BF21457D
:102FC000EF10E07619CD2145EF1040775C5C51772A
:102FD000130757CCF98F5CDC114723A4E198114506
:102FE00045BF13050002EF10807405C113050002F0
:102FF000EF10C0745C5C5177130757CCF98F5CDC21
:10300000194723A4E198194561B74145EF10207293
:1030100019CD4145EF1080725C5C5177130757CC96
:10302000F98F5CDC154723A4E198154595B7130586
:103030000020EF10C06F29DD13050020EF10007095
:103040005C5C5177130757CCF98F5CDC1D4723A4D8
:10305000E1981D4535BF6FF01FEDEFD26F993787AF
:1030600001405C5B93F75704EDDF1145EF10206CD6
:103070002A8401C91145EF10606C0D4422856FD080
:103080006F991305F05FEF10606BCDBFEFD2CF9358
:103090009387C1BF130720FB1385C1BFD8AB23A003
:1030A000070023A2070023A4070023A6070023A8E4
:1030B0000700EF10E05C0D45EF1080600545EF1054
:1030C000C05E1309A004138481BE130A0040228548
:1030D00023200400232204002324040023260400C8
:1030E00023284401EF10805FEFF01FD5AA8435CD6F
:1030F0007D191379F90FE31C09FC26856FD04F90D9
:103100006300591537070040F98FE5DB0947238A2B
:10311000E198E5B74169014AB78AFF80054B930BF7
:103120000004130C0040B78C01407D19138581BE4B
:103130002320540123226401232474012326040044
:1031400023288401EF108059EFF03FF109ED83A7A8
:103150004C01050A63C50700E31A2AFDD5A06301E7
:103160002A0F0D476DB7AA8449BF9307A01A1CC048
:10317000A1475CC0930700041CC4138581BE93075C
:1031800000401CC823260400EF104055EFF09FCDEF
:10319000014A11E50547238AE198370A0040930761
:1031A00070035CC0930700041CC4138581BE9307A1
:1031B00000401CC82320040023260400EF10005206
:1031C00013057003EFF01FCE2A8929F5B707108089
:1031D000C16A130C7003130B0004930B0040336A95
:1031E000FA00930C9002FD1A138581BE232004007F
:1031F000232284012324640123260400232874014C
:10320000EF10C04D13057003EFF0DFC929FD1385E2
:1032100081BE232044012322940123246401232618
:10322000040023287401EF10604BEFF01FE305FD4D
:10323000B7870140DC4B0509E3C407ECE31659FBF3
:10324000ED4465BDEFC2DFFA4167FD5637860140A8
:103250007D176312D702918B85E70545EF10204D4E
:103260002A8409C50545EF10604D05441305F05F3C
:10327000EF10C04C11A85C5A93F55704F1D961FFC7
:103280001145EF10A04B0D4422856FC0BFF8EFC26F
:103290009FF4AA89AE84378901408327490393F7B5
:1032A0005704E5DF1145EF10804801C91145EF10C3
:1032B000E0480D4422856FC05FF50545EF102047BB
:1032C0002A8411C50545EF1060470544E5B78327FB
:1032D0000901638437014144F1BF1305F05FEF102A
:1032E000E0458327490139677D8F01E7C1839EA0AF
:1032F000D1B709677D8F09EB11677D8F69FF216762
:10330000F98FCDDB3D447DB74D446DB7EFC25FEE25
:10331000854741117C87EF10C03BAA8713055002F7
:10332000E1CB03C7419991476303F704938781BEBB
:103330000947D8C31307000C98C7138581BE13072C
:10334000004023A0070023A6070098CBEF10003908
:10335000EFF05FEF51ED37870140544B938701BB8E
:1033600094C3144FD4C3544F94C71853D8C783C7BA
:10337000419909476376F70419476383E70483C6D5
:1033800041998D476397F6023887938781BE42073C
:1033900098C31307000498C7138581BE1307004024
:1033A000D4C323A6070098CBEF104033EFF09FE97A
:1033B00021E103C741999147631FF70201450DA819
:1033C000938781BE0D47D8C31307000498C71385A0
:1033D00081BE1307004023A0070023A6070098CB57
:1033E000EF10C02F9305E1000D45EFF05FEA41D9E2
:1033F00041016FC03FE2388723A8E198938781BEDF
:10340000420798C32547D8C31307000C98C71385F4
:1034100081BE1307004023A6070098CBEF10002CB5
:10342000EFF05FE271F537870140544B938701BCA1
:1034300094C3144FD4C3544F94C71853D8C7BDBFB7
:10344000EFC27FD9938481BE4111C147138581BEEC
:10345000214B930A0004130A00402E89DCC002C4E9
:1034600002C623A0640123A4540123A6040023A8B8
:103470004401EF10A0264145EFF0DFA22A8469E164
:1034800083A70199138581BE23A45401C2079CC060
:1034900093077003DCC023A6040023A84401EF10A7
:1034A000E02313057003EFF0FF9F2A8451E993870F
:1034B00001BD7D5798C31307000398C70947D8C7B4
:1034C000138501BD0547D8CB23A2670123A80700B8
:1034D000EF10E02293073003138581BEDCC023A0E8
:1034E000040023A4540123A6040023A84401EF10E0
:1034F000E01E13053003EFF0FF9A2A8431E189447E
:10350000B789014083A7490393F7A76295E337057D
:103510002000EF10C0217DD5EF10C0200A049307D2
:10352000040133842700232CA4FE0544639E8400F9
:103530002145EF10C01F19C92145EF10202011446B
:10354000228541016FC07FCC85446DBF0945EF10D6
:10355000001E11C50945EF10601E0944D5B71305BB
:103560000002EF10C01C19C513050002EF10001D6A
:103570001944F9B713050020EF10601B2A8419C500
:1035800013050020EF10801B1D445DBF1305F05F85
:10359000EF10C01AA247B705FF0093D68701139713
:1035A0008701558F93968700ED8E558FC166938660
:1035B00006F0A183F58FD98F2322F900B24713D6E5
:1035C000870113978701518F139687006D8EA18312
:1035D000518FF58FD98F2320F9009DB7EFC2BFBF60
:1035E000411102C402C6B7870140DC4B3707000215
:1035F000F98FC9E3AA8403D501992C00EFF05FE4A9
:103600003DE53247B707040013055002F98FA5C303
:1036100083A70199138481BEC2071CC0138581BE94
:1036200093077003130A0004930900405CC023242D
:1036300044012326040023283401EF10200A130537
:103640007003EFF03F8605E5B3349000994713858A
:1036500081BE860404C05CC02324440123260400E8
:1036600023283401EF1080071945EFF0BF83410193
:103670006FC0BFB93945E5BF83C741990D47638323
:10368000E70409476363F704EFC29FB62A848547BE
:103690001305700263E687021375F40FEFF01FF451
:1036A00005E1B7870140D843F9769386F67F758F99
:1036B000D8C3D8432E040145598CC0C3D843D8C3BE
:1036C0006FC05FB513057002828001458280EFC232
:1036D0003FB20111854513050003EF0010578545E2
:1036E00013052040EF0090548967938707F0E14469
:1036F0000D444C0837150140FC8226CE22CCEF0049
:1037000040743715014091474C0813050540FC8271
:1037100026CE22CC3D27EF00B073930710047C86A1
:10372000680085473EC823070100EF00302AEFF00C
:10373000FF9531E1EFF09FBD1DED138581B5EFF0F1
:103740006FC115E9138481B5035544054205EFF0B7
:103750008FFA15E10545EFF03FF211ED03C7E1BA2D
:103760008547194563F3E7000545EFF0AFBD2382B8
:103770000184014531A003C741998D47E300F7FE5D
:1037800005616FC03FA9EFC2BFA6938781B583C70C
:1037900067050947138481B56382E7066369F7000B
:1037A000B1EB2D65130545FCEF30207A21A00D47C4
:1037B000638AE7048345C4022D6513050502EF30D3
:1037C000A063835544052D651305C503EF30C06222
:1037D0006C443C442D65B205D183DD8D1305C504D1
:1037E000EF3080612C482D6513054506EF30C06031
:1037F0006FC05FA22D651305C5FD7DB72D6513054F
:1038000045FF5DB72D651305C50079BFB7170240A9
:103810009843B706FFF041111367170098C3D843C8
:1038200037060200758FD8C39843B706F7FEFD161A
:10383000758F98C39843B706FCFFFD16758F98C324
:10384000D843B70601FFFD16758FD8C39843B70656
:1038500000ECFD16758F98C33707FF0098C723A6A5
:10386000070202C402C69843C166558F98C3B716B3
:10387000024005679C42F18F3EC6A24785073EC4C1
:10388000B24781E7A247E397E7FEB71702409C43A0
:1038900037070200F98FADC785473EC632478547D7
:1038A000631EF704B7170240D843B706C1FFFD16E1
:1038B000D8C3D843D8C3D84313670740D8C3D84325
:1038C000758FD8C3D843C166558FD8C39843B70600
:1038D0000001558F98C3B70600029843758F75DFB6
:1038E000D843B7160240719BD8C3D843136727004B
:1038F000D8C32147DC42B18BE39EE7FE41018280C1
:1039000002C669BF371702405C43A146B18B638A88
:10391000D702B7177A009387072023A4F184B7173B
:103920000240D843B70700209387870911833D8B56
:10393000BA97982383A78184B3D7E70023A4F1849F
:1039400082805C4354434167C983BD8BF98E1387E2
:10395000270085CFBD47630CF702C147630CF70210
:10396000C547630CF7028145A9E2B747024083A728
:103970000780C18B95C7B7177A0093870720330755
:10398000F702C9E923A4E18459BF4947E9BF854546
:103990003547D9BF81453D47C1BF81454147E9B75B
:1039A000B7173D0093870790D9BF371502405C5584
:1039B000C166F58F5455A1CB9182BD8AB7177A00A5
:1039C000850693870720B3D7D7025455A182BD8AB5
:1039D00089EE9546B387D7028583B7160240D45641
:1039E000BD8A8506B3D7D70259BF05456394A600A3
:1039F000E546CDB73D456396A600D146B387F602AE
:103A0000E9BF8906E5BFBD8AB7177A0085069387A7
:103A10000720C9BF0583BDB701A097D1FF1F9381C0
:103A2000E1EF174100201301E15D17850000130548
:103A3000A5C397C5FF1F9385E55C1386C19363FA01
:103A4000C5008322050023A0550011059105E3EA76
:103A5000C5FE13850194938541C56377B500232086
:103A600005001105E36DB5FEFD42739002BCAD4249
:103A7000739042809962938282087390023097C259
:103A8000FFFF9382625893E2320073905230EFF05E
:103A9000FFD797E2FFFF9382824673901234730040
:103AA0002030EFC2EFF4B727014093870740631E31
:103AB000F500854513050020EF00F01C8145130536
:103AC0000020EF00501C6FC0EFF4B7370140938720
:103AD0000780E31AF5FE854513050040EF00B01A94
:103AE000814513050040F1BF5841B707F1E09387C6
:103AF000F7EF944D7D8F9C41D58FD44DD58FD44118
:103B0000A206D58FD98F5CC11845B7F7F1FF93870F
:103B1000D77FD4457D8F9C49D58F94458606D58F18
:103B2000D98F1CC55855B70710FFFD177D8FDC29AD
:103B3000FD1793F7F70FD207D98F5CD582801C450C
:103B400089C593E717001CC58280F99BEDBF1C4512
:103B500093E787001CC5828008450D810589828016
:103B60001C4593E747001CC58280084509810589EB
:103B700082801C4591C537075000D98F1CC58280B3
:103B80003707B0FF7D17F98FD5BFA54763F7B70497
:103B90008D47138765FF3307F7020328C5009D474C
:103BA000B397E70093C7F7FFB3F70701B396E600B3
:103BB000DD8E54C5994763E3C70495477D163306E8
:103BC000F6025859FD47B397C70093C7F7FFF98F1F
:103BD0003396C5005D8E50D982800D473387E5024C
:103BE000032805019D47B397E70093C7F7FFB3F795
:103BF0000701B396E600DD8E14C96DBFB14763E2DD
:103C0000C702954765163306F6021859FD47B39764
:103C1000C70093C7F7FFF98F3396C5005D8E10D9A3
:103C2000828095474D163306F6025855FD47B397E7
:103C3000C70093C7F7FFF98FB395C500DD8D4CD54D
:103C400082806845420541818280B7270140938781
:103C50000740984711C5B7068000558F98C78280E6
:103C6000B70680FFFD16758FD5BF1C4133F5F500F3
:103C70003335A0008280B7F7FF1F83A7077213D7E1
:103C80000701C207C1831D8DA9473305F50287A629
:103C90004192537707D05505D37705D0D3F7D7187E
:103CA000D377F708538507E082805C4191C53707D9
:103CB0000004D98F5CC18280370700FC7D17F98F23
:103CC000D5BFEFC2EFD201112A8423040100A5441D
:103CD0001C8463F9F40423040100A54621461C84D6
:103CE00063F0F608231501002304010095461C84A7
:103CF00063FBF60E38853C8599460D46B3F7D7022F
:103D0000056513050580B3D7C7023357D702BA97A5
:103D1000C207C1837C853C8505611D8D42054185B7
:103D20006FC04FCF1C4493E787001CC42285EFF07F
:103D3000BFE26DFD1C4493E747001CC42285EFF0F1
:103D4000DFE26DFD78441C848607938707028A971B
:103D50002396E7FE1C84850793F7F70F5C848DBFDD
:103D6000A30401009C846378F6001C84850793F704
:103D7000F70F5C84ADB798849C8406078507860797
:103D800013070702938707020A978A970357C7FE0C
:103D900083D7C7FE63F3E7049C84860793870702F3
:103DA0008A9783D7C7FE7C859C849884850786077D
:103DB000938707028A9783D5C7FE931717009387C7
:103DC00007028A972396B7FE9C8438858507860765
:103DD000938707028A972396E7FE9C84850793F7CB
:103DE000F70FDC8441B71C843885890786079387E1
:103DF00007028A9783D7C7FEBA97C207C1837C851B
:103E00001C84850793F7F70F5C84D5B5EFC24FBECE
:103E10000545492D014579256FC0CFBF4111B777C1
:103E2000004002C6938707C03EC6B2473E952AC6E9
:103E3000B2478CC341018280B7F7FF1F03A54770CB
:103E400082809C4513F7070113F8F70001C7D8419A
:103E50003368E8008E2113F7F50F31C3184181460E
:103E6000054E930E80023D4F930F8004214333167D
:103E7000DE00B3F8C50063101603639AD70750C974
:103E800013962600B318CF0093C8F8FF33F7E80065
:103E90003316C800518F8506E39B66FC18C11307D3
:103EA000F00F6375B70454410146054E930E80022E
:103EB000130F80042143130786003317EE00B3F875
:103EC000E500631117036398D70358C993182600B8
:103ED0003D47331717011347F7FFF98EB318180141
:103EE000B3E6D8000506E31866FC54C18280E39966
:103EF000F7F910C971B7E39BE7FD18C9C1BF0CC939
:103F000082804CC9828019C20CC982804CC98280CF
:103F1000B7083000935605011317050133731501D7
:103F2000BD8A418363530502B7070140DC4F631527
:103F30001305C1060D46B316D60093C6F6FFF58FDE
:103F4000C5E9370701405CCF82803708014003266E
:103F5000480063121307B70600F1FD16B377D600C9
:103F600003264800F18E2322D800BDCD55811205CD
:103F70003315A700C98F8DA837061000698E05C2BA
:103F80000D46B316D60093C6F6FFF58FDDD95581E1
:103F90001375F53F12053315A700C98F5DB755811D
:103FA0001375F53F12053317A7009346F7FFF58FFA
:103FB000C9D9D98F79B7B7071000E98F99CB8D4749
:103FC000B397D70093C7F7FFF18FB706000FD58FD0
:103FD00069BF558112053315A7009347F5FFF18F8F
:103FE0003707000FD98FD9F5370701405CC38280AE
:103FF00055811375F53F12053317A7005DBFEFC25A
:104000002F9F462101112A8468002E89C204D924D9
:10401000C180D24793F404FCB7869303C20493860D
:10402000F66FC1801307C00363EAF60037470F003D
:104030001307072433D7E70242074183D98C46A0F0
:10404000162061661306066AC206C182F99AC20684
:10405000C18216A083260900636CD6048606B3D6F7
:10406000D7021146B687C206C18263F3C6009147E4
:10407000C207C1830507420741831AB05EAC1E2008
:10408000035749008356A90093E717001EA01E207E
:10409000558FC207C18393F757BFD98F1EA003570F
:1040A00089008357C900D98F1EA405616FC08F9600
:1040B0008355690031667D166399C5020D46B38646
:1040C000C602B3D7D702C207C1839396470199E2CC
:1040D00093E71700A166D58F9306C0123307D70266
:1040E0009306803E3347D70271B76546B386C60252
:1040F000B3D7D7029166C207C183D58FF9B71E2106
:1041000089C593E717001EA18280C207C183F99B6E
:10411000C207C183CDBF1E2189C593E707101EA129
:104120008280C207C18393F7F7EFC207C183C5BF7F
:104130001E2189C593E707201EA18280C207C18383
:1041400093F7F7DFC207C183C5BF1E2189C593E777
:1041500007401EA18280C207C18393F7F7BFC20741
:10416000C183C5BF0EA982800A291375F50F82800D
:1041700093F7E50F19C293E715001EA982805E2907
:104180000A2D42055D8D6D8D220521810D8D133522
:1041900015008280411102C402C693D7C5012AC608
:1041A0003EC4A247A205A18199CBB247D1073EC622
:1041B000B247884341016D8D3335A0008280B247FC
:1041C000C181E107EDB723ACA198828003A7819953
:1041D000894714216311F70218318D4763EDE70019
:1041E0003C211A079607D98F37E700E093F7F70FBE
:1041F00036972300F740054793D756003317D7006B
:10420000544189CA938707048A07B7E600E0B69746
:1042100098C3828093870706B7E600E08A07B697BF
:1042200098C30F1000008280377700401C4309C5F7
:1042300093E707101CC3828093F7F7EFE5BFB777CA
:10424000004098431367470098C3984313672700BB
:1042500098C3B7F700E0938707D0984B13674700E0
:1042600098CB984B5D9B98CB730050108280B7160B
:104270000240DC4251777D17F98FC98FDCC2828002
:10428000B717024023800702238007020547630611
:10429000E50011476306E50082802380A702828043
:1042A00015472380E7028280371702401C53C98FCD
:1042B0001CD3828001C9371702401C53A166D58FD9
:1042C0001CD38280B71602409C5261777D17F98F0C
:1042D0009CD28280371702405C43A146B18B638138
:1042E000D706B7177A00938707201CC137160240FC
:1042F0005C42370700201307870A9183BD8BBA976A
:1043000094231C41B3D7D7005CC15442A1829D8A3B
:10431000BA969422B3D6D70014C55442AD829D8A72
:10432000369718239386C184B3D7E7005CC55842FB
:1043300039830D8B36971823B3D7E7021CC98280C7
:104340005C435843C166C983758FB7F6FF1F03A648
:10435000C6709166BD8BF18E890795E6C54601460C
:104360006393D700C94731EF3747024003270780DF
:10437000418B39C337177A0013070720B387E70249
:104380002DD685839DB78946638DD700BD46638C46
:10439000D700C146638CD700C546638CD700014661
:1043A000D9B7C947EDBF0546B54775BF0146BD47FB
:1043B0005DBF0146C14745BF37173D001307079052
:1043C00075BFB7150240D855C166758FD45521CB3E
:1043D0009182BD8A37177A00850613070720335765
:1043E000D702D455A182BD8A89EE95463307D702FC
:1043F0000583B7160240D456BD8A85063357D702C7
:10440000B5BF85456394B600E546CDB7BD45639617
:10441000B600D1463387E602E9BF8906E5BFBD8A0B
:1044200037177A00850613070720C9BF99C53717C4
:1044300002405C4BC98F5CCB8280B7170240D84BDF
:104440001345F5FF798DC8CB828099C53717024097
:104450001C4FC98F1CCF8280B7170240984F13455D
:10446000F5FF798D88CF828099C5371702405C4F60
:10447000C98F5CCF8280B7170240D84F1345F5FF34
:10448000798DC8CF828099C5371702405C47C98FA4
:104490005CC78280B7170240D8471345F5FF798D76
:1044A000C8C7828001C9371702401C53C166D58F27
:1044B0001CD38280B71602409C5241777D17F98F3A
:1044C0009CD282809357550005476399E700B71740
:1044D00002409C4333D5A700058982800947639633
:1044E000E700B71702409C53F5B7B7170240DC53FB
:1044F000D5B7373700408357078089C5C98F231048
:10450000F78082801345F5FFE98FD5BFB7370040AC
:1045100003D74780136707012392E78082803737EC
:10452000004083574780C207C183BD9BC207C18338
:104530002312F7808280B737004093870780962F39
:104540009A2F131607014182E39BE6FEB73700401E
:1045500093870780D62FDA2F131507014181E39B3C
:10456000E6FE37370040130707800E2F162F93976C
:104570000601C183E39BD5FE630DF600373700408B
:1045800013070780522F562F139506014181E31B15
:10459000D6FEC2075D8D8280EFB29FC52A84EFF000
:1045A000FFF613570401B73700404204239CE7800D
:1045B0004180239E8780EFF09FF66FB0BFC5EFB2BA
:1045C0003FC32A84EFF09FF413570401B73700402C
:1045D0003D8B42042394E780418023968780EFF04F
:1045E0001FF46FB03FC337370040130707805E23C7
:1045F00093F70702EDDF828037370040835747800B
:1046000013070780C207C183DD9BC207C1835EA376
:104610005E23A18BF5DF8280B737004003D7478048
:104620001345F5FF698F2392E7808280373700407A
:104630008357478003570780C207698FC18309C723
:104640007D8D3335A0008280014582806FF0DFFCD4
:10465000B787014023A0070023A2070023A4070077
:1046600023A6070023A2070223A407023707C000DE
:1046700023A607021307F77F98DF23AE0702828085
:1046800054411C45378601405842D58FE1769386C8
:104690000610758FD98F5845D98F1841D98F184971
:1046A000D98F5829D98F5CC28280378701405C43FB
:1046B00009C593E707105CC3828093F7F7EFE5BF66
:1046C000B78701409843719B98C39843498F98C31B
:1046D0008280B787014088430D8982801C413787DB
:1046E00001401CC754475C41104593F60680D18FAA
:1046F000D58F5445D58F1449D58F5CC782801C4116
:10470000378701405CD35C411CD754571C4550454A
:1047100093F686F0D18FD58F1449D58F5449D58F14
:104720005CD78280B787014003A507088280B787DE
:104730000140DC5B7D8D3335A0008280B78701406E
:1047400088DF82801E210D6713070704B6217D8F45
:104750009E21D58FD621D58FF621D58F9625D58F41
:10476000B625D58FD625D58FF625D58FD98F1EA105
:104770005E2D7D771307F77FF98F5EAD9E291EA909
:1047800082801E2189C593E707041EA18280C2078B
:10479000C18393F7F7FBC207C183C5BF4EA58280D3
:1047A0004A2582800A256D8D3335A000828037F737
:1047B000FF1F032747701E21B736014011833D8B31
:1047C000C2077117114303D845009221C183938812
:1047D00006C06363E3066306150393860640630A17
:1047E000D50037570140930607C06304D50063170F
:1047F000E5040967D98F93F7F7F8C207BA21C18397
:1048000001A8BA2193F7F7F85D8F420741838967C2
:10481000D98FFA2193F7F7CFC207C183D98F1EA191
:1048200023160503B737014012B5138707C0631578
:10483000E5069C251EB989A8E30F15FB3707004044
:10484000E30BE5FA13070740E307E5FA37170040E3
:1048500093060780E301D5FA930607C0E30DD5F868
:10486000B736014093860640E307D5F8B7560140B6
:10487000938806C0E30115F9E30FD5F66319E50047
:104880001EA12316050312B585475EA98280130772
:104890000740E307E5FEB5BF93870740E30BF5F854
:1048A000B7570140138707C0E305E5F8E31EF5FCA1
:1048B00049B71E294A25ED8F4205418189C76D8D73
:1048C0003335A00082800145828093C5F5FFC20583
:1048D000C1810EA98280EFB2BF911629F577FD172D
:1048E000FD8EFE21DA250111D58F1EA95625FD77F3
:1048F0009387379FFD8EDE212A84AE84D58F96253F
:10490000D58FB625D58F5EA55E29C207C18393F7E3
:10491000F7CFD98F5EA96800EFF0DF9BB747014062
:1049200093870780631EF402E2476547B387E70277
:104930009840930640060A07B3D7E70233D7D70259
:10494000B3F7D7021207920793872703B3D7D7028B
:10495000BD8BD98FC207C1831EA405616FB09F8B29
:10496000D247E1B75E2589C50967D98F5EA58280E8
:1049700079777D17F98FDDBF13F7F50F854715831D
:10498000B395B7006319F7009307C500984301CEAC
:104990004D8F98C38280894693074501E318D7FE5F
:1049A00093070501E5B793C5F5FFF98D8CC38280A8
:1049B00093F5F51F4EA182804A211375F51F828061
:1049C0000A216D8D3335A000828093F6F50F0546E0
:1049D00095822A87B317B6006391C602562533F530
:1049E000F6001E23C207C18301C9A1810547331701
:1049F000B700F98F3335F000828009466394C60012
:104A00001629F1BF5629E1BF83A7818437177A00A1
:104A100013070720B3D7E70293F7F70F2380F19A24
:104A20001307803EB387E702239FF1988280B7F790
:104A300000E0D8438146799BD8C303C7019A330667
:104A4000A70290CBD4CB98431367070198C3984330
:104A50001367170298C3D843058B75DF9843799B7A
:104A600098C38280B7F700E0D8438146799BD8C3CA
:104A700003D7E1993306A70290CBD4CB98431367B1
:104A8000070198C398431367170298C3D843058B4F
:104A900075DF9843799B98C38280757122C726C5BC
:104AA0004AC34EC182FE86FC8AFA8EF892F696F4CC
:104AB0009AF29EF0A2EEA6ECAAEAAEE8B2E6B6E45E
:104AC000BAE2BEE042FE46FC4AFA4EF852F656F40E
:104AD0005AF25EF062EE66EC6AEA6EE872E603A5F0
:104AE00081859305505276E47AE27EE0EFF0FFEDA7
:104AF0003DC503A58185EFF03FEC03C7C19993073E
:104B0000F0031375F50F63F4E700238E019803C7D4
:104B1000C199938741C193041700BA9793F4F40F96
:104B200088A3238E9198A947631BF50213060004FE
:104B30008145138501ACEFB06FF22686938541C1A4
:104B4000138501ACEFB0CFED13060004814513854A
:104B500041C1EFB0AFF0238E0198EFB05FBE3A4491
:104B6000AA441A498A497670E6705671C67136723F
:104B7000A672167386737664E6645665C6653666F5
:104B8000A666166786677278E2785279C279327AB9
:104B9000A27A127B827B726CE26C526DC26D326EB5
:104BA000A26E126F826F496173002030EFB24FE442
:104BB0002A84116579718545110502C602C8EFF096
:104BC000DF8893070020FC82B71401408D473ECC5C
:104BD0004C08E147138504803ECEEFF08FA6930783
:104BE0000040FC824C089147138504803ECEEFF0D4
:104BF0004FA522D003A58185B7070C000C103ED429
:104C000002D223160102EFF01FCD03A581850546D0
:104C100093055052EFF05FD683A7418568005C860C
:104C20008547DC865C873EC8EFF04FDA03A58185B7
:104C30008545EFF03FD345616FB0CFDDEFB2AFD91F
:104C40002E893284814463C5840022856FB0EFDBF6
:104C500003A5818593050004EFF09FD675D9B307AE
:104C600099008385070003A581858504C205C1815C
:104C7000EFF01FD4C9BFAA8703A50185138741C5DB
:104C8000AA9763EBE7003787002013070780636567
:104C9000F70023A8F18482807D55828093577501A7
:104CA00093F7F70F938617F80547635305007D5771
:104CB00079466345D60463D80600FD576383F60042
:104CC00001473A858280B70580001386F5FF698E1B
:104CD0004D8ED94563D9D5009387A7F6B317F60053
:104CE0003307F702F9BFB7074000B3D7D740B297F1
:104CF0005D46B306D640B3D7D700DDB7411106C62F
:104D0000EF10B046B240410182809316850193575F
:104D10008501D58FC16613578500938606F0758F80
:104D2000D98F22053707FF00798D5D8D8280B70707
:104D300010000111FD1733F8B70093D84601F58F25
:104D400022CC13D44501139737000E084AC84EC62B
:104D50009357D6019359D50113D9F5011374F47FF4
:104D600093F8F87F06CE26CAFD82B3E90901D98FF0
:104D70009315350013183600330714416304D9180E
:104D8000635EE010638808209306F07F6306D452C8
:104D900093068003854463C9E602B7068000D58F79
:104DA000FD4663C7E64293060002998EB394D7008E
:104DB0003356E800B316D800D18CB336D00033D7C1
:104DC000E700D58CB389E940B3849540B3B795002B
:104DD000B389F940B707800033F7F9006308072467
:104DE000FD17B3F9F9006386092A4E85EF10B05418
:104DF000130785FF93060002B387E640B3D7F4009C
:104E0000B399E900B3E73701B394E400634587320F
:104E1000018F0507998E3396D400B3D9E400333659
:104E2000C00033663601B396D700B3E4C600B3D9E9
:104E3000E700014493F7740081CF93F7F400114722
:104E40006388E70093874400B3B49700A699BE84B3
:104E5000B7078000B3F7F9006387072805049307B5
:104E6000F07F6300F41CB70780FFFD17B3F7F9006C
:104E70001397D7018D80A607458FB1831374F47FF4
:104E800052047E095D8C33642401F240A2856244A1
:104E9000D2444249B2493A8505618280630F0710C6
:104EA000338788406318043033E5B900630E052664
:104EB0001305F7FF630E05481303F07F630A67428B
:104EC0001307800385446346A7022A877D46634013
:104ED000E64413060002198EB394C90033D5E500E9
:104EE0003396C500C98C3336C00033D7E900D18C66
:104EF000998FB304984033389800B38907414684AA
:104F00003689C9BD6359E01263900810B3E6070102
:104F1000638F06201306F7FF630506369306F07FBE
:104F2000630ED7441307800385466346C702328762
:104F3000FD4663CBE63813060002198EB396C70010
:104F40003355E8003316C800C98E3336C00033D756
:104F5000E700D18EBA99B387B600B3B6D700BE8446
:104F6000B699B7078000B3F7F900E9C305049307C2
:104F7000F07F6308F40AB70780FFFD17B3F7F90065
:104F800013D714008588458F9394F701D98C93D952
:104F900017004DB5B3E60701638B06189306F7FFBC
:104FA000638106301306F07F630FC7141307800375
:104FB0008544E34BD7E03687E5B313071400137736
:104FC000E77F6315071CB3E8B90033E707016310F7
:104FD000042A638B0838630C073AB384054133B75E
:104FE00095003386F940198E37078000718F630171
:104FF0000740B305B840B38737413338B800AE84B3
:10500000B389074136893DB59306F07F630DD40E11
:10501000130680038546E340E6F4B7068000D58F8B
:1050200001BF1304F07F8147014799BD13F7740056
:10503000E31507E089AA6307071033878840630DEB
:10504000041A9306F07F638DD82A130680038546E1
:105050006349E602B7068000B3E9D900FD4663C69E
:10506000E63613060002198EB396C90033D5E50063
:105070003396C500C98E3336C00033D7E900D18ED0
:10508000BA973698B336D800C284B389F6004684FE
:10509000C9BD2685EF10302A13078501FD46E3DBE5
:1050A000E6D4930785FFB397F40063498716B304EA
:1050B00087401387140063DBE634851493060002EF
:1050C000B3D49700630BD700930600043387E64000
:1050D000B397E700B337F000DD8C13F77400014499
:1050E000E31D07D44DA093D734001397D90193063D
:1050F000F07F5D8F93D73900630FD400B207B1837F
:105100001374F47FB5BB0E059397D901135735007F
:105110005D8F93D739005D8F09D701491304F07F64
:10512000B70708000147A9BBC285BE89368993D756
:1051300035003A845DBFB70980FFFD19198CB3F9BA
:105140003701CDB99306140013F7E67F6DE333E71B
:10515000B9006311041E630A072433E70701630DD6
:1051600007242E98CE97B335B800B389B700370718
:10517000800033F7E900C28419C7B70780FFFD1725
:10518000B3F9F9000544A685228755B7B3840541D4
:1051900033B795003386F940198E37078000718F39
:1051A00045EF33E7C400B289E31F07C20149014458
:1051B0008147F9B11305F07F638CA81213068003B1
:1051C0008544E348E6D237068000B3E9C900FDB95B
:1051D000930607FE13060002B3D6D700630AC70082
:1051E000130600043307E640B397E7003368F8007E
:1051F000B3340001D58CC9BEB3E6B9006382061A88
:105200001305F7FF3DCD9306F07F630BD70E130711
:1052100080038546E347A7E62A8789B5B70680FF5E
:10522000FD16F58F198C1397D7018D83C1BD130718
:10523000F07FE388E6DE33870501CE97B335B7000C
:10524000AE9705839394F701D98C1D8B93D91700E2
:105250003684E31407BE05BFB305B840B3873741B2
:105260003338B800AE84B38907413689ADBE639C3C
:1052700008126315071801491304F07FB7070800E7
:1052800001B12E98CE97B335B800B389B700B707F0
:105290008000B3F7F900C2840544E38907D80944C4
:1052A000D9B933880541B387F940B3B50501C28444
:1052B000B389B740054439BE0E050D811397D90156
:1052C000498F93D7390081BD130607FE930600026C
:1052D00033D6C700630AD700930600043387E6403D
:1052E000B397E7003368F800B3360001D18EA5B15B
:1052F0000E061397D7010D82518F8D83368921BDFC
:105300000E061397D7010D82518F8D8329B5130691
:1053100007FE1305000233D6C9006309A700130571
:1053200000043307E5403397E900D98DB334B0006A
:10533000D18CC1B671D733E80701E31008DE0E0542
:105340009397D9010D813367F50093D73900E1B305
:10535000B305B840B38737413338B800AE84B3895A
:10536000074136890544BDB4E30207E40E061397EE
:10537000D7010D82518F8D83368949B3931735003C
:105380008D831397D9015D8F93D7390069B3931734
:1053900035008D831397D9015D8F93D73900B9BB41
:1053A000C285BE8969B341DF8DBB0E061397D70155
:1053B0000D82518F8D8399B30E059397D9010D817D
:1053C0003367F50093D7390015BB130607FE930624
:1053D000000233D6C9006309D7009306000433875F
:1053E000E6403397E900D98DB336B000D18E51B97C
:1053F00033E7C400B289E31807D84DBB0E061397F4
:10540000D7010D82518F8D83368931B39306000207
:10541000998E014639B4797193D7450122D426D2A9
:105420004AD056CA5EC69394C50006D64ECE52CC1C
:105430005AC862C493F7F77F2A84B28B3689B18049
:1054400093DAF501638C07101307F07F6387E71485
:105450008E04135BD501336B9B0037078000336BE1
:10546000EB00131A3500938917C08144014C935700
:1054700049011314C90093F7F77F31801359F901DB
:10548000D5C31307F07F6384E7080E0413D7DB014D
:10549000418F938717C037048000598C93983B0045
:1054A000B389F94001463D47B3C62A01636897189E
:1054B000176700001307C7E78A04BA949C40BA979D
:1054C00082871D8F13068003635CE6408147014697
:1054D0000147B2502254D207D18FFE06D58F925485
:1054E0000259F249624AD24A424BB24B224C3A85A7
:1054F000BE85456182809307F07F01460147D1BF99
:1055000081469307F07F370608000147D9B7B36893
:105510007401938919806399081093E4240001446D
:10552000094651B7B3687401638B080E63060436ED
:105530002285EF104060AA87930655FF7547938830
:1055400087FF158F3314140133D7EB00598CB398B0
:105550001B01CE979389373F0146B1B733EBA400C7
:1055600063090B0C638B04302685EF10C05C2A871F
:10557000930655FFF547130A87FF958FB3944401AF
:10558000B357F40033EB9700331A44019307D0C0AC
:10559000B389E7408144014CD9BD33EBA4006319C2
:1055A0000B06014AA1449309F07F094CC9B5328C1E
:1055B00089476302FC3E8D47E304FCF48547CA86B5
:1055C000E306FCF09387F93F6350F02213F778006D
:1055D0006319073A37070001618F19C7B70700FF42
:1055E000FD177D8C938709401307E07FE345F7F0B3
:1055F00093D838001317D40113169400336717019A
:10560000318293F7F77FF1B556895A84D2884DB726
:10561000268B2A8AB1449309F07F0D4C89BD93E40F
:1056200014000144054641B593E43400DE880D467C
:105630009DBD014A91448149054C15BD63656423B4
:1056400063018B225283FD19DA87014A1317840004
:105650001355070133D4A70213D68801598E1318A6
:105660000601135808019395880013570301B3F7F7
:10567000A702B3088802C207D98F63F81701B2974F
:105680001307F4FF63F9C7243A84B3871741B3D8EB
:10569000A702131703014183B3F7A702B30F18033F
:1056A000C2075D8F6378F70132979387F8FF637FB6
:1056B000C720BE884204C162336414011383F2FF21
:1056C000B3786400935E040113DE050133F36500D3
:1056D000330F13033307F741B3081E0393570F012A
:1056E000B38F6E02FE98C697B38ECE0363F3F701B5
:1056F000969EC16FFD1F93D80701B3F7F701C2074C
:10570000337FFF01F698FA97636B1713630717133C
:10571000B307FA4033071741333AFA0033074741DA
:105720006303E624B358A70293DE07013377A70289
:10573000330F1803420733E7EE00637BE70132972C
:10574000938EF8FF6367C7246375E725F9183297CE
:105750003307E741B35EA702C207C1833377A702CD
:105760003308D8034207D98F63FB0701B297138729
:10577000FEFF63EEC72063FC0721F91EB297C20843
:10578000B3E8D8011395080113DF08014181B30E76
:105790006502B38707413305AE0213D70E01330309
:1057A0006F021A952A97330EEE0363746700416502
:1057B0002A9E41687D181355070133770701420778
:1057C000B3FE0E017295769763F7A70EB297138317
:1057D000F8FF3E8863E7C71663E5A71C638EA71C26
:1057E0009A8893E81800F9BB0547E39C07CC938798
:1057F000E9413396F8003336C000B317F400D18F77
:10580000B3D8E800B3E8F80093F778003354E40025
:1058100081CF93F7F80011476388E700938748002A
:10582000B3B817014694BE88B7058000E18D85475F
:1058300001460147E39F05C8D5A8E37BFAECB30E08
:10584000BA0033BF4E01B30FCF007E97768A930F15
:10585000F4FF6377E60663601711638CE80E7E84BD
:1058600045BDE3611ADF13571A001313FB01935769
:105870001B003363E3007E0AD1BBEF10C02B9306FD
:105880005501F14713070502E3D6D7CE930785FFED
:10589000331BF400014ADDB95E85EF10C029930681
:1058A0005501714793070502E35AD7C8611581482E
:1058B0003394AB0079B9E396A7F2E30507D039B783
:1058C000E31FE6F8E3090FF87E8499B5E373F7DF89
:1058D000F9183297C5B3E3F917DB7914B29775B3AA
:1058E0007D46E356E6F005561D8E930700023356BB
:1058F000C4006308F7009387E943B317F400B3E8E3
:10590000F800B3381001B3E8C80013F77800014677
:105910001DC393F7F800114701446389E70093879B
:105920004800B3B8170133341001BE881316940031
:105930001317D401318293D8380033E7E800814748
:1059400049BE9A88E31FA8E8E30EB7C693E818009B
:1059500095B9E3F6FEF0AE9E33BFBE00329F7914D8
:10596000768A7A9775B3130720C09387F93FFD585D
:10597000E3CCE9E613874800B33817014694BA88A8
:1059800091B913F7F8001146E306C7C4E5B7BA8E1C
:10599000FDB3F68875BBCA869307F07F01460147C1
:1059A0000DBE139315003338B30032983E98F918A2
:1059B0009A85E30BA8F835B5E3E5E5FE9A88E31789
:1059C000B7F809B113D74501B7071000FD1713D871
:1059D00046011377F77F1303F07F33FEB700AA88E1
:1059E000F58FFD811378F87FFD820545630A670016
:1059F00063076800631407016300FE0282808280EF
:105A0000E31EE8FEB367FE00D18FB3E71701FDF791
:105A1000958D3335B0008280E392C8FE6388D5004F
:105A200071FF336E1E013335C001828001458280D3
:105A300013D84501B7071000FD1793D84601137816
:105A4000F87F130EF07F33F3B7002A87AA8EFD810B
:105A5000328FF58F93F8F87F13D5F601630CC803E6
:105A6000638DC801631508043367E300639E080271
:105A70005D8E25C235EB1DC582805D8E25E66316E1
:105A800008003363E300E30803FE639BA50099C9A4
:105A90002E8582803363E30063160304638E08035C
:105AA0000545F9D97D5582806DF379F5E5BFE38928
:105AB00008FEE397A5FEE3C508FFE34A18FDE3E10E
:105AC00067FEE316F3FCE36DDFFD0145E3E1EEFD68
:105AD0008280014571F78280D18F89E7E392A5FC2E
